:020000040800F2
:1000000000000220D50B0008410B0008430B00083C
:10001000450B0008470B0008490B000800000000D2
:100020000000000000000000000000004B0B000872
:100030004D0B0008000000004F0B0008510B00089A
:10004000250C0008250C0008250C0008250C0008CC
:10005000250C0008250C0008250C0008250C0008BC
:10006000250C0008250C0008250C0008250C0008AC
:10007000250C0008250C0008250C0008250C00089C
:10008000250C0008250C0008250C0008250C00088C
:10009000250C0008250C0008250C0008250C00087C
:1000A000250C0008250C0008250C0008250C00086C
:1000B000250C0008250C0008250C0008250C00085C
:1000C000250C0008250C0008250C0008250C00084C
:1000D000250C0008250C0008250C0008250C00083C
:1000E000250C0008250C0008250C0008250C00082C
:1000F000250C0008250C0008250C0008250C00081C
:10010000250C0008250C0008250C0008250C00080B
:10011000250C0008250C0008250C0008250C0008FB
:10012000250C0008250C0008250C0008250C0008EB
:10013000250C00080000000000000000250C00084D
:10014000250C0008250C0008250C0008550B00089C
:10015000250C0008250C0008250C0008250C0008BB
:10016000250C0008250C0008250C0008250C0008AB
:10017000250C0008250C000800000000250C0008D4
:04018000250C000842
:1001840010B5054C237833B9044B13B10448AFF3CD
:1001940000800123237010BDE8010020000000004E
:1001A4007442000808B5034B1BB103490348AFF37D
:1001B400008008BD00000000EC010020744200082B
:1001C40053B94AB9002908BF00281CBF4FF0FF31BA
:1001D4004FF0FF3000F074B9ADF1080C6DE904CEB6
:1001E40000F006F8DDF804E0DDE9022304B070470E
:1001F4002DE9F0478C460446089E002B4BD18A42D9
:10020400154667D9B2FA82F24AB1C2F1200701FA5F
:1002140002F320FA07F7954047EA030C94404FEAAB
:10022400154EBCFBFEF71FFA85F80EFB17C307FB40
:1002340008F9210C41EA0343994509D9EB1807F160
:10024400FF3180F01C81994540F21981023F2B4413
:10025400A3EB0903B3FBFEF00EFB103300FB08F124
:10026400A4B244EA0344A14209D92C1900F1FF3392
:1002740080F00781A14240F2048102382C4440EA14
:1002840007400027641A1EB10023D440C6E9004386
:100294003946BDE8F0878B4209D9002E00F0EC8086
:1002A4000027C6E9000138463946BDE8F087B3FAAD
:1002B40083F7002F48D18B4202D3824200F2FB80A5
:1002C400841A61EB030301209C46002EE0D0C6E9AA
:1002D400004CDDE702B9FFDEB2FA82F2002A40F0F8
:1002E4008F800127491B4FEA15481FFA85F9B1FB96
:1002F400F8FE08FB1E1109FB0EF04FEA144C4CEA01
:100304000143984207D9EB180EF1FF3102D298420B
:1003140000F2CD808E461B1AB3FBF8F008FB1033B5
:1003240009FB00F9A4B244EA0344A14507D92C19F6
:1003340000F1FF3302D2A14500F2B6801846A4EBC7
:10034400090440EA0E409EE7C7F12005BB4022FAAB
:1003540005FC4CEA030C21FA05F44FEA1C4EB4FBED
:10036400FEF91FFA8CF80EFB194420FA05F3B94084
:1003740009FB08FA19430B0C43EA0444A24502FAA8
:1003840007F200FA07F30BD91CEB040409F1FF3060
:1003940080F08880A24540F28580A9F10209644476
:1003A400A4EB0A04B4FBFEF00EFB104400FB08FAB5
:1003B40089B241EA0444A24508D91CEB040400F1C3
:1003C400FF316BD2A24569D90238644440EA09403E
:1003D400A0FB0289A4EB0A044C454146CE4654D303
:1003E40051D0002E69D05A1A64EB0E0404FA05F5B4
:1003F40022FA07F3FC401D43C6E90054002747E7EF
:100404009540C2F1200321FA03F04FEA1548B0FBEE
:10041400F8F71FFA85F908FB170024FA03F3914053
:1004240007FB09FC0B43190C41EA00418C4504FA13
:1004340002F407D9691807F1FF3031D28C452FD95E
:10044400023F2944A1EB0C01B1FBF8F008FB101C9E
:1004540000FB09FE99B241EA0C418E4507D969189F
:1004640000F1FF3318D28E4516D902382944A1EB86
:100474000E0140EA07473AE73746304608E70F4699
:10048400E6E61846FBE64345ABD2B8EB020169EB5E
:100494000C0201389646A4E71846E8E7084695E7B3
:1004A4000746CFE781467BE702382C4447E7AEF1A5
:1004B400020E2B442FE7384607E73746E8E600BF2D
:1004C400704700BF10B592B01022002108A803F0B5
:1004D4000EFE1422002101A803F009FE02224FF4AB
:1004E40080030C21CDE90C23C0230420CDE90E1395
:1004F40008230124CDE9100306A8CDE9064401F040
:1005040007FF0F230021CDE901344FF4A053CDE9B7
:1005140003134FF4805301A8059302F0C9F812B0F5
:1005240010BD0000F0B5002493B000F09FFBFFF76E
:10053400C9FF7C4B04941A6B7B4842F080021A6317
:100544001A6B7A4D02F080020492049A05941A6B95
:10055400774E42F001021A631A6B07AF02F00102F0
:100564000592059A06941A6B42F002021A631B6BF9
:10057400C0E9054403F002030693069B6D4BC0E9F2
:1005840000346D4BC36000F02BFC6C48046000F039
:100594002BFD6B4A6B4B2846C5E900234FF480437F
:1005A400C5E90244C5E90434C5E906442C6200F0F7
:1005B40019FF654B6548036002F036F9644B6548E2
:1005C400036000F0FDFB03F019FB00F019F920466D
:1005D40000F0E2F800F0EEF81421084600F0FAF911
:1005E40096E8060001235C4800F0DEF9282108465D
:1005F40000F0F0F996E806000123584800F0D4F919
:1006040000F0D8F81E21084600F0E4F94FF47A709F
:1006140000F058FB524A07AB10685168128903C3B3
:100624001A806123ADF83040CDE90A344FF0FF342D
:100634000A2340F20112CDE90134A02110230097CE
:10064400284600F07BFF23460122A021284601F022
:1006540011F9344618B91921084600F0BBF994E899
:1006640006000123384600F09FF94FF47A7000F039
:1006740029FB0A254FF0FF330AAECDE9015340F2BE
:100684000112A02100961023284800F0E7FF2A4613
:100694003946304603F01CFDA0BB324B0DAA03F1D2
:1006A400080C154618685968083303C563452A467B
:1006B400F7D1186899889B792860A980AB710021CB
:1006C400084600F087F994E8060001230DA800F01D
:1006D4006BF94FF47A7000F0F5FA2821084600F01F
:1006E40079F994E806000123304600F05DF900F042
:1006F40061F84FF47A7000F0E5FA0A21384603F005
:10070400CBFAF6E7184B0DAA03F1100C154618683E
:100714005968083303C563452A46F7D11B782B7003
:10072400CDE700BF00380240D80600206C06002048
:1007340000000020000006502C4A00082C0600206F
:1007440000540040A086010000080650C80600209E
:1007540000300240C0060020F8490008FD490008A6
:10076400024A00080C4A00081B4A000870470000AF
:100774007FB501230A2106AA02F8010D0092CDE9F2
:10078400013100227821034800F0D8FE07B05DF85B
:1007940004FB00BF6C06002000230549021C18BF9F
:1007A400012252425A540133B3F5826FF6D1704795
:1007B4000A0200207FB500240F4E104DA4F1500012
:1007C400C0B2FFF7D5FF0020FFF7D2FF1020FFF7DC
:1007D400CFFF82236422CDE9013203FB046340226C
:1007E4000093782101232846013400F0A7FE082C49
:1007F400E4D104B070BD00BF0A0200206C060020E2
:1008040008B5642000F05EFAAE20FFF7B1FF2020A7
:10081400FFF7AEFF1020FFF7ABFFB020FFF7A8FFF4
:10082400C820FFF7A5FF0020FFF7A2FF1020FFF765
:100834009FFF4020FFF79CFF8120FFF799FFFF20D7
:10084400FFF796FFA120FFF793FFA620FFF790FF85
:10085400A820FFF78DFF3F20FFF78AFFA420FFF7B2
:1008640087FFD320FFF784FF0020FFF781FFD52007
:10087400FFF77EFFF020FFF77BFFD920FFF778FF1B
:100884002220FFF775FFDA20FFF772FF1220FFF72F
:100894006FFFDB20FFF76CFF2020FFF769FF8D203F
:1008A400FFF766FF1420FFF763FFAF20FFF760FF39
:1008B4000020FFF771FFFFF77DFF01200022024BAC
:1008C40058711A805A8008BD04020020812830B56E
:1008D40017D83F2915D80B4B1B7913B1B2FA82F202
:1008E40052098223CC0803FB040001F00704012110
:1008F400054DA1402B5649B2012A0CBF0B438B4333
:100904002B5430BD040200200A0200202DE9F04FD0
:1009140087B0074606A800E906009B46214B9DF8D0
:1009240010901C88019304EB0902812A37DC5B8850
:100934009DF811A0009303EB0A023F2A2FDC002547
:10094400A7F120020AFB02F30293AA4506D8019BF1
:100954004C441C80384607B0BDE8F08F0026029B4B
:1009640005995A1931F812300393009B05EB0308DB
:100974005FFA88F8B14501D80135E6E7039B3019E1
:1009840003FA06F2130458BFBBFA8BF2C0B24CBF91
:100994005A4652094146FFF799FF0136EAE7002714
:1009A400D8E700BF04020020F7B56D461F4685E86E
:1009B4000600461E16F8014F44B195E8060020468D
:1009C4003B46FFF7A3FF3478A042F3D0204603B0A0
:1009D400F0BD0000014B18805980704704020020CC
:1009E400002182B00B4B00915A6C42F480425A644D
:1009F4005A6C02F480420092009A01911A6C42F0FF
:100A040080521A641B6C03F080530193019B02B063
:100A1400704700BF003802400268094B82B09A4216
:100A24000BD100230193074B1A6B42F480521A63D3
:100A34001B6B03F480530193019B02B0704700BF0A
:100A440000300240003802400268094B82B09A42EA
:100A54000BD100230193074B5A6B42F010025A63E7
:100A64005B6B03F010030193019B02B0704700BF5E
:100A74000000065000380240002382B00193064B68
:100A84005A6B42F020025A635B6B03F0200301931C
:100A9400019B02B0704700BF0038024030B50446E5
:100AA40089B01422002103A803F021FB2268144B0F
:100AB4009A4223D10025134C0195236BC02243F0A5
:100AC40002032363236B012103F002030193019BBF
:100AD4001223CDE903230323CDE90513042303A93A
:100AE4000948079300F09CF90295236C43F4001322
:100AF4002364236C03F400130293029B09B030BDFA
:100B04000054004000380240000402400268094BCF
:100B140082B09A420BD100230193074B5A6B42F0E7
:100B240040025A635B6B03F040030193019B02B0E4
:100B3400704700BF00080650003802407047FEE7C7
:100B4400FEE7FEE7FEE770477047704700F0A8B87D
:100B5400014800F0DBBF00BFE01A002008B50A4BD3
:100B64000246196809B909491960694618680244B6
:100B74008A4206D903F072FA0C2303604FF0FF3067
:100B840008BD1A60FCE700BF1C060020E81E002018
:100B940000210C4B1A6842F001021A6099601A682D
:100BA40022F0847222F480321A60074A5A601A686A
:100BB40022F480221A604FF00062D960034B9A60DD
:100BC400704700BF003802401030002400ED00E000
:100BD400DFF834D0002103E00C4B5B584350043160
:100BE4000B480C4B42189A42F6D30B4A02E00023FE
:100BF40042F8043B094B9A42F9D3FFF7C9FF03F0CB
:100C040033FAFFF78FFC704700000220B44A000853
:100C140000000020E8010020E8010020E41E00207C
:100C2400FEE7000038B50E4B054618784FF47A738A
:100C3400B3FBF0F30B4A1068B0FBF3F000F0AAF832
:100C4400044658B90F2D09D8024629464FF0FF3003
:100C540000F05EF82046044B1D6038BD0120FCE71F
:100C64000C000020080000201000002008B50B4BE9
:100C740003201A6842F400721A601A6842F480620F
:100C84001A601A6842F480721A6000F02FF800208B
:100C9400FFF7C8FFFFF7A4FE002008BD003C024098
:100CA400034A044B11681B780B441360704700BF60
:100CB400180700200C000020014B1868704700BF83
:100CC4001807002037B50190FFF7F6FF0546019C91
:100CD400631C1EBF044B1B78E418FFF7EDFF401B99
:100CE400A042FAD303B030BD0C000020074A000232
:100CF400D36800F4E06023F4E0631B041B0C43F0AE
:100D0400BF6343F400330343D360704700ED00E056
:100D1400174B70B5DC684FF0FF36C4F30224C4F1FE
:100D24000705042D04F1040328BF0425062B98BFEE
:100D3400002406FA05F388BF033C21EA0303A34019
:100D440006FA04F422EA0404002843EA0403A8BFD0
:100D540000F160404FEA0313B8BF064ADBB2ABBFF1
:100D640000F5614000F00F0080F80033135470BDAB
:100D740000ED00E014ED00E0002808DB0123420947
:100D840000F01F0003FA00F0014B43F82200704703
:100D940000E100E00138B0F1807F0AD2F021064B77
:100DA400064A586082F823100020072298601A60CF
:100DB40070470120704700BF10E000E000ED00E044
:100DC40010B5044650B1437903F0FF0213B9027120
:100DD400FFF722FE01230020637110BD0120FCE710
:100DE40010B50446D0B190F8393003F0FF021BB9B6
:100DF40080F83820FFF728FED4E901302168034346
:100E04000A68606922F47E72034313430B60002076
:100E14000123E063E36284F8393010BD0120FCE76C
:100E240000232DE9F74FD1F80080DFF8B8916B4A21
:100E340038FA03F402D103B0BDE8F08F4FF0010C8F
:100E44000CFA03FC1CEA080600F0B68003254C6883
:100E54004FEA430E24F0100A0AF1FF3705FA0EF5A3
:100E6400012F6FEA050511D8876807EA050BCF68DB
:100E740007FA0EF747EA0B078760476827EA0C0C66
:100E8400C4F300179F4047EA0C074760C768BAF1EC
:100E9400020F07EA050C8F6807FA0EF747EA0C07FA
:100EA400C76016D14FF00F0C4FEAD30A00EB8A0A41
:100EB40003F0070BDAF820704FEA8B0B0CFA0BFCEB
:100EC40027EA0C0C0F6907FA0BF747EA0C07CAF874
:100ED400207007683D4004F0030707FA0EFE4EEA4F
:100EE40005050560E50067D54FF0000B4FF00F0CCA
:100EF400CDF804B0D9F8447003F0030E47F48047EA
:100F0400C9F84470D9F84470354D07F48047019707
:100F1400019F23F0030707F1804707F59C37D7F8B3
:100F240008A04FEA8E0E0CFA0EFCA8422AEA0C0C1A
:100F340044D005F58065A84242D005F58065A842F5
:100F440040D005F58065A8423ED005F58065A842ED
:100F54003CD005F58065A8423AD005F58065A842E5
:100F640038D005F58065A84236D005F58065A842DD
:100F740014BF0925082505FA0EF545EA0C05BD60E0
:100F8400F743156814F4803F0CBF3D4035431560AA
:100F9400556814F4003F0CBF3D40354355609568D7
:100FA40014F4801F0CBF3D4035439560D568A402FE
:100FB40054BF3D403543D560013339E75D46DAE738
:100FC4000125D8E70225D6E70325D4E70425D2E78F
:100FD4000525D0E70625CEE70725CCE7003C0140F0
:100FE400000002400038024038B5044610B390F8BF
:100FF400353003F0FF021BB980F83420FFF73CFDC5
:101004000020022301220C4984F83530E06120627B
:101014006062A0630B68256823F030032B4384F8D7
:10102400370084F82D200B6084F8352084F82C00D8
:10103400E06338BD0120FCE700040650016800228B
:101044004B6913F4806310D06FF480634B612023E9
:10105400026380F83D3080F83E20036C80F83C2029
:1010640043F00403036401207047184670472DE9D8
:10107400F0410446164698468FB22568686937EAF7
:10108400000017D06B695A0516D52B68202243F44B
:1010940000732B606FF480636B610023236384F817
:1010A4003D2084F83E30226C42F004020120226488
:1010B40084F83C30BDE8F081731CDFD0FFF7FCFD01
:1010C400A0EB0800B04201D8002ED6D10023202284
:1010D400236384F83D2084F83E30226C42F02002E1
:1010E400E4E770B504460D46164623685B695B0762
:1010F40001D5002070BD2046FFF7A0FFA8B96A1CE7
:10110400F3D0FFF7D9FD801BA84201D8002DECD104
:1011140000232022236384F83D2084F83E30226C8F
:1011240084F83C3042F0200222640120E2E770B5EA
:1011340004460D4616462068436913F0400301D067
:10114400002010E04269D2060ED56FF01002426111
:101154002022236384F83D2084F83E30226C012051
:10116400226484F83C3070BDFFF7A6FD801BA842C2
:1011740001D8002DDFD100232022236384F83D20F1
:1011840084F83E30226C42F02002E8E72DE9F8436F
:10119400044690461F46089E4FEA11498DB22168C5
:1011A400B9F1010F0CBF4B698B6935EA03030CBF1E
:1011B40001230023984501D0002016E07B1CEFD0CA
:1011C400FFF77AFD801BB84201D8002FE7D1002336
:1011D40020220120236384F83D2084F83E30226CD1
:1011E40084F83C3042F020022264BDE8F88370B5F4
:1011F40004460D46164623685B691B0601D500208C
:1012040070BD2046FFF71AFFA8B96A1CF3D0FFF798
:1012140053FD801BA84201D8002DECD100232022CD
:10122400236384F83D2084F83E30226C84F83C30FB
:1012340042F0200222640120E2E700002DE9FF4190
:1012440015460268984613680B9E43F48073136036
:101254000F460A9B009600224FF001110446FFF747
:1012640095FF236838B11B68DB0502D54FF4007382
:10127400236403200AE007F0FE071F610A9A33463D
:1012840018492046FFF7F3FE18B1012004B0BDE869
:10129400F081236803905A690A9903929B69324644
:1012A40003932046039BFFF7A2FF40B1236C042B5A
:1012B40001BF2268136843F400731360E5E7B8F1D3
:1012C400010F236802D1EDB21D61DFE72A0A1A611A
:1012D4000A9932462046FFF78AFF0028E6D12368A0
:1012E400F1E700BF020001002DE9FF4198460368C1
:1012F40016461A680B9D42F480621A601A680F46FB
:1013040042F480721A604FF001110A9B009500228A
:101314000446FFF73BFF236848B11B68DB0502D591
:101324004FF400732364032004B0BDE8F081FFB2DE
:1013340007F0FE021A612A492B460A9A2046FFF753
:1013440096FE08B10120EFE7236803905A690A99D1
:1013540003929B692A4603932046039BFFF747FFAA
:1013640040B1236C042B01BF2268136843F400735B
:101374001360E7E7B8F1010F236825D1F6B21E61C7
:101384002A460A992046FFF732FF02460028E8D190
:10139400216820460B6843F480730B600A9B009518
:1013A4004FF00111FFF7F2FE23680028B5D147F092
:1013B40001071F610A9A2B4609492046FFF757FE89
:1013C400003018BF0120AFE7320A1A610A992A4691
:1013D4002046FFF70CFF0028C3D12368CEE700BFE7
:1013E4000200010070B5044608B9012070BD90F8F0
:1013F4003D3003F0FF021BB980F83C20FFF74EFBA1
:10140400242384F83D3023681A6822F001021A600C
:101414001A6842F400421A601A6822F400421A6000
:1014240001F0EAF96368414A93424DD8404A904238
:10143400DBD940492268B0FBF1F1556825F03F053E
:101444000D435560156A25F03F05013129431162AA
:10145400D169364D21F44F41AB4221F0FF0100F137
:10146400FF3048D85B00B0FBF3F0431CC3F30B031D
:10147400042B38BF04230B43D3611168D4E907302C
:1014840021F0C00103430B4313609168D4E90303C3
:1014940021F40341034321F0FF010B439360D1681E
:1014A400D4E9053021F0FF0103430B43D3601368F3
:1014B400002043F0010313602023206484F83D30AE
:1014C400206384F83E0091E71B4A90428DD9194E5F
:1014D4004FF49671B0FBF6F622687143556825F017
:1014E4003F0535434FF47A765560156AB1FBF6F142
:1014F40025F03F05A9E7A56855B903EB4303B0FB05
:10150400F3F0431CC3F30B036BB143F40043B2E7A2
:1015140019256B43B0FBF3F0431CC3F30B0313B166
:1015240043F44043A7E70123A5E700BFA0860100D9
:101534007F841E0040420F00FF083D002DE9F74361
:10154400044699460F4690460C9EFFF7B5FB94F867
:101554003D300546202B03D0022003B0BDE8F083C4
:101564000090192301223B492046FFF70FFE002873
:10157400F2D194F83C30012BEED0012384F83C30B6
:10158400236820461A68D10758BF1A6839465CBFD9
:1015940042F001021A601A6822F400621A602123E0
:1015A40084F83D30402384F83E30002323640A9BB2
:1015B400CDE900656362BDF82C3042466385638DD6
:1015C4002385254BE3624B46FFF738FE00282AD0DB
:1015D4000120C2E7FFF70BFE40B1236C042B01BFCF
:1015E4002268136843F400731360F1E7636A2768A1
:1015F4001A4612F8011B39616262628D218D013A2B
:1016040092B262857A69481E80B2520720850AD553
:1016140048B15A7802333A616362638D0239013BFF
:101624009BB221856385238D2A4631462046002BB3
:10163400D0D1FFF756FD0028CFD12268136843F4B8
:1016440000731360202384F83C0084F83D3084F850
:101654003E0082E7020010000000FFFF2DE9F04386
:10166400044687B099460D469046109FFFF724FB29
:1016740094F83D300646202B04D00225284607B0B6
:10168400BDE8F08300901923012277492046FFF733
:101694007DFD0028F1D194F83C30012BEDD00123DD
:1016A40084F83C30236829461A68D00758BF1A6862
:1016B40020465CBF42F001021A601A6822F40062FC
:1016C4001A60222384F83D30402384F83E300023FE
:1016D40023640E9BCDE900766362BDF83C3042463C
:1016E4006385638D2385614BE3624B46FFF7FCFD05
:1016F400054608B10125C1E7228D236892B90290FD
:101704005A6902929A690292029A1A6842F4007221
:101714001A60202384F83D30002384F83E3084F896
:101724003C30ABE7012A2CD11A6822F480621A609B
:1017340003905A6903929A690392039A1A6842F4CD
:1017440000721A60DFF82881238D002BE1D0032B6F
:101754006ED8012B2DD1324639462046FFF7E7FCDF
:101764000028C7D123681A69636A1A70636A01334F
:101774006362238D013B2385638D013B9BB26385AB
:10178400E2E7022A0ED11A6822F480621A601A680B
:1017940042F400621A6004905A6904929B690493AB
:1017A400049BCFE705905A6905929B690593059BB5
:1017B400C8E7022B00963B464FF000024146204604
:1017C40019D1FFF7E3FC002894D123681A6842F486
:1017D40000721A601A69636A1A70626A531C63623F
:1017E400238D013B2385638D013B9BB26385236875
:1017F4001B695370BAE7FFF7C9FC024600287FF45F
:1018040079AF23682046196821F480611960196949
:10181400636A1970636A009601336362238D4146DB
:10182400013B2385638D013B9BB263853B46C8E73F
:10183400324639462046FFF77AFC00287FF45AAF37
:1018440023681A69636A1A70626A531C6362238D7F
:10185400013B2385638D013B9BB2638523685969F2
:1018640049077FF571AFC3E7020010000000FFFFD6
:10187400040001002DE9F04F044685B098468946DE
:101884009246FFF719FA94F83D300546202B03D011
:10189400022005B0BDE8F08F0090192301224C49C5
:1018A4002046FFF773FC0028F2D194F83C30012B5A
:1018B400EED0012384F83C30236801271A68DFF84E
:1018C40010B1D20758BF1A6809F0FE095CBF42F094
:1018D40001021A601A6822F400621A60242384F850
:1018E4003D3000232364A3F58033E36222684FF084
:1018F40001111368204643F4807313604346009536
:101904000022FFF743FC236838B11B68DB0502D5CE
:101914004FF4007323640320BBE7C3F81090FFF770
:10192400CBF9A026054623685A695B69C2F34002D5
:10193400C3F3802394F83D10A02901D002B9E3B188
:101944002026236884F83D605A6912F0020F1A6851
:1019540042F400721A6027D0002203925A691C498B
:1019640003929B6901220393039B0095192320464C
:10197400FFF70CFC98B101208BE7FFF79DF9401BA2
:10198400404502D8B8F1000F01D184F83D602368C6
:101994005A695B69C2F34002C3F38023CAE784F83F
:1019A4003D6084F83C0074E76FF4806259465A61E4
:1019B4002046009519230122FFF7E8FB0028DAD11D
:1019C4000137574592D384F83D6084F83C00D2E750
:1019D40002001000F0B504468BB060B390F8BD333C
:1019E400056803F0FF021BB980F8BC2302F0E4F998
:1019F400032384F8BD33EB6B25466E4613F48073E2
:101A040055F8100B08BF236100F0F2FF0FCD0FC68D
:101A14000FCD0FC695E80300254686E80300271D71
:101A240097E80E0055F8100B00F02EFF064620B183
:101A3400022384F8BD33012550E00146206800F0FC
:101A4400DDFF30464FF0010E1C260146D4F804C0D9
:101A5400C2B2944500F101001CD800231C2619468B
:101A6400D8B2844503F1010322D80FCD6E460FC6C8
:101A74000FCD0FC695E8030086E8030097E80E0033
:101A8400206800F0FDFF0123054600B3022284F81C
:101A9400BD23D0E706FB024383F83DE083F83C20F6
:101AA400A3F8422083F83F10C3E911111965CFE769
:101AB40006FB004282F8FD1182F8FC0182F8FF1156
:101AC400C2F80412C2F80812C2F81012C8E784F867
:101AD400380084F8BD33206801F0EEFA28460BB0D4
:101AE400F0BD90F8BC3310B5012B04460CD0012393
:101AF40080F8BC33006801F0D3FA206800F072FF6C
:101B0400002084F8BC0310BD0220FCE72DE9F04F4F
:101B1400D0F800B087B00446584601F008FB0290A4
:101B2400002840F01A81206801F0D2FA002800F061
:101B34001481206801F0CCFA860748BF2268206827
:101B440042BF536903F00203536101F0C1FA050374
:101B540000F10681206801F0BBFA40030BD5206830
:101B640001F0C2FA2546814600260BF51068B9F14A
:101B7400000F40F0BE81206801F0AAFA00280DDAB7
:101B8400DBF80438204623F00103CBF8043802F0D4
:101B94009BF92268536903F000435361206801F004
:101BA40097FA00050BD5DBF80838D90702D520468B
:101BB40002F072F92268536903F4006353612068E8
:101BC40001F086FAC20435D50BF500656B68102167
:101BD40023F001036B60206800F028FF4FF67F318B
:101BE40060680BF51063029A904240F01882EB692A
:101BF40043F00113EB61236B002B00F02382D5F833
:101C0400843043F00B03C5F884306B6C43F00B0352
:101C14006B64DBF8003804F5717223F4FE63CBF8CF
:101C24000038217C206801F0A1FA2268536903F48A
:101C340080535361206801F04BFA830416D5206861
:101C440001F079FA206800F0DFFFE060256800F019
:101C5400CDFD227B0146284600F050FE204602F0CE
:101C640008F92268536903F400535361206801F0B2
:101C74002FFAC7062BD52268936923F010039361CA
:101C8400DBF82050C5F34343022B05F00F0640F068
:101C9400E48147F6F0731D4214D01C2303FB06466F
:101CA400C5F30A152A46D6F80812584601F086F9F3
:101CB400D6F808322B44C6F80832D6F814321D443C
:101CC400C6F814522268936943F0100393612068A4
:101CD40001F0FEF9060707D5204602F0C6F822688F
:101CE400536903F008035361206801F0F1F9C50258
:101CF40008D50021204602F0EFF82268536903F466
:101D040080135361206801F0E3F9800208D50021B3
:101D1400204602F0DDF82268536903F4001353618E
:101D2400206801F0D5F9410007D5204602F0D8F823
:101D34002268536903F080435361206801F0C8F9B5
:101D440042070AD523685D686B0702D5204602F076
:101D5400CBF8226853682B43536007B0BDE8F08F7B
:101D6400206801F0B9F900258046DFF810930BF5DF
:101D74003066B8F1000F3FF4EDAE18F0010F00F03B
:101D8400B480EBB219462068039301F0B5F910F062
:101D9400010F0746039B53D001214FEA451A06EB76
:101DA4000A02916022682169106C02F53062924443
:101DB4000129DAF8082058D1110714D5484505D966
:101DC400100444BF4FF40043CAF80830204602F020
:101DD40035F804F571720121206801F0C7F9082370
:101DE400CAF808302CE0910601D52023F8E712F058
:101DF400280F25D1484504D9100402D54FF40043D7
:101E0400EEE71C2202FB0542DAF81010D2F80402B5
:101E1400C1F31201411AC2F81412D2F8081208448C
:101E2400C2F808021946204602F00EF845B9D4F863
:101E340010322BB904F571720121206801F096F972
:101E4400380737D5236820691A6C4FEA451A03F519
:101E5400306353440128996816D14A4517D90904B7
:101E640044BF4FF40041996011E08349884206D190
:101E74001104C3D4920644BF2022CAF8082019468C
:101E8400204601F0E1FFDBE77B488242E7D02046B1
:101E9400039201F0D3FF039A4A4507D92169012926
:101EA40004D104F57172206801F060F90823B2448A
:101EB400CAF80830F80642BF102206EB45139A60B0
:101EC400B9060BD52169012904D104F57172206882
:101ED40001F04CF9202206EB45139A60BA0442BF84
:101EE4004FF4005206EB45139A6001354FEA580847
:101EF4003FE719F0010F72D05FFA86FA5146206865
:101F040001F003F9C307074624D50120DBF8343870
:101F140006F00F0200FA02F223EA02030246CBF8AB
:101F2400343808EB4613986023695146834202BF54
:101F3400D5E911239B18AB64204601F08EFF21697B
:101F4400012907D136B9236D23B904F571722068CC
:101F540001F00CF9380742BF082208EB46139A60D7
:101F6400F90642BF102208EB46139A607A0642BF74
:101F7400402208EB46139A60BB0742BF022208EBDB
:101F840046139A603F062AD5D5E914329A4226D8D8
:101F94009B1A6A6C2168934228BF134603339B083B
:101FA400049301F5106303EB461303910593059B1A
:101FB40004999A69D5E9147392B28A4214D29F4261
:101FC4000DD80121039B06F00F0203F5006AD3F834
:101FD400343801FA02F223EA0203CAF83430013633
:101FE4004FEA59091C35C2E59F42EAD9002FE8D0CF
:101FF400FF1A6B6C52469F4228BF1F46FB1C9B086E
:102004000493237C03980093A96CBBB200F0EAFE0E
:10201400AB6C3B44AB646B6D1F446F65C7E7996061
:102024001A68203322F4001243F8202CC3F8E81174
:10203400D3F8E02122F40012C3F8E021029A01321D
:102044000292D0E56B6943F4005343F02B036B61B8
:102054002B6943F00B032B61DBE5062B7FF432AED7
:10206400082204F57171584600F0A8FF1C23C5F33B
:102074000A1503FB064620E60A31544F0A30544F32
:1020840090F8BC2310B5012A04460BD0012280F835
:10209400BC2384F83810006800F0F2FF002084F8B4
:1020A400BC0310BD0220FCE770B504461C2001F0FF
:1020B4000F05684311F0800F14BF00F13C0100F5D7
:1020C400FE7104EB000617BF01200020091986F8F1
:1020D4003D0004BF091986F8FD018A604A780D7035
:1020E400CB7002B1CD80022B04BF00230B7194F896
:1020F400BC33012B09D00123206884F8BC3300F0E1
:102104008EFD002084F8BC0370BD0220FCE71C2374
:1021140001F00F02534311F0800F10B5044618BFAD
:1021240003F13C0118440BBF03F5FE7101230023A6
:1021340009190ABF091980F83D3080F8FD310A7089
:1021440094F8BC33012B09D00123206884F8BC33F4
:1021540000F0A4FD002084F8BC0310BD0220FCE7BD
:1021640038B51C2401F00F056C4304F5FE710444DA
:10217400C4F810320023C4F80822C4F8143284F8D6
:10218400FD3184F8FC5103690144012B08BFC4F8F4
:102194000C220068DAB21DB900F0B0FD002038BD91
:1021A40000F034FEFAE71C2301F00F0103FB0101E8
:1021B400D1F81402704738B51C2401F00F056C43A4
:1021C40004F13C0104442365002363650123A264F4
:1021D40084F83D3084F83C5003690144012B08BF66
:1021E400E2640068DAB21DB900F088FD002038BD51
:1021F40000F00CFEFAE738B5436801F00F059D4284
:1022040004462CD811F0800F4FF01C031ED001227D
:102214006B4303F13C010344014483F83D20012353
:102224000D708B7094F8BC239A421AD084F8BC3396
:10223400206800F0D1FE2DB904F57172217C20686C
:1022440000F094FF002084F8BC0338BD00224B4307
:1022540003F5FE710344014483F8FD21DFE7012007
:10226400F3E70220F1E738B5436801F00F029A4220
:10227400044625D81C23534311F0800F14BF03F1E7
:102284003C0103F5FE7118444FF0000515BF01230E
:1022940000230919091914BF80F83D3080F8FD3175
:1022A4008D700A7094F8BC33012B0BD00123206885
:1022B40084F8BC3300F0BBFE284684F8BC5338BD18
:1022C4000120FCE70220FAE7006870B51204446AB2
:1022D40019B922438262002070BD836A4D1E04EB4B
:1022E400134400235E1CDBB29D4205D83F312243D8
:1022F40000EB81004260EEE7403300EB83035B6850
:1023040004EB13443346EDE7036800205962704739
:102314002DE9F341044608B901203BE00368DD07D9
:1023240010D42368980745D423681A0700F19180D4
:1023340023685B0700F1AF80A069002840F00181A9
:10234400002027E0AA4B9A6802F00C02042A07D066
:102354009A6802F00C02082A0AD15B68590207D570
:10236400A34B1B689A03DCD56368002BD9D1D3E750
:10237400A04B22791A7063687BB1FEF79DFC064678
:102384009B4D2B689B03CCD4FEF796FC801B6428E2
:10239400F7D9032002B0BDE8F081FEF78DFC0646B4
:1023A400934D2B689F03BCD5FEF786FC801B6428E5
:1023B400F7D9EEE78E4B9A6812F00C0F07D09A68A3
:1023C40002F00C02082A16D15B685E0213D4884B13
:1023D4001A68950702D5E268012A9DD11868F82287
:1023E40092FAA2F2B2FA82F122698A4020F0F8014C
:1023F4000A431A6098E7E2687F4BDAB101221A6057
:10240400FEF75AFC06467A4D2B6898070CD52968C6
:10241400F82393FAA3F3B3FA83F22369934021F0E8
:10242400F80213432B607FE7FEF746FC801B02286B
:10243400EAD9AEE71A60FEF73FFC06466C4D2B68FE
:1024440099077FF571AFFEF737FC801B0228F6D998
:102454009FE76269694B7AB101221A60FEF72CFC8E
:102464000646634D6B6F9F073FF562AFFEF724FC92
:10247400801B0228F6D98CE71A60FEF71DFC06467D
:102484005B4D6B6F98077FF553AFFEF715FC801B10
:102494000228F6D97DE7564B1A6C12F0805226D1E9
:1024A400012601921A6C42F080521A641B6C03F0EC
:1024B40080530193019B524D2B6843F480732B602E
:1024C4002B68D90515D54F4B227A1A70A36803BB24
:1024D400FEF7F2FB41F288380746454D2B6F98070B
:1024E40020D5FEF7E9FBC01B4045F7D951E700268C
:1024F400E1E72B6843F480732B60FEF7DDFB0746AE
:102504002B68DA05DFD4FEF7D7FBC01B0228F7D906
:102514003FE7FEF7D1FB41F288380746344D2B6F75
:102524009B0708D5002E3FF407AF314A136C23F004
:102534008053136400E7FEF7BFFBC01B4045EED990
:1025440027E72B4DAB6803F00C03082B5ED0002368
:102554002D4E022833603ED1FEF7AEFB07462B68B2
:10256400990132D447F6C07797FAA7F74FF440326F
:10257400B7FA87F792FAA2F24FF07061B2FA82F0DA
:1025840091FAA1F1D4E90732B1FA81F11343626AF5
:1025940002FA07F7A26A3B435208013A8240134306
:1025A400E26A134C02FA01F10B436B6001233360BE
:1025B400FEF782FB054623689A013FF5C1AEFEF79C
:1025C4007BFB401B6428F6D9E3E6FEF775FBC01BD2
:1025D4006428C4D9DDE6FEF76FFB04462B689B0133
:1025E4007FF5AEAEFEF768FB001B6428F6D9D0E693
:1025F400003802400238024000004742800E474241
:1026040000700040703802406000474201283FF4E7
:10261400C1AE6868E36900F480029A427FF47CAE3C
:10262400226A00F03F0393427FF476AE626AC0F3FD
:10263400881393427FF470AEA26A00F4403393424D
:102644007FF46AAEE36A00F07060C01A18BF01201C
:10265400A0E600BF134908B58B6803F00C03042BF4
:1026640003D0082B03D0104800E0104808BD4A6886
:102674004B68496813F4800314BF0C480A48C1F33B
:10268400881118BF002302F03F02A1FB0001FDF7EF
:1026940097FD044B5B68C3F3014301335B00B0FB5C
:1026A400F3F0E3E7003802400024F40000366E0142
:1026B4002DE9F0410D46044610B90120BDE8F08132
:1026C400454B1A6802F00F028A422ED321688F0705
:1026D40033D4C80746D4404B1A6802F00F02AA420A
:1026E40069D8226851076FD4130707D53B4A21697B
:1026F400936823F4604343EAC1039360FFF7AAFF9E
:10270400364BF0229B6892FAA2F2B2FA82F203F0FC
:10271400F003D340324AD35CD840324B1860324B7A
:102724001868FEF77FFA0020C8E7CAB21A701B685F
:1027340003F00F038B42C0D1C8E7284B11F0040FFC
:102744001EBF9A6842F4E0529A600E0742BF9A682C
:1027540042F460429A609A68A06822F0F002024350
:102764009A60B6E761681D4B01291A681BD112F4FF
:10277400003FA2D09A6841F2883822F003020A434B
:102784009A60FEF799FA0746144EB368626803F03C
:102794000C03B3EB820F9ED0FEF78EFAC01B4045AC
:1027A400F3D903208AE7022902D112F0007FE0E77F
:1027B40012F0020FDDE7EAB21A701B6803F00F0390
:1027C400AB427FF47AAF8CE70449E0688B6823F46A
:1027D400E05303438B6087E7003C0240003802402B
:1027E400444A00080800002010000020014B18682B
:1027F400704700BF08000020084B4FF4E0529B686C
:1028040092FAA2F2B2FA82F203F4E053D340044AF9
:10281400D35C044A1068D840704700BF00380240B7
:10282400544A00080800002010B5044690B14379CA
:1028340003F0FF0213B90271FEF768F9022322685C
:1028440063711368002043F0040313600123637170
:10285400A06010BD0120FCE70A4B013B0FD00269C8
:10286400002AFADA0369074A43F001030361013AD3
:1028740005D0036913F00103F9D11846704703200A
:10288400704700BF410D030084B038B505AD85E83D
:102894000E000A9B0446012B25D1836B23F480335D
:1028A4008363C36823F4840323F04003C360C368D1
:1028B40023F44013C360119B012B02BFC36843F48C
:1028C4008013C360FFF7C8FF089B012B07D1A368DF
:1028D40043F00603A360A36843F02003A360BDE8AC
:1028E400384004B07047C36843F04003C360FFF747
:1028F400B3FFA36B43F48033A363E5E7022A58D103
:102904002E4B2F4A0B44934247D92E4B2E4A0B444D
:10291400934244D9A1F574032C4AA3F5105393426E
:102924003FD9A1F1837302F5C332A3F5E743A03283
:10293400934238D9264B274A0B44934235D9264B28
:1029440002F592220B4402F5787293422FD9234B5D
:1029540002F5C3220B4402F52072934229D9A1F156
:10296400B77302F5B712A3F5585302F558729342A0
:1029740021D91B4B02F512220B4402F5F862934253
:1029840094BF07230623C26822F47052C260C2684F
:1029940042EA8323C360002070470F23F3E70E232A
:1029A400F1E70D23EFE70C23EDE70B23EBE70A2315
:1029B400E9E70923E7E70823E5E700BF405327FFDA
:1029C400FF340C00401E1BFF3F420F007F4F1200DC
:1029D40060B6E5FE5FE3160000D3CEFEC05BB3FE37
:1029E400E05459FE836843F001038360002070477C
:1029F400836823F0010383600020704708B5C3682F
:102A0400012923F0C043C36008D1C36843F00053D5
:102A1400C3603220FEF756F9002008BD19B9C36817
:102A240043F08043F4E70120F7E70000890141F017
:102A34002001064A0161013A05D0036913F020031D
:102A4400F9D1184670470320704700BF410D0300B9
:102A54001023064A0361013A05D0036913F01003F9
:102A6400F9D1184670470320704700BF410D030099
:102A7400D0F800381943C0F800180020704700004F
:102A840084B02DE9F047044609A880E80E0000232D
:102A9400884619460C9F139E03F14002013304EB50
:102AA40082020F2B5160F7D1A36B002E72D143F435
:102AB4000013A363A36B23F40023A363A36B23F486
:102AC4008023A3630023C4F8003ED4F8003804F53F
:102AD4000065C4F800380E9B012B64D10B990029C2
:102AE4005FD12046FFF7C4FF10212046FFF79EFF69
:102AF40001462046FFF7ACFF002856D1081C18BF3A
:102B0400012000234FF0904C19464FF0006E4FF611
:102B14007F392B6104F510626B61EB61434546D14B
:102B240000214FF0904E8C464FF000684FF67F39ED
:102B340004F530628B424DD12B69012F23F480734D
:102B44002B6107D12E4B2B632B6B43F4803343F063
:102B540003032B630023A3616FF0804363611FB9F8
:102B6400A36943F01003A361A269264B1343A36135
:102B74000F9B1BB1A36943F00803A361012E01BF9E
:102B8400A36943F0804343F00403A361BDE8F04725
:102B940004B0704723F40013A363A36B43F400232E
:102BA4008FE719469DE703219BE70120A9E7D2F8A7
:102BB40000A0BAF1000F0BDA3BB9C2F800E01161D2
:102BC4000133C2F808902032A8E7C2F800C0F6E743
:102BD4001160F4E7D2F800A0BAF1000F0CDA41B9A1
:102BE400C2F80080C2F810C00131C2F80890203247
:102BF400A0E7C2F800E0F5E7C2F800C0F2E700BFC2
:102C04000001800000383C80D0F8083813F006003A
:102C140004D013F0020F14BF02200F20704730B508
:102C240001240D7800F5006205F00F039C404B78F9
:102C340000EB4510012BD36918D11C43D461D0F8A3
:102C440000391A0410D48B68C978C3F30A0343F01B
:102C5400805343F40043D0F8002943EA814343EA14
:102C640085531343C0F80039002030BD43EA0444BF
:102C7400D461D0F8003B1B04F6D48B68C978C3F345
:102C84000A0343F08053D0F8002B43F4004343EA93
:102C940081431343C0F8003BE6E70000012330B54D
:102CA4000C78497800F5006204F00F05012903FA55
:102CB40005F300EB4410D16B0DD1DB431940D16314
:102CC400D1690B40D361D0F800290A4B1340C0F8F6
:102CD4000039002030BD6FEA03431940D163D16944
:102CE4000B40D361D0F8002B034B1340C0F8003BDA
:102CF400EFE700BF007833EC0078F3EF4B78F0B5E2
:102D04000C78012B00EB44144D69344E344F44D1FC
:102D140004F51063B5B91D692E401E611D6945F4A3
:102D240000251D611D692F401F61012A21D10A69F7
:102D340002B15A61D4F8003943F00443C4F80039AD
:102D44000020F0BDD3F810C00CEA07071F611F690B
:102D54003E401E618E68AE421D6938BF4E6145F427
:102D640000251D614D691E69C5F3120535431D61BA
:102D7400DBE7D4F8003943F00443C4F800394B6965
:102D8400002BDDD00B78D0F8344803F00F02012378
:102D940093402343C0F83438D2E704F5306318690C
:102DA40038401861186930401861886805B1486175
:102DB4001D69C0F3120045F400251D611D69012A37
:102DC40040EA0500186102D1CA6802B15A61D4F818
:102DD400003B43F00443C4F8003BB1E7FFFF07E0C6
:102DE4000000F8FF10B59DF808404CB9033300EB20
:102DF40002309B0800F5805001EB8303994201D116
:102E0400002010BD51F8042B0260F7E7F7B54D78A8
:102E14000C78012D00EB44144B69CE78DFF894C193
:102E2400DFF894E17DD104F510652F693BBB07EA17
:102E34000C072F612F6947F400272F612F6907EAD8
:102E44000E072F61012A42D10B6903B16B61012E78
:102E54000CD1D0F8083813F4807FD4F800390CBFB3
:102E640043F0005343F08053C4F80039D4F80039D8
:102E740043F00443C4F80039002003B0F0BD07EA6E
:102E84000E072F612F69012E07EA0C07D1F808C03D
:102E94002F610CEB030707F1FF37B7FBFCFC444F32
:102EA400D5F810E007EACC4747EA0E072F61D5F8BA
:102EB40010C0C3F3120747EA0C072F61C2D12F6970
:102EC40027F0C0472F612F6947F00057B9E7D4F8BE
:102ED4000059012E45F00445C4F800590CD0002BCC
:102EE400CAD00B78D0F8344803F00F020123934082
:102EF4002343C0F83438BFE7D0F808589BB215F420
:102F0400807FD4F800590CBF45F0005545F080553A
:102F1400C4F800590C780092C9682246FFF762FF92
:102F2400AAE704F530673D6905EA0E053D613D6990
:102F340005EA0C053D618D681BBB3B69C5F31205B1
:102F44001D433D613B6943F40023012A3B6102D1E7
:102F5400CB6803B17B61012E0CD1D0F8083813F48F
:102F6400807FD4F8003B0CBF43F0005343F0805300
:102F7400C4F8003BD4F8003B43F00443C4F8003BDE
:102F84007AE72B44013BB3FBF5F3DFF824C0D7F811
:102F940010E00CEAC34C9BB26B434CEA0E0CC7F82E
:102FA40010C0D7F810C0C3F3120343EA0C03CCE7F4
:102FB4000000F81FFFFF07E00000F8FF033292084B
:102FC40001EB820200F58050914201D1084670471E
:102FD400036841F8043BF7E74A780B78012A00EBD1
:102FE400431012D1D0F80029002A06DB2BB1D0F807
:102FF400003923F08043C0F80039D0F8003943F495
:103004000013C0F8003900207047D0F8002B002AC4
:1030140006DB2BB1D0F8003B23F08043C0F8003B23
:10302400D0F8003B43F40013C0F8003BEBE70B7807
:103034004A7800EB4310CB78012AA3F10203DBB2F8
:103044000FD1D0F80029012B22F40012C0F8002976
:1030540005D8D0F8003943F08053C0F80039002077
:103064007047D0F8002B012B22F40012C0F8002B7B
:103074009EBFD0F8003B43F08053C0F8003BEEE71E
:10308400D0F80038090123F4FE63C0F80038D0F802
:10309400003801F4FE611943C0F80018002070479D
:1030A40008B5D0F8043823F00203C0F8043803202C
:1030B400FDF708FE002008BD08B5D0F8043843F039
:1030C4000203C0F804380320FDF7FCFD002008BD0E
:1030D4004269806910407047D0F8183800F50060E4
:1030E400C0691840000C7047D0F8183800F500602B
:1030F400C069184080B2704700EB411100F50060D0
:10310400D1F8082B40691040704710B5D0F810482A
:10311400D0F8343800EB411001F00F01CB4000F53A
:103124001060DB018068DBB22343184010BD4069A6
:1031340000F001007047D0F8003923F4FF6323F056
:103144000703C0F8003900F500639A6802F006022C
:10315400042A02BFD0F8002942F00302C0F8002973
:103164005A68002042F480725A60704730B5056C8A
:10317400104C00F53063A54203D9D0F8004B002C65
:1031840016DB00241C611C69012944F400241C6121
:103194001C6944F018041C611C6944F0C0441C619F
:1031A40001BF5A61D0F8003B43F08023C0F8003BD4
:1031B400002030BD0A30544FD0F8BC3210B56BB18A
:1031C400D0F8B84294F80002FF2807D09B6894F81E
:1031D400012221469847FF2384F80032002010BDC5
:1031E40043230380004870474C000020432303809E
:1031F4000048704790000020432303800048704734
:10320400E00000200A23038000487047D400002017
:1032140038B50546D0F8B84200F01CFFD5F8B832EE
:10322400C4F80C024BB1D5F8BC3204F50371DB6869
:10323400D4F804029847002038BD0220FCE7F8B512
:10324400D0F8B862D6B1142303FB0103DD698DB154
:103254001C27D0F8C04207FB0142526CB5FBF2F4C4
:1032640002FB145434B9DC612246234600F0D6FE36
:103274002046F8BD0020C6F81402FAE70220F8E759
:103284002DE9F7434FF000080A78054612F0600470
:103294000E46D0F8B8728DF80580ADF8068028D0B7
:1032A400202C45D1CC884B78E4B1120611D5D0F846
:1032B400BC223946D2F8089018462246C847F288FC
:1032C4003946284600F057FC4446204603B0BDE882
:1032D400F08387F8003287F801422246394600F02D
:1032E4005FFCF1E7D0F8BC22184695682246A8474F
:1032F400EBE74F780A2F0DD00B2F15D0C7B990F8F4
:103304009C32032B14D102220DF1060100F033FC90
:103314003C46DAE790F89C32032B09D101220DF1E7
:10332400050100F028FCD0E790F89C32032BCCD0A8
:103334003146284600F0F8FB0224C6E738B50446B7
:103344000025812100F020FE0121E562204600F0E5
:103354001BFEC4F86C518221204600F015FED4F8FF
:10336400B83225644BB1D4F8BC325B689847D4F8C2
:10337400B80200F0A5FEC4F8B852002038BD037CA2
:103384002DE9F0410446CBBB4FF4007302228121A6
:10339400012500F0E9FD4FF40073E562294602229D
:1033A400204600F0E1FDC4F86C51012508230322F6
:1033B4008221204600F0D8FD25644FF4077000F008
:1033C40077FE0646C4F8B80250B30027D4F8BC32DE
:1033D4001B68984794F81080C6F81472C6F81872DF
:1033E400B8F1000F13D14FF40073D6F80422294624
:1033F400204600F021FE4046BDE8F081012540232F
:103404000222812100F0B0FDE5624023C6E740239B
:10341400D6F804222946204600F00EFE3846EBE793
:103424002846E9E719B1C0F8BC1200207047022011
:103434007047D0F8B8320020C3F80812C3F810223D
:103444007047D0F8B8320020C3F804127047D0F89F
:10345400B82210B582B1D2F81442012374B9C2F86B
:103464001432D2F8103281210363D2F808229BB2BD
:1034740000F0D4FD204610BD0220FCE71846FAE710
:10348400D0F8B82210B562B1047CD2F8042234B961
:103494004FF40073012100F0CFFD002010BD402344
:1034A400F8E70220FAE708B580B1D0F8B43213B1D6
:1034B4000023C0F8B43209B1C0F8B012012302707D
:1034C40080F89C3200F014FD002008BD0220FCE7C7
:1034D40019B1C0F8B412002070470220704708B533
:1034E40000F034FD002008BD08B5D0F8B4320BB9A3
:1034F400022008BD1B6898470028FAD0F8E708B5F1
:10350400D0F8B4325B689847002008BD38B500F5A0
:103514002A750446284600F0F3FA012394F8A81209
:10352400C4F89432B4F8AE32C4F8983201F01F03F0
:10353400012B0ED007D3022B10D001F080012046BE
:1035440000F030FD03E02946204600F007F9002092
:1035540038BD2946204600F025FAF8E729462046DA
:1035640000F045FAF3E770B50546164649BBD0F8B6
:103574009432032B1ED1D0F86031D0F864219342E9
:103584000BD99B1A9A42C0F860318CBF9AB292B29E
:10359400314600F014FB002070BDD0F8B4321B6932
:1035A40023B190F89C22032A00D19847284600F0C2
:1035B4000EFBF0E7052BEED1C5F8941200F0F2FCF7
:1035C400E9E7D0F8B4329B692BB190F89C22032A26
:1035D40001D19847DFE70220DEE770B513460446C1
:1035E4000E46002947D1D0F89422022A3CD1D0E9D2
:1035F4000852954213D9AA1A0262194692B200F0EF
:10360400C7FA33461A461946204600F015FD94F8C9
:10361400A0320020012B01D184F8A00270BDC3693F
:10362400B3FBF2F502FB153565B99A420AD8D0F816
:103634009822934206D22A4600F0AAFAC4F8985275
:103644002B46DFE7D4F8B432DB682BB194F89C2224
:10365400032A01D1204698478021204600F0A2FC8D
:10366400204600F0BFFAD2E732F00403CFD1802124
:1036740000F098FCCBE7D0F8B4325B6933B190F832
:103684009C22032A02D198470020C7E70220C5E7FD
:10369400002270B50446012540261146402300F05F
:1036A40063FC33468021C4F85851C4F86461002295
:1036B400204600F059FC0021D4F8B832A5616662B6
:1036C40084F89C52C4F894126160C4F8A41223B123
:1036D400D4F8B43220465B689847002070BD01746A
:1036E4000020704790F89C3280F89D32042380F8C3
:1036F4009C320020704790F89C32042B04BF90F851
:103704009D3280F89C320020704708B590F89C22C6
:10371400032A04D1D0F8B432DB6903B198470020FE
:1037240008BD002070470020704700207047012228
:1037340008B580F89C22D0F8B422017952689047E9
:10374400002008BD10B50446802100F02BFC204663
:10375400BDE81040002100F025BC000037B50B780F
:10376400044603F06003202B0D4612D0402B10D0EA
:10377400002B5BD14B78092B58D8DFE813F0E90014
:1037840005015700FE005700840013005700D200C3
:10379400A000D4F8B43229469B68204698470020FC
:1037A40003B030BD0023ADF806304B881A0A013A45
:1037B400062A3BD8DFE802F004202D3A3A525C0096
:1037C400D0F8B0321B680DF10601207C9847BDF893
:1037D400062052B1EB8843B19A4228BF1A460146EB
:1037E4002046ADF8062000F0C6F9EB88002BD6D1B0
:1037F400204600F0ECF9D2E7027CD0F8B43232B9BA
:103804009B6A0DF10600984702234370DFE7DB6AE9
:10381400F7E7DBB2052B09D8DFE803F0030C10143B
:10382400181CD0F8B0325B68002BCCD12046FFF7CF
:1038340089FFB4E7D0F8B0329B68F5E7D0F8B0322E
:10384400DB68F1E7D0F8B0321B69EDE7D0F8B032AD
:103854005B69E9E7D0F8B0329B69E5E7037C002BAC
:10386400E4D1D0F8B4320DF106005B6B9847AEE7B3
:10387400037C002BDAD1D0F8B4320DF106001B6BB7
:1038840098470723C1E78B88002BCFD1CB88002B27
:10389400CCD14D887F2DC9D890F89C32032BC5D04C
:1038A400E9B280F89E1200F0ABFB204600F08FF9DD
:1038B4001DB1022384F89C3271E70123FAE7897869
:1038C400374D01292970B1D890F89C32022B08D0C9
:1038D400032B14D0FFF736FF29782046FFF70FFE9D
:1038E4005DE7002984D001210323416080F89C32E4
:1038F4002046FFF7F9FD02287FF47AAF96E731B945
:103904000223416080F89C32FFF7F9FD70E74168BB
:1039140001293FF46DAFC9B2FFF7F1FD2978616069
:10392400E6E7CA88012A81D190F89C32002B3FF443
:103934007DAF022B04D9032B7FF478AF011D03E084
:103944000146002341F8083F204600F014F926E719
:1039540090F89C32013B022B3FF668AFCB88022BD8
:103964007FF464AF0123C360D0F8A4320BB1032306
:10397400C360022204F10C01E6E74B88012B7FF4BB
:103984000EAFC4F8A43233E790F89C32013B022B0B
:103994003FF64CAF4B88012B7FF401AF0023F0E7D7
:1039A4002006002038B50B78044603F06003202B72
:1039B4000D4602D0402B00D0ABB994F89C32013BA9
:1039C400022B10D82B79012B0DD8D4F8B432294608
:1039D4009B6820469847EB881BB910B9204600F035
:1039E400F6F8002038BD2046FFF7ACFEF9E738B5FD
:1039F4000A78044602F06002202A0B4614D0402ABA
:103A040012D06AB95A788D88012AE9B220D036D307
:103A1400032A05D190F89C22022A27D0032A0BD02E
:103A24002046FFF78FFE05E0D4F8B42219469268C9
:103A340020469047002038BD5A882AB94A0603D048
:103A4400DB880BB900F0AEFA204600F0C0F8F1E7CD
:103A540090F89C22022A09D0032AE1D15B88002B2A
:103A6400E8D14D06F0D000F0ABFAEDE74B06D7D025
:103A740000F098FA8021204600F094FADAE790F8F2
:103A84009C32022B18D0032BCAD1142301F00F024D
:103A940015F0800F03FB02021FD09269002ABFD0E9
:103AA40001F07F0505FB0335054411F07F031FD1A9
:103AB4002B60022229460CE04A06B1D12B064FF0B6
:103AC40000034FF002024CBF00F1140100F5AA718B
:103AD4000B60204600F04FF8ACE7D2F85821002ADA
:103AE4009ED001F07F0503FB050505F5AA75DCE70B
:103AF400204600F073FA08B10123D9E72860D8E71B
:103B04000B7803704B784370CA788B7803EB0223ED
:103B140043804A790B7903EB02238380CA798B793A
:103B240003EB0223C380704710B50446802100F0E4
:103B340039FA2046BDE81040002100F033BA30B510
:103B440088B105462B1A15F8014BDBB2002CF9D1CC
:103B540001335B0013800B7003234B700223013885
:103B640010F8015F05B930BD5A1CCD54D2B20233EE
:103B7400DBB28C54F4E71346022210B5C0F8942249
:103B8400C0E907330A46002100F048FA002010BDBE
:103B940008B513460A46002100F040FA002008BD8B
:103BA4001346032210B5C0F89422C0F85C310A46CB
:103BB400C0F86031002100F03FFA002010BD08B5C4
:103BC40013460A46002100F037FA002008BD08B564
:103BD4000423C0F8943200231A46194600F01EFA52
:103BE400002008BD08B50523C0F8943200231A4606
:103BF400194600F021FA002008BD000008B5002293
:103C04000E490F48FFF74FFC08B1FCF7AFFD0D4913
:103C14000B48FFF75DFC08B1FCF7A8FD0A4908480A
:103C2400FFF700FC08B1FCF7A1FD0548FFF757FCBE
:103C340018B1BDE80840FCF799BD08BD3401002067
:103C44001C070020140000202401002000207047DD
:103C54000020704710B5054C01462046FFF7F1FBE4
:103C64002046FFF70DFC002010BD00BF1C070020FC
:103C740010B5064C002206492046FFF7DAFB054939
:103C84002046FFF7DEFB002010BD00BF1C0700200C
:103C9400E0110020E009002010B5094C0A46D4F8D0
:103CA400B832D3F8143243B901462046FFF7C1FBBA
:103CB4002046BDE81040FFF7CABB012010BD00BF7D
:103CC4001C070020122301480B807047500100207C
:103CD400042301480B80704764010020002370B561
:103CE4001E46050FECB2092D94BF3034373401F869
:103CF400134001EB430401336670DCB2A2424FEA85
:103D04000010EED870BD00001A2310B50B80094BCB
:103D1400186808331B68C0180AD0074B08221C68AF
:103D24000649FFF7DBFF042205492046FFF7D6FFCB
:103D3400044810BD107AFF1F147AFF1F6A01002087
:103D44007A0100206801002010B5044C0A4604489A
:103D54002146FFF7F4FE204610BD00BFE019002005
:103D6400754A000810B5044C0A4604482146FFF77A
:103D7400E6FE204610BD00BFE0190020884A000876
:103D840010B5044C0A4604482146FFF7D8FE2046E5
:103D940010BD00BFE01900205C4A000810B5044CB7
:103DA4000A4604482146FFF7CAFE204610BD00BF5C
:103DB400E0190020674A000830B5044689B014228F
:103DC400002103A800F093F92368B3F1A04F2ED18A
:103DD4000025184C0195236B4FF4C05243F00103A6
:103DE4002363236B032103F001030193019B02234B
:103DF400CDE903230A231048CDE9061303A9FDF7EF
:103E04000FF8636B432043F0800363630295636C94
:103E14002A4643F480436364636C294603F4804375
:103E24000293029BFCF774FF4320FCF7A5FF09B043
:103E340030BD00BF003802400000024000F571713F
:103E4400D0F8FC03FFF762BB1C2303FB0103D0F88B
:103E5400FC03D3F80822FFF786BB1C2303FB0103F2
:103E6400D0F8FC039A6CFFF7B8BBD0F8FC03FFF75B
:103E74004CBCC16810B5044621B1022901D0FCF73D
:103E840075FC0121D4F8FC03FFF729FCD4F8FC03EA
:103E9400BDE81040FFF7FCBB10B50446D0F8FC03A6
:103EA400FFF720FC2268D2F8003E43F00103C2F879
:103EB400003E236A23B1034A136943F006031361E6
:103EC40010BD00BF00ED00E0D0F8FC03FFF713BC09
:103ED400D0F8FC03FFF727BCD0F8FC03FFF721BCA4
:103EE400D0F8FC03FFF721BCD0F8FC03FFF71FBC9C
:103EF40008B502782ABB144B0421C3F8FC03C0F8AC
:103F0400C0324FF0A040C3E9000102211846C3E9C2
:103F14000312C3E906121A62C3E90B22FDF75AFD24
:103F240008B1FCF723FC80210748FEF7EDF9402295
:103F340000210548FEF7C8F9802201210248FEF756
:103F4400C3F9002008BD00BFE01A002008B5D0F86E
:103F5400C002FDF7C6FD032896BF024B0220185C81
:103F640008BD00BF9E4A000810B51C46D0F8C00228
:103F740013462246FEF798F8032896BF014B022009
:103F8400185C10BD9E4A000808B5D0F8C002FEF7C0
:103F9400BEF8032896BF024B0220185C08BD00BF80
:103FA4009E4A000808B5D0F8C002FEF724F9032899
:103FB40096BF024B0220185C08BD00BF9E4A000851
:103FC40008B5D0F8C002FEF74EF9032896BF024B9D
:103FD4000220185C08BD00BF9E4A00081C2211F094
:103FE400800FD0F8C0321BBF01F07F0102FB01310A
:103FF40002FB013191F83E0008BF91F8FE017047C1
:1040040008B5D0F8C002FEF73BF8032896BF024B70
:104014000220185C08BD00BF9E4A000808B5D0F80D
:10402400C002FEF7C8F8032896BF024B0220185CB2
:1040340008BD00BF9E4A000808B5D0F8C002FEF7CC
:104044008FF8032896BF024B0220185C08BD00BFFE
:104054009E4A0008D0F8C002FEF7A5B8014B1868C4
:10406400704700BF8401002070B500250C4E0D4C34
:10407400A41BA410A54209D100F0FAF800250A4EA9
:104084000A4CA41BA410A54205D170BD56F82530D6
:1040940098470135EEE756F8253098470135F2E7A1
:1040A400AC4A0008AC4A0008AC4A0008B04A000810
:1040B400024B0146186800F06FB800BF840100206D
:1040C400024B0146186800F01BB800BF84010020B1
:1040D40030B50024A24201D1002007E0035D013481
:1040E4000D1915F8015CAB42F4D0581B30BD0346E2
:1040F4000244934200D1704703F8011BF9E7000022
:1041040038B50546002943D051F8043C0C1F002B58
:10411400B8BFE41800F0AAF81E4A1368104633B971
:10412400636014602846BDE8384000F0A0B8A3429C
:104134000BD921686218934201BF1A685B68521850
:10414400226063600460EDE713465A680AB1A24234
:10415400FAD919685818A0420BD12068014458189C
:1041640082421960DED110685268014419605A60B5
:10417400D8E702D90C232B60D4E7206821188A429F
:1041840001BF116852680918216062605C60C9E768
:1041940038BD00BF2406002070B5CD1C25F00305F2
:1041A40008350C2D38BF0C25002D064601DBA9422D
:1041B40003D90C233360002070BD00F057F8214A66
:1041C4001468214691B9204C23681BB9304600F08D
:1041D4003DF820602946304600F038F8431C24D1CD
:1041E4000C233046336000F042F8E4E70B685B1BB5
:1041F40018D40B2B0FD90B60CC18CD50304600F0DF
:1042040036F804F10B00231D20F00700C31AD3D0A5
:104214005A42E250D0E74B688C4216BF6360136089
:104224000C46EBE70C464968CCE7C41C24F00304B5
:10423400A04205D0211A304600F008F80130CFD052
:104244002560DBE7240600202806002038B500237B
:10425400054C054608462360FCF780FC431C02D14C
:10426400236803B12B6038BDE01E002070477047FF
:10427400F8B500BFF8BC08BC9E467047F8B500BF4F
:08428400F8BC08BC9E4670471F
:10428C000000000000000000000000000000000022
:10429C0000000000001000100010001000100010B2
:1042AC00000000100000000000280028002800007A
:1042BC0000000000000000000000000000240024AA
:1042CC00007C00240048007C0048004800000000EE
:1042DC0000380054005000380014005400540038CA
:1042EC00001000000020005400580030002800543A
:1042FC000014000800000000001000280028001026
:10430C000034004800480034000000000010001089
:10431C000010000000000000000000000000000081
:10432C0000080010002000200020002000200020A9
:10433C000010000800200010000800080008000809
:10434C0000080008001000200010003800100028A1
:10435C000000000000000000000000000000000051
:10436C0000100010007C0010001000000000000085
:10437C000000000000000000000000000000001021
:10438C0000100010000000000000000000000038C9
:10439C000000000000000000000000000000000011
:1043AC0000000000000000100000000000080008E1
:1043BC000010001000100010002000200000000071
:1043CC0000380044004400540044004400440038C9
:1043DC000000000000100030005000100010001011
:1043EC0000100010000000000038004400440004DD
:1043FC00000800100020007C000000000038004481
:10440C000004001800040004004400380000000000
:10441C0000080018002800280048007C000800084C
:10442C0000000000007C0040004000780004000404
:10443C0000440038000000000038004400400078C0
:10444C00004400440044003800000000007C0004DC
:10445C0000080010001000200020002000000000C8
:10446C000038004400440038004400440044003844
:10447C00000000000038004400440044003C0004EC
:10448C000044003800000000000000000010000094
:10449C000000000000000010000000000000000000
:1044AC0000000010000000000000001000100010C0
:1044BC0000000000000C003000400030000C000038
:1044CC0000000000000000000000007C0000007CE8
:1044DC000000000000000000000000000060001858
:1044EC0000040018006000000000000000380044C8
:1044FC000004000800100010000000100000000074
:10450C0000380044004C0054005C0040004000386F
:10451C000000000000100028002800280028007C63
:10452C00004400440000000000780044004400787F
:10453C0000440044004400780000000000380044AF
:10454C0000400040004000400044003800000000E3
:10455C0000700048004400440044004400480070CF
:10456C0000000000007C00400040007C0040004047
:10457C000040007C00000000007C004000400078FF
:10458C0000400040004000400000000000380044A3
:10459C0000400040005C0044004400380000000073
:1045AC00004400440044007C0044004400440044A7
:1045BC000000000000380010001000100010001067
:1045CC000010003800000000000400040004000487
:1045DC0000040004004400380000000000440048BF
:1045EC0000500060005000480048004400000000EB
:1045FC000040004000400040004000400040007C73
:10460C00000000000044006C006C005400440044A6
:10461C0000440044000000000044006400640054A6
:10462C000054004C004C00440000000000380044D2
:10463C0000440044004400440044003800000000E2
:10464C0000780044004400440078004000400040E2
:10465C0000000000003800440044004400440044C2
:10466C00005400380004000000780044004400446A
:10467C000078004800480044000000000038004466
:10468C000040003000080004004400380000000026
:10469C00007C001000100010001000100010001022
:1046AC000000000000440044004400440044004466
:1046BC00004400380000000000440044004400287E
:1046CC0000280028001000100000000000440044E6
:1046DC00005400540054006C002800280000000016
:1046EC000044002800280010001000280028004476
:1046FC0000000000004400440028002800100010B6
:10470C000010001000000000007C000400080010E5
:10471C00001000200040007C000000000018001079
:10472C0000100010001000100010001000100018F5
:10473C0000200020001000100010001000080008DD
:10474C0000000000003000100010001000100010DD
:10475C000010001000100030001000280028004449
:10476C00000000000000000000000000000000003D
:10477C00000000000000000000000000000000FE2F
:10478C0000200010000000000000000000000000ED
:10479C00000000000000000000380044003C004411
:1047AC00004C003400000000004000400058006441
:1047BC0000440044006400580000000000000000A9
:1047CC000038004400400040004400380000000065
:1047DC00000400040034004C00440044004C00343D
:1047EC00000000000000000000380044007C004085
:1047FC000044003800000000000C0010007C001089
:10480C00001000100010001000000000000000005C
:10481C000034004C00440044004C00340004007888
:10482C000040004000580064004400440044004430
:10483C0000000000001000000070001000100010BC
:10484C0000100010000000000010000000700010AC
:10485C000010001000100010001000E0004000409C
:10486C000048005000600050004800440000000068
:10487C00007000100010001000100010001000104C
:10488C0000000000000000000078005400540054A8
:10489C0000540054000000000000000000580064A8
:1048AC0000440044004400440000000000000000EC
:1048BC00003800440044004400440038000000006C
:1048CC0000000000005800640044004400640058DC
:1048DC0000400040000000000034004C0044004444
:1048EC00004C003400040004000000000058006478
:1048FC0000400040004000400000000000000000AC
:10490C00003800440030000800440038000000006B
:10491C00002000200078002000200020002000183B
:10492C00000000000000000000440044004400446B
:10493C00004C003400000000000000000044004463
:10494C0000280028002800100000000000000000D3
:10495C00005400540054006C002800280000000093
:10496C000000000000440028001000100028004443
:10497C000000000000000000004400440028002853
:10498C00001000100010006000000000007C000807
:10499C00001000200040007C0000000000180010F7
:1049AC000010001000200020001000100010001853
:1049BC00001000100010001000100010001000106B
:1049CC00001000100030001000100010000800084B
:1049DC0000100010001000300000000000000074F7
:1049EC00004C0000000000000000000074657374AF
:1049FC0000776F726400536F6D65206461746100A1
:104A0C005465737420706173736564210D0A0054CE
:104A1C00657374206661696C6564203A280D0A0020
:104A2C00000000000000000000000000000000007A
:104A3C00000000000000000000000000000000006A
:104A4C000102030406070809000000000102030428
:104A5C0043444320436F6E666967004344432049D7
:104A6C006E746572666163650053544D6963726F51
:104A7C00656C656374726F6E6963730053544D3368
:104A8C0032205669727475616C20436F6D506F7271
:084A9C00740000020102000099
:084AA40050B7FF7F0100000084
:044AAC00A901000854
:044AB0008501000874
:104AB400070A00008C4200080024F40001000000F2
:104AC40010000000833300084133000885320008D9
:104AD40000000000BD310008433200081532000810
:104AE400000000000000000000000000F131000898
:104AF400E5310008FD3100080932000809024300CD
:104B0400020100C032090400000102020100052470
:104B140000100105240100010424020205240600FA
:104B2400010705820308001009040100020A0000BD
:104B34000007050102400000070581024000000053
:104B440009024300020100C032090400000102020C
:104B540001000524001001052401000104240202BF
:104B6400052406000107058203080010090401005A
:104B7400020A000000070501020002000705810285
:104B8400000200000A0600020000004001000000CC
:104B940009074300020104C03209040000010202B3
:104BA400010005240010010524010001042402026F
:104BB400052406000107058203080010090401000A
:104BC400020A0000000705010240000007058102F7
:104BD40040000000753C0008513C0008553C0008AA
:104BE400593C0008C93C0008D53C00084D3D00086C
:104BF400693D00080D3D0008853D0008A13D000801
:104C04001201000202020040830440570002010224
:104C140003010000040309041A030000000000005B
:104C24000000000000000000000000000000000080
:104C340000000000880100200000000000000000C7
:104C44000000000000000000000000000000000060
:104C54000000000000000000000000000000000050
:104C64000000000000000000000000000000000040
:104C74000000000000000000000000000000000030
:104C84000000000000000000000000000000000020
:084C9400000000000000000018
:0400000508000BD50F
:00000001FF
