:020000040800F2
:1000000000000220B5230008A5220008A72200084E
:10001000A9220008AB220008AD2200080000000061
:10002000000000000000000000000000AF220008F7
:10003000B122000800000000B3220008B522000829
:1000400005240008052400080524000805240008EC
:1000500005240008052400080524000805240008DC
:1000600005240008052400080524000805240008CC
:1000700005240008052400080524000805240008BC
:1000800005240008052400080524000805240008AC
:10009000052400080524000805240008B9220008EA
:1000A000052400080524000805240008052400088C
:1000B000052400080524000805240008052400087C
:1000C000052400080524000805240008052400086C
:1000D000052400080524000805240008052400085C
:1000E000052400080524000805240008052400084C
:1000F000052400080524000805240008052400083C
:10010000052400080524000805240008052400082B
:100110000524000805240008D12200080524000851
:10012000052400080524000805240008052400080B
:10013000052400080000000000000000052400085D
:1001400005240008052400080524000835230008BC
:1001500005240008052400080524000805240008DB
:1001600005240008052400080524000805240008CB
:1001700005240008052400080000000005240008EC
:04018000052400084A
:1001840010B5054C237833B9044B13B10448AFF3CD
:1001940000800123237010BD080B00200000000024
:1001A400D45D000808B5034B1BB103490348AFF302
:1001B400008008BD000000000C0B0020D45D000886
:1001C40053B94AB9002908BF00281CBF4FF0FF31BA
:1001D4004FF0FF3000F074B9ADF1080C6DE904CEB6
:1001E40000F006F8DDF804E0DDE9022304B070470E
:1001F4002DE9F0478C460446089E002B4BD18A42D9
:10020400154667D9B2FA82F24AB1C2F1200701FA5F
:1002140002F320FA07F7954047EA030C94404FEAAB
:10022400154EBCFBFEF71FFA85F80EFB17C307FB40
:1002340008F9210C41EA0343994509D9EB1807F160
:10024400FF3180F01C81994540F21981023F2B4413
:10025400A3EB0903B3FBFEF00EFB103300FB08F124
:10026400A4B244EA0344A14209D92C1900F1FF3392
:1002740080F00781A14240F2048102382C4440EA14
:1002840007400027641A1EB10023D440C6E9004386
:100294003946BDE8F0878B4209D9002E00F0EC8086
:1002A4000027C6E9000138463946BDE8F087B3FAAD
:1002B40083F7002F48D18B4202D3824200F2FB80A5
:1002C400841A61EB030301209C46002EE0D0C6E9AA
:1002D400004CDDE702B9FFDEB2FA82F2002A40F0F8
:1002E4008F800127491B4FEA15481FFA85F9B1FB96
:1002F400F8FE08FB1E1109FB0EF04FEA144C4CEA01
:100304000143984207D9EB180EF1FF3102D298420B
:1003140000F2CD808E461B1AB3FBF8F008FB1033B5
:1003240009FB00F9A4B244EA0344A14507D92C19F6
:1003340000F1FF3302D2A14500F2B6801846A4EBC7
:10034400090440EA0E409EE7C7F12005BB4022FAAB
:1003540005FC4CEA030C21FA05F44FEA1C4EB4FBED
:10036400FEF91FFA8CF80EFB194420FA05F3B94084
:1003740009FB08FA19430B0C43EA0444A24502FAA8
:1003840007F200FA07F30BD91CEB040409F1FF3060
:1003940080F08880A24540F28580A9F10209644476
:1003A400A4EB0A04B4FBFEF00EFB104400FB08FAB5
:1003B40089B241EA0444A24508D91CEB040400F1C3
:1003C400FF316BD2A24569D90238644440EA09403E
:1003D400A0FB0289A4EB0A044C454146CE4654D303
:1003E40051D0002E69D05A1A64EB0E0404FA05F5B4
:1003F40022FA07F3FC401D43C6E90054002747E7EF
:100404009540C2F1200321FA03F04FEA1548B0FBEE
:10041400F8F71FFA85F908FB170024FA03F3914053
:1004240007FB09FC0B43190C41EA00418C4504FA13
:1004340002F407D9691807F1FF3031D28C452FD95E
:10044400023F2944A1EB0C01B1FBF8F008FB101C9E
:1004540000FB09FE99B241EA0C418E4507D969189F
:1004640000F1FF3318D28E4516D902382944A1EB86
:100474000E0140EA07473AE73746304608E70F4699
:10048400E6E61846FBE64345ABD2B8EB020169EB5E
:100494000C0201389646A4E71846E8E7084695E7B3
:1004A4000746CFE781467BE702382C4447E7AEF1A5
:1004B400020E2B442FE7384607E73746E8E600BF2D
:1004C400704700BF002303211A4A13601A4A1360BD
:1004D4001A4A13601A4A13601A4A518001211A4AAF
:1004E40011601A4A13601A4A13601A4A13601A4AAE
:1004F40013601A4A13601A4A13601A4A13601A4A9C
:1005040013601A4A13601A4A13601A4A13601A4A8B
:10051400138053809380D3801381184A13805380AF
:100524009380D3801381164A1360164A136001F036
:10053400F9BA00BF600F0020801000207010002066
:100544006010002074100020C40F0020CC0F002085
:10055400981000205C100020C80F00209410002088
:100564005410002084100020C00F00205C0F0020D5
:10057400580F0020641000204C0F00208810002029
:10058400A00F00206C0F002007B5002001F0DCFB59
:100594000A4B2022009310231821184601F0F8FC7E
:1005A400074B2022009318211023502001F0F0FC67
:1005B40003B05DF804EB01F0D5BB00BFAC00002034
:1005C400F4000020002038B501254FF6FF721F4BC0
:1005D4001F4C18601F4B1D601F4B1A8001F0B4FBA9
:1005E4000521022001F0CEFC94E806002B461B48AE
:1005F40001F0B2FC0F21022001F0C4FC94E80600D3
:100604002B46174801F0A8FC1921022001F0BAFC7E
:1006140094E806002B46134801F09EFC2321022097
:1006240001F0B0FC94E806002B460F4801F094FC5E
:100634002D21022001F0A6FC94E806002B460B486D
:1006440001F08AFCBDE8384001F08CBBC40F0020E7
:1006540050010020CC0F0020D00F0020475E00087E
:100664006A5E00087D5E0008A75E0008B95E0008A7
:100674004FF6FF72194B13B5194C00201A8001F084
:1006840063FB0A210F2001F07DFC94E8060001239E
:10069400144801F061FC14212D2001F073FC94E84E
:1006A40006000123104801F057FC104B362100933B
:1006B400082302201A4601F06BFC0D4B36210093EF
:1006C400082378201A4601F063FC01F04BFB0F214C
:1006D4000B2002B0BDE8104001F0BCB9D00F0020DF
:1006E40050010020CF5E0008DE5E000800000020FC
:1006F400EC00002038B51C4C238801331BB20B2BB3
:10070400238027DC194D002001F01EFB0A2128203C
:1007140001F038FC95E806000123154801F01CFCA3
:1007240095E806000123B4F90000184401F060FCC8
:100734001921084601F026FCB4F900400D4A0E4880
:10074400012306CA50F8240001F006FCBDE8384035
:1007540001F008BB0022094B1A600122084B1A6001
:10076400BDE83840FFF784BFD00F002050010020BF
:10077400C95E000848010020700F0020CC0F002043
:1007840098100020002038B501254FF6FF721A4B4F
:100794001A4C18601A4B1D601A4B1A8001F0D4FAD7
:1007A4000A21084601F0EEFB94E806002B461648A1
:1007B40001F0D2FB14210A2001F0E4FB94E80600C6
:1007C4002B46124801F0C8FB1E210A2001F0DAFB77
:1007D40094E806002B460E4801F0BEFB32210A20A5
:1007E40001F0D0FB94E806002B460A4801F0B4FB64
:1007F400BDE8384001F0B6BAC40F00205001002013
:100804005C100020D00F0020035F0008115F000877
:10081400225F0008325F00082DE9F3410020012621
:100824002A4BDFF8C0802A4F2A4D1E60A8F800002A
:10083400388001F089FA0A21022001F0A3FB95E82F
:1008440006003346244801F087FB0823234C1A464C
:10085400009432211C2001F09BFB082300941A46CB
:1008640032212C2001F094FB082300941A463221F3
:100874003C2001F08DFB082300941A4632214C20C1
:1008840001F086FB082300941A4632215C2001F013
:100894007FFB98F80000282100011C3000F0FC00C8
:1008A40001F070FB95E806003346B7F9000001F04B
:1008B4009FFB0B4B3221009308231C201A4601F0A6
:1008C40067FB02B0BDE8F04101F04CBA580F0020BC
:1008D4006A10002050010020405F00089C000020A6
:1008E400A4000020D00F0020002008B5094B186098
:1008F40001F02AFA1E21022001F044FB064A0123DA
:1009040006CA064801F028FB01F02CFABDE80840AD
:10091400FFF782BF9810002050010020345E0008C9
:1009240073B5244C238801331BB2032B23803CDC96
:10093400214D002001F008FA0A21282001F022FBB1
:1009440095E8060001231D4801F006FB95E8060022
:100954001B4EB4F90000012336F8100001F048FBE7
:100964001921084601F00EFBB4F90030154A36F897
:100974001340154806CA012350F8240001F0ECFA8C
:10098400124B36210093082302201A4601F000FB83
:100994000F4B36210093082378201A4601F0F8FA09
:1009A40002B0BDE8704001F0DDB902B0BDE87040AE
:1009B400FFF79ABFD00F002050010020C95E000845
:1009C400A40F002048010020700F00200000002028
:1009D400EC00002010B50E4C2821238801331BB2F3
:1009E400092BC8BF002323800A4B187800011C3050
:1009F40000F0FC0001F0C6FA074AB4F90000012334
:100A040006CA01F0F5FABDE8104001F0ABB900BF29
:100A14006A100020D00F00205001002010B50E4CA9
:100A240028212388013B1BB2002BB8BF0923238054
:100A34000A4B187800011C3000F0FC0001F0A2FA07
:100A4400074AB4F90000012306CA01F0D1FABDE84F
:100A5400104001F087B900BF6A100020D00F0020B9
:100A6400500100202DE9F341002001272B4E2C4B8F
:100A7400DFF8C0802B4D1F603080A8F8000001F023
:100A840063F90A21022001F07DFA95E806003B464D
:100A9400254801F061FA0823244C1A4600943221B7
:100AA4001C2001F075FA082300941A4632212C20E8
:100AB40001F06EFA082300941A4632213C2001F01A
:100AC40067FA082300941A4632214C2001F060FA98
:100AD400082300941A4632215C2001F059FA307838
:100AE400282100011C3000F0FC0001F04BFA95E8CD
:100AF40006003B46B8F9000001F07AFA0C4BB6F94F
:100B040000000093082300011A4632211C3001F032
:100B14003FFA02B0BDE8F04101F024B9D00F002043
:100B240064100020500100205B5F00089C0000203E
:100B3400A40000206A10002073B52D4D2D4EB5F988
:100B4400003031882C4A032B22F8131045DC08238B
:100B54002A4C1A46009432211C2001F019FA082369
:100B640000941A4632212C2001F012FA0823009432
:100B74001A4632213C2001F00BFA082300941A464D
:100B840032214C2001F004FA082300941A46322141
:100B94005C2001F0FDF928882821013080B22880EA
:100BA40000011C3000F0FC0001F0ECF9144A0123B0
:100BB40006CAB6F9000001F01BFA124BB5F90000A1
:100BC4000093082300011A4632211C3001F0E0F999
:100BD40002B0BDE8704001F0C5B801220A4B1A60AA
:100BE40000220A4B1A6002B0BDE87040FFF73ABF1A
:100BF400D00F00206A1000204C0F00209C00002021
:100C040050010020A400002064100020580F002090
:100C140073B5002001262A4B2A4D2B4C1E602880D8
:100C240001F092F80A21022001F0ACF994E80600E0
:100C34003346264801F090F9254B102200931E21DB
:100C44000823382001F0A4F9224B1022009332210A
:100C54000823382001F09CF9B5F90030032B2DD876
:100C6400DFE803F002111A2327210A2001F08AF990
:100C740094E806000123184801F06EF902B0BDE8BB
:100C8400704001F06FB827210A2001F07BF994E845
:100C9400060001231148EFE727210A2001F072F929
:100CA40094E8060001230E48E6E727210A2001F014
:100CB40069F994E8060001230A48DDE702B070BD33
:100CC400A00F0020D00F0020500100206B5F00080F
:100CD400380100200C0000207E5F00088F5F0008B0
:100CE400A05F0008B15F000873B5414C414DB4F9F1
:100CF4000020414B2988032A23F81210194645DCA9
:100D040008233E4E1A46009632211C2001F040F979
:100D1400082300961A4632212C2001F039F90823C1
:100D240000961A4632213C2001F032F9082300963D
:100D34001A4632214C2001F02BF9082300961A465A
:100D440032215C2001F024F920882821013080B26E
:100D5400208000011C3000F0FC0001F013F9284A47
:100D6400012306CAB5F9000001F042F9254BB4F994
:100D740000000093082300011A4632211C3001F0C0
:100D840007F902B0BDE8704000F0ECBF1E4A1C88B1
:100D94001088844210461D4C16D15E885588AE4298
:100DA40012D19E889588AE420ED1DE88D588AE4297
:100DB4000AD11D8913899D4206D10023236002B004
:100DC400BDE87040FFF724BF0122114B1A600023D5
:100DD4002360038043808380C38003810B804B8026
:100DE4008B80CB800B8102B0BDE87040FFF714BD4F
:100DF400D00F00206A100020881000209C000020E2
:100E040050010020A40000204C0F0020641000209A
:100E1400580F002008B51D4B1A88013212B2032A5C
:100E2400C8BF00221A80B3F90030032B2CD8DFE8A6
:100E340003F00210192227210A2001F0A3F801234C
:100E4400134A144806CA01F087F8BDE8084000F0C8
:100E540089BF27210A2001F095F80D4A012306CA0B
:100E64000D48F0E727210A2001F08CF8084A0123F5
:100E740006CA0A48E7E727210A2001F083F8044A52
:100E8400012306CA0648DEE708BD00BFD00F0020D4
:100E9400500100207E5F00088F5F0008A05F0008FB
:100EA400B15F000808B51D4B1A88013A12B2002A36
:100EB400B8BF03221A80B3F90030032B2CD8DFE823
:100EC40003F00210192227210A2001F05BF8012304
:100ED400134A144806CA01F03FF8BDE8084000F080
:100EE40041BF27210A2001F04DF80D4A012306CA0B
:100EF4000D48F0E727210A2001F044F8084A0123AD
:100F040006CA0A48E7E727210A2001F03BF8044A09
:100F1400012306CA0648DEE708BD00BFD00F002043
:100F2400500100207E5F00088F5F0008A05F00086A
:100F3400B15F000873B5002001262A4B2A4D2B4CC3
:100F44001E60288000F000FF0521142001F01AF82B
:100F540094E806003346264800F0FEFF254B102295
:100F640000931E210823382001F012F8224B10228E
:100F7400009332210823382001F00AF8B5F9003033
:100F8400032B2DD8DFE803F002111A2327210A20AE
:100F940000F0F8FF94E806000123184800F0DCFF95
:100FA40002B0BDE8704000F0DDBE27210A2000F049
:100FB400E9FF94E8060001231148EFE727210A20FE
:100FC40000F0E0FF94E8060001230E48E6E727213D
:100FD4000A2000F0D7FF94E8060001230A48DDE761
:100FE40002B070BD70100020D00F0020500100200E
:100FF400C25F0008380100200C000020CB5F00080D
:10100400DC5F0008ED5F0008FE5F000808B51D4BBB
:101014001A88013212B2032AC8BF00221A80B3F917
:101024000030032B2CD8DFE803F00210192227210B
:101034000A2000F0A7FF0123134A144806CA00F04F
:101044008BFFBDE8084000F08DBE27210A2000F088
:1010540099FF0D4A012306CA0D48F0E727210A200B
:1010640000F090FF084A012306CA0A48E7E727214F
:101074000A2000F087FF044A012306CA0648DEE777
:1010840008BD00BFD00F002050010020CB5F000836
:10109400DC5F0008ED5F0008FE5F000808B51D4B2B
:1010A4001A88013A12B2002AB8BF03221A80B3F98F
:1010B4000030032B2CD8DFE803F00210192227217B
:1010C4000A2000F05FFF0123134A144806CA00F007
:1010D40043FFBDE8084000F045BE27210A2000F088
:1010E40051FF0D4A012306CA0D48F0E727210A20C3
:1010F40000F048FF084A012306CA0A48E7E7272107
:101104000A2000F03FFF044A012306CA0648DEE72E
:1011140008BD00BFD00F002050010020CB5F0008A5
:10112400DC5F0008ED5F000811600008002010B5C6
:1011340001240A4B18600A4B1C6000F005FE0521CF
:10114400022000F01FFF074A234606CA064800F0A3
:1011540003FFBDE8104000F005BE00BF7010002082
:101164009410002050010020F65E0008002010B505
:1011740001240A4B18600A4B1C6000F0E5FD0521B0
:10118400022000F0FFFE074A234606CA064800F084
:10119400E3FEBDE8104000F0E5BD00BF7010002084
:1011A4009410002050010020E65E0008002010B5D5
:1011B40001240A4B18600A4B1C6000F0C5FD052190
:1011C400022000F0DFFE074A234606CA064800F064
:1011D400C3FEBDE8104000F0C5BD00BF7010002084
:1011E4009410002050010020285E0008F7B507463F
:1011F40000200126304B314D1860314B314C1E60BC
:10120400288000F0A1FD0521142000F0BBFE94E825
:101214000600334607F1800000F09EFE2A4B1022A0
:1012240000931E210823382000F0B2FE274B102221
:10123400009332210823382000F0AAFEB5F90030CB
:10124400042B37D8DFE803F003121B242D002721D9
:101254000A2000F097FE94E8060001231C4800F0E1
:101264007BFE03B0BDE8F04000F07CBD27210A20DE
:1012740000F088FE94E8060001231648EFE72721D2
:101284000A2000F07FFE94E8060001231248E6E7F6
:1012940027210A2000F076FE94E8060001230F4877
:1012A400DDE727210A2000F06DFE94E80600012303
:1012B4000B48D4E703B0F0BD941000206A1000205E
:1012C4006010002050010020380100200C00002094
:1012D400EC5D0008F95D00080C5E0008155E00086E
:1012E400FE5F00080020074AB2F90030591C064985
:1012F400086001D1FFF71EBE506800EB0320FFF722
:1013040075BF00BF640F00209410002008B5224B65
:101314001A88013212B2042AC8BF00221A80B3F913
:101324000030042B36D8DFE803F003111A232C0015
:1013340027210A2000F026FE0123184A184806CA6D
:1013440000F00AFEBDE8084000F00CBD27210A2089
:1013540000F018FE114A012306CA1248F0E72721BB
:101364000A2000F00FFE0D4A012306CA0E48E7E7E3
:1013740027210A2000F006FE084A012306CA0B486A
:10138400DEE727210A2000F0FDFD044A012306CAF6
:101394000748D5E708BD00BF6A10002050010020AF
:1013A400EC5D0008F95D00080C5E0008155E00089D
:1013B400FE5F000808B5224B1A88013A12B2002ACF
:1013C400B8BF04221A80B3F90030042B36D8DFE802
:1013D40003F003111A232C0027210A2000F0D2FD68
:1013E4000123184A184806CA00F0B6FDBDE80840B3
:1013F40000F0B8BC27210A2000F0C4FD114A0123E3
:1014040006CA1248F0E727210A2000F0BBFD0D4A66
:10141400012306CA0E48E7E727210A2000F0B2FD9F
:10142400084A012306CA0B48DEE727210A2000F0F8
:10143400A9FD044A012306CA0748D5E708BD00BF31
:101444006A10002050010020EC5D0008F95D0008DE
:101454000C5E0008155E0008FE5F000803460A469D
:1014640030B500F1400453F8045BA34242F8045B36
:10147400F9D100F1100301F1400200F1500453F8D6
:10148400045BA34242F8045BF9D100F1200301F1AB
:10149400800200F1600453F8045BA34242F8045B49
:1014A400F9D100F13003C031703053F8042B83427A
:1014B40041F8042BF9D130BD38B50546134C002052
:1014C40000F042FC1421282000F05CFD94E80600A2
:1014D400012305F1800000F03FFD1E21282000F0CB
:1014E40051FD94E806000123284600F035FD28212B
:1014F400084600F047FD94E80600012305F140008A
:1015040000F02AFDBDE8384000F02CBC500100205A
:1015140007B5174AB2F90030581C04DA01331380B6
:1015240003B05DF804FB13494988994201DC013B8F
:10153400F5E7591C07D0506800EB032003B05DF8B1
:1015440004EBFFF7B9BF002000F0FEFB14212820B4
:1015540000F018FD084B18210093202330201A4670
:1015640000F016FD03B05DF804EB00F0FBBB00BF18
:10157400640F0020741000201C0000200B4BB3F9F2
:101584000030032B11D8DFE803F002040608FFF74C
:10159400EDBDFFF7CBBDFFF709BE0022044B1A6077
:1015A4000122044B1A60FFF7B3BF7047D00F00202D
:1015B4007010002094100020064BB3F90030042B67
:1015C40007D10022044B1A600122044B1A60FFF772
:1015D4009FBF70476A100020601000209410002004
:1015E4007FB54FF0FF350E4CCDE901252688024624
:1015F4000091102331460B4801F02CFC2B460122AC
:101604002188084801F032FD064D08B904B070BDC8
:101614004FF0FF3301222188284601F027FDF4E72B
:1016240008000020DC1000202DE9F04F93B04FF6A5
:10163400FF7300241D4D1E4E2B80738800AF1B02C8
:1016440003F5857323F07E4323F00703ADEB030D0D
:10165400E9462346DFF85CB07188A2B2914204F1F6
:10166400010A07D8C5F80490FFF752FF4C37BD466E
:10167400BDE8F08F07F148083C22002107F10C0077
:1016840048F8403D7B6004F0E3FADBF80000A4B2C4
:101694004022414600EB8410FFF7A2FF09EB04212E
:1016A4004046FFF7DBFE54467B68D5E7640F002015
:1016B4007410002034010020064BB3F90020064BBF
:1016C4001A600122054B1A600022054B1A60FFF7CD
:1016D400ABBF00BFD00F002080100020941000206A
:1016E400A00F002010B592B01022002108A804F029
:1016F400AFFA1422002101A804F0AAFA02224FF43E
:1017040080030C21CDE90C23C0230420CDE90E1362
:1017140008230124CDE9100306A8CDE9064402F00C
:10172400F3F90F230021CDE901344FF4805301A8CC
:10173400CDE90311059302F0B7FB12B010BD000010
:10174400B0F5807F70B5144C18D1144D2E7866B95D
:10175400134802F0C8FC134B1E8001232B70104861
:1017640002F0AFFC0E4802F0D5FC23782BB10B4BF2
:101774001B7813B101220C4B1A7070BDB0F5007FB9
:10178400F3D12578002DF0D1054802F0ACFC054BCF
:101794001D8001232370E2E7681000205810002008
:1017A400381100206C1000205210002010B50021C8
:1017B4000A2000F0E7FB294A012306CA284800F062
:1017C400CBFB00F0CFFA274B1B68012B05D1264A2F
:1017D4001388013B1380FFF79BFE244C2368012BE5
:1017E40001D1FEF7EFFE224B1A68012A06D12260CE
:1017F4000022BDE810401A60FEF7E4BE1D4B1B68D2
:10180400012B03D1BDE81040FFF708B91A4B1B6840
:10181400012BF7D0194B1A68012A06D12260002245
:10182400BDE810401A60FEF7AFBE154B1B68012BD4
:1018340003D1BDE81040FFF735BB124B1B68012BE9
:1018440003D1BDE81040FFF729BC0F4B1B68012BE7
:1018540003D1BDE81040FFF759BD10BD5001002071
:10186400DC7A000894100020640F0020C40F0020CC
:1018740098100020580F0020641000205C100020F5
:10188400A00F0020701000206010002008B5002177
:10189400182000F077FB2C4A012306CA2B4800F0DD
:1018A4005BFB00F05FFA2A4B1B68012B07D1294A26
:1018B400138801331380BDE80840FFF729BE264A88
:1018C4001368012B03D1BDE80840FEF75BBF234B2F
:1018D4001B68012B36D0224B1B68012B03D1BDE8BA
:1018E4000840FFF71DB81F4B1B68012B03D1BDE84F
:1018F4000840FFF76FB81C4B1B68012BF7D01B4B3C
:101904001968012906D1116000221A60BDE8084057
:10191400FEF73ABE164B1B68012B03D1BDE8084005
:10192400FFF778BA134B1B68012B03D1BDE80840BD
:10193400FFF76CBB104B1B68012B03D1BDE80840BB
:10194400FFF738BD08BD00BF50010020F87A000839
:1019540094100020640F0020C40F0020CC0F00203E
:1019640098100020580F0020641000205C10002004
:10197400A00F0020701000206010002008B5002186
:10198400112000F0FFFA284A012306CA274800F074
:10199400E3FA00F0E7F9264B1B68012B03D1BDE8FD
:1019A4000840FFF79FBC234A1368012B3AD0224B0F
:1019B4001B68012B03D1BDE80840FEF79BBE1F4BFB
:1019C4001B68012B03D1BDE80840FFF7B5B81C4BD9
:1019D4001B68012B03D1BDE80840FFF785B9194BFB
:1019E4001968012906D1116000221A60BDE8084077
:1019F400FEF7CABD144B1B68012B03D1BDE8084098
:101A0400FFF75ABE114B1B68012B03D1BDE80840F8
:101A1400FFF7B4BD0E4B1B68012B03D1BDE8084092
:101A2400FFF7CABD08BD00BF50010020DA7A0008E4
:101A340094100020C40F0020CC0F0020580F002069
:101A4400641000205C100020A00F00207010002003
:101A5400601000202DE9F14FDFF8C48081460E4666
:101A640044462C4D08F11807284602F01FFB30406D
:101A7400208023884B45F7D20234BC42F4D10024A1
:101A8400DFF89CA0DFF88CB0474600250EE05846EE
:101A940002F00CFB3040AAF80000BAF800303A8893
:101AA4009A42F4D04B45F2D201350237ABB29C4294
:101AB400F3D80134A4B20C2C0AF1020AE4D10A24AA
:101AC400154F164D2146022000F05CFA95E80600F9
:101AD400012337F80A0C00F08BFA214648200A3417
:101AE40000F050FA95E80600012337F8020FE4B23B
:101AF40000F07EFA462CE5D10021022000F042FAE3
:101B040095E806000123304601B0BDE8F04F00F02F
:101B14006FBA00BF78110020AE0F002050010020E2
:101B2400A40F002070B54FF4FA7040F6FF71FFF770
:101B340091FF114A002316461048114C34F8131033
:101B440050F8211042F8231001330C2BF6D1002455
:101B54000C4D052156F8240003F05EFE0A2000F027
:101B6400A1FC0221284603F057FE01340A2000F0AC
:101B740099FC0C2CEDD170BD700F00205801002091
:101B8400A40F00200F600008002400B5504B8BB058
:101B94001C70504B504D1C70504B1C7000F056FC88
:101BA400FFF7A0FDCDE907444D4B019409941A6B4E
:101BB40005A942F080021A631A6B4A4802F08002B7
:101BC4000192019A02941A6B42F004021A631A6B8E
:101BD40002F004020292029A03941A6B42F0010288
:101BE4001A631A6B02F001020392039A04941A6BAB
:101BF40042F002021A634FF440721B6B03F00203BB
:101C04000493049B384BCDE9052300F0F9FC2246EC
:101C14002146172000F06CFC172000F09DFC33488F
:101C2400334BC0E90544C0E90034324BC36000F0D3
:101C3400C7FC3148046000F0D3FD30493048314BD3
:101C4400C0E90244C0E900134FF48043C0E90644EC
:101C5400C0E90434046200F0C1FF2B4B2B4803603D
:101C640002F0DEF92A4B2B48036000F099FC03F0E4
:101C74007BFD45F6C0532848CDE90544C5E900037A
:101C84000A232846EB60AC60AC6102F061FB2023C0
:101C940005A92846CDE9053402F074FB00F088F864
:101CA400012000F051F800F05DF8204600F04CF8F7
:101CB4000F210C20FFF7CEFE00F054F842F2107012
:101CC40000F0F0FBFEF7FEFBFEF75EFCFEE700BF54
:101CD40058100020681000203811002052100020F5
:101CE4000038024000080240000011108811002052
:101CF40000000650E07A00089C10002000540040C8
:101D0400DC100020A0860100000806507811002095
:101D140000300240301100200010004070470000E5
:101D24007FB501230A2106AA02F8010D0092CDE92C
:101D3400013100227821034800F0FCFF07B05DF870
:101D440004FB00BFDC10002000230549021C18BF5F
:101D5400012252425A540133B3F5826FF6D17047CF
:101D64002A0B00207FB500240F4E104DA4F1500023
:101D7400C0B2FFF7D5FF0020FFF7D2FF1020FFF716
:101D8400CFFF82236422CDE9013203FB04634022A6
:101D94000093782101232846013400F0CBFF082C5E
:101DA400E4D104B070BD00BF2A0B0020DC10002079
:101DB40008B5642000F076FBAE20FFF7B1FF2020C9
:101DC400FFF7AEFF1020FFF7ABFFB020FFF7A8FF2F
:101DD400C820FFF7A5FF0020FFF7A2FF1020FFF7A0
:101DE4009FFF4020FFF79CFF8120FFF799FFFF2012
:101DF400FFF796FFA120FFF793FFA620FFF790FFC0
:101E0400A820FFF78DFF3F20FFF78AFFA420FFF7EC
:101E140087FFD320FFF784FF0020FFF781FFD52041
:101E2400FFF77EFFF020FFF77BFFD920FFF778FF55
:101E34002220FFF775FFDA20FFF772FF1220FFF769
:101E44006FFFDB20FFF76CFF2020FFF769FF8D2079
:101E5400FFF766FF1420FFF763FFAF20FFF760FF73
:101E64000020FFF771FFFFF77DFF01200022024BE6
:101E740058711A805A8008BD240B0020812830B57F
:101E840017D83F2915D80B4B1B7913B1B2FA82F23C
:101E940052098223CC0803FB040001F0070401214A
:101EA400054DA1402B5649B2012A0CBF0B438B436D
:101EB4002B5430BD240B00202A0B00202DE9F04FB9
:101EC40087B0074606A800E906009B46214B9DF80B
:101ED40010901C88019304EB0902812A37DC5B888B
:101EE4009DF811A0009303EB0A023F2A2FDC002582
:101EF400A7F120020AFB02F30293AA4506D8019B2C
:101F04004C441C80384607B0BDE8F08F0026029B85
:101F140005995A1931F812300393009B05EB030815
:101F24005FFA88F8B14501D80135E6E7039B30191B
:101F340003FA06F2130458BFBBFA8BF2C0B24CBFCB
:101F44005A4652094146FFF799FF0136EAE700274E
:101F5400D8E700BF240B0020F7B56D461F4685E87F
:101F64000600461E16F8014F44B195E806002046C7
:101F74003B46FFF7A3FF3478A042F3D0204603B0DA
:101F8400F0BD0000014B188059807047240B0020DD
:101F94002DE9F74F00278246894690469B463E46E8
:101FA4005E4522DA082397FBF3F20C9B06EB090546
:101FB40013440024EDB2019312E0019BE2089A5C01
:101FC40004F00701C1F107010A4104EB0A0012F011
:101FD4000102C0B218BF01222946FFF74FFF0134A6
:101FE4004445EADB01364744DAE703B0BDE8F08F45
:101FF4002DE9F74F6C461E4684E806008046F8B982
:1020040094E80600344803B0BDE8F04FFFF7A4BFDE
:1020140005EB85056D00ADB2B8FBF5F71FFA83F942
:102024000133002FF4D10A23B5FBF3F5DFF8C8A080
:10203400DFF8C8B0BBB2994505D803B0BDE8F08F4E
:1020440000230125E8E7B8FBF5F305FB13889AB2F2
:102054000A23B5FBF3F51FFA88F8ADB2092A0CD8A8
:10206400DFE802F035050D12171C21262B3033460C
:1020740094E806001948FFF76FFF0137DAE73346A3
:1020840094E806001648F6E7334694E80600154837
:10209400F1E7334694E806001348ECE7334694E846
:1020A40006001248E7E7334694E806001048E2E7E2
:1020B400334694E806000F48DDE7334694E806000B
:1020C4005846D8E7334694E806005046D3E73346EB
:1020D40094E806000048CEE7B2860008B4860008FB
:1020E400B6860008B8860008BA860008BC860008D0
:1020F400BE860008C0860008C4860008C2860008A0
:10210400002182B00B4B00915A6C42F480425A6415
:102114005A6C02F480420092009A01911A6C42F0C7
:1021240080521A641B6C03F080530193019B02B02C
:10213400704700BF003802400268094B82B09A42DF
:102144000BD100230193074B1A6B42F480521A639C
:102154001B6B03F480530193019B02B0704700BFD3
:1021640000300240003802400268094B82B09A42B3
:102174000BD100230193074B5A6B42F010025A63B0
:102184005B6B03F010030193019B02B0704700BF27
:102194000000065000380240002382B00193064B31
:1021A4005A6B42F020025A635B6B03F020030193E5
:1021B400019B02B0704700BF0038024030B50446AE
:1021C40089B01422002103A803F042FD2268144BB5
:1021D4009A4223D10025134C0195236BC02243F06E
:1021E40002032363236B012103F002030193019B88
:1021F4001223CDE903230323CDE90513042303A903
:102204000948079300F0FCF90295236C43F400138A
:102214002364236C03F400130293029B09B030BDC2
:102224000054004000380240000402400268094B98
:1022340082B09A420BD100230193074B5A6B42F0B0
:1022440040025A635B6B03F040030193019B02B0AD
:10225400704700BF000806500038024007B50F4B16
:1022640002689A4216D1002203F50A330192196CCE
:10227400362041F0100119641B6C114603F0100361
:102284000193019B00F034F9362003B05DF804EBB0
:1022940000F062B903B05DF804FB00BF0010004019
:1022A4007047FEE7FEE7FEE7FEE7704770477047BA
:1022B40000F0E6B808B54FF4807000F085FABDE888
:1022C40008404FF4007000F07FBA000070B5134C62
:1022D400134801F034FF2388012B02D801332380F3
:1022E40070BD0F4801F0FFFE002323800D4C0E4EFD
:1022F40022780E4D32B1FFF741FB002333702B706F
:102304002370EDE7337813B1FFF750FAF5E72B7834
:10231400002BF2D0FFF7BAFAEFE700BF6C100020F1
:10232400381100205210002058100020681000209E
:10233400014800F0E7BF00BF1025002008B50A4B94
:102344000246196809B909491960694618680244BE
:102354008A4206D903F042FC0C2303604FF0FF309D
:1023640008BD1A60FCE700BF3C0F002018290020BC
:1023740000210C4B1A6842F001021A6099601A6835
:1023840022F0847222F480321A60074A5A601A6872
:1023940022F480221A604FF00062D960034B9A60E5
:1023A400704700BF003802401030002400ED00E008
:1023B400DFF834D0002103E00C4B5B584350043168
:1023C4000B480C4B42189A42F6D30B4A02E0002306
:1023D40042F8043B094B9A42F9D3FFF7C9FF03F0D3
:1023E40003FCFFF7D1FB704700000220348700088C
:1023F40000000020080B0020080B002014290020F6
:10240400FEE7000038B50E4B054618784FF47A7392
:10241400B3FBF0F30B4A1068B0FBF3F000F0AAF83A
:10242400044658B90F2D09D8024629464FF0FF300B
:1024340000F05EF82046044B1D6038BD0120FCE727
:102444002C090020280900203009002008B50B4B76
:1024540003201A6842F400721A601A6842F4806217
:102464001A601A6842F480721A6000F02FF8002093
:10247400FFF7C8FFFFF744FE002008BD003C024000
:10248400034A044B11681B780B441360704700BF68
:10249400C81100202C090020014B1868704700BFA8
:1024A400C811002037B50190FFF7F6FF0546019CDF
:1024B400631C1EBF044B1B78E418FFF7EDFF401BA1
:1024C400A042FAD303B030BD2C090020074A000211
:1024D400D36800F4E06023F4E0631B041B0C43F0B6
:1024E400BF6343F400330343D360704700ED00E05F
:1024F400174B70B5DC684FF0FF36C4F30224C4F107
:102504000705042D04F1040328BF0425062B98BFF6
:10251400002406FA05F388BF033C21EA0303A34021
:1025240006FA04F422EA0404002843EA0403A8BFD8
:1025340000F160404FEA0313B8BF064ADBB2ABBFF9
:1025440000F5614000F00F0080F80033135470BDB3
:1025540000ED00E014ED00E0002808DB012342094F
:1025640000F01F0003FA00F0014B43F8220070470B
:1025740000E100E00138B0F1807F0AD2F021064B7F
:10258400064A586082F823100020072298601A60D7
:1025940070470120704700BF10E000E000ED00E04C
:1025A40010B5044650B1437903F0FF0213B9027128
:1025B400FFF7C2FD01230020637110BD0120FCE779
:1025C40010B50446D0B190F8393003F0FF021BB9BE
:1025D40080F83820FFF7C8FDD4E9013021680343AF
:1025E4000A68606922F47E72034313430B6000207F
:1025F4000123E063E36284F8393010BD0120FCE775
:1026040000232DE9F74FD1F80080DFF8B8916B4A29
:1026140038FA03F402D103B0BDE8F08F4FF0010C97
:102624000CFA03FC1CEA080600F0B68003254C688B
:102634004FEA430E24F0100A0AF1FF3705FA0EF5AB
:10264400012F6FEA050511D8876807EA050BCF68E3
:1026540007FA0EF747EA0B078760476827EA0C0C6E
:10266400C4F300179F4047EA0C074760C768BAF1F4
:10267400020F07EA050C8F6807FA0EF747EA0C0702
:10268400C76016D14FF00F0C4FEAD30A00EB8A0A49
:1026940003F0070BDAF820704FEA8B0B0CFA0BFCF3
:1026A40027EA0C0C0F6907FA0BF747EA0C07CAF87C
:1026B400207007683D4004F0030707FA0EFE4EEA57
:1026C40005050560E50067D54FF0000B4FF00F0CD2
:1026D400CDF804B0D9F8447003F0030E47F48047F2
:1026E400C9F84470D9F84470354D07F48047019710
:1026F400019F23F0030707F1804707F59C37D7F8BC
:1027040008A04FEA8E0E0CFA0EFCA8422AEA0C0C22
:1027140044D005F58065A84242D005F58065A842FD
:1027240040D005F58065A8423ED005F58065A842F5
:102734003CD005F58065A8423AD005F58065A842ED
:1027440038D005F58065A84236D005F58065A842E5
:1027540014BF0925082505FA0EF545EA0C05BD60E8
:10276400F743156814F4803F0CBF3D4035431560B2
:10277400556814F4003F0CBF3D40354355609568DF
:1027840014F4801F0CBF3D4035439560D568A40206
:1027940054BF3D403543D560013339E75D46DAE740
:1027A4000125D8E70225D6E70325D4E70425D2E797
:1027B4000525D0E70625CEE70725CCE7003C0140F8
:1027C400000002400038024008B5044B5969014238
:1027D40002D05861FEF7B4FF08BD00BF003C0140C1
:1027E40038B5044610B390F8353003F0FF021BB936
:1027F40080F83420FFF7D0FC0020022301220C498A
:1028040084F83530E06120626062A0630B6825685B
:1028140023F030032B4384F8370084F82D200B6019
:1028240084F8352084F82C00E06338BD0120FCE7EF
:1028340000040650016800224B6913F4806310D031
:102844006FF480634B612023026380F83D3080F88D
:102854003E20036C80F83C2043F004030364012011
:102864007047184670472DE9F041044616469846CD
:102874008FB22568686937EA000017D06B695A057A
:1028840016D52B68202243F400732B606FF4806309
:102894006B610023236384F83D2084F83E30226C6E
:1028A40042F004020120226484F83C30BDE8F08147
:1028B400731CDFD0FFF7F0FDA0EB0800B04201D895
:1028C400002ED6D100232022236384F83D2084F8EF
:1028D4003E30226C42F02002E4E770B504460D4617
:1028E400164623685B695B0701D5002070BD20464E
:1028F400FFF7A0FFA8B96A1CF3D0FFF7CDFD801B3A
:10290400A84201D8002DECD100232022236384F8AF
:102914003D2084F83E30226C84F83C3042F02002A2
:1029240022640120E2E770B504460D46164620688D
:10293400436913F0400301D0002010E04269D2063D
:102944000ED56FF0100242612022236384F83D20EB
:1029540084F83E30226C0120226484F83C3070BD3F
:10296400FFF79AFD801BA84201D8002DDFD1002378
:102974002022236384F83D2084F83E30226C42F008
:102984002002E8E72DE9F843044690461F46089ED6
:102994004FEA11498DB22168B9F1010F0CBF4B699F
:1029A4008B6935EA03030CBF01230023984501D04A
:1029B400002016E07B1CEFD0FFF76EFD801BB842B1
:1029C40001D8002FE7D1002320220120236384F8BB
:1029D4003D2084F83E30226C84F83C3042F02002E2
:1029E4002264BDE8F88370B504460D461646236894
:1029F4005B691B0601D5002070BD2046FFF71AFF56
:102A0400A8B96A1CF3D0FFF747FD801BA84201D880
:102A1400002DECD100232022236384F83D2084F888
:102A24003E30226C84F83C3042F0200222640120C3
:102A3400E2E700002DE9FF41154602689846136855
:102A44000B9E43F4807313600F460A9B009600228A
:102A54004FF001110446FFF795FF236838B11B6856
:102A6400DB0502D54FF40073236403200AE007F06A
:102A7400FE071F610A9A334618492046FFF7F3FE02
:102A840018B1012004B0BDE8F081236803905A69AD
:102A94000A9903929B69324603932046039BFFF7EE
:102AA400A2FF40B1236C042B01BF2268136843F4D6
:102AB40000731360E5E7B8F1010F236802D1EDB2AA
:102AC4001D61DFE72A0A1A610A9932462046FFF798
:102AD4008AFF0028E6D12368F1E700BF0200010065
:102AE4002DE9FF419846036816461A680B9D42F487
:102AF40080621A601A680F4642F480721A604FF0BE
:102B040001110A9B009500220446FFF73BFF23684E
:102B140048B11B68DB0502D54FF40073236403201E
:102B240004B0BDE8F081FFB207F0FE021A612A4941
:102B34002B460A9A2046FFF796FE08B10120EFE7DC
:102B4400236803905A690A9903929B692A4603935E
:102B54002046039BFFF747FF40B1236C042B01BFC2
:102B64002268136843F400731360E7E7B8F1010FB8
:102B7400236825D1F6B21E612A460A992046FFF73A
:102B840032FF02460028E8D1216820460B6843F44E
:102B940080730B600A9B00954FF00111FFF7F2FE62
:102BA40023680028B5D147F001071F610A9A2B4614
:102BB40009492046FFF757FE003018BF0120AFE750
:102BC400320A1A610A992A462046FFF70CFF0028A8
:102BD400C3D12368CEE700BF0200010070B50446EC
:102BE40008B9012070BD90F83D3003F0FF021BB915
:102BF40080F83C20FFF7E2FA242384F83D30236870
:102C04001A6822F001021A601A6842F400421A603B
:102C14001A6822F400421A6001F0EAF96368414A32
:102C240093424DD8404A9042DBD940492268B0FBD8
:102C3400F1F1556825F03F050D435560156A25F0FF
:102C44003F05013129431162D169364D21F44F41C9
:102C5400AB4221F0FF0100F1FF3048D85B00B0FB2C
:102C6400F3F0431CC3F30B03042B38BF04230B43BF
:102C7400D3611168D4E9073021F0C00103430B4349
:102C840013609168D4E9030321F40341034321F061
:102C9400FF010B439360D168D4E9053021F0FF01B3
:102CA40003430B43D3601368002043F00103136014
:102CB4002023206484F83D30206384F83E0091E7AB
:102CC4001B4A90428DD9194E4FF49671B0FBF6F61B
:102CD40022687143556825F03F0535434FF47A76F1
:102CE4005560156AB1FBF6F125F03F05A9E7A56823
:102CF40055B903EB4303B0FBF3F0431CC3F30B03DD
:102D04006BB143F40043B2E719256B43B0FBF3F016
:102D1400431CC3F30B0313B143F44043A7E701235C
:102D2400A5E700BFA08601007F841E0040420F007B
:102D3400FF083D002DE9F743044699460F469046A7
:102D44000C9EFFF7A9FB94F83D300546202B03D0D9
:102D5400022003B0BDE8F0830090192301223B490F
:102D64002046FFF70FFE0028F2D194F83C30012BE7
:102D7400EED0012384F83C30236820461A68D1073A
:102D840058BF1A6839465CBF42F001021A601A68DB
:102D940022F400621A60212384F83D30402384F831
:102DA4003E30002323640A9BCDE900656362BDF8CD
:102DB4002C3042466385638D2385254BE3624B4665
:102DC400FFF738FE00282AD00120C2E7FFF70BFEE8
:102DD40040B1236C042B01BF2268136843F40073D1
:102DE4001360F1E7636A27681A4612F8011B396118
:102DF4006262628D218D013A92B262857A69481EBF
:102E040080B2520720850AD548B15A7802333A6114
:102E14006362638D0239013B9BB221856385238DF7
:102E24002A4631462046002BD0D1FFF756FD002814
:102E3400CFD12268136843F400731360202384F80D
:102E44003C0084F83D3084F83E0082E70200100024
:102E54000000FFFF2DE9F043044687B099460D4674
:102E64009046109FFFF718FB94F83D300646202B40
:102E740004D00225284607B0BDE8F083009019234A
:102E8400012277492046FFF77DFD0028F1D194F80F
:102E94003C30012BEDD0012384F83C3023682946D3
:102EA4001A68D00758BF1A6820465CBF42F0010276
:102EB4001A601A6822F400621A60222384F83D30F2
:102EC400402384F83E30002323640E9BCDE9007632
:102ED4006362BDF83C3042466385638D2385614B54
:102EE400E3624B46FFF7FCFD054608B10125C1E747
:102EF400228D236892B902905A6902929A690292C9
:102F0400029A1A6842F400721A60202384F83D3051
:102F1400002384F83E3084F83C30ABE7012A2CD1FE
:102F24001A6822F480621A6003905A6903929A69BB
:102F34000392039A1A6842F400721A60DFF8288137
:102F4400238D002BE1D0032B6ED8012B2DD13246DB
:102F540039462046FFF7E7FC0028C7D123681A69E1
:102F6400636A1A70636A01336362238D013B2385AC
:102F7400638D013B9BB26385E2E7022A0ED11A6896
:102F840022F480621A601A6842F400621A600490A3
:102F94005A6904929B690493049BCFE705905A698C
:102FA40005929B690593059BC8E7022B00963B4657
:102FB4004FF000024146204619D1FFF7E3FC0028F8
:102FC40094D123681A6842F400721A601A69636A19
:102FD4001A70626A531C6362238D013B2385638DDF
:102FE400013B9BB2638523681B695370BAE7FFF703
:102FF400C9FC024600287FF479AF2368204619688B
:1030040021F4806119601969636A1970636A009612
:1030140001336362238D4146013B2385638D013B6C
:103024009BB263853B46C8E7324639462046FFF7E4
:103034007AFC00287FF45AAF23681A69636A1A700D
:10304400626A531C6362238D013B2385638D013BBC
:103054009BB263852368596949077FF571AFC3E75C
:10306400020010000000FFFF040001002DE9F04FF2
:10307400044685B0984689469246FFF70DFA94F8BF
:103084003D300546202B03D0022005B0BDE8F08F6B
:103094000090192301224C492046FFF773FC0028B5
:1030A400F2D194F83C30012BEED0012384F83C306B
:1030B400236801271A68DFF810B1D20758BF1A68CD
:1030C40009F0FE095CBF42F001021A601A6822F49A
:1030D40000621A60242384F83D3000232364A3F59E
:1030E4008033E36222684FF001111368204643F4F1
:1030F40080731360434600950022FFF743FC236866
:1031040038B11B68DB0502D54FF400732364032038
:10311400BBE7C3F81090FFF7BFF9A0260546236864
:103124005A695B69C2F34002C3F3802394F83D10EB
:10313400A02901D002B9E3B12026236884F83D60B8
:103144005A6912F0020F1A6842F400721A6027D00A
:10315400002203925A691C4903929B69012203933A
:10316400039B009519232046FFF70CFC98B101201E
:103174008BE7FFF791F9401B404502D8B8F1000FE7
:1031840001D184F83D6023685A695B69C2F3400247
:10319400C3F38023CAE784F83D6084F83C0074E7F5
:1031A4006FF4806259465A61204600951923012222
:1031B400FFF7E8FB0028DAD10137574592D384F8AA
:1031C4003D6084F83C00D2E702001000F0B50446EC
:1031D4008BB060B390F8BD33056803F0FF021BB9F0
:1031E40080F8BC2302F0A8FB032384F8BD33EB6B07
:1031F40025466E4613F4807355F8100B08BF2361FF
:1032040001F0ACF90FCD0FC60FCD0FC695E8030042
:10321400254686E80300271D97E80E0055F8100B95
:1032240001F0E8F8064620B1022384F8BD330125F5
:1032340050E00146206801F097F930464FF0010E46
:103244001C260146D4F804C0C2B2944500F1010022
:103254001CD800231C261946D8B2844503F1010367
:1032640022D80FCD6E460FC60FCD0FC695E80300CA
:1032740086E8030097E80E00206801F0B7F90123FF
:10328400054600B3022284F8BD23D0E706FB0243BF
:1032940083F83DE083F83C20A3F8422083F83F10F4
:1032A400C3E911111965CFE706FB004282F8FD114D
:1032B40082F8FC0182F8FF11C2F80412C2F8081265
:1032C400C2F81012C8E784F8380084F8BD332068C7
:1032D40001F0A8FC28460BB0F0BD90F8BC3310B543
:1032E400012B04460CD0012380F8BC33006801F0A4
:1032F4008DFC206801F02CF9002084F8BC0310BD7B
:103304000220FCE72DE9F04FD0F800B087B0044666
:10331400584601F0C2FC0290002840F01A8120684F
:1033240001F08CFC002800F01481206801F086FC78
:10333400860748BF2268206842BF536903F002032E
:10334400536101F07BFC050300F10681206801F064
:1033540075FC40030BD5206801F07CFC25468146B2
:1033640000260BF51068B9F1000F40F0BE8120680B
:1033740001F064FC00280DDADBF80438204623F061
:103384000103CBF8043802F05FFB2268536903F0B1
:1033940000435361206801F051FC00050BD5DBF8B4
:1033A4000838D90702D5204602F036FB2268536953
:1033B40003F400635361206801F040FCC20435D576
:1033C4000BF500656B68102123F001036B60206826
:1033D40001F0E2F84FF67F3160680BF51063029A52
:1033E400904240F01882EB6943F00113EB61236BC8
:1033F400002B00F02382D5F8843043F00B03C5F88A
:1034040084306B6C43F00B036B64DBF8003804F519
:10341400717223F4FE63CBF80038217C206801F03C
:103424005BFC2268536903F480535361206801F004
:1034340005FC830416D5206801F033FC206801F0F4
:1034440099F9E060256800F0CDFD227B014628460D
:1034540001F00AF8204602F0CCFA2268536903F41A
:1034640000535361206801F0E9FBC7062BD522689D
:10347400936923F010039361DBF82050C5F34343B1
:10348400022B05F00F0640F0E48147F6F0731D426D
:1034940014D01C2303FB0646C5F30A152A46D6F8A6
:1034A4000812584601F040FBD6F808322B44C6F8FF
:1034B4000832D6F814321D44C6F8145222689369AF
:1034C40043F010039361206801F0B8FB060707D5A9
:1034D400204602F08AFA2268536903F00803536114
:1034E400206801F0ABFBC50208D50021204602F09C
:1034F400B3FA2268536903F480135361206801F01E
:103504009DFB800208D50021204602F0A1FA226822
:10351400536903F400135361206801F08FFB4100E9
:1035240007D5204602F09CFA2268536903F08043D1
:103534005361206801F082FB42070AD523685D6865
:103544006B0702D5204602F08FFA226853682B439A
:10355400536007B0BDE8F08F206801F073FB0025CD
:103564008046DFF810930BF53066B8F1000F3FF496
:10357400EDAE18F0010F00F0B480EBB219462068EC
:10358400039301F06FFB10F0010F0746039B53D028
:1035940001214FEA451A06EB0A029160226821696B
:1035A400106C02F5306292440129DAF8082058D1EF
:1035B400110714D5484505D9100444BF4FF40043FE
:1035C400CAF80830204602F0F9F904F571720121B5
:1035D400206801F081FB0823CAF808302CE091062A
:1035E40001D52023F8E712F0280F25D1484504D946
:1035F400100402D54FF40043EEE71C2202FB0542FF
:10360400DAF81010D2F80402C1F31201411AC2F818
:103614001412D2F808120844C2F8080219462046C7
:1036240002F0D2F945B9D4F810322BB904F571720D
:103634000121206801F050FB380737D52368206941
:103644001A6C4FEA451A03F530635344012899680C
:1036540016D14A4517D9090444BF4FF40041996073
:1036640011E08349884206D11104C3D4920644BFB1
:103674002022CAF808201946204602F0A5F9DBE703
:103684007B488242E7D02046039202F097F9039ADE
:103694004A4507D92169012904D104F571722068CA
:1036A40001F01AFB0823B244CAF80830F80642BFF6
:1036B400102206EB45139A60B9060BD5216901293E
:1036C40004D104F57172206801F006FB202206EB98
:1036D40045139A60BA0442BF4FF4005206EB4513F7
:1036E4009A6001354FEA58083FE719F0010F72D08C
:1036F4005FFA86FA5146206801F0BDFAC30707460F
:1037040024D50120DBF8343806F00F0200FA02F267
:1037140023EA02030246CBF8343808EB46139860D8
:1037240023695146834202BFD5E911239B18AB6438
:10373400204602F052F92169012907D136B9236DD7
:1037440023B904F57172206801F0C6FA380742BF44
:10375400082208EB46139A60F90642BF102208EBD0
:1037640046139A607A0642BF402208EB46139A60D9
:10377400BB0742BF022208EB46139A603F062AD5D4
:10378400D5E914329A4226D89B1A6A6C216893426E
:1037940028BF134603339B08049301F5106303EB1E
:1037A400461303910593059B04999A69D5E914730B
:1037B40092B28A4214D29F420DD80121039B06F093
:1037C4000F0203F5006AD3F8343801FA02F223EA4F
:1037D4000203CAF8343001364FEA59091C35C2E5F0
:1037E4009F42EAD9002FE8D0FF1A6B6C52469F42E1
:1037F40028BF1F46FB1C9B080493237C039800935B
:10380400A96CBBB201F0A4F8AB6C3B44AB646B6D28
:103814001F446F65C7E799601A68203322F40012C9
:1038240043F8202CC3F8E811D3F8E02122F4001265
:10383400C3F8E021029A01320292D0E56B6943F4A5
:10384400005343F02B036B612B6943F00B032B6193
:10385400DBE5062B7FF432AE082204F5717158467D
:1038640001F062F91C23C5F30A1503FB064620E6A2
:103874000A31544F0A30544F90F8BC2310B5012A32
:1038840004460BD0012280F8BC2384F83810006869
:1038940001F0ACF9002084F8BC0310BD0220FCE761
:1038A40070B504461C2001F00F05684311F0800F29
:1038B40014BF00F13C0100F5FE7104EB000617BFD4
:1038C40001200020091986F83D0004BF091986F873
:1038D400FD018A604A780D70CB7002B1CD80022B55
:1038E40004BF00230B7194F8BC33012B09D00123CE
:1038F400206884F8BC3300F048FF002084F8BC033F
:1039040070BD0220FCE71C2301F00F02534311F0A9
:10391400800F10B5044618BF03F13C0118440BBFD7
:1039240003F5FE710123002309190ABF091980F860
:103934003D3080F8FD310A7094F8BC33012B09D076
:103944000123206884F8BC3300F05EFF002084F873
:10395400BC0310BD0220FCE738B51C2401F00F05A0
:103964006C4304F5FE710444C4F810320023C4F817
:103974000822C4F8143284F8FD3184F8FC51036938
:103984000144012B08BFC4F80C220068DAB21DB947
:1039940000F06AFF002038BD00F0EEFFFAE71C23B8
:1039A40001F00F0103FB0101D1F81402704738B58F
:1039B4001C2401F00F056C4304F13C01044423650D
:1039C400002363650123A26484F83D3084F83C50ED
:1039D40003690144012B08BFE2640068DAB21DB92F
:1039E40000F042FF002038BD00F0C6FFFAE738B50A
:1039F400436801F00F059D4204462CD811F0800F56
:103A04004FF01C031ED001226B4303F13C0103441D
:103A1400014483F83D2001230D708B7094F8BC237E
:103A24009A421AD084F8BC33206801F08BF82DB97F
:103A340004F57172217C206801F04EF9002084F8AD
:103A4400BC0338BD00224B4303F5FE71034401441B
:103A540083F8FD21DFE70120F3E70220F1E738B521
:103A6400436801F00F029A42044625D81C235343AD
:103A740011F0800F14BF03F13C0103F5FE711844EB
:103A84004FF0000515BF012300230919091914BFBC
:103A940080F83D3080F8FD318D700A7094F8BC33A5
:103AA400012B0BD00123206884F8BC3301F075F896
:103AB400284684F8BC5338BD0120FCE70220FAE70D
:103AC400006870B51204446A19B922438262002066
:103AD40070BD836A4D1E04EB134400235E1CDBB2ED
:103AE4009D4205D83F31224300EB81004260EEE75E
:103AF400403300EB83035B6804EB13443346EDE788
:103B040003680020596270472DE9F341044608B95F
:103B140001203BE00368DD0710D42368980745D4EF
:103B240023681A0700F1918023685B0700F1AF80D6
:103B3400A069002840F00181002027E0AA4B9A6880
:103B440002F00C02042A07D09A6802F00C02082A38
:103B54000AD15B68590207D5A34B1B689A03DCD5CD
:103B64006368002BD9D1D3E7A04B22791A7063681C
:103B74007BB1FEF791FC06469B4D2B689B03CCD48E
:103B8400FEF78AFC801B6428F7D9032002B0BDE845
:103B9400F081FEF781FC0646934D2B689F03BCD54C
:103BA400FEF77AFC801B6428F7D9EEE78E4B9A68FF
:103BB40012F00C0F07D09A6802F00C02082A16D1F2
:103BC4005B685E0213D4884B1A68950702D5E268D5
:103BD400012A9DD11868F82292FAA2F2B2FA82F16F
:103BE40022698A4020F0F8010A431A6098E7E268E3
:103BF4007F4BDAB101221A60FEF74EFC06467A4D7D
:103C04002B6898070CD52968F82393FAA3F3B3FA21
:103C140083F22369934021F0F80213432B607FE77A
:103C2400FEF73AFC801B0228EAD9AEE71A60FEF7D9
:103C340033FC06466C4D2B6899077FF571AFFEF790
:103C44002BFC801B0228F6D99FE76269694B7AB185
:103C540001221A60FEF720FC0646634D6B6F9F0736
:103C64003FF562AFFEF718FC801B0228F6D98CE7FB
:103C74001A60FEF711FC06465B4D6B6F98077FF5E3
:103C840053AFFEF709FC801B0228F6D97DE7564B9B
:103C94001A6C12F0805226D1012601921A6C42F05D
:103CA40080521A641B6C03F080530193019B524DA4
:103CB4002B6843F480732B602B68D90515D54F4BC3
:103CC400227A1A70A36803BBFEF7E6FB41F2883838
:103CD4000746454D2B6F980720D5FEF7DDFBC01B2B
:103CE4004045F7D951E70026E1E72B6843F4807398
:103CF4002B60FEF7D1FB07462B68DA05DFD4FEF70D
:103D0400CBFBC01B0228F7D93FE7FEF7C5FB41F206
:103D140088380746344D2B6F9B0708D5002E3FF497
:103D240007AF314A136C23F08053136400E7FEF7A6
:103D3400B3FBC01B4045EED927E72B4DAB6803F01E
:103D44000C03082B5ED000232D4E022833603ED195
:103D5400FEF7A2FB07462B68990132D447F6C077D9
:103D640097FAA7F74FF44032B7FA87F792FAA2F21C
:103D74004FF07061B2FA82F091FAA1F1D4E90732FE
:103D8400B1FA81F11343626A02FA07F7A26A3B436C
:103D94005208013A82401343E26A134C02FA01F1D9
:103DA4000B436B6001233360FEF776FB0546236803
:103DB4009A013FF5C1AEFEF76FFB401B6428F6D9AC
:103DC400E3E6FEF769FBC01B6428C4D9DDE6FEF711
:103DD40063FB04462B689B017FF5AEAEFEF75CFBEC
:103DE400001B6428F6D9D0E60038024002380240AD
:103DF40000004742800E4742007000407038024085
:103E04006000474201283FF4C1AE6868E36900F4EA
:103E140080029A427FF47CAE226A00F03F03934210
:103E24007FF476AE626AC0F3881393427FF470AE77
:103E3400A26A00F4403393427FF46AAEE36A00F06E
:103E44007060C01A18BF0120A0E600BF134908B56E
:103E54008B6803F00C03042B03D0082B03D0104809
:103E640000E0104808BD4A684B68496813F48003B1
:103E740014BF0C480A48C1F3881118BF002302F08C
:103E84003F02A1FB0001FCF79BF9044B5B68C3F301
:103E9400014301335B00B0FBF3F0E3E70038024079
:103EA4000024F40000366E012DE9F0410D4604466D
:103EB40010B90120BDE8F081454B1A6802F00F02E9
:103EC4008A422ED321688F0733D4C80746D4404B87
:103ED4001A6802F00F02AA4269D8226851076FD407
:103EE400130707D53B4A2169936823F4604343EAE7
:103EF400C1039360FFF7AAFF364BF0229B6892FA46
:103F0400A2F2B2FA82F203F0F003D340324AD35C55
:103F1400D840324B1860324B1868FEF773FA002011
:103F2400C8E7CAB21A701B6803F00F038B42C0D1F2
:103F3400C8E7284B11F0040F1EBF9A6842F4E05200
:103F44009A600E0742BF9A6842F460429A609A6887
:103F5400A06822F0F00202439A60B6E761681D4B44
:103F640001291A681BD112F4003FA2D09A6841F2C9
:103F7400883822F003020A439A60FEF78DFA074656
:103F8400144EB368626803F00C03B3EB820F9ED047
:103F9400FEF782FAC01B4045F3D903208AE70229C1
:103FA40002D112F0007FE0E712F0020FDDE7EAB27F
:103FB4001A701B6803F00F03AB427FF47AAF8CE7EF
:103FC4000449E0688B6823F4E05303438B6087E77C
:103FD400003C024000380240C68600082809002040
:103FE40030090020014B1868704700BF28090020E1
:103FF400084B4FF4E0529B6892FAA2F2B2FA82F2B2
:1040040003F4E053D340044AD35C044A1068D84014
:10401400704700BF00380240D686000828090020F7
:1040240010B5044690B1437903F0FF0213B902714D
:10403400FEF7FCF80223226863711368002043F042
:104044000403136001236371A06010BD0120FCE729
:10405400F8B503790446012B0E4625D00120637977
:10406400207183421DD102236371FEF715FA0746BE
:104074002268556815F0010508D093680020E360B4
:104084003360012363710023237109E0FEF704FA0E
:10409400C01B0228ECD90120022360712571A360A2
:1040A400F8BD0423A360EEE70220F9E710B500F1A0
:1040B4000C010446FFF7CCFF08B9E06810BD0020EE
:1040C400FCE7022380F83D3003689A6802F0070297
:1040D400062A1EBF1A6842F001021A60012380F802
:1040E4003D3000207047022341F2111280F83D3028
:1040F4000368196A114208D140F24442196A114214
:1041040002BF1A6822F001021A60012380F83D30D0
:104114000020704703680020DA6842F00102DA6088
:104124009A6802F00702062A1EBF1A6842F00102CA
:104134001A6070477047704770477047704703684C
:1041440010B51A69044691070ED5DA6892070BD5A3
:104154006FF002021A6101229B6902779B0777D0F4
:10416400FFF7EAFF0023237723681A69500710D565
:10417400DA6851070DD56FF004021A6102229B69B7
:10418400227713F4407F204668D0FFF7D5FF002341
:10419400237723681A6912070FD5DA6810070CD53C
:1041A4006FF008021A610422DB692277990720461E
:1041B4005AD0FFF7C1FF0023237723681A69D20678
:1041C40010D5DA68D0060DD56FF010021A610822F6
:1041D400DB69227713F4407F20464BD0FFF7ACFF16
:1041E4000023237723681A69D10708D5DA68D20730
:1041F40005D56FF0010220461A61FFF79BFF236883
:104204001A69100608D5DA68110605D56FF0800220
:1042140020461A6100F0D5F823681A69520608D5B9
:10422400DA68500605D56FF0400220461A61FFF7A0
:1042340085FF23681A69910622D5DA6892061FD58C
:104244006FF020022046BDE810401A6100F0B8B8B3
:10425400FFF771FF2046FFF770FF83E7FFF76BFF5F
:104264002046FFF76AFF92E7FFF765FF2046FFF756
:1042740064FFA0E7FFF75FFF2046FFF75EFFAFE7AD
:1042840010BD0000304A0368904212D0B0F1804F54
:104294000FD0A2F57C4290420BD002F5806290428E
:1042A40007D002F58062904203D002F57842904232
:1042B40019D14A6823F070031343234A904229D04A
:1042C400B0F1804F26D0A2F57C42904222D002F574
:1042D400806290421ED002F5806290421AD002F5AC
:1042E4007842904216D0194A904213D002F5806267
:1042F40090420FD002F5806290420BD0A2F5983222
:10430400904207D002F58062904203D002F58062A9
:10431400904203D1CA6823F4407313434A6923F0DB
:104324008003134303608B68C3620B688362064B8C
:10433400984203D003F58063984201D10B6903636B
:1043440001234361704700BF000001400040014069
:1043540010B50446A0B190F83D3003F0FF021BB93C
:1043640080F83C20FDF77AFF0223206884F83D3072
:10437400211DFFF787FF0123002084F83D3010BD85
:104384000120FCE790F83C3030B5012B4FF00203DC
:1043940014D0046880F83D306268A3680D684968E9
:1043A40022F0700223F080030B432A436260A3606F
:1043B400012380F83D30002380F83C30184630BD9E
:1043C400704770470A4B013B0FD00269002AFADAA2
:1043D4000369074A43F001030361013A05D0036905
:1043E40013F00103F9D1184670470320704700BF4A
:1043F400410D030084B038B505AD85E80E000A9B75
:104404000446012B25D1836B23F480338363C36873
:1044140023F4840323F04003C360C36823F44013EC
:10442400C360119B012B02BFC36843F48013C360B4
:10443400FFF7C8FF089B012B07D1A36843F00603CD
:10444400A360A36843F02003A360BDE8384004B030
:104454007047C36843F04003C360FFF7B3FFA36B27
:1044640043F48033A363E5E7022A58D12E4B2F4A45
:104474000B44934247D92E4B2E4A0B44934244D9C2
:10448400A1F574032C4AA3F5105393423FD9A1F12B
:10449400837302F5C332A3F5E743A032934238D9BC
:1044A400264B274A0B44934235D9264B02F59222D8
:1044B4000B4402F5787293422FD9234B02F5C322A1
:1044C4000B4402F52072934229D9A1F1B77302F586
:1044D400B712A3F5585302F55872934221D91B4BD6
:1044E40002F512220B4402F5F862934294BF0723AB
:1044F4000623C26822F47052C260C26842EA83236F
:10450400C360002070470F23F3E70E23F1E70D2368
:10451400EFE70C23EDE70B23EBE70A23E9E7092395
:10452400E7E70823E5E700BF405327FFFF340C000B
:10453400401E1BFF3F420F007F4F120060B6E5FE96
:104544005FE3160000D3CEFEC05BB3FEE05459FE19
:10455400836843F00103836000207047836823F07D
:10456400010383600020704708B5C368012923F064
:10457400C043C36008D1C36843F00053C360322012
:10458400FDF790FF002008BD19B9C36843F08043CC
:10459400F4E70120F7E70000890141F02001064A11
:1045A4000161013A05D0036913F02003F9D11846DB
:1045B40070470320704700BF410D03001023064AD3
:1045C4000361013A05D0036913F01003F9D11846C9
:1045D40070470320704700BF410D0300D0F8003836
:1045E4001943C0F8001800207047000084B02DE97A
:1045F400F047044609A880E80E00002388461946BF
:104604000C9F139E03F14002013304EB82020F2B33
:104614005160F7D1A36B002E72D143F40013A3634E
:10462400A36B23F40023A363A36B23F48023A3636A
:104634000023C4F8003ED4F8003804F50065C4F83B
:1046440000380E9B012B64D10B9900295FD12046C1
:10465400FFF7C4FF10212046FFF79EFF01462046C6
:10466400FFF7ACFF002856D1081C18BF0120002317
:104674004FF0904C19464FF0006E4FF67F392B6186
:1046840004F510626B61EB61434546D100214FF0A4
:10469400904E8C464FF000684FF67F3904F5306237
:1046A4008B424DD12B69012F23F480732B6107D1E9
:1046B4002E4B2B632B6B43F4803343F003032B63A8
:1046C4000023A3616FF0804363611FB9A36943F0C2
:1046D4001003A361A269264B1343A3610F9B1BB173
:1046E400A36943F00803A361012E01BFA36943F04A
:1046F400804343F00403A361BDE8F04704B070476E
:1047040023F40013A363A36B43F400238FE7194638
:104714009DE703219BE70120A9E7D2F800A0BAF1A5
:10472400000F0BDA3BB9C2F800E011610133C2F8A3
:1047340008902032A8E7C2F800C0F6E71160F4E759
:10474400D2F800A0BAF1000F0CDA41B9C2F8008027
:10475400C2F810C00131C2F808902032A0E7C2F8B4
:1047640000E0F5E7C2F800C0F2E700BF00018000F6
:1047740000383C80D0F8083813F0060004D013F059
:10478400020F14BF02200F20704730B501240D78AA
:1047940000F5006205F00F039C404B7800EB4510D8
:1047A400012BD36918D11C43D461D0F800391A0401
:1047B40010D48B68C978C3F30A0343F0805343F4DD
:1047C4000043D0F8002943EA814343EA8553134365
:1047D400C0F80039002030BD43EA0444D461D0F865
:1047E400003B1B04F6D48B68C978C3F30A0343F077
:1047F4008053D0F8002B43F4004343EA814313432E
:10480400C0F8003BE6E70000012330B50C78497896
:1048140000F5006204F00F05012903FA05F300EB2B
:104824004410D16B0DD1DB431940D163D1690B40E6
:10483400D361D0F800290A4B1340C0F80039002096
:1048440030BD6FEA03431940D163D1690B40D36192
:10485400D0F8002B034B1340C0F8003BEFE700BF38
:10486400007833EC0078F3EF4B78F0B50C78012B3B
:1048740000EB44144D69344E344F44D104F51063B5
:10488400B5B91D692E401E611D6945F400251D61E1
:104894001D692F401F61012A21D10A6902B15A61A1
:1048A400D4F8003943F00443C4F800390020F0BDC3
:1048B400D3F810C00CEA07071F611F693E401E6150
:1048C4008E68AE421D6938BF4E6145F400251D61F6
:1048D4004D691E69C5F3120535431D61DBE7D4F844
:1048E400003943F00443C4F800394B69002BDDD090
:1048F4000B78D0F8344803F00F020123934023438C
:10490400C0F83438D2E704F53063186938401861C8
:10491400186930401861886805B148611D69C0F3A1
:10492400120045F400251D611D69012A40EA0500B5
:10493400186102D1CA6802B15A61D4F8003B43F04D
:104944000443C4F8003BB1E7FFFF07E00000F8FFB1
:1049540010B59DF808404CB9033300EB02309B08B6
:1049640000F5805001EB8303994201D1002010BD72
:1049740051F8042B0260F7E7F7B54D780C78012D58
:1049840000EB44144B69CE78DFF894C1DFF894E16E
:104994007DD104F510652F693BBB07EA0C072F6135
:1049A4002F6947F400272F612F6907EA0E072F614B
:1049B400012A42D10B6903B16B61012E0CD1D0F8ED
:1049C400083813F4807FD4F800390CBF43F0005347
:1049D40043F08053C4F80039D4F8003943F0044359
:1049E400C4F80039002003B0F0BD07EA0E072F61B8
:1049F4002F69012E07EA0C07D1F808C02F610CEBD0
:104A0400030707F1FF37B7FBFCFC444FD5F810E070
:104A140007EACC4747EA0E072F61D5F810C0C3F365
:104A2400120747EA0C072F61C2D12F6927F0C0474C
:104A34002F612F6947F00057B9E7D4F80059012EC8
:104A440045F00445C4F800590CD0002BCAD00B78AB
:104A5400D0F8344803F00F02012393402343C0F8F5
:104A64003438BFE7D0F808589BB215F4807FD4F8E7
:104A740000590CBF45F0005545F08055C4F8005965
:104A84000C780092C9682246FFF762FFAAE704F592
:104A940030673D6905EA0E053D613D6905EA0C058F
:104AA4003D618D681BBB3B69C5F312051D433D6128
:104AB4003B6943F40023012A3B6102D1CB6803B173
:104AC4007B61012E0CD1D0F8083813F4807FD4F820
:104AD400003B0CBF43F0005343F08053C4F8003B49
:104AE400D4F8003B43F00443C4F8003B7AE72B447A
:104AF400013BB3FBF5F3DFF824C0D7F810E00CEA70
:104B0400C34C9BB26B434CEA0E0CC7F810C0D7F8E9
:104B140010C0C3F3120343EA0C03CCE70000F81FF0
:104B2400FFFF07E00000F8FF0332920801EB820266
:104B340000F58050914201D108467047036841F85E
:104B4400043BF7E74A780B78012A00EB431012D1B3
:104B5400D0F80029002A06DB2BB1D0F8003923F065
:104B64008043C0F80039D0F8003943F40013C0F88A
:104B7400003900207047D0F8002B002A06DB2BB147
:104B8400D0F8003B23F08043C0F8003BD0F8003B52
:104B940043F40013C0F8003BEBE70B784A7800EBD2
:104BA4004310CB78012AA3F10203DBB20FD1D0F872
:104BB4000029012B22F40012C0F8002905D8D0F8EE
:104BC400003943F08053C0F8003900207047D0F812
:104BD400002B012B22F40012C0F8002B9EBFD0F84A
:104BE400003B43F08053C0F8003BEEE7D0F80038B8
:104BF400090123F4FE63C0F80038D0F8003801F44A
:104C0400FE611943C0F800180020704708B5D0F8B9
:104C1400043823F00203C0F804380320FDF742FCF3
:104C2400002008BD08B5D0F8043843F00203C0F8EA
:104C340004380320FDF736FC002008BD4269806972
:104C440010407047D0F8183800F50060C06918406B
:104C5400000C7047D0F8183800F50060C06918409F
:104C640080B2704700EB411100F50060D1F8082BC9
:104C740040691040704710B5D0F81048D0F8343867
:104C840000EB411001F00F01CB4000F51060DB0197
:104C94008068DBB22343184010BD406900F0010076
:104CA4007047D0F8003923F4FF6323F00703C0F8FA
:104CB400003900F500639A6802F00602042A02BF74
:104CC400D0F8002942F00302C0F800295A680020F5
:104CD40042F480725A60704730B5056C104C00F590
:104CE4003063A54203D9D0F8004B002C16DB002416
:104CF4001C611C69012944F400241C611C6944F0F2
:104D040018041C611C6944F0C0441C6101BF5A6151
:104D1400D0F8003B43F08023C0F8003B002030BDB6
:104D24000A30544FD0F8BC3210B56BB1D0F8B84249
:104D340094F80002FF2807D09B6894F801222146CA
:104D44009847FF2384F80032002010BD43230380DA
:104D5400004870476C0900204323038000487047D3
:104D6400B00900204323038000487047000A002054
:104D74000A23038000487047F409002038B505462B
:104D8400D0F8B84200F026FFD5F8B832C4F80C02C7
:104D94004BB1D5F8BC3204F50371DB68D4F80402D6
:104DA4009847002038BD0220FCE7F8B5D0F8B86277
:104DB400D6B1142303FB0103DD698DB11C27D0F8A0
:104DC400C04207FB0142526CB5FBF2F402FB1454DF
:104DD40034B9DC612246234600F0E0FE2046F8BDEB
:104DE4000020C6F81402FAE70220F8E72DE9F74399
:104DF4004FF000080A78054612F060040E46D0F819
:104E0400B8728DF80580ADF8068028D0202C45D1E5
:104E1400CC884B78E4B1120611D5D0F8BC223946BF
:104E2400D2F8089018462246C847F28839462846E0
:104E340000F057FC4446204603B0BDE8F08387F8F1
:104E4400003287F801422246394600F05FFCF1E760
:104E5400D0F8BC22184695682246A847EBE74F785D
:104E64000A2F0DD00B2F15D0C7B990F89C32032B05
:104E740014D102220DF1060100F033FC3C46DAE7BE
:104E840090F89C32032B09D101220DF1050100F0A9
:104E940028FCD0E790F89C32032BCCD0314628462E
:104EA40000F0F8FB0224C6E738B50446002581214A
:104EB40000F02AFE0121E562204600F025FEC4F838
:104EC4006C518221204600F01FFED4F8B8322564CC
:104ED4004BB1D4F8BC325B689847D4F8B80200F000
:104EE400AFFEC4F8B852002038BD037C2DE9F04170
:104EF4000446CBBB4FF4007302228121012500F04C
:104F0400F3FD4FF40073E56229460222204600F0C7
:104F1400EBFDC4F86C5101250823032282212046AD
:104F240000F0E2FD25644FF4077000F081FE0646B0
:104F3400C4F8B80250B30027D4F8BC321B689847B1
:104F440094F81080C6F81472C6F81872B8F1000FFD
:104F540013D14FF40073D6F804222946204600F0FA
:104F64002BFE4046BDE8F081012540230222812129
:104F740000F0BAFDE5624023C6E74023D6F80422D8
:104F84002946204600F018FE3846EBE72846E9E7B4
:104F940019B1C0F8BC120020704702207047D0F845
:104FA400B8320020C3F80812C3F810227047D0F8B2
:104FB400B8320020C3F804127047D0F8B82210B5F4
:104FC40082B1D2F81442012374B9C2F81432D2F86F
:104FD400103281210363D2F808229BB200F0DEFD77
:104FE400204610BD0220FCE71846FAE7D0F8B822A4
:104FF40010B562B1047CD2F8042234B94FF40073C2
:10500400012100F0D9FD002010BD4023F8E7022063
:10501400FAE708B580B1D0F8B43213B10023C0F870
:10502400B43209B1C0F8B0120123027080F89C3286
:1050340000F01EFD002008BD0220FCE719B1C0F8F5
:10504400B412002070470220704708B500F03EFDFE
:10505400002008BD08B5D0F8B4320BB9022008BD51
:105064001B6898470028FAD0F8E708B5D0F8B4329E
:105074005B689847002008BD38B500F52A750446DA
:10508400284600F0F3FA012394F8A812C4F89432E5
:10509400B4F8AE32C4F8983201F01F03012B0ED0DD
:1050A40007D3022B10D001F08001204600F03AFD16
:1050B40003E02946204600F007F9002038BD2946C0
:1050C400204600F025FAF8E72946204600F045FA84
:1050D400F3E770B50546164649BBD0F89432032B66
:1050E4001ED1D0F86031D0F8642193420BD99B1AB9
:1050F4009A42C0F860318CBF9AB292B2314600F045
:1051040014FB002070BDD0F8B4321B6923B190F8B1
:105114009C22032A00D19847284600F00EFBF0E7B2
:10512400052BEED1C5F8941200F0FCFCE9E7D0F8A9
:10513400B4329B692BB190F89C22032A01D1984781
:10514400DFE70220DEE770B5134604460E46002969
:1051540047D1D0F89422022A3CD1D0E90852954292
:1051640013D9AA1A0262194692B200F0C7FA33465A
:105174001A461946204600F01FFD94F8A03200207C
:10518400012B01D184F8A00270BDC369B3FBF2F511
:1051940002FB153565B99A420AD8D0F89822934291
:1051A40006D22A4600F0AAFAC4F898522B46DFE742
:1051B400D4F8B432DB682BB194F89C22032A01D1D1
:1051C400204698478021204600F0ACFC204600F0A1
:1051D400BFFAD2E732F00403CFD1802100F0A2FC61
:1051E400CBE7D0F8B4325B6933B190F89C22032A40
:1051F40002D198470020C7E70220C5E7002270B516
:105204000446012540261146402300F06DFC334638
:105214008021C4F85851C4F864610022204600F08B
:1052240063FC0021D4F8B832A561666284F89C520C
:10523400C4F894126160C4F8A41223B1D4F8B4324F
:1052440020465B689847002070BD017400207047B9
:1052540090F89C3280F89D32042380F89C32002020
:10526400704790F89C32042B04BF90F89D3280F86C
:105274009C320020704708B590F89C22032A04D180
:10528400D0F8B432DB6903B19847002008BD002090
:1052940070470020704700207047012208B580F84D
:1052A4009C22D0F8B422017952689047002008BDAE
:1052B40010B50446802100F035FC2046BDE81040BE
:1052C400002100F02FBC000037B50B78044603F032
:1052D4006003202B0D4612D0402B10D0002B5BD145
:1052E4004B78092B58D8DFE813F0E9000501570083
:1052F400FE005700840013005700D200A000D4F829
:10530400B43229469B6820469847002003B030BD3C
:105314000023ADF806304B881A0A013A062A3BD816
:10532400DFE802F004202D3A3A525C00D0F8B032A3
:105334001B680DF10601207C9847BDF8062052B188
:10534400EB8843B19A4228BF1A4601462046ADF87D
:10535400062000F0C6F9EB88002BD6D1204600F0D9
:10536400ECF9D2E7027CD0F8B43232B99B6A0DF181
:105374000600984702234370DFE7DB6AF7E7DBB2F6
:10538400052B09D8DFE803F0030C1014181CD0F81F
:10539400B0325B68002BCCD12046FFF789FFB4E71D
:1053A400D0F8B0329B68F5E7D0F8B032DB68F1E7AB
:1053B400D0F8B0321B69EDE7D0F8B0325B69E9E7A9
:1053C400D0F8B0329B69E5E7037C002BE4D1D0F838
:1053D400B4320DF106005B6B9847AEE7037C002BFB
:1053E400DAD1D0F8B4320DF106001B6B98470723CD
:1053F400C1E78B88002BCFD1CB88002BCCD14D8833
:105404007F2DC9D890F89C32032BC5D0E9B280F81F
:105414009E1200F0B5FB204600F08FF91DB1022367
:1054240084F89C3271E70123FAE78978374D012922
:105434002970B1D890F89C32022B08D0032B14D0D9
:10544400FFF736FF29782046FFF70FFE5DE70029B6
:1054540084D001210323416080F89C322046FFF769
:10546400F9FD02287FF47AAF96E731B9022341604F
:1054740080F89C32FFF7F9FD70E7416801293FF499
:105484006DAFC9B2FFF7F1FD29786160E6E7CA881C
:10549400012A81D190F89C32002B3FF47DAF022B7E
:1054A40004D9032B7FF478AF011D03E001460023E8
:1054B40041F8083F204600F014F926E790F89C32A2
:1054C400013B022B3FF668AFCB88022B7FF464AF1D
:1054D4000123C360D0F8A4320BB10323C3600222BA
:1054E40004F10C01E6E74B88012B7FF40EAFC4F8FE
:1054F400A43233E790F89C32013B022B3FF64CAFC9
:105504004B88012B7FF401AF0023F0E7400F00200C
:1055140038B50B78044603F06003202B0D4602D007
:10552400402B00D0ABB994F89C32013B022B10D82D
:105534002B79012B0DD8D4F8B43229469B68204628
:105544009847EB881BB910B9204600F0F6F8002004
:1055540038BD2046FFF7ACFEF9E738B50A780446B3
:1055640002F06002202A0B4614D0402A12D06AB9F5
:105574005A788D88012AE9B220D036D3032A05D17E
:1055840090F89C22022A27D0032A0BD02046FFF74A
:105594008FFE05E0D4F8B42219469268204690475D
:1055A400002038BD5A882AB94A0603D0DB880BB9D3
:1055B40000F0B8FA204600F0C0F8F1E790F89C2219
:1055C400022A09D0032AE1D15B88002BE8D14D06D9
:1055D400F0D000F0B5FAEDE74B06D7D000F0A2FA10
:1055E4008021204600F09EFADAE790F89C32022BE4
:1055F40018D0032BCAD1142301F00F0215F0800F29
:1056040003FB02021FD09269002ABFD001F07F057C
:1056140005FB0335054411F07F031FD12B600222E3
:1056240029460CE04A06B1D12B064FF000034FF097
:1056340002024CBF00F1140100F5AA710B60204670
:1056440000F04FF8ACE7D2F85821002A9ED001F0C0
:105654007F0503FB050505F5AA75DCE7204600F088
:105664007DFA08B10123D9E72860D8E70B780370E5
:105674004B784370CA788B7803EB022343804A79D2
:105684000B7903EB02238380CA798B7903EB022322
:10569400C380704710B50446802100F043FA2046C9
:1056A400BDE81040002100F03DBA30B588B1054690
:1056B4002B1A15F8014BDBB2002CF9D101335B0036
:1056C40013800B7003234B700223013810F8015F21
:1056D40005B930BD5A1CCD54D2B20233DBB28C545E
:1056E400F4E71346022210B5C0F89422C0E9073348
:1056F4000A46002100F052FA002010BD08B51346F6
:105704000A46002100F04AFA002008BD134603228D
:1057140010B5C0F89422C0F85C310A46C0F8603174
:10572400002100F049FA002010BD08B513460A46CE
:10573400002100F041FA002008BD08B50423C0F898
:10574400943200231A46194600F028FA002008BDB6
:1057540008B50523C0F8943200231A46194600F010
:105764002BFA002008BD000008B500220E490F489E
:10577400FFF74FFC08B1FCF7D1FA0D490B48FFF7CE
:105784005DFC08B1FCF7CAFA0A490848FFF700FCB7
:1057940008B1FCF7C3FA0548FFF757FC18B1BDE898
:1057A4000840FCF7BBBA08BD540A0020CC11002005
:1057B40034090020440A002000207047002070476C
:1057C40038B504460D4601460748FFF7F0FB064886
:1057D400FFF70CFC002305492A689A4200D838BD1B
:1057E400E25C5A540133F7E7CC110020D20F0020B9
:1057F40010B5064C002206492046FFF7D0FB0549A8
:105804002046FFF7D4FB002010BD00BFCC110020C0
:10581400901C00209014002010B5094C0A46D4F8BE
:10582400B832D3F8143243B901462046FFF7B7FB28
:105834002046BDE81040FFF7C0BB012010BD00BFEB
:10584400CC110020122301480B807047700A0020FD
:10585400042301480B807047840A0020002370B59C
:105864001E46050FECB2092D94BF3034373401F8CD
:10587400134001EB430401336670DCB2A2424FEAE9
:105884000010EED870BD00001A2310B50B80094B30
:10589400186808331B68C0180AD0074B08221C6814
:1058A4000649FFF7DBFF042205492046FFF7D6FF30
:1058B400044810BD107AFF1F147AFF1F8A0A0020C3
:1058C4009A0A0020880A002010B5044C0A460448AD
:1058D4002146FFF7EAFE204610BD00BF90240020B9
:1058E400F786000810B5044C0A4604482146FFF721
:1058F400DCFE204610BD00BF902400200A8700086B
:1059040010B5044C0A4604482146FFF7CEFE204653
:1059140010BD00BF90240020DE86000810B5044CA2
:105924000A4604482146FFF7C0FE204610BD00BFCA
:1059340090240020E986000830B5044689B014227A
:10594400002103A800F084F92368B3F1A04F2ED1FD
:105954000025184C0195236B4FF4C05243F001030A
:105964002363236B032103F001030193019B0223AF
:10597400CDE903230A231048CDE9061303A9FCF754
:105984003FFE636B432043F0800363630295636CC3
:105994002A4643F480436364636C294603F48043DA
:1059A4000293029BFCF7A4FD4320FCF7D5FD09B04C
:1059B40030BD00BF003802400000024000F57171A4
:1059C400D0F8FC03FFF758BB1C2303FB0103D0F8FA
:1059D400FC03D3F80822FFF77CBB1C2303FB010361
:1059E400D0F8FC039A6CFFF7AEBBD0F8FC03FFF7CA
:1059F40042BCC16810B5044621B1022901D0FCF7AC
:105A04008DF90121D4F8FC03FFF71FFCD4F8FC0343
:105A1400BDE81040FFF7F2BB10B50446D0F8FC0314
:105A2400FFF716FC2268D2F8003E43F00103C2F8E7
:105A3400003E236A23B1034A136943F0060313614A
:105A440010BD00BF00ED00E0D0F8FC03FFF709BC77
:105A5400D0F8FC03FFF71DBCD0F8FC03FFF717BC1C
:105A6400D0F8FC03FFF717BCD0F8FC03FFF715BC14
:105A740008B502782ABB144B0421C3F8FC03C0F810
:105A8400C0324FF0A040C3E9000102211846C3E927
:105A94000312C3E906121A62C3E90B22FDF796FB4F
:105AA40008B1FCF73BF980210748FEF729F84022AA
:105AB40000210548FEF704F8802201210248FDF781
:105AC400FFFF002008BD00BF1025002008B5D0F856
