:020000040800F2
:10000000000002200D2D0008FD2B0008FF2B00082A
:10001000012C0008032C0008052C0008000000003B
:10002000000000000000000000000000072C000895
:10003000092C0008000000000B2C00080D2C000803
:100040005D2D00085D2D00085D2D00085D2D000868
:100050005D2D00085D2D00085D2D00085D2D000858
:100060005D2D00085D2D00085D2D00085D2D000848
:100070005D2D00085D2D00085D2D00085D2D000838
:100080005D2D00085D2D00085D2D00085D2D000828
:100090005D2D00085D2D00085D2D0008112C000865
:1000A0005D2D00085D2D00085D2D00085D2D000808
:1000B0005D2D00085D2D00085D2D00085D2D0008F8
:1000C0005D2D00085D2D00085D2D00085D2D0008E8
:1000D0005D2D00085D2D00085D2D00085D2D0008D8
:1000E0005D2D00085D2D00085D2D00085D2D0008C8
:1000F0005D2D00085D2D00085D2D00085D2D0008B8
:100100005D2D00085D2D00085D2D00085D2D0008A7
:100110005D2D00085D2D0008292C00085D2D0008CC
:100120005D2D00085D2D00085D2D00085D2D000887
:100130005D2D000800000000000000005D2D00089B
:100140005D2D00085D2D00085D2D00088D2C000838
:100150005D2D00085D2D00085D2D00085D2D000857
:100160005D2D00085D2D00085D2D00085D2D000847
:100170005D2D00085D2D0008000000005D2D0008C9
:040180005D2D0008E9
:1001840010B5054C237833B9044B13B10448AFF3CD
:1001940000800123237010BD080B00200000000024
:1001A400046A000808B5034B1BB103490348AFF3C5
:1001B400008008BD000000000C0B0020046A000849
:1001C40053B94AB9002908BF00281CBF4FF0FF31BA
:1001D4004FF0FF3000F074B9ADF1080C6DE904CEB6
:1001E40000F006F8DDF804E0DDE9022304B070470E
:1001F4002DE9F0478C460446089E002B4BD18A42D9
:10020400154667D9B2FA82F24AB1C2F1200701FA5F
:1002140002F320FA07F7954047EA030C94404FEAAB
:10022400154EBCFBFEF71FFA85F80EFB17C307FB40
:1002340008F9210C41EA0343994509D9EB1807F160
:10024400FF3180F01C81994540F21981023F2B4413
:10025400A3EB0903B3FBFEF00EFB103300FB08F124
:10026400A4B244EA0344A14209D92C1900F1FF3392
:1002740080F00781A14240F2048102382C4440EA14
:1002840007400027641A1EB10023D440C6E9004386
:100294003946BDE8F0878B4209D9002E00F0EC8086
:1002A4000027C6E9000138463946BDE8F087B3FAAD
:1002B40083F7002F48D18B4202D3824200F2FB80A5
:1002C400841A61EB030301209C46002EE0D0C6E9AA
:1002D400004CDDE702B9FFDEB2FA82F2002A40F0F8
:1002E4008F800127491B4FEA15481FFA85F9B1FB96
:1002F400F8FE08FB1E1109FB0EF04FEA144C4CEA01
:100304000143984207D9EB180EF1FF3102D298420B
:1003140000F2CD808E461B1AB3FBF8F008FB1033B5
:1003240009FB00F9A4B244EA0344A14507D92C19F6
:1003340000F1FF3302D2A14500F2B6801846A4EBC7
:10034400090440EA0E409EE7C7F12005BB4022FAAB
:1003540005FC4CEA030C21FA05F44FEA1C4EB4FBED
:10036400FEF91FFA8CF80EFB194420FA05F3B94084
:1003740009FB08FA19430B0C43EA0444A24502FAA8
:1003840007F200FA07F30BD91CEB040409F1FF3060
:1003940080F08880A24540F28580A9F10209644476
:1003A400A4EB0A04B4FBFEF00EFB104400FB08FAB5
:1003B40089B241EA0444A24508D91CEB040400F1C3
:1003C400FF316BD2A24569D90238644440EA09403E
:1003D400A0FB0289A4EB0A044C454146CE4654D303
:1003E40051D0002E69D05A1A64EB0E0404FA05F5B4
:1003F40022FA07F3FC401D43C6E90054002747E7EF
:100404009540C2F1200321FA03F04FEA1548B0FBEE
:10041400F8F71FFA85F908FB170024FA03F3914053
:1004240007FB09FC0B43190C41EA00418C4504FA13
:1004340002F407D9691807F1FF3031D28C452FD95E
:10044400023F2944A1EB0C01B1FBF8F008FB101C9E
:1004540000FB09FE99B241EA0C418E4507D969189F
:1004640000F1FF3318D28E4516D902382944A1EB86
:100474000E0140EA07473AE73746304608E70F4699
:10048400E6E61846FBE64345ABD2B8EB020169EB5E
:100494000C0201389646A4E71846E8E7084695E7B3
:1004A4000746CFE781467BE702382C4447E7AEF1A5
:1004B400020E2B442FE7384607E73746E8E600BF2D
:1004C400704700BF10B5002002F0E2F802210C4C86
:1004D400084602F0FBF994E806000123094802F0FB
:1004E400DFF90C21022002F0F1F994E8060001235F
:1004F400054802F0D5F9BDE8104002F0D7B800BFB6
:10050400500100209F6A0008AF6A000807B501F097
:10051400D9FF002002F0BCF80A4B202200931023DC
:100524001821184602F0D8F9074B2022009318210D
:100534001023502002F0D0F903B05DF804EB02F070
:10054400B5B800BFAC000020F4000020002038B58E
:100554000125FF221F4B204C1860204B1D60204BAF
:100564001A7002F095F80521022002F0AFF994E820
:1005740006002B461B4802F093F90F21022002F0DB
:10058400A5F994E806002B46174802F089F91921C9
:10059400022002F09BF994E806002B46134802F06F
:1005A4007FF92321022002F091F994E806002B46FA
:1005B4000F4802F075F92D21022002F087F994E822
:1005C40006002B460B4802F06BF9BDE8384002F0F8
:1005D4006DB800BF6010002050010020681000209A
:1005E40084100020DB6A0008FE6A0008116B000812
:1005F4003B6B00084D6B0008FF221A4B13B51A4CD5
:1006040000201A7002F044F80A210F2002F05EF96B
:1006140094E806000123154802F042F914212D2024
:1006240002F054F994E806000123114802F038F965
:10063400104B36210093082302201A4602F04CF98D
:100644000D4B36210093082378201A4602F044F912
:1006540002F02CF80F210C2002B0BDE8104001F08C
:10066400F9BE00BF8410002050010020636B000815
:10067400726B000800000020EC00002038B51C4C10
:10068400237801335BB20B2B237027DC194D002038
:1006940001F0FEFF0A21282002F018F995E806006F
:1006A4000123154802F0FCF895E80600012394F9AB
:1006B4000000184402F040F91921084602F006F936
:1006C40094F900400D4A0E48012306CA50F824004C
:1006D40002F0E6F8BDE8384001F0E8BF0022094B1B
:1006E4001A600122084B1A60BDE83840FFF784BF46
:1006F40084100020500100205D6B00084801002098
:100704008C0F0020681000200C120020002038B547
:100714000125FF221A4B1B4C18601B4B1D601B4B01
:100724001A7001F0B5FF0A21084602F0CFF894E8E8
:1007340006002B46164802F0B3F814210A2002F0F2
:10074400C5F894E806002B46124802F0A9F81E21C9
:100754000A2002F0BBF894E806002B460E4802F08B
:100764009FF832210A2002F0B1F894E806002B46E3
:100774000A4802F095F8BDE8384001F097BF00BF81
:1007840060100020500100201C1100208410002063
:100794009A6B0008A86B0008B96B0008C96B0008C5
:1007A4002DE9F341012600202F4BDFF8D8802F4F8D
:1007B4002F4C1E6088F80000387001F069FF0A2190
:1007C400072002F083F894E806003346294802F033
:1007D40067F814211B2002F079F894E806003346E8
:1007E400254802F05DF80823244D1A46009532216D
:1007F4001C2002F071F8082300951A4632212C209F
:1008040002F06AF8082300951A4632213C2002F0CF
:1008140063F8082300951A4632214C2002F05CF854
:10082400082300951A4632215C2002F055F898F806
:100834000000282100011C3000F0FC0002F046F802
:1008440094E80600334697F9000002F075F80C4B63
:100854003221009308231C201A4602F03DF802B00E
:10086400BDE8F04101F022BF6C0F0020711100209F
:1008740050010020DD6B0008ED6B00088C000020A7
:10088400940000208410002073B5264C2378013393
:100894005BB2032B23703DDC234D002001F0F8FEF6
:1008A4000A21282002F012F895E8060001231F48C7
:1008B40001F0F6FF95E8060094F900301C4E36F876
:1008C40013000123184402F037F81921084601F0F7
:1008D400FDFF94F90030174A36F81340164806CA4B
:1008E400012350F8240001F0DBFF144B3621009360
:1008F400082302201A4601F0EFFF114B3621009322
:10090400082378201A4601F0E7FF02B0BDE87040E2
:1009140001F0CCBE00220B4B1A6002B0BDE870405F
:10092400FFF73EBF84100020500100205D6B0008DB
:1009340044100020480100208C0F002000000020FB
:10094400EC0000200C12002010B50E4C2821237856
:1009540001335BB2092BC8BF002323700A4B1878FC
:1009640000011C3000F0FC0001F0B0FF074A94F9CC
:100974000000012306CA01F0DFFFBDE8104001F0CA
:1009840095BE00BF7111002084100020500100208A
:1009940010B50E4C28212378013B5BB2002BB8BF65
:1009A400092323700A4B187800011C3000F0FC0066
:1009B40001F08CFF074A94F90000012306CA01F0F4
:1009C400BBFFBDE8104001F071BE00BF71110020F3
:1009D40084100020500100202DE9F341002001275C
:1009E4002B4E2C4BDFF8C0802B4D1F60307088F8E5
:1009F400000001F04DFE0A21142001F067FF95E884
:100A040006003B46254801F04BFF0823244C1A46B8
:100A1400009432211C2001F05FFF082300941A4641
:100A240032212C2001F058FF082300941A46322169
:100A34003C2001F051FF082300941A4632214C2037
:100A440001F04AFF082300941A4632215C2001F089
:100A540043FF3078282100011C3000F0FC0001F035
:100A640035FF95E806003B4698F9000001F064FF65
:100A74000C4B96F900000093082300011A4632211A
:100A84001C3001F029FF02B0BDE8F04101F00EBEB8
:100A9400841000202411002050010020F86B00086D
:100AA4008C000020940000207111002073B52D4D9E
:100AB4002D4E95F9003031782C4A032BD15445DC66
:100AC40008232B4C1A46009432211C2001F004FF09
:100AD400082300941A4632212C2001F0FDFE08233D
:100AE40000941A4632213C2001F0F6FE08230094BB
:100AF4001A4632214C2001F0EFFE082300941A46D6
:100B040032215C2001F0E8FE287828210130C0B2AF
:100B1400287000011C3000F0FC0001F0D7FE154ADB
:100B2400012306CA96F9000001F006FF124B95F95D
:100B340000000093082300011A4632211C3001F002
:100B4400CBFE02B0BDE8704001F0B0BD01220B4BFA
:100B54001A6000220A4B1A6002B0BDE87040FFF729
:100B64003BBF00BF84100020711100204C0F0020F7
:100B74008C0000205001002094000020241100204B
:100B84006C0F002008B5194B93F90030032B2CD8B7
:100B9400DFE803F00210192223210A2001F096FE57
:100BA4000123134A134806CA01F07AFEBDE808403F
:100BB40001F07CBD23210A2001F088FE0C4A0123A8
:100BC40006CA0D48F0E723210A2001F07FFE084AF7
:100BD400012306CA0948E7E723210A2001F076FE2B
:100BE400034A012306CA0648DEE708BD8410002034
:100BF400500100201A6C00082B6C00083C6C0008A3
:100C04004D6C000813B501240020124B1C60124BDC
:100C1400187001F03DFD0A21022001F057FE0F4A31
:100C2400234606CA0E4801F03BFE0E4B08220093F1
:100C340032211023022001F04FFE0B4B08220093B7
:100C440032211023782001F047FE02B0BDE81040A5
:100C5400FFF798BF401000208410002050010020AE
:100C6400076C00089C00002034010020044A13781B
:100C740001335BB2032BC8BF00231370FFF782BF9D
:100C840084100020044A1378013B5BB2002BB8BFE8
:100C940003231370FFF776BF8410002008B51E4BA2
:100CA40093F90030042B36D8DFE803F003111A233C
:100CB4002C001E21072001F009FE0123174A1848C1
:100CC40006CA01F0EDFDBDE8084001F0EFBC1E21AD
:100CD400072001F0FBFD114A012306CA1148F0E781
:100CE4001E21072001F0F2FD0C4A012306CA0E481A
:100CF400E7E71E21072001F0E9FD084A012306CA9F
:100D04000A48DEE71E21072001F0E0FD034A012323
:100D140006CA0748D5E708BD84100020500100200A
:100D2400676C0008796C00088B6C00089D6C0008E7
:100D3400AF6C000813B501240020124B1C60124B49
:100D4400187001F0A5FC0521232001F0BFFD0F4A16
:100D5400234606CA0E4801F0A3FD0E4B0822009359
:100D640032211023022001F0B7FD0B4B082200931F
:100D740032211023782001F0AFFD02B0BDE810400D
:100D8400FFF78CBFB4110020841000205001002014
:100D94005E6C00089C00002034010020044A137893
:100DA40001335BB2042BC8BF00231370FFF776BF77
:100DB40084100020044A1378013B5BB2002BB8BFB7
:100DC40004231370FFF76ABF8410002037B5002492
:100DD4000125184B20461C60174B1D6001F058FC80
:100DE4002146164C022001F071FD94E806002B46C2
:100DF400134801F055FD0A21022001F067FD94E833
:100E040006002B460F4801F04BFD0F4B3621009393
:100E1400082302201A4601F05FFD0C4B3621009393
:100E2400082378201A4601F057FD03B0BDE830408E
:100E340001F03CBCB4110020081200205001002035
:100E44007A6B00088C6B000800000020EC00002086
:100E540008B50123064A00201360064A136001F016
:100E640017FCFFF7CFFEBDE8084001F01FBC00BF30
:100E7400401000205411002008B501230020084A26
:100E84001360084A1060084A1360084A136001F0AE
:100E9400FFFBFFF785FCBDE8084001F007BC00BF7D
:100EA40014110020B41100206C0F0020C411002084
:100EB400002038B501250F4B0F4C18600F4B1D60F7
:100EC40001F0E6FB0521022001F000FD94E8060094
:100ED4002B460B4801F0E4FC2821022001F0F6FC2B
:100EE40094E806002B46074801F0DAFCBDE83840D8
:100EF40001F0DCBBB411002050010020800F002061
:100F0400B76A0008C36A000808B5234B93F9003098
:100F1400052B3FD8DFE803F003111A232C351E21DB
:100F24000A2001F0D3FC01231C4A1D4806CA01F023
:100F3400B7FCBDE8084001F0B9BB1E210A2001F04E
:100F4400C5FC164A012306CA1648F0E71E210A20EA
:100F540001F0BCFC114A012306CA1348E7E71E212D
:100F64000A2001F0B3FC0D4A012306CA0F48DEE74C
:100F74001E210A2001F0AAFC084A012306CA0C48D3
:100F8400D5E71E210A2001F0A1FC044A012306CA68
:100F94000848CCE708BD00BF7111002050010020B3
:100FA4002D6A0008406A0008536A0008666A00084F
:100FB400796A00088C6A000837B5054600200124C8
:100FC400134B1860134B1C60134B187001F060FB3B
:100FD4000321282001F07AFC104A234606CA05F1B1
:100FE400800001F05DFC0E4B082200933221102397
:100FF400022001F071FC0B4B0822009332211023D4
:10100400782001F069FC03B0BDE83040FFF77CBFF5
:101014000412002020110020711100205001002032
:101024009C000020340100200020074AB2F900305F
:10103400591C0649086001D1FFF77CBE506800EBDB
:101044000320FFF7B9BF00BF780F0020041200206F
:10105400044A1378013B5BB2002BB8BF052313701D
:10106400FFF752BF71110020044A137801335BB2B9
:10107400052BC8BF00231370FFF746BF7111002072
:10108400F8B5012600201F4B1F4D1E701F4B204C2E
:10109400186001F0FDFA14211E2001F017FC94E8F9
:1010A4000600B5F90030686800EB03208030334651
:1010B40001F0F6FB1E21084601F008FC94E8060046
:1010C400B5F900706868334600EB072001F0E8FBCF
:1010D40028211E2001F0FAFB94E8060033460D484F
:1010E40001F0DEFB94E80600B5F90030686800EB17
:1010F4000320C030334601F0D3FBBDE8F84001F0D3
:10110400D5BA00BF85100020780F002020110020E0
:1011140050010020C16C0008034630B501F1800283
:1011240000F1400453F8045BA34242F8045BF9D194
:1011340000F1100301F1400200F1500453F8045B84
:10114400A34242F8045BF9D10A4600F1200300F1FE
:10115400600453F8045BA34242F8045BF9D100F144
:101164003003C031703053F8042B834241F8042B10
:10117400F9D130BD10B50446002001F089FA1E21D2
:10118400282001F0A3FB054A04F18000012306CACC
:1011940001F086FBBDE8104001F088BA5001002040
:1011A40007B51D4AB2F90030581C16DA0133138012
:1011B4001A4B0822009332211023022001F08CFBE9
:1011C400174B0822009332211023782001F084FB6E
:1011D40003B05DF804EB01F069BA12494978994209
:1011E40001DC013BE3E7591C05D0506800EB032008
:1011F400FFF7C0FFDCE7002001F04AFA14212820A1
:1012040001F064FB084B14210093202330201A467C
:1012140001F062FBCCE700BF780F00209C000020A7
:1012240034010020B81100200C0000200D4B93F96C
:101234000030042B14D8DFE803F0030507090B0082
:10124400FFF71ABEFFF7C2BDFFF732BEFFF700BEBD
:101254000022054B1A600122044B1A60FFF7A0BF5D
:10126400704700BF84100020B41100200412002035
:101274007FB54FF0FF350E4CCDE901252688024697
:101284000091102331460B4802F06CFB2B460122DF
:101294002188084802F002FD064D08B904B070BD6B
:1012A4004FF0FF3301222188284602F0F7FCF4E7CF
:1012B4000800002050120020012202490020FFF7FC
:1012C400D7BF00BF740F0020012202491046FFF768
:1012D400CFBF00BFC0110020062202490220FFF741
:1012E400C7BF00BF4C0F0020012202490820FFF7AE
:1012F400BFBF00BFE40F0020012202490920FFF70D
:10130400B7BF00BF0C11002008B500231D4A1360AD
:101314001D4A13601D4A13601D4A13601D4A137051
:101324001D4A13601D4A13601D4A13601D4A136051
:101334001D4A13601D4A13601D4A13601D4A136041
:101344001D4A13601D4A13601D4A13601D4A136031
:101354001D4A13601D4A13601D4A13601D4A137011
:101364001D4A13701D4A13701D4A1360FFF7A4FF32
:10137400FFF7AAFFFFF7B0FFFFF7B6FFBDE808408D
:10138400FFF7BABF740F0020C0110020B411002071
:10139400201100200C110020601000206810002093
:1013A4000C1200201C1100206410002004120020E4
:1013B40008110020C81100205C100020700F0020CC
:1013C4006C0F00202411002040100020840F002006
:1013D40014110020181100205811002006110020BB
:1013E400880F0020012202490A20FFF741BF00BFF5
:1013F400880F0020012202490B20FFF739BF00BFEC
:1014040010110020142202490C20FFF731BF00BF45
:10141400BC0F0020142202492020FFF729BF00BF7F
:10142400281100207FB54FF0FF350E4CCDE9012582
:10143400268802460091102331460B4802F022FB15
:101444002B4601222188084802F028FC064D08B9E1
:1014540004B070BD4FF0FF3301222188284602F00A
:101464001DFCF4E70800002050120020012202496C
:101474000020FFF7D7BF00BF740F002001220249EC
:101484001046FFF7CFBF00BFC0110020062202495B
:101494000220FFF7C7BF00BF4C0F00200122024902
:1014A4000820FFF7BFBF00BFE40F0020012202495C
:1014B4000920FFF7B7BF00BF0C110020012208B5B7
:1014C4000E4B1A60FFF7F8FEFFF7FEFEFFF704FF6E
:1014D400FFF70AFF00230A4A13700A4A5370FFF702
:1014E4000BFFFFF7C3FFFFF7C9FFFFF7CFFFFFF7BE
:1014F400D5FFBDE80840FFF7D9BF00BF740F002037
:101504000C110020B8110020012202490A20FFF723
:1015140089BF00BF880F0020012202490B20FFF77A
:1015240081BF00BF10110020142202490C20FFF7D4
:1015340079BF00BFBC0F0020142202492020FFF70E
:1015440071BF00BF281100200023284A10B5136082
:10155400274A284C1360284A23701360274A1360D3
:10156400274A1360274A1360274A1360274A1360E7
:10157400274A1360274A1360274A1360274A1360D7
:10158400274A1360274A1360274A1360274A1360C7
:10159400274A1360274A1360274A1360274A1370A7
:1015A400274A1370274A1370274A1360FFF75EFF18
:1015B400FFF764FFFFF76AFFFFF770FFFFF776FF9F
:1015C400224B22785A70FFF7A7FFFFF767FF182214
:1015D4001F494FF44070FFF725FFFFF795FFFFF712
:1015E400ABFFBDE81040FFF79FBF00BF740F0020A2
:1015F400C01100200C110020B41100202011002083
:1016040060100020681000200C1200201C11002023
:10161400641000200412002008110020C8110020CA
:101624005C100020700F00206C0F0020241100209B
:1016340040100020840F00201411002018110020F5
:101644005811002006110020880F0020B811002036
:1016540074110020F0B5052191B0174804F0F4FE90
:101664000024164D164E174F6B78A34208D80A2053
:1016740001F0C4FB0321144804F0E6FE11B0F0BDF0
:101684003C22002101A8009605F0FAF838684022AF
:1016940000EB8410694680B2FFF7C4FE0A2001F013
:1016A400ADFB4021684604F0CFFE01340A2001F06E
:1016B400A5FBA4B2D8E700BFD76B0008B81100207F
:1016C4006162630044010020B09200082DE9F04FEC
:1016D40093B04FF6FF736A461C4D1D4E2B807378F2
:1016E40000AF1B0203F58573DB08A2EBC3039D4621
:1016F4000024E9462346DFF85CB072781FFA84FAC6
:10170400524507D8C5F80490FFF74AFD4C37BD464B
:10171400BDE8F08F07F148083C22002107F10C00D6
:1017240048F8403D7B6005F0ABF8DBF80000402250
:1017340000EB8A10414680B2FFF774FE09EB0421E6
:101744004046FFF7E9FC01347B68D6E7780F0020B8
:10175400B811002044010020F7B5664C664D94F999
:101764000020664B2978032A9954194645DC08233E
:10177400634E1A46009632211C2001F0ADF808236E
:1017840000961A4632212C2001F0A6F80823009670
:101794001A4632213C2001F09FF8082300961A468D
:1017A40032214C2001F098F8082300961A46322181
:1017B4005C2001F091F8207828210130C0B220701B
:1017C40000011C3000F0FC0001F080F84D4A0123B8
:1017D40006CA95F9000001F0AFF84B4B94F90000EC
:1017E4000093082300011A4632211C3001F074F8DA
:1017F40003B0BDE8F04000F059BF4448444A0668CD
:101804001D781478104666BBA542424C15D15F780A
:101814005578AF4211D19F789578AF420DD1DF78DA
:10182400D578AF4209D11D7913799D4205D126603F
:1018340003B0BDE8F040FFF7E5B90122364B1A606A
:1018440000232360037043708370C37003710B70B3
:101854004B708B70CB700B7103B0BDE8F040FEF79A
:101864009FBF2E4E3768012F21D1A542294C1BD191
:1018740058785178884217D198789178884213D152
:10188400D878D17888420FD11979137999420BD13C
:10189400FFF722FD0023224A23601760336003B060
:1018A400BDE8F040FFF746BA00232360D4E7A54221
:1018B4001AD158785178884216D19878917888420C
:1018C40012D1D878D17888420ED1197913799942F6
:1018D4000AD100220F4B1A600122124B1A6003B086
:1018E400BDE8F040FFF7F2BE03B0BDE8F040FFF7FB
:1018F40073B800BF8410002071110020CC110020A7
:101904008C000020500100209400002014110020BD
:101914004C0F0020241100206C0F0020C411002063
:10192400B41100200412002070B5104D104B2E6825
:1019340093F900200F4B012E0F4C1A600AD1FFF7C8
:10194400C3FC00230D4A236016602B60BDE8704081
:10195400FFF7F0B9FFF7B2FD0122094B1A6000232B
:101964002360BDE87040FFF7B1BE00BF54110020F2
:1019740084100020C011002040100020B411002069
:10198400041200202DE9F04F93B03F4A3F4E1378E4
:101994003488013B13703E4B651C597800AF013904
:1019A4005970A4019846DFF8F8B03A4BADB2A4B22E
:1019B4007A607A6804F1400912781FFA89F9AA4218
:1019C40025DA6A4633880024013B338098F80130D5
:1019D400DFF8CCB01B0203F58573DB08A2EBC3036D
:1019E4009D462346E94698F801201FFA84FA524599
:1019F4002DD80122284BC6F804901A600022274BE8
:101A04001A60FFF7CDFB4C37BD46BDE8F08F07F1F8
:101A1400480A3C22002107F10C004AF8403D3B6093
:101A240004F02EFFDBF8000040224844514680B207
:101A3400FFF7F8FCDBF8000040222044514680B256
:101A44000135FFF715FCADB24C463B68B1E707F131
:101A540048053C22002107F10C0045F8403D7B601D
:101A640004F00EFFDBF80000402200EB8A10294648
:101A740080B2FFF7D7FC09EB04212846FFF74CFBA3
:101A840001347B68AFE700BF0C110020780F002001
:101A9400B8110020616263000412002020110020AC
:101AA400440100202B4B93F90030052B51D8DFE87B
:101AB40003F0031F394146486C22274B27491A80FB
:101AC4006F225A8067229A803A22B1F90000DA80A4
:101AD4004A68083302EB002202F1100152F8040BA9
:101AE4008A4243F8040BF9D114211B4804F0ACBC1E
:101AF4007022194B19491A8061225A8073229A80E4
:101B04003A22B1F90000DA804A68083302EB002275
:101B140002F14001503251F8040B914243F8040B96
:101B2400F9D1E1E701220E4B1A6000220D4B1A6035
:101B3400FFF728BF00220B4B1A60FFF7A1BA00F091
:101B440021BD0022074B1A600122054B1A60FFF7E2
:101B540027BB7047711100208C110020780F0020E2
:101B6400041200202011002010B592B01022002190
:101B740008A804F085FE1422002101A804F080FEC8
:101B840002224FF480030C21CDE90C23C02304204E
:101B9400CDE90E1308230124CDE9100306A8CDE9ED
:101BA400064402F0C9FD0F230021CDE901344FF4AE
:101BB400805301A8CDE90311059302F08DFF12B003
:101BC40010BD00002DE9F04F0024AFB002AF01F0CA
:101BD400E9F8FFF7C9FFC7E91E44704BBC60C7F8BA
:101BE40080401A6B4FF0200842F080021A631A6B8F
:101BF40007F1700502F08002BA60BA68FC601A6BE3
:101C0400294642F004021A631A6B654802F0040282
:101C1400FA60FA683C611A6B624E42F001021A6380
:101C24001A6B02F001023A613A697C611A6B42F064
:101C340002021A634FF440721B6B03F002037B61D0
:101C44007B69594BC7E91C2301F086F922462146DA
:101C5400172001F0F9F8172001F02AF95348544BE2
:101C6400C0E90544C0E90034524BC36001F054F9A3
:101C74005148C0F8008001F0FBFA50495048514BDC
:101C8400C0E90244C0E900134FF48043C0E90644AC
:101C9400C0E90434046201F0B9FD4B4B4B480360C6
:101CA40002F0D6FF4A4B4B48036001F025F904F0DB
:101CB40073FB45F6C05348483C67C6E900030A2352
:101CC4003046F3606C60B460B46103F059F929469E
:101CD4003046C7E91C8403F06DF900F00DFD204681
:101CE40000F0D6FC00F0E2FC4FF47A7001F086F8C4
:101CF400FFF72AFC4FF47A7001F080F8374B1B6829
:101D0400002B32D1FEF7DEFB354CDFF8F8904FF4B0
:101D1400967001F073F8324B1B78002BF7D0502BE0
:101D240040F0B580D9F80030002B6DD102232D4846
:101D34001A18E15C01331B2B02F8021CF8D10126AE
:101D4400284918224FF44070FFF792FA264B1E6080
:101D5400FFF7CAFAC9F80060FFF744FB234B1E6083
:101D6400FEF7D4FB0221224894E1224B1B682BB9D5
:101D74000122214B1A60FFF7A9FCC5E7012B07D10B
:101D840001231E4A13601E4A1360FEF725FEBBE7BB
:101D9400022BEDD0032BB7D1F2E700BF003802408D
:101DA40000080240AC12002000001110FC120020B8
:101DB40000000650B08700081012002000540040B4
:101DC40050120020A086010000080650EC120020EA
:101DD40000300240A412002000100040740F0020C4
:101DE4008610002074110020E40F002060100020F1
:101DF40086870008C011002004120020241100204E
:101E040014110020880F0020DFF834A3DAF8003022
:101E1400012B40F04281BC4E3268042A00F2388122
:101E24000221BA4BC81814F801C001311B2900F86B
:101E340002CCF7D1B6498B4200F02781DFF814C3F6
:101E4400634500F02281B3498B4200F01E81B24801
:101E5400834200F01A81DFF8ECE2734500F015814B
:101E6400012A40F0FD80182261464FF44670FFF7C6
:101E7400FFF9336801333360FFF736FA0221A748CC
:101E840004F0E2FA0023CAF80030FFF7B3FA23782B
:101E94004E2B40F0B68000263C22314607F17400F8
:101EA4003E6704F0EDFC2122314607F14C00BE648C
:101EB400B24604F0E5FC07F1180B04EB0A039B7C23
:101EC40005F80A300AF80B300AF1010ABAF1100FCA
:101ED400F3D1FFF729FB924A0026134607F148087D
:101EE40032F8160006F808000136142EF8D1A219AB
:101EF40012F8022C08F806200136242EF7D10BF133
:101F0400010B03EA0B0B87F858B04FF0FF3B8548F1
:101F140001F0AEF9844B32464146CDF800B0814819
:101F240001F066FA5A4680497E4801F06BFA0023B4
:101F340018467D4907F1280231F8136021F813008F
:101F44009E540133102BF7D102EB0A0313F8103C13
:101F540005F80A300AF1010ABAF1200FF4D104EBB2
:101F64000A0313F81E3C05F80A300AF1010ABAF113
:101F7400300FF4D107F1380294466C4B03F1100E84
:101F8400164618685968083303C673453246F7D1B4
:101F94000CEB0A0313F8303C05F80A300AF1010A85
:101FA400BAF1400FF4D1624E52463078294640309F
:101FB4008001FFF75DF933784FF000080133337087
:101FC400FFF79AF96A463378C7F804D01B0203F581
:101FD4008573DB08A2EBC3039D46DFF87CB10DF1EA
:101FE400080A32781FFA88F082427ED8514B402189
:101FF400C3F804A0504B28465A7004F025FAD7F8C9
:1020040004D02378492B0DD10221444804F01CFA52
:102014004A4B1B68012B05D14FF4967000F0EEFE7D
:10202400FFF718FB2378432B07D1FFF76DF9FEF771
:1020340049FA0221394804F007FA2378412B08D1E0
:1020440001223F4B1A60FFF7D5F90221334804F00F
:10205400FBF900231A46E2540133802BFBD156E6E8
:10206400022A03D118224FF44C7000E7032A04D14A
:10207400014618224FF45270F9E6042A7FF4F9AEAF
:10208400182230494FF45870F1E610212E48F7E633
:102094001B212E4804F0D8F9F9E602221B4BD11873
:1020A400A05C01321B2A01F8020CF8D1184A284E10
:1020B40093420BD0274A934208D0164A934205D044
:1020C400154A934202D01F4A934208D10221134871
:1020D40004F0BAF901233360FEF718FAD7E60123B6
:1020E4003360FEF713FA12213DE64030800180B2DE
:1020F40040225946FFF796F90AEB08215846FFF7A4
:102104000BF808F101086CE7E40F0020520F0020DF
:102114007411002059110020E80F00208687000860
:10212400BC0F0020101200208C1100201C6A000833
:102134000C110020780F0020B8110020800F00201F
:1021440010110020D2110020898700089A87000806
:1021540060100020EA11002000100020B0F5807FFC
:1021640070B5144C18D1144D2E7866B9134802F08A
:10217400D2FD134B1E8001232B70104802F0B9FDD1
:102184000E4802F0DFFD23782BB10B4B1B7813B103
:1021940001220C4B1A7070BDB0F5007FF3D1257885
:1021A400002DF0D1054802F0B6FD054B1D8001233A
:1021B4002370E2E75811002018110020AC1200200F
:1021C4007211002006110020274B1B682BB1274AEF
:1021D4001388013B1380FEF7E3BF254B1A680AB14D
:1021E400FEF7B4B9234A116800293BD1224A10688A
:1021F40018B1012011601860F2E7204A12680AB190
:10220400FEF7C6BB1E4A11680029F9D11D4A1068A1
:1022140020B1012011601860FEF778B91A4B1B68D1
:102224000BB1FEF72FBD194B1A680AB1FEF7C2BDF8
:10223400174A12680AB1FEF70BBF164A106828B194
:102244000121196000231360FEF774BD124A11685E
:1022540019B1106001221A60F6E7104A107808B12B
:102264001170F7E7704700BF04120020780F0020B8
:1022740060100020681000200C1200206C0F002059
:10228400241100201C11002040100020B411002053
:102294002011002008120020800F0020851000204B
:1022A40008B5314B1B683BB1304A138801331380A6
:1022B400BDE80840FEF774BF2D490B681BB1BDE8AB
:1022C4000840FEF723BA2B4B1B68002B4AD12A4B3C
:1022D4001B681BB1BDE80840FEF7D6BA274B1B6844
:1022E4001BB1BDE80840FEF72FBB254B1A68002A36
:1022F400F7D1244B186830B101201A60BDE80840BA
:102304000860FEF703B9204B1B681BB1BDE8084009
:10231400FEF7ACBC1D4B1A681AB1BDE80840FEF7C5
:102324003DBD1B4A12681AB1BDE80840FEF79CBEC9
:10233400184A106838B100231360FEF7E5FFBDE8C2
:102344000840FEF7BFB8144A116831B11060012289
:102354001A60BDE80840FEF7EDBC104A107808B1D9
:102364001170F4E708BD00BF04120020780F0020AC
:1023740060100020681000200C1200206C0F002058
:10238400241100201C11002040100020B411002052
:102394002011002008120020800F0020851000204A
:1023A400204B1B680BB1FEF73FBE1F490B68002B87
:1023B40036D11E4B1B680BB1FEF760B91C4B1B6872
:1023C4000BB1FEF773BB1B4B1A680AB1FFF7C4B914
:1023D400194B186820B101201A600860FEF796B8FE
:1023E400164B1B680BB1FFF79FBA154B1A680AB15D
:1023F400FEF71CBF134A12680AB1FFF753BB124A17
:1024040012686AB9114A116829B1002111600122C8
:102414001A60FEF78FBC0E4A107808B11170F6E707
:10242400704700BF041200206010002068100020D4
:102434006C0F0020241100201C11002040100020EB
:10244400B41100202011002008120020800F002069
:10245400851000202DE9F047184C07460E46254606
:10246400A046DFF85C9004F1180A484602F036FCF6
:10247400304028802B88BB42F7D202355545F4D131
:102484000025DFF83C9000230EE0228838F8131072
:10249400914201D0BA4205D3484602F01FFC3040B5
:1024A4002080F0E701339BB2AB42EED30135ADB2ED
:1024B4000C2D04F10204E6D1BDE8F087441000209D
:1024C400EC12002070B54FF4FA70A0B040F6FF7122
:1024D400FFF7C0FF254A002314462548254D35F84B
:1024E400131050F8211042F8231001330C2BF6D1AD
:1024F40002A800220546002354F82210CE5C20F8DE
:1025040013600133052BF9D101320C2A00F10A00C2
:10251400F1D14FF0FF34184800F0AAFE174B2946BA
:1025240000943C22144800F063FF224613491248E9
:1025340000F068FF104800F0C5FE0F4800F098FE58
:102544000F4B00943C220D490B4800F051FF2246EA
:102554000B49094800F056FF074800F0B3FEFEF7A8
:1025640051FFFEF757FF20B070BD00BF8C0F002055
:10257400580100204410002010120020BC0F00203D
:1025840028110020F0B50024A1B02F4B3C220021DB
:102594002E4E11A8109304F073F92146212207A8A6
:1025A400069404F06DF9B6F9000010AD40308001D6
:1025B4004022294680B2FEF735FF2146344602AA5E
:1025C4006B5C8B5401311029FAD14FF0FF379DF821
:1025D40070301F480133DBB28DF8703013441D4A4C
:1025E40006AE13408DF8283000F042FE1A4B242228
:1025F40031460097164800F0FBFE3A461649144847
:1026040000F000FF0023EA18F15C0133102B117471
:10261400F9D1B4F90000402240308001294680B24B
:10262400FEF726FE6368B4F90010284603EB012187
:10263400FEF772FD0122094B1A600022084B1A6052
:10264400FEF7AEFD21B0F0BD61626300780F00209B
:1026540010120020BC0F00208C1100200412002056
:1026640020110020704700007FB501230A2106AA2B
:1026740002F8010D0092CDE90131002278210348CE
:1026840001F070F907B05DF804FB00BF50120020A0
:1026940000230549021C18BF012252425A54013337
:1026A400B3F5826FF6D170472A0B00207FB5002462
:1026B4000F4E104DA4F15000C0B2FFF7D5FF00201B
:1026C400FFF7D2FF1020FFF7CFFF82236422CDE96A
:1026D400013203FB0463402200937821012328463E
:1026E400013401F03FF9082CE4D104B070BD00BFFF
:1026F4002A0B00205012002008B5642000F07EFB55
:10270400AE20FFF7B1FF2020FFF7AEFF1020FFF748
:10271400ABFFB020FFF7A8FFC820FFF7A5FF0020FC
:10272400FFF7A2FF1020FFF79FFF4020FFF79CFF59
:102734008120FFF799FFFF20FFF796FFA120FFF705
:1027440093FFA620FFF790FFA820FFF78DFF3F20FF
:10275400FFF78AFFA420FFF787FFD320FFF784FF4A
:102764000020FFF781FFD520FFF77EFFF020FFF761
:102774007BFFD920FFF778FF2220FFF775FFDA20CF
:10278400FFF772FF1220FFF76FFFDB20FFF76CFFEC
:102794002020FFF769FF8D20FFF766FF1420FFF765
:1027A40063FFAF20FFF760FF0020FFF771FFFFF723
:1027B4007DFF01200022024B58711A805A8008BD07
:1027C400240B0020812830B517D83F2915D80B4B8E
:1027D4001B7913B1B2FA82F252098223CC0803FBAB
:1027E400040001F007040121054DA1402B5649B214
:1027F400012A0CBF0B438B432B5430BD240B002008
:102804002A0B00202DE9F04F87B0074606A800E9FF
:1028140006009B46214B9DF810901C88019304EB05
:102824000902812A37DC5B889DF811A0009303EB31
:102834000A023F2A2FDC0025A7F120020AFB02F33B
:102844000293AA4506D8019B4C441C80384607B025
:10285400BDE8F08F0026029B05995A1931F8123011
:102864000393009B05EB03085FFA88F8B14501D890
:102874000135E6E7039B301903FA06F2130458BF47
:10288400BBFA8BF2C0B24CBF5A4652094146FFF71D
:1028940099FF0136EAE70027D8E700BF240B0020A0
:1028A400F7B56D461F4685E80600461E16F8014F2B
:1028B40044B195E8060020463B46FFF7A3FF347871
:1028C400A042F3D0204603B0F0BD0000014B1880B5
:1028D40059807047240B00202DE9F74F00278246CA
:1028E400894690469B463E465E4522DA082397FB7E
:1028F400F3F20C9B06EB090513440024EDB201939B
:1029040012E0019BE2089A5C04F00701C1F107019F
:102914000A4104EB0A0012F00102C0B218BF0122FE
:102924002946FFF74FFF01344445EADB01364744AB
:10293400DAE703B0BDE8F08F2DE9F74F6C461E4689
:1029440084E806008046F8B994E80600344803B0E9
:10295400BDE8F04FFFF7A4BF05EB85056D00ADB2F0
:10296400B8FBF5F71FFA83F90133002FF4D10A23DA
:10297400B5FBF3F5DFF8C8A0DFF8C8B0BBB29945E2
:1029840005D803B0BDE8F08F00230125E8E7B8FBC4
:10299400F5F305FB13889AB20A23B5FBF3F51FFA86
:1029A40088F8ADB2092A0CD8DFE802F035050D121B
:1029B400171C21262B30334694E806001948FFF7EC
:1029C4006FFF0137DAE7334694E806001648F6E766
:1029D400334694E806001548F1E7334694E80600C8
:1029E4001348ECE7334694E806001248E7E7334619
:1029F40094E806001048E2E7334694E806000F48DE
:102A0400DDE7334694E806005846D8E7334694E8B1
:102A140006005046D3E7334694E806000048CEE764
:102A2400809300088293000884930008869300082A
:102A3400889300088A9300088C9300088E930008FA
:102A44009293000890930008002182B00B4B0091F0
:102A54005A6C42F480425A645A6C02F480420092E6
:102A6400009A01911A6C42F080521A641B6C03F0B4
:102A740080530193019B02B0704700BF00380240AD
:102A84000268094B82B09A420BD100230193074B91
:102A94001A6B42F480521A631B6B03F48053019344
:102AA400019B02B0704700BF003002400038024072
:102AB4000268094B82B09A420BD100230193074B61
:102AC4005A6B42F010025A635B6B03F010030193DC
:102AD400019B02B0704700BF00000650003802405E
:102AE400002382B00193064B5A6B42F020025A63D2
:102AF4005B6B03F020030193019B02B0704700BF9E
:102B040000380240024A536B23F02003536370479A
:102B14000038024030B5044689B01422002103A8CD
:102B240003F0AEFE2268144B9A4223D10025134CC5
:102B34000195236BC02243F002032363236B01211D
:102B440003F002030193019B1223CDE90323032322
:102B5400CDE90513042303A90948079300F0FCF900
:102B64000295236C43F400132364236C03F40013D1
:102B74000293029B09B030BD00540040003802406B
:102B8400000402400268094B82B09A420BD1002330
:102B94000193074B5A6B42F040025A635B6B03F09C
:102BA40040030193019B02B0704700BF0008065028
:102BB4000038024007B50F4B02689A4216D1002232
:102BC40003F50A330192196C362041F0100119649F
:102BD4001B6C114603F010030193019B00F034F9C0
:102BE400362003B05DF804EB00F062B903B05DF881
:102BF40004FB00BF001000407047FEE7FEE7FEE75D
:102C0400FEE770477047704700F0E6B808B54FF428
:102C1400807000F085FABDE808404FF4007000F0C1
:102C24007FBA000070B5134C134802F0A0F8238853
:102C3400012B02D80133238070BD0F4802F06BF8DA
:102C4400002323800D4C0E4E22780E4D32B1FFF737
:102C5400A7FB002333702B702370EDE7337813B197
:102C6400FFF7B2FAF5E72B78002BF2D0FFF718FB49
:102C7400EFE700BF72110020AC1200200611002003
:102C84001811002058110020014801F053B900BF69
:102C94008426002008B50A4B0246196809B9094977
:102CA40019606946186802448A4206D903F0AEFDE9
:102CB4000C2303604FF0FF3008BD1A60FCE700BF2F
:102CC4003C0F0020882A002000210C4B1A6842F097
:102CD40001021A6099601A6822F0847222F4803228
:102CE4001A60074A5A601A6822F480221A604FF068
:102CF4000062D960034B9A60704700BF00380240FD
:102D04001030002400ED00E0DFF834D0002103E0AF
:102D14000C4B5B58435004310B480C4B42189A42FD
:102D2400F6D30B4A02E0002342F8043B094B9A42D3
:102D3400F9D3FFF7C9FF03F06FFDFEF743FF7047B8
:102D4400000002200494000800000020080B00206A
:102D5400080B0020882A0020FEE7000038B50E4B3F
:102D6400054618784FF47A73B3FBF0F30B4A1068F6
:102D7400B0FBF3F000F0AAF8044658B90F2D09D8B7
:102D8400024629464FF0FF3000F05EF82046044B1F
:102D94001D6038BD0120FCE72C0900202809002013
:102DA4003009002008B50B4B03201A6842F4007266
:102DB4001A601A6842F480621A601A6842F48072D7
:102DC4001A6000F02FF80020FFF7C8FFFFF73CFE61
:102DD400002008BD003C0240034A044B11681B78E4
:102DE4000B441360704700BF3C1300202C090020E3
:102DF400014B1868704700BF3C13002037B50190A1
:102E0400FFF7F6FF0546019C631C1EBF044B1B78AD
:102E1400E418FFF7EDFF401BA042FAD303B030BD26
:102E24002C090020074A0002D36800F4E06023F470
:102E3400E0631B041B0C43F0BF6343F40033034300
:102E4400D360704700ED00E0174B70B5DC684FF0BD
:102E5400FF36C4F30224C4F10705042D04F104036E
:102E640028BF0425062B98BF002406FA05F388BF63
:102E7400033C21EA0303A34006FA04F422EA04040F
:102E8400002843EA0403A8BF00F160404FEA03139B
:102E9400B8BF064ADBB2ABBF00F5614000F00F00DB
:102EA40080F80033135470BD00ED00E014ED00E031
:102EB400002808DB0123420900F01F0003FA00F098
:102EC400014B43F82200704700E100E00138B0F103
:102ED400807F0AD2F021064B064A586082F82310FC
:102EE4000020072298601A6070470120704700BFD5
:102EF40010E000E000ED00E010B5044650B1437965
:102F040003F0FF0213B90271FFF7BAFD0123002099
:102F1400637110BD0120FCE710B50446D0B190F8F0
:102F2400393003F0FF021BB980F83820FFF7C0FDE9
:102F3400D4E90130216803430A68606922F47E728F
:102F4400034313430B6000200123E063E36284F82E
:102F5400393010BD0120FCE700232DE9F74FD1F8EB
:102F64000080DFF8B8916B4A38FA03F402D103B059
:102F7400BDE8F08F4FF0010C0CFA03FC1CEA0806C4
:102F840000F0B68003254C684FEA430E24F0100A83
:102F94000AF1FF3705FA0EF5012F6FEA050511D87E
:102FA400876807EA050BCF6807FA0EF747EA0B07AD
:102FB4008760476827EA0C0CC4F300179F4047EA70
:102FC4000C074760C768BAF1020F07EA050C8F685F
:102FD40007FA0EF747EA0C07C76016D14FF00F0C3B
:102FE4004FEAD30A00EB8A0A03F0070BDAF82070E1
:102FF4004FEA8B0B0CFA0BFC27EA0C0C0F6907FA4F
:103004000BF747EA0C07CAF8207007683D4004F044
:10301400030707FA0EFE4EEA05050560E50067D5CD
:103024004FF0000B4FF00F0CCDF804B0D9F84470FA
:1030340003F0030E47F48047C9F84470D9F844708C
:10304400354D07F480470197019F23F0030707F1EB
:10305400804707F59C37D7F808A04FEA8E0E0CFA84
:103064000EFCA8422AEA0C0C44D005F58065A8425F
:1030740042D005F58065A84240D005F58065A84298
:103084003ED005F58065A8423CD005F58065A84290
:103094003AD005F58065A84238D005F58065A84288
:1030A40036D005F58065A84214BF0925082505FA20
:1030B4000EF545EA0C05BD60F743156814F4803F2E
:1030C4000CBF3D4035431560556814F4003F0CBFF8
:1030D4003D4035435560956814F4801F0CBF3D4056
:1030E40035439560D568A40254BF3D403543D5604F
:1030F400013339E75D46DAE70125D8E70225D6E74B
:103104000325D4E70425D2E70525D0E70625CEE735
:103114000725CCE7003C0140000002400038024093
:1031240008B5044B5969014202D05861FFF716F8FB
:1031340008BD00BF003C014073B5002401911C4947
:10314400944220D2019B251D1B684B60019B0433D4
:10315400019390F83630012B28D1954226D24E6A3D
:10316400F60723D5002590F82D1080F83650022953
:1031740001D0042909D1019B043A121BC3600262E5
:10318400082380F8353000200EE0032901D00529FA
:1031940005D1019B043A121B43618262F0E780F877
:1031A400353080F83450184602B070BD2C46C7E75D
:1031B40000040650102902D014290ED070470F4B7A
:1031C400DA6812BA02601A6912BA42605A6912BA0B
:1031D40082609B691BBAC3607047084BDA6812BAF5
:1031E40002601A6912BA42605A6912BA82609A6914
:1031F40012BAC260DB691BBA03617047000406504F
:103204002DE9F84304460E4691461D46FFF7F0FDAE
:10321400164F8046B9F1000F21D07B6A36EA0303CA
:1032240021D16B1CF9D0FFF7E3FDA0EB0800A84205
:103234000BD8002DF1D108E06A1C10D0FFF7D8FD9F
:10324400A0EB0800A84200D84DB90123032084F85C
:103254003530002384F82C0084F8343004E07B6A91
:1032640036EA0303E8D10020BDE8F88300040650E1
:1032740038B5044610B390F8353003F0FF021BB99B
:1032840080F83420FFF72CFC0020022301220C4993
:1032940084F83530E06120626062A0630B682568C1
:1032A40023F030032B4384F8370084F82D200B607F
:1032B40084F8352084F82C00E06338BD0120FCE755
:1032C4000004065038B50546012488B1022380F86D
:1032D4002D40002480F83530C461046280F8374002
:1032E4004462FFF70FFC85F8354085F82C40EC6309
:1032F400204638BDF8B51E4690F835300446DBB29A
:10330400012B01D0082B6DD109B102B126B90125D9
:1033140084F835502846F8BD94F83430012B61D038
:10332400012594F82D3084F83450AB423CD1022767
:103334002E4D84F835702B68079823F4803323F0DE
:10334400C40343F0040303432B60A86802F003039F
:1033540020F01F0040EAC303AB6084F82D702046C0
:10336400FFF7EAFE054684F82C000028D2D194F831
:103374003530082B32D01D4F0246BB68022143F47E
:103384008073BB60069B2046FFF73AFF60BB3B6837
:10339400304613F0800F0CBF14211021FFF70AFFF1
:1033A400012384F8353019E0022B15D194F8353017
:1033B400082B1DBF0D4D02F00303A868226A1EBF2F
:1033C40020F01F0040EAC303AB604FF0020308BFC4
:1033D400E16884F83530C2E784F83550002384F876
:1033E400343097E7022595E7032593E70004065058
:1033F40013B500240194049C0094FFF77BFF02B0F2
:1034040010BD0000F8B590F835500646EDB2012D18
:103414000F4613461ED1F9B190F834200221012A37
:1034240018D080F8345080F835100022FFF7E8FEF9
:10343400044698B90A4B38461B6813F0800F0CBF3A
:1034440014211021FFF7B6FE86F8355086F8344073
:103454002046F8BD0224FBE72C46F9E70324F7E7EE
:1034640000040650016800224B6913F4806310D0F5
:103474006FF480634B612023026380F83D3080F851
:103484003E20036C80F83C2043F0040303640120D5
:103494007047184670472DE9F04104461646984691
:1034A4008FB22568686937EA000017D06B695A053E
:1034B40016D52B68202243F400732B606FF48063CD
:1034C4006B610023236384F83D2084F83E30226C32
:1034D40042F004020120226484F83C30BDE8F0810B
:1034E400731CDFD0FFF784FCA0EB0800B04201D8C6
:1034F400002ED6D100232022236384F83D2084F8B3
:103504003E30226C42F02002E4E770B504460D46DA
:10351400164623685B695B0701D5002070BD204611
:10352400FFF7A0FFA8B96A1CF3D0FFF761FC801B6A
:10353400A84201D8002DECD100232022236384F873
:103544003D2084F83E30226C84F83C3042F0200266
:1035540022640120E2E770B504460D461646206851
:10356400436913F0400301D0002010E04269D20601
:103574000ED56FF0100242612022236384F83D20AF
:1035840084F83E30226C0120226484F83C3070BD03
:10359400FFF72EFC801BA84201D8002DDFD10023A9
:1035A4002022236384F83D2084F83E30226C42F0CC
:1035B4002002E8E72DE9F843044690461F46089E9A
:1035C4004FEA11498DB22168B9F1010F0CBF4B6963
:1035D4008B6935EA03030CBF01230023984501D00E
:1035E400002016E07B1CEFD0FFF702FC801BB842E2
:1035F40001D8002FE7D1002320220120236384F87F
:103604003D2084F83E30226C84F83C3042F02002A5
:103614002264BDE8F88370B504460D461646236857
:103624005B691B0601D5002070BD2046FFF71AFF19
:10363400A8B96A1CF3D0FFF7DBFB801BA84201D8B2
:10364400002DECD100232022236384F83D2084F84C
:103654003E30226C84F83C3042F020022264012087
:10366400E2E700002DE9FF41154602689846136819
:103674000B9E43F4807313600F460A9B009600224E
:103684004FF001110446FFF795FF236838B11B681A
:10369400DB0502D54FF40073236403200AE007F02E
:1036A400FE071F610A9A334618492046FFF7F3FEC6
:1036B40018B1012004B0BDE8F081236803905A6971
:1036C4000A9903929B69324603932046039BFFF7B2
:1036D400A2FF40B1236C042B01BF2268136843F49A
:1036E40000731360E5E7B8F1010F236802D1EDB26E
:1036F4001D61DFE72A0A1A610A9932462046FFF75C
:103704008AFF0028E6D12368F1E700BF0200010028
:103714002DE9FF419846036816461A680B9D42F44A
:1037240080621A601A680F4642F480721A604FF081
:1037340001110A9B009500220446FFF73BFF236812
:1037440048B11B68DB0502D54FF4007323640320E2
:1037540004B0BDE8F081FFB207F0FE021A612A4905
:103764002B460A9A2046FFF796FE08B10120EFE7A0
:10377400236803905A690A9903929B692A46039322
:103784002046039BFFF747FF40B1236C042B01BF86
:103794002268136843F400731360E7E7B8F1010F7C
:1037A400236825D1F6B21E612A460A992046FFF7FE
:1037B40032FF02460028E8D1216820460B6843F412
:1037C40080730B600A9B00954FF00111FFF7F2FE26
:1037D40023680028B5D147F001071F610A9A2B46D8
:1037E40009492046FFF757FE003018BF0120AFE714
:1037F400320A1A610A992A462046FFF70CFF00286C
:10380400C3D12368CEE700BF0200010070B50446AF
:1038140008B9012070BD90F83D3003F0FF021BB9D8
:1038240080F83C20FFF776F9242384F83D302368A0
:103834001A6822F001021A601A6842F400421A60FF
:103844001A6822F400421A6001F0EAF96368414AF6
:1038540093424DD8404A9042DBD940492268B0FB9C
:10386400F1F1556825F03F050D435560156A25F0C3
:103874003F05013129431162D169364D21F44F418D
:10388400AB4221F0FF0100F1FF3048D85B00B0FBF0
:10389400F3F0431CC3F30B03042B38BF04230B4383
:1038A400D3611168D4E9073021F0C00103430B430D
:1038B40013609168D4E9030321F40341034321F025
:1038C400FF010B439360D168D4E9053021F0FF0177
:1038D40003430B43D3601368002043F001031360D8
:1038E4002023206484F83D30206384F83E0091E76F
:1038F4001B4A90428DD9194E4FF49671B0FBF6F6DF
:1039040022687143556825F03F0535434FF47A76B4
:103914005560156AB1FBF6F125F03F05A9E7A568E6
:1039240055B903EB4303B0FBF3F0431CC3F30B03A0
:103934006BB143F40043B2E719256B43B0FBF3F0DA
:10394400431CC3F30B0313B143F44043A7E7012320
:10395400A5E700BFA08601007F841E0040420F003F
:10396400FF083D002DE9F743044699460F4690466B
:103974000C9EFFF73DFA94F83D300546202B03D00A
:10398400022003B0BDE8F0830090192301223B49D3
:103994002046FFF70FFE0028F2D194F83C30012BAB
:1039A400EED0012384F83C30236820461A68D107FE
:1039B40058BF1A6839465CBF42F001021A601A689F
:1039C40022F400621A60212384F83D30402384F8F5
:1039D4003E30002323640A9BCDE900656362BDF891
:1039E4002C3042466385638D2385254BE3624B4629
:1039F400FFF738FE00282AD00120C2E7FFF70BFEAC
:103A040040B1236C042B01BF2268136843F4007394
:103A14001360F1E7636A27681A4612F8011B3961DB
:103A24006262628D218D013A92B262857A69481E82
:103A340080B2520720850AD548B15A7802333A61D8
:103A44006362638D0239013B9BB221856385238DBB
:103A54002A4631462046002BD0D1FFF756FD0028D8
:103A6400CFD12268136843F400731360202384F8D1
:103A74003C0084F83D3084F83E0082E702001000E8
:103A84000000FFFF2DE9F043044687B099460D4638
:103A94009046109FFFF7ACF994F83D300646202B72
:103AA40004D00225284607B0BDE8F083009019230E
:103AB400012277492046FFF77DFD0028F1D194F8D3
:103AC4003C30012BEDD0012384F83C302368294697
:103AD4001A68D00758BF1A6820465CBF42F001023A
:103AE4001A601A6822F400621A60222384F83D30B6
:103AF400402384F83E30002323640E9BCDE90076F6
:103B04006362BDF83C3042466385638D2385614B17
:103B1400E3624B46FFF7FCFD054608B10125C1E70A
:103B2400228D236892B902905A6902929A6902928C
:103B3400029A1A6842F400721A60202384F83D3015
:103B4400002384F83E3084F83C30ABE7012A2CD1C2
:103B54001A6822F480621A6003905A6903929A697F
:103B64000392039A1A6842F400721A60DFF82881FB
:103B7400238D002BE1D0032B6ED8012B2DD132469F
:103B840039462046FFF7E7FC0028C7D123681A69A5
:103B9400636A1A70636A01336362238D013B238570
:103BA400638D013B9BB26385E2E7022A0ED11A685A
:103BB40022F480621A601A6842F400621A60049067
:103BC4005A6904929B690493049BCFE705905A6950
:103BD40005929B690593059BC8E7022B00963B461B
:103BE4004FF000024146204619D1FFF7E3FC0028BC
:103BF40094D123681A6842F400721A601A69636ADD
:103C04001A70626A531C6362238D013B2385638DA2
:103C1400013B9BB2638523681B695370BAE7FFF7C6
:103C2400C9FC024600287FF479AF2368204619684E
:103C340021F4806119601969636A1970636A0096D6
:103C440001336362238D4146013B2385638D013B30
:103C54009BB263853B46C8E7324639462046FFF7A8
:103C64007AFC00287FF45AAF23681A69636A1A70D1
:103C7400626A531C6362238D013B2385638D013B80
:103C84009BB263852368596949077FF571AFC3E720
:103C9400020010000000FFFF040001002DE9F04FB6
:103CA400044685B0984689469246FFF7A1F894F8F1
:103CB4003D300546202B03D0022005B0BDE8F08F2F
:103CC4000090192301224C492046FFF773FC002879
:103CD400F2D194F83C30012BEED0012384F83C302F
:103CE400236801271A68DFF810B1D20758BF1A6891
:103CF40009F0FE095CBF42F001021A601A6822F45E
:103D040000621A60242384F83D3000232364A3F561
:103D14008033E36222684FF001111368204643F4B4
:103D240080731360434600950022FFF743FC236829
:103D340038B11B68DB0502D54FF4007323640320FC
:103D4400BBE7C3F81090FFF753F8A0260546236895
:103D54005A695B69C2F34002C3F3802394F83D10AF
:103D6400A02901D002B9E3B12026236884F83D607C
:103D74005A6912F0020F1A6842F400721A6027D0CE
:103D8400002203925A691C4903929B6901220393FE
:103D9400039B009519232046FFF70CFC98B10120E2
:103DA4008BE7FFF725F8401B404502D8B8F1000F18
:103DB40001D184F83D6023685A695B69C2F340020B
:103DC400C3F38023CAE784F83D6084F83C0074E7B9
:103DD4006FF4806259465A612046009519230122E6
:103DE400FFF7E8FB0028DAD10137574592D384F86E
:103DF4003D6084F83C00D2E702001000F0B50446B0
:103E04008BB060B390F8BD33056803F0FF021BB9B3
:103E140080F8BC2302F0A8FB032384F8BD33EB6BCA
:103E240025466E4613F4807355F8100B08BF2361C2
:103E340001F0ACF90FCD0FC60FCD0FC695E8030006
:103E4400254686E80300271D97E80E0055F8100B59
:103E540001F0E8F8064620B1022384F8BD330125B9
:103E640050E00146206801F097F930464FF0010E0A
:103E74001C260146D4F804C0C2B2944500F10100E6
:103E84001CD800231C261946D8B2844503F101032B
:103E940022D80FCD6E460FC60FCD0FC695E803008E
:103EA40086E8030097E80E00206801F0B7F90123C3
:103EB400054600B3022284F8BD23D0E706FB024383
:103EC40083F83DE083F83C20A3F8422083F83F10B8
:103ED400C3E911111965CFE706FB004282F8FD1111
:103EE40082F8FC0182F8FF11C2F80412C2F8081229
:103EF400C2F81012C8E784F8380084F8BD3320688B
:103F040001F0A8FC28460BB0F0BD90F8BC3310B506
:103F1400012B04460CD0012380F8BC33006801F067
:103F24008DFC206801F02CF9002084F8BC0310BD3E
:103F34000220FCE72DE9F04FD0F800B087B004462A
:103F4400584601F0C2FC0290002840F01A81206813
:103F540001F08CFC002800F01481206801F086FC3C
:103F6400860748BF2268206842BF536903F00203F2
:103F7400536101F07BFC050300F10681206801F028
:103F840075FC40030BD5206801F07CFC2546814676
:103F940000260BF51068B9F1000F40F0BE812068CF
:103FA40001F064FC00280DDADBF80438204623F025
:103FB4000103CBF8043802F05FFB2268536903F075
:103FC40000435361206801F051FC00050BD5DBF878
:103FD4000838D90702D5204602F036FB2268536917
:103FE40003F400635361206801F040FCC20435D53A
:103FF4000BF500656B68102123F001036B602068EA
:1040040001F0E2F84FF67F3160680BF51063029A15
:10401400904240F01882EB6943F00113EB61236B8B
:10402400002B00F02382D5F8843043F00B03C5F84D
:1040340084306B6C43F00B036B64DBF8003804F5DD
:10404400717223F4FE63CBF80038217C206801F000
:104054005BFC2268536903F480535361206801F0C8
:1040640005FC830416D5206801F033FC206801F0B8
:1040740099F9E060256800F0CDFD227B01462846D1
:1040840001F00AF8204602F0CCFA2268536903F4DE
:1040940000535361206801F0E9FBC7062BD5226861
:1040A400936923F010039361DBF82050C5F3434375
:1040B400022B05F00F0640F0E48147F6F0731D4231
:1040C40014D01C2303FB0646C5F30A152A46D6F86A
:1040D4000812584601F040FBD6F808322B44C6F8C3
:1040E4000832D6F814321D44C6F814522268936973
:1040F40043F010039361206801F0B8FB060707D56D
:10410400204602F08AFA2268536903F008035361D7
:10411400206801F0ABFBC50208D50021204602F05F
:10412400B3FA2268536903F480135361206801F0E1
:104134009DFB800208D50021204602F0A1FA2268E6
:10414400536903F400135361206801F08FFB4100AD
:1041540007D5204602F09CFA2268536903F0804395
:104164005361206801F082FB42070AD523685D6829
:104174006B0702D5204602F08FFA226853682B435E
:10418400536007B0BDE8F08F206801F073FB002591
:104194008046DFF810930BF53066B8F1000F3FF45A
:1041A400EDAE18F0010F00F0B480EBB219462068B0
:1041B400039301F06FFB10F0010F0746039B53D0EC
:1041C40001214FEA451A06EB0A029160226821692F
:1041D400106C02F5306292440129DAF8082058D1B3
:1041E400110714D5484505D9100444BF4FF40043C2
:1041F400CAF80830204602F0F9F904F57172012179
:10420400206801F081FB0823CAF808302CE09106ED
:1042140001D52023F8E712F0280F25D1484504D909
:10422400100402D54FF40043EEE71C2202FB0542C2
:10423400DAF81010D2F80402C1F31201411AC2F8DC
:104244001412D2F808120844C2F80802194620468B
:1042540002F0D2F945B9D4F810322BB904F57172D1
:104264000121206801F050FB380737D52368206905
:104274001A6C4FEA451A03F53063534401289968D0
:1042840016D14A4517D9090444BF4FF40041996037
:1042940011E08349884206D11104C3D4920644BF75
:1042A4002022CAF808201946204602F0A5F9DBE7C7
:1042B4007B488242E7D02046039202F097F9039AA2
:1042C4004A4507D92169012904D104F5717220688E
:1042D40001F01AFB0823B244CAF80830F80642BFBA
:1042E400102206EB45139A60B9060BD52169012902
:1042F40004D104F57172206801F006FB202206EB5C
:1043040045139A60BA0442BF4FF4005206EB4513BA
:104314009A6001354FEA58083FE719F0010F72D04F
:104324005FFA86FA5146206801F0BDFAC3070746D2
:1043340024D50120DBF8343806F00F0200FA02F22B
:1043440023EA02030246CBF8343808EB461398609C
:1043540023695146834202BFD5E911239B18AB64FC
:10436400204602F052F92169012907D136B9236D9B
:1043740023B904F57172206801F0C6FA380742BF08
:10438400082208EB46139A60F90642BF102208EB94
:1043940046139A607A0642BF402208EB46139A609D
:1043A400BB0742BF022208EB46139A603F062AD598
:1043B400D5E914329A4226D89B1A6A6C2168934232
:1043C40028BF134603339B08049301F5106303EBE2
:1043D400461303910593059B04999A69D5E91473CF
:1043E40092B28A4214D29F420DD80121039B06F057
:1043F4000F0203F5006AD3F8343801FA02F223EA13
:104404000203CAF8343001364FEA59091C35C2E5B3
:104414009F42EAD9002FE8D0FF1A6B6C52469F42A4
:1044240028BF1F46FB1C9B080493237C039800931E
:10443400A96CBBB201F0A4F8AB6C3B44AB646B6DEC
:104444001F446F65C7E799601A68203322F400128D
:1044540043F8202CC3F8E811D3F8E02122F4001229
:10446400C3F8E021029A01320292D0E56B6943F469
:10447400005343F02B036B612B6943F00B032B6157
:10448400DBE5062B7FF432AE082204F57171584641
:1044940001F062F91C23C5F30A1503FB064620E666
:1044A4000A31544F0A30544F90F8BC2310B5012AF6
:1044B40004460BD0012280F8BC2384F8381000682D
:1044C40001F0ACF9002084F8BC0310BD0220FCE725
:1044D40070B504461C2001F00F05684311F0800FED
:1044E40014BF00F13C0100F5FE7104EB000617BF98
:1044F40001200020091986F83D0004BF091986F837
:10450400FD018A604A780D70CB7002B1CD80022B18
:1045140004BF00230B7194F8BC33012B09D0012391
:10452400206884F8BC3300F048FF002084F8BC0302
:1045340070BD0220FCE71C2301F00F02534311F06D
:10454400800F10B5044618BF03F13C0118440BBF9B
:1045540003F5FE710123002309190ABF091980F824
:104564003D3080F8FD310A7094F8BC33012B09D03A
:104574000123206884F8BC3300F05EFF002084F837
:10458400BC0310BD0220FCE738B51C2401F00F0564
:104594006C4304F5FE710444C4F810320023C4F8DB
:1045A4000822C4F8143284F8FD3184F8FC510369FC
:1045B4000144012B08BFC4F80C220068DAB21DB90B
:1045C40000F06AFF002038BD00F0EEFFFAE71C237C
:1045D40001F00F0103FB0101D1F81402704738B553
:1045E4001C2401F00F056C4304F13C0104442365D1
:1045F400002363650123A26484F83D3084F83C50B1
:1046040003690144012B08BFE2640068DAB21DB9F2
:1046140000F042FF002038BD00F0C6FFFAE738B5CD
:10462400436801F00F059D4204462CD811F0800F19
:104634004FF01C031ED001226B4303F13C010344E1
:10464400014483F83D2001230D708B7094F8BC2342
:104654009A421AD084F8BC33206801F08BF82DB943
:1046640004F57172217C206801F04EF9002084F871
:10467400BC0338BD00224B4303F5FE7103440144DF
:1046840083F8FD21DFE70120F3E70220F1E738B5E5
:10469400436801F00F029A42044625D81C23534371
:1046A40011F0800F14BF03F13C0103F5FE711844AF
:1046B4004FF0000515BF012300230919091914BF80
:1046C40080F83D3080F8FD318D700A7094F8BC3369
:1046D400012B0BD00123206884F8BC3301F075F85A
:1046E400284684F8BC5338BD0120FCE70220FAE7D1
:1046F400006870B51204446A19B92243826200202A
:1047040070BD836A4D1E04EB134400235E1CDBB2B0
:104714009D4205D83F31224300EB81004260EEE721
:10472400403300EB83035B6804EB13443346EDE74B
:1047340003680020596270472DE9F341044608B923
:1047440001203BE00368DD0710D42368980745D4B3
:1047540023681A0700F1918023685B0700F1AF809A
:10476400A069002840F00181002027E0AA4B9A6844
:1047740002F00C02042A07D09A6802F00C02082AFC
:104784000AD15B68590207D5A34B1B689A03DCD591
:104794006368002BD9D1D3E7A04B22791A706368E0
:1047A4007BB1FEF725FB06469B4D2B689B03CCD4BF
:1047B400FEF71EFB801B6428F7D9032002B0BDE876
:1047C400F081FEF715FB0646934D2B689F03BCD57D
:1047D400FEF70EFB801B6428F7D9EEE78E4B9A6830
:1047E40012F00C0F07D09A6802F00C02082A16D1B6
:1047F4005B685E0213D4884B1A68950702D5E26899
:10480400012A9DD11868F82292FAA2F2B2FA82F132
:1048140022698A4020F0F8010A431A6098E7E268A6
:104824007F4BDAB101221A60FEF7E2FA06467A4DAE
:104834002B6898070CD52968F82393FAA3F3B3FAE5
:1048440083F22369934021F0F80213432B607FE73E
:10485400FEF7CEFA801B0228EAD9AEE71A60FEF70B
:10486400C7FA06466C4D2B6899077FF571AFFEF7C2
:10487400BFFA801B0228F6D99FE76269694B7AB1B7
:1048840001221A60FEF7B4FA0646634D6B6F9F0768
:104894003FF562AFFEF7ACFA801B0228F6D98CE72D
:1048A4001A60FEF7A5FA06465B4D6B6F98077FF515
:1048B40053AFFEF79DFA801B0228F6D97DE7564BCD
:1048C4001A6C12F0805226D1012601921A6C42F021
:1048D40080521A641B6C03F080530193019B524D68
:1048E4002B6843F480732B602B68D90515D54F4B87
:1048F400227A1A70A36803BBFEF77AFA41F2883869
:104904000746454D2B6F980720D5FEF771FAC01B5B
:104914004045F7D951E70026E1E72B6843F480735B
:104924002B60FEF765FA07462B68DA05DFD4FEF73D
:104934005FFAC01B0228F7D93FE7FEF759FA41F2A4
:1049440088380746344D2B6F9B0708D5002E3FF45B
:1049540007AF314A136C23F08053136400E7FEF76A
:1049640047FAC01B4045EED927E72B4DAB6803F04F
:104974000C03082B5ED000232D4E022833603ED159
:10498400FEF736FA07462B68990132D447F6C0770A
:1049940097FAA7F74FF44032B7FA87F792FAA2F2E0
:1049A4004FF07061B2FA82F091FAA1F1D4E90732C2
:1049B400B1FA81F11343626A02FA07F7A26A3B4330
:1049C4005208013A82401343E26A134C02FA01F19D
:1049D4000B436B6001233360FEF70AFA0546236834
:1049E4009A013FF5C1AEFEF703FA401B6428F6D9DD
:1049F400E3E6FEF7FDF9C01B6428C4D9DDE6FEF743
:104A0400F7F904462B689B017FF5AEAEFEF7F0F98B
:104A1400001B6428F6D9D0E6003802400238024070
:104A240000004742800E4742007000407038024048
:104A34006000474201283FF4C1AE6868E36900F4AE
:104A440080029A427FF47CAE226A00F03F039342D4
:104A54007FF476AE626AC0F3881393427FF470AE3B
:104A6400A26A00F4403393427FF46AAEE36A00F032
:104A74007060C01A18BF0120A0E600BF134908B532
:104A84008B6803F00C03042B03D0082B03D01048CD
:104A940000E0104808BD4A684B68496813F4800375
:104AA40014BF0C480A48C1F3881118BF002302F050
:104AB4003F02A1FB0001FBF783FB044B5B68C3F3DC
:104AC400014301335B00B0FBF3F0E3E7003802403D
:104AD4000024F40000366E012DE9F0410D46044631
:104AE40010B90120BDE8F081454B1A6802F00F02AD
:104AF4008A422ED321688F0733D4C80746D4404B4B
:104B04001A6802F00F02AA4269D8226851076FD4CA
:104B1400130707D53B4A2169936823F4604343EAAA
:104B2400C1039360FFF7AAFF364BF0229B6892FA09
:104B3400A2F2B2FA82F203F0F003D340324AD35C19
:104B4400D840324B1860324B1868FEF707F9002042
:104B5400C8E7CAB21A701B6803F00F038B42C0D1B6
:104B6400C8E7284B11F0040F1EBF9A6842F4E052C4
:104B74009A600E0742BF9A6842F460429A609A684B
:104B8400A06822F0F00202439A60B6E761681D4B08
:104B940001291A681BD112F4003FA2D09A6841F28D
:104BA400883822F003020A439A60FEF721F9074687
:104BB400144EB368626803F00C03B3EB820F9ED00B
:104BC400FEF716F9C01B4045F3D903208AE70229F2
:104BD40002D112F0007FE0E712F0020FDDE7EAB243
:104BE4001A701B6803F00F03AB427FF47AAF8CE7B3
:104BF4000449E0688B6823F4E05303438B6087E740
:104C0400003C024000380240949300082809002028
:104C140030090020014B1868704700BF28090020A4
:104C2400084B4FF4E0529B6892FAA2F2B2FA82F275
:104C340003F4E053D340044AD35C044A1068D840D8
:104C4400704700BF00380240A493000828090020E0
:104C540010B5044690B1437903F0FF0213B9027111
:104C6400FDF790FF0223226863711368002043F06C
:104C74000403136001236371A06010BD0120FCE7ED
:104C8400F8B503790446012B0E4625D0012063793B
:104C9400207183421DD102236371FEF7A9F80746F0
:104CA4002268556815F0010508D093680020E36078
:104CB4003360012363710023237109E0FEF798F840
:104CC400C01B0228ECD90120022360712571A36066
:104CD400F8BD0423A360EEE70220F9E710B500F164
:104CE4000C010446FFF7CCFF08B9E06810BD0020B2
:104CF400FCE7022380F83D3003689A6802F007025B
:104D0400062A1EBF1A6842F001021A60012380F8C5
:104D14003D3000207047022341F2111280F83D30EB
:104D24000368196A114208D140F24442196A1142D7
:104D340002BF1A6822F001021A60012380F83D3094
:104D44000020704703680020DA6842F00102DA604C
:104D54009A6802F00702062A1EBF1A6842F001028E
:104D64001A60704770477047704770477047036810
:104D740010B51A69044691070ED5DA6892070BD567
:104D84006FF002021A6101229B6902779B0777D0B8
:104D9400FFF7EAFF0023237723681A69500710D529
:104DA400DA6851070DD56FF004021A6102229B697B
:104DB400227713F4407F204668D0FFF7D5FF002305
:104DC400237723681A6912070FD5DA6810070CD500
:104DD4006FF008021A610422DB69227799072046E2
:104DE4005AD0FFF7C1FF0023237723681A69D2063C
:104DF40010D5DA68D0060DD56FF010021A610822BA
:104E0400DB69227713F4407F20464BD0FFF7ACFFD9
:104E14000023237723681A69D10708D5DA68D207F3
:104E240005D56FF0010220461A61FFF79BFF236846
:104E34001A69100608D5DA68110605D56FF08002E4
:104E440020461A6100F0D5F823681A69520608D57D
:104E5400DA68500605D56FF0400220461A61FFF764
:104E640085FF23681A69910622D5DA6892061FD550
:104E74006FF020022046BDE810401A6100F0B8B877
:104E8400FFF771FF2046FFF770FF83E7FFF76BFF23
:104E94002046FFF76AFF92E7FFF765FF2046FFF71A
:104EA40064FFA0E7FFF75FFF2046FFF75EFFAFE771
:104EB40010BD0000304A0368904212D0B0F1804F18
:104EC4000FD0A2F57C4290420BD002F58062904252
:104ED40007D002F58062904203D002F578429042F6
:104EE40019D14A6823F070031343234A904229D00E
:104EF400B0F1804F26D0A2F57C42904222D002F538
:104F0400806290421ED002F5806290421AD002F56F
:104F14007842904216D0194A904213D002F580622A
:104F240090420FD002F5806290420BD0A2F59832E5
:104F3400904207D002F58062904203D002F580626D
:104F4400904203D1CA6823F4407313434A6923F09F
:104F54008003134303608B68C3620B688362064B50
:104F6400984203D003F58063984201D10B6903632F
:104F740001234361704700BF00000140004001402D
:104F840010B50446A0B190F83D3003F0FF021BB900
:104F940080F83C20FDF70EFE0223206884F83D30A3
:104FA400211DFFF787FF0123002084F83D3010BD49
:104FB4000120FCE790F83C3030B5012B4FF00203A0
:104FC40014D0046880F83D306268A3680D684968AD
:104FD40022F0700223F080030B432A436260A36033
:104FE400012380F83D30002380F83C30184630BD62
:104FF400704770470A4B013B0FD00269002AFADA66
:105004000369074A43F001030361013A05D00369C8
:1050140013F00103F9D1184670470320704700BF0D
:10502400410D030084B038B505AD85E80E000A9B38
:105034000446012B25D1836B23F480338363C36837
:1050440023F4840323F04003C360C36823F44013B0
:10505400C360119B012B02BFC36843F48013C36078
:10506400FFF7C8FF089B012B07D1A36843F0060391
:10507400A360A36843F02003A360BDE8384004B0F4
:105084007047C36843F04003C360FFF7B3FFA36BEB
:1050940043F48033A363E5E7022A58D12E4B2F4A09
:1050A4000B44934247D92E4B2E4A0B44934244D986
:1050B400A1F574032C4AA3F5105393423FD9A1F1EF
:1050C400837302F5C332A3F5E743A032934238D980
:1050D400264B274A0B44934235D9264B02F592229C
:1050E4000B4402F5787293422FD9234B02F5C32265
:1050F4000B4402F52072934229D9A1F1B77302F54A
:10510400B712A3F5585302F55872934221D91B4B99
:1051140002F512220B4402F5F862934294BF07236E
:105124000623C26822F47052C260C26842EA832332
:10513400C360002070470F23F3E70E23F1E70D232C
:10514400EFE70C23EDE70B23EBE70A23E9E7092359
:10515400E7E70823E5E700BF405327FFFF340C00CF
:10516400401E1BFF3F420F007F4F120060B6E5FE5A
:105174005FE3160000D3CEFEC05BB3FEE05459FEDD
:10518400836843F00103836000207047836823F041
:10519400010383600020704708B5C368012923F028
:1051A400C043C36008D1C36843F00053C3603220D6
:1051B400FDF724FE002008BD19B9C36843F08043FD
:1051C400F4E70120F7E70000890141F02001064AD5
:1051D4000161013A05D0036913F02003F9D118469F
:1051E40070470320704700BF410D03001023064A97
:1051F4000361013A05D0036913F01003F9D118468D
:1052040070470320704700BF410D0300D0F80038F9
:105214001943C0F8001800207047000084B02DE93D
:10522400F047044609A880E80E0000238846194682
:105234000C9F139E03F14002013304EB82020F2BF7
:105244005160F7D1A36B002E72D143F40013A36312
:10525400A36B23F40023A363A36B23F48023A3632E
:105264000023C4F8003ED4F8003804F50065C4F8FF
:1052740000380E9B012B64D10B9900295FD1204685
:10528400FFF7C4FF10212046FFF79EFF014620468A
:10529400FFF7ACFF002856D1081C18BF01200023DB
:1052A4004FF0904C19464FF0006E4FF67F392B614A
:1052B40004F510626B61EB61434546D100214FF068
:1052C400904E8C464FF000684FF67F3904F53062FB
:1052D4008B424DD12B69012F23F480732B6107D1AD
:1052E4002E4B2B632B6B43F4803343F003032B636C
:1052F4000023A3616FF0804363611FB9A36943F086
:105304001003A361A269264B1343A3610F9B1BB136
:10531400A36943F00803A361012E01BFA36943F00D
:10532400804343F00403A361BDE8F04704B0704731
:1053340023F40013A363A36B43F400238FE71946FC
:105344009DE703219BE70120A9E7D2F800A0BAF169
:10535400000F0BDA3BB9C2F800E011610133C2F867
:1053640008902032A8E7C2F800C0F6E71160F4E71D
:10537400D2F800A0BAF1000F0CDA41B9C2F80080EB
:10538400C2F810C00131C2F808902032A0E7C2F878
:1053940000E0F5E7C2F800C0F2E700BF00018000BA
:1053A40000383C80D0F8083813F0060004D013F01D
:1053B400020F14BF02200F20704730B501240D786E
:1053C40000F5006205F00F039C404B7800EB45109C
:1053D400012BD36918D11C43D461D0F800391A04C5
:1053E40010D48B68C978C3F30A0343F0805343F4A1
:1053F4000043D0F8002943EA814343EA8553134329
:10540400C0F80039002030BD43EA0444D461D0F828
:10541400003B1B04F6D48B68C978C3F30A0343F03A
:105424008053D0F8002B43F4004343EA81431343F1
:10543400C0F8003BE6E70000012330B50C7849785A
:1054440000F5006204F00F05012903FA05F300EBEF
:105454004410D16B0DD1DB431940D163D1690B40AA
:10546400D361D0F800290A4B1340C0F8003900205A
:1054740030BD6FEA03431940D163D1690B40D36156
:10548400D0F8002B034B1340C0F8003BEFE700BFFC
:10549400007833EC0078F3EF4B78F0B50C78012BFF
:1054A40000EB44144D69344E344F44D104F5106379
:1054B400B5B91D692E401E611D6945F400251D61A5
:1054C4001D692F401F61012A21D10A6902B15A6165
:1054D400D4F8003943F00443C4F800390020F0BD87
:1054E400D3F810C00CEA07071F611F693E401E6114
:1054F4008E68AE421D6938BF4E6145F400251D61BA
:105504004D691E69C5F3120535431D61DBE7D4F807
:10551400003943F00443C4F800394B69002BDDD053
:105524000B78D0F8344803F00F020123934023434F
:10553400C0F83438D2E704F530631869384018618C
:10554400186930401861886805B148611D69C0F365
:10555400120045F400251D611D69012A40EA050079
:10556400186102D1CA6802B15A61D4F8003B43F011
:105574000443C4F8003BB1E7FFFF07E00000F8FF75
:1055840010B59DF808404CB9033300EB02309B087A
:1055940000F5805001EB8303994201D1002010BD36
:1055A40051F8042B0260F7E7F7B54D780C78012D1C
:1055B40000EB44144B69CE78DFF894C1DFF894E132
:1055C4007DD104F510652F693BBB07EA0C072F61F9
:1055D4002F6947F400272F612F6907EA0E072F610F
:1055E400012A42D10B6903B16B61012E0CD1D0F8B1
:1055F400083813F4807FD4F800390CBF43F000530B
:1056040043F08053C4F80039D4F8003943F004431C
:10561400C4F80039002003B0F0BD07EA0E072F617B
:105624002F69012E07EA0C07D1F808C02F610CEB93
:10563400030707F1FF37B7FBFCFC444FD5F810E034
:1056440007EACC4747EA0E072F61D5F810C0C3F329
:10565400120747EA0C072F61C2D12F6927F0C04710
:105664002F612F6947F00057B9E7D4F80059012E8C
:1056740045F00445C4F800590CD0002BCAD00B786F
:10568400D0F8344803F00F02012393402343C0F8B9
:105694003438BFE7D0F808589BB215F4807FD4F8AB
:1056A40000590CBF45F0005545F08055C4F8005929
:1056B4000C780092C9682246FFF762FFAAE704F556
:1056C40030673D6905EA0E053D613D6905EA0C0553
:1056D4003D618D681BBB3B69C5F312051D433D61EC
:1056E4003B6943F40023012A3B6102D1CB6803B137
:1056F4007B61012E0CD1D0F8083813F4807FD4F8E4
:10570400003B0CBF43F0005343F08053C4F8003B0C
:10571400D4F8003B43F00443C4F8003B7AE72B443D
:10572400013BB3FBF5F3DFF824C0D7F810E00CEA33
:10573400C34C9BB26B434CEA0E0CC7F810C0D7F8AD
:1057440010C0C3F3120343EA0C03CCE70000F81FB4
:10575400FFFF07E00000F8FF0332920801EB82022A
:1057640000F58050914201D108467047036841F822
:10577400043BF7E74A780B78012A00EB431012D177
:10578400D0F80029002A06DB2BB1D0F8003923F029
:105794008043C0F80039D0F8003943F40013C0F84E
:1057A400003900207047D0F8002B002A06DB2BB10B
:1057B400D0F8003B23F08043C0F8003BD0F8003B16
:1057C40043F40013C0F8003BEBE70B784A7800EB96
:1057D4004310CB78012AA3F10203DBB20FD1D0F836
:1057E4000029012B22F40012C0F8002905D8D0F8B2
:1057F400003943F08053C0F8003900207047D0F8D6
:10580400002B012B22F40012C0F8002B9EBFD0F80D
:10581400003B43F08053C0F8003BEEE7D0F800387B
:10582400090123F4FE63C0F80038D0F8003801F40D
:10583400FE611943C0F800180020704708B5D0F87D
:10584400043823F00203C0F804380320FDF7D6FA25
:10585400002008BD08B5D0F8043843F00203C0F8AE
:1058640004380320FDF7CAFA002008BD42698069A4
:1058740010407047D0F8183800F50060C06918402F
:10588400000C7047D0F8183800F50060C069184063
:1058940080B2704700EB411100F50060D1F8082B8D
:1058A40040691040704710B5D0F81048D0F834382B
:1058B40000EB411001F00F01CB4000F51060DB015B
:1058C4008068DBB22343184010BD406900F001003A
:1058D4007047D0F8003923F4FF6323F00703C0F8BE
:1058E400003900F500639A6802F00602042A02BF38
:1058F400D0F8002942F00302C0F800295A680020B9
:1059040042F480725A60704730B5056C104C00F553
:105914003063A54203D9D0F8004B002C16DB0024D9
:105924001C611C69012944F400241C611C6944F0B5
:1059340018041C611C6944F0C0441C6101BF5A6115
:10594400D0F8003B43F08023C0F8003B002030BD7A
:105954000A30544FD0F8BC3210B56BB1D0F8B8420D
:1059640094F80002FF2807D09B6894F8012221468E
:105974009847FF2384F80032002010BD432303809E
:10598400004870476C090020432303800048704797
:10599400B00900204323038000487047000A002018
:1059A4000A23038000487047F409002038B50546EF
:1059B400D0F8B84200F026FFD5F8B832C4F80C028B
:1059C4004BB1D5F8BC3204F50371DB68D4F804029A
:1059D4009847002038BD0220FCE7F8B5D0F8B8623B
:1059E400D6B1142303FB0103DD698DB11C27D0F864
:1059F400C04207FB0142526CB5FBF2F402FB1454A3
:105A040034B9DC612246234600F0E0FE2046F8BDAE
:105A14000020C6F81402FAE70220F8E72DE9F7435C
:105A24004FF000080A78054612F060040E46D0F8DC
:105A3400B8728DF80580ADF8068028D0202C45D1A9
:105A4400CC884B78E4B1120611D5D0F8BC22394683
:105A5400D2F8089018462246C847F28839462846A4
:105A640000F057FC4446204603B0BDE8F08387F8B5
:105A7400003287F801422246394600F05FFCF1E724
:105A8400D0F8BC22184695682246A847EBE74F7821
:105A94000A2F0DD00B2F15D0C7B990F89C32032BC9
:105AA40014D102220DF1060100F033FC3C46DAE782
:105AB40090F89C32032B09D101220DF1050100F06D
:105AC40028FCD0E790F89C32032BCCD031462846F2
