:020000040800F2
:1000000000000220512800089D260008A9260008AB
:10001000AF260008B5260008BB2600080000000037
:10002000000000000000000000000000C1260008E1
:10003000CD26000800000000D9260008E5260008AB
:10004000A1280008A1280008A1280008A12800086C
:10005000A1280008A1280008A1280008A12800085C
:10006000A1280008A1280008A1280008A12800084C
:10007000A1280008A1280008A1280008A12800083C
:10008000A1280008A1280008A1280008A12800082C
:10009000A1280008A1280008A1280008F1260008CE
:1000A000A1280008A1280008A1280008A12800080C
:1000B000A1280008A1280008A1280008A1280008FC
:1000C000A1280008A1280008A1280008A1280008EC
:1000D000A1280008A1280008A1280008A1280008DC
:1000E000A1280008A1280008A1280008A1280008CC
:1000F000A1280008A1280008A1280008A1280008BC
:10010000A1280008A1280008A1280008A1280008AB
:10011000A1280008A128000809270008A128000834
:10012000A1280008A1280008A1280008A12800088B
:10013000A12800080000000000000000A12800081D
:10014000A1280008A1280008A12800088927000884
:10015000A1280008A1280008A1280008A12800085B
:10016000A1280008A1280008A1280008A12800084B
:10017000A1280008A128000800000000A12800080C
:04018000A1280008AA
:1001840010B5054C237833B9044B13B10448AFF3CD
:1001940000800123237010BD180B00200000000014
:1001A400B49C000808B5034B1BB103490348AFF3E3
:1001B400008008BD000000001C0B0020B49C000857
:1001C40053B94AB9002908BF00281CBF4FF0FF31BA
:1001D4004FF0FF3000F074B9ADF1080C6DE904CEB6
:1001E40000F006F8DDF804E0DDE9022304B070470E
:1001F4002DE9F0478C460446089E002B4BD18A42D9
:10020400154667D9B2FA82F24AB1C2F1200701FA5F
:1002140002F320FA07F7954047EA030C94404FEAAB
:10022400154EBCFBFEF71FFA85F80EFB17C307FB40
:1002340008F9210C41EA0343994509D9EB1807F160
:10024400FF3180F01C81994540F21981023F2B4413
:10025400A3EB0903B3FBFEF00EFB103300FB08F124
:10026400A4B244EA0344A14209D92C1900F1FF3392
:1002740080F00781A14240F2048102382C4440EA14
:1002840007400027641A1EB10023D440C6E9004386
:100294003946BDE8F0878B4209D9002E00F0EC8086
:1002A4000027C6E9000138463946BDE8F087B3FAAD
:1002B40083F7002F48D18B4202D3824200F2FB80A5
:1002C400841A61EB030301209C46002EE0D0C6E9AA
:1002D400004CDDE702B9FFDEB2FA82F2002A40F0F8
:1002E4008F800127491B4FEA15481FFA85F9B1FB96
:1002F400F8FE08FB1E1109FB0EF04FEA144C4CEA01
:100304000143984207D9EB180EF1FF3102D298420B
:1003140000F2CD808E461B1AB3FBF8F008FB1033B5
:1003240009FB00F9A4B244EA0344A14507D92C19F6
:1003340000F1FF3302D2A14500F2B6801846A4EBC7
:10034400090440EA0E409EE7C7F12005BB4022FAAB
:1003540005FC4CEA030C21FA05F44FEA1C4EB4FBED
:10036400FEF91FFA8CF80EFB194420FA05F3B94084
:1003740009FB08FA19430B0C43EA0444A24502FAA8
:1003840007F200FA07F30BD91CEB040409F1FF3060
:1003940080F08880A24540F28580A9F10209644476
:1003A400A4EB0A04B4FBFEF00EFB104400FB08FAB5
:1003B40089B241EA0444A24508D91CEB040400F1C3
:1003C400FF316BD2A24569D90238644440EA09403E
:1003D400A0FB0289A4EB0A044C454146CE4654D303
:1003E40051D0002E69D05A1A64EB0E0404FA05F5B4
:1003F40022FA07F3FC401D43C6E90054002747E7EF
:100404009540C2F1200321FA03F04FEA1548B0FBEE
:10041400F8F71FFA85F908FB170024FA03F3914053
:1004240007FB09FC0B43190C41EA00418C4504FA13
:1004340002F407D9691807F1FF3031D28C452FD95E
:10044400023F2944A1EB0C01B1FBF8F008FB101C9E
:1004540000FB09FE99B241EA0C418E4507D969189F
:1004640000F1FF3318D28E4516D902382944A1EB86
:100474000E0140EA07473AE73746304608E70F4699
:10048400E6E61846FBE64345ABD2B8EB020169EB5E
:100494000C0201389646A4E71846E8E7084695E7B3
:1004A4000746CFE781467BE702382C4447E7AEF1A5
:1004B400020E2B442FE7384607E73746E8E600BF2D
:1004C400704700BF80B500AF2B4B00221A602B4B46
:1004D40000221A602A4B00221A602A4B03225A80F7
:1004E400294B01221A60294B00221A60284B002252
:1004F4001A60284B00221A60274B00221A60274BEF
:1005040000221A60264B00221A60264B00221A6031
:10051400254B00221A60254B00221A60244B00222E
:100524001A60244B00221A60234B00221A80224BAB
:1005340000225A80204B00229A801F4B0022DA802E
:100544001D4B00221A811D4B00221A801B4B0022D6
:100554005A801A4B00229A80184B0022DA80174BDB
:1005640000221A81164B00221A60164B00221A60D0
:1005740001F006FC00BF80BD700F00207810002041
:10058400681000206C100020BC0F0020C40F002055
:100594009010002058100020C00F00208C10002064
:1005A400501000207C100020B80F00206C0F002099
:1005B400680F00205C1000205C0F002080100020D9
:1005C400B00F00207C0F002080B582B002AF002065
:1005D40001F0A4FC0A4B00931023202218211020C0
:1005E40001F01AFE074B00931023202218215020FB
:1005F40001F012FE01F0B4FC00BFBD4680BD00BF97
:10060400480000208800002080B500AF214B002264
:100614001A60214B01221A60204B4FF6FF721A8098
:10062400002001F07BFC0521022001F0DDFD1C4AC5
:10063400012306CA1B4801F0B1FD0F21022001F07D
:10064400D3FD174A012306CA174801F0A7FD192153
:10065400022001F0C9FD124A012306CA134801F021
:100664009DFD2321022001F0BFFD0D4A012306CA8E
:100674000F4801F093FD2D21022001F0B5FD084A39
:10068400012306CA0B4801F089FD01F069FC00BF93
:1006940080BD00BFBC0F0020C40F0020C80F002085
:1006A40048010020CC9C0008F09C0008049D000830
:1006B400309D0008449D000880B582B000AF224BF5
:1006C400B3F900309BB201339BB21AB21E4B1A80AD
:1006D4001D4BB3F900300B2B2ADC002001F01EFC6B
:1006E4000A21282001F080FD184B7B60184A012361
:1006F40006CA786801F052FD134BB3F90030581C58
:10070400134A012306CA01F0EBFD1921192001F057
:100714006BFD0D4BB3F900301A460E4B53F8220013
:100724000D4A012306CA01F039FD01F019FC07E066
:100734000A4B00221A600A4B01221A6000F012F8D8
:1007440000BF0837BD4680BDC80F0020549D000877
:1007540048010020800F002050010020C40F002019
:100764009010002080B582B002AF184B4FF6FF7294
:100774001A80002001F0D2FB0A210F2001F034FD81
:10078400134A012306CA134801F008FD14212D2041
:1007940001F02AFD0E4A012306CA0F4801F0FEFCAF
:1007A4000E4B0093082308223621022001F034FD69
:1007B4000B4B0093082308223621782001F02CFDEE
:1007C40001F0CEFB00BFBD4680BD00BFC80F0020B6
:1007D400480100205C9D00086C9D00080800002072
:1007E4001000002080B584B002AF284BB3F900306C
:1007F4009BB201339BB21AB2244B1A80234BB3F938
:100804000030032B3CDC002001F088FB0A21282067
:1008140001F0EAFC1E4B7B601E4A012306CA78687D
:1008240001F0BCFC194BB3F9003001335800194AEC
:10083400012306CA01F054FD1921192001F0D4FC4A
:10084400124BB3F9003001335B00134A52F8230012
:10085400124A012306CA01F0A1FC114B009308239C
:1008640008223621022001F0D7FC0E4B0093082306
:1008740008223621782001F0CFFC01F071FB01E061
:1008840000F012F800BF0837BD4680BDC80F002035
:10089400549D000848010020800F002050010020D2
:1008A400080000201000002080B500AF0A4B002291
:1008B4001A60002001F032FB1E21022001F094FC9A
:1008C400064A012306CA064801F068FC01F048FB09
:1008D40000F054F800BF80BD9010002048010020B3
:1008E400749D000880B500AF1C4B00221A601C4B9D
:1008F40001221A601B4B4FF6FF721A80002001F090
:100904000DFB0A210A2001F06FFC174A012306CAD5
:10091400164801F043FC14210A2001F065FC124A38
:10092400012306CA124801F039FC1E210A2001F0F5
:100934005BFC0D4A012306CA0E4801F02FFC32214C
:100944000A2001F051FC084A012306CA0A4801F0B2
:1009540025FC01F005FB00BF80BD00BFBC0F0020DB
:1009640058100020C80F002048010020889D00086E
:10097400989D0008AC9D0008BC9D000880B582B01D
:1009840002AF304B00221A802F4B00221A802F4BCB
:1009940001221A60002001F0C1FA0A21022001F0AC
:1009A40023FC2B4A012306CA2A4801F0F7FB2A4BF1
:1009B40000930823082232211C2001F02DFC264B31
:1009C40000930823082232212C2001F025FC224B1D
:1009D40000930823082232213C2001F01DFC1E4B09
:1009E40000930823082232214C2001F015FC1A4BF5
:1009F40000930823082232215C2001F00DFC114BE6
:100A0400B3F90030DBB21B01DBB21C33DBB22821AB
:100A1400184601F0E9FB0C4BB3F9003018460C4AB8
:100A2400012306CA01F05CFC0C4B00930823082246
:100A340032211C2001F0F0FB01F092FA00BFBD4608
:100A440080BD00BFC80F002062100020680F002086
:100A540048010020CC9D0008180000202000002040
:100A640080B582B002AF384BB3F90010374BB3F9FD
:100A740000301A4689B2364B23F81210334BB3F9BF
:100A84000030032B55DC334B00930823082232211A
:100A94001C2001F0C1FB2F4B0093082308223221B4
:100AA4002C2001F0B9FB2B4B0093082308223221A0
:100AB4003C2001F0B1FB274B00930823082232218C
:100AC4004C2001F0A9FB234B009308230822322178
:100AD4005C2001F0A1FB1D4BB3F900309BB2013344
:100AE4009BB21AB2194B1A80184BB3F90030DBB21F
:100AF4001B01DBB21C33DBB22821184601F074FB66
:100B0400114BB3F900301846134A012306CA01F009
:100B1400E7FB0E4BB3F900301B0103F11C000F4B34
:100B2400009308230822322101F076FB01F018FA21
:100B340007E00B4B01221A600A4B00221A6000F0F6
:100B440077F800BFBD4680BD62100020C80F0020AA
:100B54005C0F002018000020480100202000002025
:100B64005C100020680F002080B500AF144BB3F96F
:100B740000309BB201339BB21AB2114B1A80104B56
:100B8400B3F90030092B02DD0D4B00221A800D4B06
:100B9400B3F90030DBB21B01DBB21C33DBB228211A
:100BA400184601F021FB064BB3F900301846064AFB
:100BB400012306CA01F094FB01F0D2F900BF80BD05
:100BC40062100020C80F00204801002080B500AF4B
:100BD400144BB3F900309BB2013B9BB21AB2114BD8
:100BE4001A80104BB3F90030002B02DA0D4B0922A6
:100BF4001A800D4BB3F90030DBB21B01DBB21C339E
:100C0400DBB22821184601F0EFFA064BB3F90030A5
:100C14001846064A012306CA01F062FB01F0A0F956
:100C240000BF80BD62100020C80F002048010020D2
:100C340080B582B002AF324B00221A80314B0022C1
:100C44001A80314B01221A60002001F067F90A2151
:100C5400022001F0C9FA2D4A012306CA2C4801F0EA
:100C64009DFA2C4B00930823082232211C2001F00A
:100C7400D3FA284B00930823082232212C2001F0B8
:100C8400CBFA244B00930823082232213C2001F0A4
:100C9400C3FA204B00930823082232214C2001F090
:100CA400BBFA1C4B00930823082232215C2001F07C
:100CB400B3FA134BB3F90030DBB21B01DBB21C33C4
:100CC400DBB22821184601F08FFA0E4BB3F900303D
:100CD40018460E4A012306CA01F002FB084BB3F979
:100CE40000301B0103F11C000B4B00930823082266
:100CF400322101F091FA01F033F900BFBD4680BD05
:100D0400C80F0020621000205C1000204801002061
:100D1400E89D0008180000202000002080B582B063
:100D240002AF5A4BB3F90010594BB3F900301A46CD
:100D340089B2584B23F81210554BB3F90030032BEA
:100D440055DC554B00930823082232211C2001F066
:100D540063FA514B00930823082232212C2001F01E
:100D64005BFA4D4B00930823082232213C2001F00A
:100D740053FA494B00930823082232214C2001F0F6
:100D84004BFA454B00930823082232215C2001F0E2
:100D940043FA3F4BB3F900309BB201339BB21AB212
:100DA4003B4B1A803A4BB3F90030DBB21B01DBB288
:100DB4001C33DBB22821184601F016FA334BB3F981
:100DC40000301846354A012306CA01F089FA304B2F
:100DD400B3F900301B0103F11C00314B00930823CD
:100DE4000822322101F018FA01F0BAF84AE0294B3E
:100DF4001A882C4B1B889A421ED1264B5A88294BA1
:100E04005B889A4218D1234B9A88264B9B889A4236
:100E140012D1204BDA88234BDB889A420CD11D4B2C
:100E24001A89204B1B899A4206D11F4B00221A6053
:100E340000F03EF800BF25E01C4B01221A601A4B5B
:100E440000221A60174B00221A80164B00225A8087
:100E5400144B00229A80134B0022DA80114B00229B
:100E64001A810C4B00221A800A4B00225A80094B2B
:100E740000229A80074B0022DA80064B00221A8156
:100E8400FFF77CFD00BFBD4680BD00BF621000209F
:100E9400C80F002080100020180000204801002006
:100EA400200000205C0F00205C100020680F002050
:100EB40080B582B002AF134B01221A60124B4FF679
:100EC400FF721A80002001F029F80A21022001F0A3
:100ED4008BF90E4A012306CA0D4801F05FF90D4B48
:100EE4000093082310221E21382001F095F90A4BA3
:100EF4000093082310223221382001F08DF900BF1D
:100F0400BD4680BDB00F0020C80F0020480100205E
:100F1400F89D0008280000203800002080B500AFAC
:100F2400074BB3F900301A46064B1A60064B0122F0
:100F34001A60064B00221A6000F0D6F800BF80BD8C
:100F4400C80F0020781000208C100020B00F002063
:100F540080B500AF2B4BB3F900309BB201339BB289
:100F64001AB2284B1A80274BB3F90030032B02DD49
:100F7400244B00221A80234BB3F90030032B3FD8B3
:100F840001A252F823F000BF9D0F0008B70F00081C
:100F9400D10F0008EB0F000827210A2001F024F9E3
:100FA400194A012306CA194801F0F8F800F0D8FFDD
:100FB40026E027210A2001F017F9134A012306CA63
:100FC400134801F0EBF800F0CBFF19E027210A20C9
:100FD40001F00AF90C4A012306CA0E4801F0DEF8B2
:100FE40000F0BEFF0CE027210A2001F0FDF8064ABC
:100FF400012306CA084801F0D1F800F0B1FF00BF90
:1010040000BF80BDC80F0020480100200C9E0008CE
:10101400209E0008349E0008489E000880B500AF5A
:101024002B4BB3F900309BB2013B9BB21AB2284B55
:101034001A80274BB3F90030002B02DA244B032229
:101044001A80234BB3F90030032B3FD801A252F886
:1010540023F000BF69100008831000089D100008E9
:10106400B710000827210A2001F0BEF8194A01230D
:1010740006CA194801F092F800F072FF26E0272111
:101084000A2001F0B1F8134A012306CA134801F0FB
:1010940085F800F065FF19E027210A2001F0A4F883
:1010A4000C4A012306CA0E4801F078F800F058FFF4
:1010B4000CE027210A2001F097F8064A012306CA0A
:1010C400084801F06BF800F04BFF00BF00BF80BD83
:1010D400C80F0020480100200C9E0008209E000834
:1010E400349E0008489E0008B0B594B000AF6B462B
:1010F4001D46324B4FF6FF721A80314B5B88581CE9
:10110400431EBB64034619464FF000024FF0000330
:101114004FF00004D40244EA5154CB02034619466A
:101124004FF000024FF000034FF00004D40244EAF1
:101134005154CB0203461B0203330733DB08DB00A5
:10114400ADEB030D6B4603339B089B007B640023CC
:10115400A7F84E3022E000237B6007F108033C220D
:101164000021184608F0E3FCB7F84E309A01154BFD
:101174001B681344391D4022184600F075FAB7F86D
:101184004E301B027A6C1A443B1D1146184600F07F
:101194000FFAB7F84E300133A7F84E30084B5B888E
:1011A400B7F84E209A42D6D3044A7B6C536000F0C1
:1011B4000BF8AD4600BF5037BD46B0BD740F0020DC
:1011C4006C1000200400002080B582B002AF244BD4
:1011D400B3F90030B3F1FF3F09DA214BB3F9003022
:1011E4009BB201339BB21AB21D4B1A8034E01C4BE4
:1011F400B3F900301A461B4B5B88013B9A4209DD68
:10120400174BB3F900309BB2013B9BB21AB2144B9B
:101214001A8021E0124BB3F90030B3F1FF3F0AD03A
:101224000F4B5A680E4BB3F900301B021344184697
:1012340000F0E8F910E0002000F070FE14212820EE
:1012440000F0D2FF084B00932023202218213020E5
:1012540000F0E2FF00F084FE00BFBD4680BD00BF89
:10126400740F00206C100020C800002080B500AF6F
:10127400064BB3F90030B3F1FF3F04D1044B002215
:101284001A6000F007F800BF80BD00BF740F002093
:101294008C10002080B582B002AF134B01221A607B
:1012A400124B4FF6FF721A80002000F037FE052122
:1012B4003C2000F099FF0E4A012306CA0D4800F0B5
:1012C4006DFF0D4B0093082310221421382000F0E9
:1012D400A3FF0A4B0093082310222821382000F092
:1012E4009BFF00BFBD4680BD68100020C80F0020D2
:1012F40048010020689E00082800002038000020D3
:1013040080B500AF2B4BB3F900309BB201339BB2D5
:101314001AB2284B1A80274BB3F90030032B02DD95
:10132400244B00221A80234BB3F90030032B3FD8FF
:1013340001A252F823F000BF4D1300086713000800
:10134400811300089B1300081D210A2000F04CFFA4
:10135400194A012306CA194800F020FF00F000FED4
:1013640026E01D210A2000F03FFF134A012306CA8C
:10137400134800F013FF00F0F3FD19E01D210A20CB
:1013840000F032FF0C4A012306CA0E4800F006FFA3
:1013940000F0E6FD0CE01D210A2000F025FF064ABE
:1013A400012306CA084800F0F9FE00F0D9FD00BF89
:1013B40000BF80BDC80F002048010020749E0008B3
:1013C400889E00089C9E0008B09E000880B500AF6F
:1013D4002B4BB3F900309BB2013B9BB21AB2284BA2
:1013E4001A80274BB3F90030032B02DD244B002273
:1013F4001A80234BB3F90030032B3FD801A252F8D3
:1014040023F000BF19140008331400084D14000819
:10141400671400081D210A2000F0E6FE194A012382
:1014240006CA194800F0BAFE00F09AFD26E01D2114
:101434000A2000F0D9FE134A012306CA134800F01B
:10144400ADFE00F08DFD19E01D210A2000F0CCFE58
:101454000C4A012306CA0E4800F0A0FE00F080FDED
:101464000CE01D210A2000F0BFFE064A012306CA33
:10147400084800F093FE00F073FD00BF00BF80BD7C
:10148400C80F002048010020749E0008889E0008B0
:101494009C9E0008C49E000880B500AF114BB3F9B0
:1014A4000030032B1CD801A252F823F0C114000809
:1014B400C7140008CD140008D314000800F038F84D
:1014C4000EE000F015F80BE000F052F808E0064BCF
:1014D40000221A60054B01221A60FFF775FE00BF57
:1014E40000BF80BDC80F0020681000208C100020B1
:1014F40080B500AF0A4B00221A600A4B01221A6021
:10150400002000F00BFD05213C2000F06DFE064A92
:10151400012306CA054800F041FE00BF80BD00BF9C
:10152400681000208C10002048010020D89E00087C
:1015340080B500AF0A4B00221A600A4B01221A60E0
:10154400002000F0EBFC05213C2000F04DFE064A93
:10155400012306CA054800F021FE00BF80BD00BF7C
:10156400681000208C10002048010020E89E00082C
:1015740080B500AF0A4B00221A600A4B01221A60A0
:10158400002000F0CBFC05213C2000F02DFE064A93
:10159400012306CA054800F001FE00BF80BD00BF5C
:1015A400681000208C10002048010020F89E0008DC
:1015B40080B582B000AF786039603B6840227968BA
:1015C400184608F0A9FA3B6803F140007B68103321
:1015D4004022194608F0A0FA3B6803F180007B68BA
:1015E40020334022194608F097FA3B6803F1C00003
:1015F4007B6830334022194608F08EFA00BF083762
:10160400BD4680BD80B582B000AF7860002000F098
:1016140085FC1421282000F0E7FD7B6803F180009D
:10162400104A012306CA00F0B9FD1E21282000F04B
:10163400DBFD78680B4A012306CA00F0AFFD2821C0
:10164400282000F0D1FD7B6803F14000054A012306
:1016540006CA00F0A3FD00F083FC00BF0837BD46B6
:1016640080BD00BF4801002080B588B004AF0346A8
:101674003960FB801346BB80164B1B6899B2FA880D
:101684004FF0FF330293BB8801933B680093102310
:10169400114801F027FF0F4B1B6899B24FF0FF333D
:1016A40001220D4802F044F90346FB730AE0094B9A
:1016B4001B6899B24FF0FF330122074802F038F952
:1016C4000346FB73FB7B002BF1D100BF1037BD46F3
:1016D40080BD00BF00000020D410002080B584B07D
:1016E40002AF234B00221A70224B00221A70224BA5
:1016F40000221A7001F0D4F800F044F800F04CF91C
:1017040000F09AF800F0BEF800F0CEF800F0FAF815
:1017140000F07EF807F0C0FC00F008F900F092FB3E
:10172400012000F0FBFB00F01BFC002000F0F6FBA6
:10173400124B0093102308220A210A2000F06CFDAA
:1017440032211E2000F050FD0923FB80F8880C4A4A
:10175400012306CA00F0C4FD00F002FC4FF47A70C5
:1017640001F00CF9FEF7AEFEFEF72EFFFEE700BF18
:1017740054100020601000204C1000202809002084
:101784004801002080B592B000AF07F11803302261
:101794000021184608F0CBF93B1D00221A605A605C
:1017A4009A60DA601A610123BB610123FB610223A1
:1017B4003B634FF480037B630C23BB63C023FB6355
:1017C40004233B6408237B6407F11803184603F0E1
:1017D4008FFE0346002B01D000F016FB0F237B6025
:1017E4000123BB600023FB6000233B614FF4805363
:1017F4007B613B1D0021184604F0E4F80346002BEE
:1018040001D000F001FB00BF4837BD4680BD000099
:1018140080B500AF064B074A1A60054801F0DDF9B0
:101824000346002B01D000F0EFFA00BF80BD00BFDB
:10183400281100200030024080B500AF0D4B0E4A45
:10184400DA600C4B0D4A1A600A4B00225A60094BAD
:101854000B4ADA60074B00225A61064B00229A6158
:10186400044801F0D6F90346002B01D000F0CCFA6D
:1018740000BF80BD80110020A4AE00080000065007
:10188400E4C9000880B500AF064B00221A60054881
:1018940001F0ACFB0346002B01D000F0B5FA00BF09
:1018A40080BD00BF9410002080B500AF124B134AD6
:1018B4001A60114B124A5A600F4B00229A600E4B69
:1018C4000022DA600C4B4FF480421A610A4B00226A
:1018D4005A61094B00229A61074B0022DA61064BD8
:1018E40000221A62044801F0CBFB0346002B01D00E
:1018F40000F08AFA00BF80BDD410002000540040DC
:10190400A086010080B500AF064B074A1A6005485F
:1019140004F022FA0346002B01D000F075FA00BF50
:1019240080BD00BF701100200008065080B582B051
:1019340000AF3B4600221A605A60154B154A1A60E4
:10194400134B45F6C0525A60114B00229A60104B5B
:101954000A22DA600E4B00229A610D4804F08AFADA
:101964000346002B01D000F04FFA20233B600023F4
:101974007B603B461946064804F0EAFC0346002B0C
:1019840001D000F041FA00BF0837BD4680BD00BF5A
:10199400301100200010004080B58AB000AF07F17C
:1019A400140300221A605A609A60DA601A610023F4
:1019B4003B61274B1B6B264A43F080031363244B84
:1019C4001B6B03F080033B613B690023FB60204BEE
:1019D4001B6B1F4A43F0040313631D4B1B6B03F083
:1019E4000403FB60FB680023BB60194B1B6B184AA4
:1019F40043F001031363164B1B6B03F00103BB603D
:101A0400BB6800237B60124B1B6B114A43F002033B
:101A140013630F4B1B6B03F002037B607B684FF473
:101A240040737B610B4BBB610023FB6107F1140323
:101A34001946094801F024F900220021172001F079
:101A440096F8172001F0AFF800BF2837BD4680BDD7
:101A540000380240000011100008024080B582B036
:101A640000AF0346FB80FB88B3F5807F15D11F4B85
:101A74001B7883F00103DBB2002B0ED01C4804F06A
:101A840047FA1C4B00221A80184B01221A7018487E
:101A940004F01BFA164804F065FAFB88B3F5007FDE
:101AA40015D1154B1B7883F00103DBB2002B0ED04C
:101AB4000F4804F02DFA0F4B00221A800E4B01221E
:101AC4001A700B4804F001FA094804F04BFA0A4B67
:101AD4001B78002B06D0054B1B78002B02D0074B3C
:101AE40001221A7000BF0837BD4680BD5410002083
:101AF4003011002064100020601000204C100020E1
:101B040080B500AF00210A2000F06EFB294A0123B2
:101B140006CA294800F042FB00F022FA274B1B6852
:101B2400012B0AD1264BB3F900309BB2013B9BB287
:101B34001AB2234B1A80FFF747FB224B1B68012B79
:101B440001D1FEF761FD204B1B68012B08D11D4B11
:101B540001221A601C4B00221A60FEF755FD27E093
:101B64001A4B1B68012B02D1FFF730F820E0184B09
:101B74001B68012B02D1FFF729F819E0154B1B68EC
:101B8400012B08D10F4B01221A60124B00221A605C
:101B9400FEF71AFD0CE0104B1B68012B02D1FFF776
:101BA4003DFA05E00D4B1B68012B01D1FFF70EFC3C
:101BB40000BF80BD48010020ACAE00088C1000209E
:101BC400740F0020BC0F002090100020680F00202C
:101BD4005C10002058100020B00F00206810002076
:101BE40080B500AF0021182000F0FEFA294A012335
:101BF40006CA294800F0D2FA00F0B2F9274B1B6854
:101C0400012B0BD1264BB3F900309BB201339BB2AD
:101C14001AB2234B1A80FFF7D7FA39E0214B1B681D
:101C2400012B02D1FEF75EFE32E01F4B1B68012B35
:101C34002ED01E4B1B68012B02D1FEF7D3FD27E0EB
:101C44001B4B1B68012B02D1FEF78EFF20E0194BC2
:101C54001B68012B02D1FEF787FF19E0164B1B68A6
:101C6400012B08D10F4B01221A60134B00221A607A
:101C7400FEF7AAFC0CE0114B1B68012B02D1FFF705
:101C840067F905E00E4B1B68012B01D1FFF738FB08
:101C940000BF80BD48010020B0AE00088C100020B9
:101CA400740F0020BC0F0020C40F002090100020EF
:101CB400680F00205C10002058100020B00F002096
:101CC4006810002080B500AF0021112000F08CFACC
:101CD400214A012306CA214800F060FA00F040F9C5
:101CE4001F4B1B68012B02D1FFF7C0FA32E01D4BDA
:101CF4001B68012B2ED01C4B1B68012B02D1FEF755
:101D0400DBFC27E0194B1B68012B02D1FEF7A8FE70
:101D140020E0174B1B68012B02D1FEF7FFFF19E0EF
:101D2400144B1B68012B08D10E4B01221A60114B76
:101D340000221A60FEF748FC0CE00F4B1B68012BD5
:101D440002D1FFF7EBF805E00C4B1B68012B01D126
:101D5400FFF7A2FB00BF80BD48010020B4AE00081D
:101D64008C100020BC0F0020C40F0020680F00203E
:101D74005C10002058100020B00F002068100020D4
:101D840080B584B000AF0023FB6012E01A4804F071
:101D94005CF803469BB2C3F30803FB80FB88174A35
:101DA40052F823201649FB6841F82320FB680133CD
:101DB400FB60FB680B2BE9DD0023BB6014E0104AD9
:101DC400BB6852F823300521184607F039FA0A2077
:101DD40000F0D4FD02210B4807F032FA0A2000F08B
:101DE400CDFDBB680133BB60BB680B2BE7DD00BFD7
:101DF4001037BD4680BD00BF70110020580100207F
:101E0400800F0020B8AE000880B400AF00BFBD460C
:101E140080BC704780B586B004AF0346FB710A23CB
:101E2400029301230193FB1D0093012300227821D7
:101E3400034801F05DFA00BF0837BD4680BD00BF0E
:101E4400D410002080B500AF642000F097FDAE20D0
:101E5400FFF7E0FF2020FFF7DDFF1020FFF7DAFF98
:101E6400B020FFF7D7FFC820FFF7D4FF0020FFF70B
:101E7400D1FF1020FFF7CEFF4020FFF7CBFF8120DA
:101E8400FFF7C8FFFF20FFF7C5FFA120FFF7C2FF40
:101E9400A620FFF7BFFFA820FFF7BCFF3F20FFF7F6
:101EA400B9FFA420FFF7B6FFD320FFF7B3FF00204C
:101EB400FFF7B0FFD520FFF7ADFFF020FFF7AAFF33
:101EC400D920FFF7A7FF2220FFF7A4FFDA20FFF7AE
:101ED400A1FF1220FFF79EFFDB20FFF79BFF2020CE
:101EE400FFF798FF8D20FFF795FF1420FFF792FF6F
:101EF400AF20FFF78FFF002000F010F800F030F85B
:101F0400054B00221A80044B00225A80024B012206
:101F14005A710123184680BD440F002080B485B057
:101F240000AF0346FB710023FB600DE0FB79002B3F
:101F340001D1002100E0FF21084AFB6813440A464E
:101F44001A70FB680133FB60FB68B3F5826FEDD355
:101F540000BF1437BD4680BC704700BF340B00205F
:101F640080B586B004AF0023FB7121E0FB79503BC0
:101F7400DBB21846FFF74EFF0020FFF74BFF10209F
:101F8400FFF748FFFA7913469B0113445B001A4696
:101F94000B4B134464220292822201920093012388
:101FA40040227821074801F0A3F9FB790133FB7142
:101FB400FB79072BDAD900BF0837BD4680BD00BFC7
:101FC400340B0020D410002090B482B000AF03463C
:101FD400FB710B46BB7113467B71FB79812B54D883
:101FE400BB793F2B51D82B4B1B79002B06D07B7927
:101FF400002B0CBF01230023DBB27B717B79012B07
:1020040020D1FA79BB79DB08D8B201460B469B0193
:102014000B445B001344204AD35C5AB2BB7903F0EF
:102024000703012101FA03F35BB213435CB2FA79AB
:1020340001460B469B010B445B001344E1B2164A74
:10204400D15423E0FA79BB79DB08D8B201460B46B8
:102054009B010B445B0013440F4AD35C5AB2BB7917
:1020640003F00703012101FA03F35BB2DB435BB224
:1020740013405CB2FA7901460B469B010B445B00AA
:102084001344E1B2044AD15400E000BF0837BD460E
:1020940090BC7047440F0020340B002090B589B0E9
:1020A40000AF0446381D80E806001A462346FB7339
:1020B4001346BB73384B1B881A463B791344812B58
:1020C40006DC354B5B881A467B7913443F2B01DDD4
:1020D40000235DE00023FB614CE0BA68FB7B203BFE
:1020E400797901FB03F31946FB690B445B00134444
:1020F4001B887B610023BB6134E07A69BB6902FA07
:1021040003F303F40043002B12D0234B1B88DAB2F1
:10211400BB69DBB21344D8B21F4B5B88DAB2FB69EC
:10212400DBB21344DBB2BA7B1946FFF74DFF16E06E
:10213400194B1B88DAB2BB69DBB21344D8B2164B15
:102144005B88DAB2FB69DBB21344D9B2BB7B002BE8
:102154000CBF01230023DBB21A46FFF735FFBB692E
:102164000133BB613B791A46BB699342C5D3FB6912
:102174000133FB617B791A46FB699342ADD3064B6D
:102184001A883B799BB213449AB2034B1A80FB7BA7
:1021940018462437BD4690BD440F002080B584B056
:1021A40000AFF860381D80E80600FB7012E0FB68A1
:1021B4001878FB783A1D06CAFFF770FF03461A46E3
:1021C400FB681B789A4202D0FB681B7808E0FB6826
:1021D4000133FB60FB681B78002BE8D1FB681B789C
:1021E40018461037BD4680BD80B483B000AF0346A7
:1021F4000A46FB711346BB71FB799AB2054B1A80F0
:10220400BB799AB2034B5A8000BF0C37BD4680BCE1
:10221400704700BF440F002080B586B000AFF8605F
:10222400B9607A603B6000237B6151E000233B612D
:1022340047E07B697A6802FB03F3002B00DA07337B
:10224400DB101A463B69002B00DA0733DB1013441A
:102254001A463B6A13441B7819463B695A4203F0F9
:10226400070302F0070258BF5342C3F1070341FAC0
:1022740003F303F00103002B10D0FB68DAB23B69CF
:10228400DBB21344D8B2BB68DAB27B69DBB2134465
:10229400DBB201221946FFF797FE0FE0FB68DAB2C2
:1022A4003B69DBB21344D8B2BB68DAB27B69DBB2F8
:1022B4001344DBB200221946FFF786FE3B69013363
:1022C4003B613A697B689A42B3DB7B6901337B618A
:1022D4007A693B689A42A9DB00BF1837BD4680BDC6
:1022E40090B587B000AF0446381D80E806001A4652
:1022F4002346FB8113467B73FB89002B06D17B7B32
:102304003A1D06CA5148FFF749FF9AE00023FB82B1
:102314000123BB8200233B8208E0FB8A0133FB825A
:10232400BB8A1A46920013445B00BB82FA89BB8ABB
:10233400B2FBF3F39BB2002BEFD1BB8A444AA2FB5E
:102344000323DB08BB8200237B8276E0FA89BB8A05
:10235400B2FBF3F33B82FB89BA8AB3FBF2F102FBD3
:1023640001F29B1AFB81BB8A394AA2FB0323DB08D7
:10237400BB823B8A092B5DD801A252F823F000BF2F
:102384002B240008AD230008BB230008C923000840
:10239400D7230008E5230008F323000801240008DC
:1023A4000F2400081D2400087B7B3A1D06CA294817
:1023B400FFF7F4FE3EE07B7B3A1D06CA2648FFF792
:1023C400EDFE37E07B7B3A1D06CA2448FFF7E6FEA4
:1023D40030E07B7B3A1D06CA2148FFF7DFFE29E087
:1023E4007B7B3A1D06CA1F48FFF7D8FE22E07B7BA1
:1023F4003A1D06CA1C48FFF7D1FE1BE07B7B3A1D41
:1024040006CA1A48FFF7CAFE14E07B7B3A1D06CAC7
:102414001748FFF7C3FE0DE07B7B3A1D06CA15483B
:10242400FFF7BCFE06E07B7B3A1D06CA0748FFF7B0
:10243400B5FE00BF7B8A01337B827A8AFB8A9A428B
:1024440084D300BF1C37BD4690BD00BFBCAE00089E
:10245400CDCCCCCCC0AE0008C4AE0008C8AE0008D9
:10246400CCAE0008D0AE0008D4AE0008D8AE000848
:10247400DCAE0008E0AE000880B483B000AF0023F7
:102484007B600F4B5B6C0E4A43F4804353640C4BEC
:102494005B6C03F480437B607B6800233B60084BE8
:1024A4001B6C074A43F080531364054B1B6C03F009
:1024B40080533B603B6800BF0C37BD4680BC70470F
:1024C4000038024080B485B000AF78607B681B6838
:1024D4000A4A93420DD10023FB60094B1B6B084A47
:1024E40043F480531363064B1B6B03F48053FB606C
:1024F400FB6800BF1437BD4680BC70470030024003
:102504000038024080B485B000AF78607B681B68F7
:102514000A4A93420DD10023FB60094B5B6B084AC6
:1025240043F010035363064B5B6B03F01003FB6033
:10253400FB6800BF1437BD4680BC704700000650DE
:102544000038024080B485B000AF78600023FB609F
:10255400084B5B6B074A43F020035363054B5B6BEB
:1025640003F02003FB60FB6800BF1437BD4680BC4A
:10257400704700BF0038024080B58AB000AF786071
:1025840007F1140300221A605A609A60DA601A6133
:102594007B681B68194A93422BD100233B61184B7B
:1025A4001B6B174A43F002031363154B1B6B03F0B9
:1025B40002033B613B69C0237B611223BB6101239E
:1025C400FB6103233B6204237B6207F11403194676
:1025D4000C4800F055FB0023FB60094B1B6C084AB8
:1025E40043F400131364064B1B6C03F40013FB60E9
:1025F400FB6800BF2837BD4680BD00BF00540040C3
:10260400003802400004024080B485B000AF786016
:102614007B681B680A4A93420DD10023FB60094B77
:102624005B6B084A43F040035363064B5B6B03F058
:102634004003FB60FB6800BF1437BD4680BC704795
:10264400000806500038024080B584B000AF7860BE
:102654007B681B680E4A934215D10023FB600D4B27
:102664001B6C0C4A43F0100313640A4B1B6C03F0FD
:102674001003FB60FB6800220021362000F077FA8B
:10268400362000F090FA00BF1037BD4680BD00BF71
:10269400001000400038024080B400AF00BFBD46C7
:1026A40080BC704780B400AFFEE780B400AFFEE7A3
:1026B40080B400AFFEE780B400AFFEE780B400AFA3
:1026C40000BFBD4680BC704780B400AF00BFBD46AC
:1026D40080BC704780B400AF00BFBD4680BC70476B
:1026E40080B500AF00F02EF900BF80BD80B500AF0B
:1026F4004FF4807000F062FC4FF4007000F05EFC58
:1027040000BF80BD80B500AF194803F04EFC194BE3
:102714001B88012B06D8174B1B8801339AB2154B23
:102724001A8022E0124803F0F3FB124B00221A80B5
:10273400114B1B78002B02D0FFF7C4FA0CE00F4BAF
:102744001B78002B02D0FFF7DBF905E00C4B1B785C
:10275400002B01D0FFF744FA084B00221A70084BF3
:1027640000221A70044B00221A7000BF80BD00BF03
:1027740030110020641000204C1000205410002060
:102784006010002080B500AF024801F094FE00BF45
:1027940080BD00BF0825002080B584B000AF7860FC
:1027A400114B1B68002B02D10F4B104A1A600E4BC1
:1027B4001B68FB600C4B1A687B6813446A4693429F
:1027C40007D907F06FF902460C2313604FF0FF336B
:1027D40006E0054B1A687B681344034A1360FB68E0
:1027E40018461037BD4680BD4C0F0020102900202C
:1027F40080B400AF124B1B68114A43F0010313600D
:102804000F4B00229A600E4B1B680D4A23F0847311
:1028140023F4803313600A4B0A4A5A60084B1B683E
:10282400074A23F480231360054B0022DA60064B29
:102834004FF000629A6000BFBD4680BC704700BF85
:10284400003802401030002400ED00E0DFF834D0FE
:10285400002103E00C4B5B58435004310B480C4BF4
:1028640042189A42F6D30B4A02E0002342F8043B92
:10287400094B9A42F9D3FFF7BBFF07F019F9FEF7AA
:102884002DFF70470000022024CA00080000002029
:10289400180B0020180B00200C290020FEE7000074
:1028A40080B500AF0E4B1B680D4A43F400731360F0
:1028B4000B4B1B680A4A43F480631360084B1B6884
:1028C400074A43F480731360032000F045F90020A5
:1028D40000F008F8FFF7D0FD0023184680BD00BFC4
:1028E400003C024080B582B000AF7860124B1A6899
:1028F400124B1B7819464FF47A73B3FBF1F3B2FB16
:10290400F3F3184600F05DF90346002B01D00123D0
:102914000EE07B680F2B0AD8002279684FF0FF3055
:1029240000F025F9064A7B681360002300E00123C8
:1029340018460837BD4680BD3809002040090020EC
:102944003C09002080B400AF054B1B781A46054BA8
:102954001B681344034A136000BFBD4680BC704724
:1029640040090020C011002080B400AF024B1B6856
:102974001846BD4680BC7047C011002080B584B0A5
:1029840000AF7860FFF7F0FFB8607B68FB60FB681E
:10299400B3F1FF3F05D0094B1B781A46FB6813447B
:1029A400FB6000BFFFF7E0FF0246BB68D31AFA687A
:1029B4009A42F7D800BF1037BD4680BD40090020B9
:1029C40080B485B000AF78607B6803F00703FB60D8
:1029D4000C4BDB68BB60BA684FF6FF031340BB6067
:1029E400FB681A02BB68134343F0BF6343F400332C
:1029F400BB60044ABB68D36000BF1437BD4680BCCB
:102A0400704700BF00ED00E080B400AF044BDB680A
:102A14001B0A03F007031846BD4680BC704700BF7D
:102A240000ED00E080B483B000AF0346FB7197F97A
:102A34000730002B0BDBFB7903F01F02064997F9E3
:102A440007305B09012000FA02F241F8232000BF9D
:102A54000C37BD4680BC704700E100E080B483B011
:102A640000AF03463960FB7197F90730002B0ADB8E
:102A74003B68DAB20C4997F907301201D2B20B4421
:102A840083F800230AE03B68DAB20849FB7903F0D3
:102A94000F03043B1201D2B20B441A7600BF0C3769
:102AA400BD4680BC704700BF00E100E000ED00E0DF
:102AB40080B489B000AFF860B9607A60FB6803F055
:102AC4000703FB61FB69C3F10703042B28BF04233D
:102AD400BB61FB690433062B02D9FB69033B00E0AD
:102AE40000237B614FF0FF32BB6902FA03F3DA4340
:102AF400BB681A407B699A404FF0FF317B6901FA49
:102B040003F3D9437B680B40134318462437BD466F
:102B140080BC704780B582B000AF78607B68013BB1
:102B2400B3F1807F01D301230FE00A4A7B68013BA4
:102B340053600F214FF0FF30FFF790FF054B002249
:102B44009A60044B07221A60002318460837BD46D2
:102B540080BD00BF10E000E080B582B000AF7860B7
:102B64007868FFF72DFF00BF0837BD4680BD80B5EC
:102B740086B000AF0346B9607A60FB7300237B61C3
:102B8400FFF742FF78617A68B9687869FFF790FFC8
:102B9400024697F90F3011461846FFF75FFF00BF52
:102BA4001837BD4680BD80B582B000AF0346FB71C7
:102BB40097F907301846FFF735FF00BF0837BD46C1
:102BC40080BD80B582B000AF78607868FFF7A2FF5F
:102BD400034618460837BD4680BD80B582B000AFB5
:102BE40078607B68002B01D101230EE07B685B7960
:102BF400DBB2002B05D17B6800221A717868FFF7DD
:102C040061FC7B6801225A71002318460837BD46CF
:102C140080BD80B582B000AF78607B68002B01D1A5
:102C2400012328E07B6893F83930DBB2002B06D10E
:102C34007B68002283F838207868FFF763FC7B68A0
:102C44001B681B6823F47E717B685A687B689B68E9
:102C54001A437B685B691A437B681B680A431A60E2
:102C64007B680022DA637B68012283F839207B6861
:102C74000122DA62002318460837BD4680BD0000F1
:102C840080B487B000AF7860396000237B616FE166
:102C94003B681A6801217B6901FA03F31340FB6066
:102CA400FB68002B00F061813B685B68012B0BD053
:102CB4003B685B68022B07D03B685B68112B03D031
:102CC4003B685B68122B30D17B689B683B617B69F6
:102CD4005B00032202FA03F3DB433A6913403B61CE
:102CE4003B68DA687B695B0002FA03F33A691343D1
:102CF4003B617B683A699A607B685B683B6101224F
:102D04007B6902FA03F3DB433A6913403B613B6896
:102D14005B681B0903F001027B6902FA03F33A6959
:102D240013433B617B683A695A607B68DB683B61AB
:102D34007B695B00032202FA03F3DB433A69134025
:102D44003B613B689A687B695B0002FA03F33A696A
:102D540013433B617B683A69DA603B685B68022B2A
:102D640003D03B685B68122B23D17B69DA087B684C
:102D7400083253F822303B617B6903F007039B0060
:102D84000F2202FA03F3DB433A6913403B613B68C9
:102D94001A697B6903F007039B0002FA03F33A699B
:102DA40013433B617B69DA087B680832396943F86D
:102DB40022107B681B683B617B695B00032202FA7B
:102DC40003F3DB433A6913403B613B685B6803F000
:102DD40003027B695B0002FA03F33A6913433B6124
:102DE4007B683A691A603B685B6803F08053002B88
:102DF40000F0BB800023BB60644B5B6C634A43F40C
:102E040080435364614B5B6C03F48043BB60BB68D9
:102E14005F4A7B699B08023352F823303B617B692C
:102E240003F003039B000F2202FA03F3DB433A6926
:102E340013403B617B68574A934231D07B68564AC2
:102E440093422BD07B68554A934225D07B68544AE1
:102E540093421FD07B68534A934219D07B68524AED
:102E6400934213D07B68514A93420DD07B68504AF9
:102E7400934207D07B684F4A934201D1082310E064
:102E840009230EE007230CE006230AE0052308E0EB
:102E9400042306E0032304E0022302E0012300E00C
:102EA40000237A6902F00302920093401A463B69B8
:102EB40013433B6136497B699B0802333A6941F805
:102EC40023203D4B1B683B61FB68DB433A6913409D
:102ED4003B613B685B6803F48033002B03D03A69A1
:102EE400FB6813433B61344A3B691360324B5B68B4
:102EF4003B61FB68DB433A6913403B613B685B68B9
:102F040003F40033002B03D03A69FB6813433B619D
:102F1400294A3B695360284B9B683B61FB68DB4350
:102F24003A6913403B613B685B6803F48013002BF0
:102F340003D03A69FB6813433B611F4A3B699360C2
:102F44001D4BDB683B61FB68DB433A6913403B6123
:102F54003B685B6803F40013002B03D03A69FB68F9
:102F640013433B61144A3B69D3607B6901337B6142
:102F74003B681A687B6922FA03F3002B7FF488AE5E
:102F840000BF1C37BD4680BC704700BF00380240FC
:102F940000380140000002400004024000080240E2
:102FA400000C0240001002400014024000180240CD
:102FB400001C024000200240003C014080B582B069
:102FC40000AF0346FB80084B5A69FB881340002B73
:102FD40006D0054AFB885361FB881846FEF73EFD80
:102FE40000BF0837BD4680BD003C014080B582B0BB
:102FF40000AF78607B68002B01D1012339E07B6846
:1030040093F83530DBB2002B06D17B68002283F8BD
:1030140034207868FFF796FA7B68022283F835201B
:103024007B6800221A627B680022DA617B680022D6
:103034005A627B6800229A637B68002283F83720F7
:103044007B68012283F82D200C4B1B6823F030028F
:103054007B681B68094913430B607B68002283F873
:103064002C207B68012283F835207B680022DA63F8
:10307400002318460837BD4680BD00BF0004065033
:1030840080B584B000AF78607B68002B01D1012348
:103094001FE17B6893F83D30DBB2002B06D17B68DF
:1030A400002283F83C207868FFF766FA7B682422C4
:1030B40083F83D207B681B681A687B681B6822F0D4
:1030C40001021A607B681B681A687B681B6842F4FB
:1030D40000421A607B681B681A687B681B6822F4CC
:1030E40000421A6002F016FEF8607B685B687B4A57
:1030F400934207D8FB687A4A934294BF0123002382
:10310400DBB206E0FB68774A934294BF01230023B5
:10311400DBB2002B01D00123DBE0FB68724AA2FB87
:1031240003239B0CBB607B681B685B6823F03F0137
:103134007B681B68BA680A435A607B681B681B6A11
:1031440023F03F017B685B68644A934202D8BB6802
:10315400013309E0BB684FF4967202FB03F3634A40
:10316400A2FB03239B0901337A6812680B431362A1
:103174007B681B68DB6923F44F4222F0FF027B6803
:103184005B6856498B420DD8FB68591E7B685B68A7
:103194005B00B1FBF3F30133C3F30B03042B38BF20
:1031A40004234FE07B689B68002B11D1FB68581EF9
:1031B4007B6859680B465B000B44B0FBF3F30133A7
:1031C400C3F30B03002B0CBF01230023DBB212E07B
:1031D400FB68581E7B6859680B469B000B4499009A
:1031E4000B44B0FBF3F30133C3F30B03002B0CBF0D
:1031F40001230023DBB2002B01D0012322E07B68F2
:103204009B68002B0ED1FB68581E7B6859680B46DF
:103214005B000B44B0FBF3F30133C3F30B0343F440
:1032240000430FE0FB68581E7B6859680B469B00FF
:103234000B4499000B44B0FBF3F30133C3F30B03CA
:1032440043F44043796809681343CB617B681B6886
:103254001B6823F0C0017B68DA697B681B6A1A4328
:103264007B681B680A431A607B681B689B6823F4AD
:10327400034323F0FF037A6811697A68D268114323
:103284007A6812680B4393607B681B68DB6823F0E1
:10329400FF017B685A697B689B691A437B681B68DA
:1032A4000A43DA607B681B681A687B681B6842F013
:1032B40001021A607B6800221A647B68202283F86A
:1032C4003D207B6800221A637B68002283F83E203D
:1032D400002318461037BD4680BD00BFA0860100FC
:1032E4007F841E00FF083D0083DE1B43D34D621024
:1032F40080B588B002AFF860084611461A46034606
:103304007B810B463B811346FB80FFF72DFB7861E5
:10331400FB6893F83D30DBB2202B40F0D9807B6909
:103324000093192301226D49F86800F0A9FD0346B2
:10333400002B01D00223CCE0FB6893F83C30012B36
:1033440001D10223C5E0FB68012283F83C20FB681D
:103354001B681B6803F00103012B07D0FB681B6883
:103364001A68FB681B6842F001021A60FB681B685C
:103374001A68FB681B6822F400621A60FB68212249
:1033840083F83D20FB68402283F83E20FB6800223E
:103394001A64FB683A6A5A62FB68BA8C5A85FB68FD
:1033A4005B8D9AB2FB681A85FB684D4ADA62F8882D
:1033B4003A8979897B690193BB6A00930346F8686B
:1033C40000F0E4FB0346002B52D0012381E07A692C
:1033D400B96AF86800F02AFE0346002B0DD0FB689A
:1033E4001B6C042B07D1FB681B681A68FB681B68FD
:1033F40042F400721A6001236BE0FB685B6A1A787E
:10340400FB681B681A61FB685B6A5A1CFB685A629A
:10341400FB681B8D013B9AB2FB681A85FB685B8DC8
:103424009BB2013B9AB2FB685A85FB681B685B69D7
:1034340003F00403042B1BD1FB681B8D002B17D056
:10344400FB685B6A1A78FB681B681A61FB685B6A35
:103454005A1CFB685A62FB681B8D013B9AB2FB68DD
:103464001A85FB685B8D9BB2013B9AB2FB685A8557
:10347400FB681B8D002BAAD17A69B96AF86800F041
:1034840016FE0346002B0DD0FB681B6C042B07D1E2
:10349400FB681B681A68FB681B6842F400721A60B8
:1034A400012316E0FB681B681A68FB681B6842F47A
:1034B40000721A60FB68202283F83D20FB6800221A
:1034C40083F83E20FB68002283F83C20002300E0C0
:1034D400022318461837BD4680BD00BF0200100005
:1034E4000000FFFF80B58CB002AFF86008461146BB
:1034F4001A4603467B810B463B811346FB80FFF74C
:1035040033FA7862FB6893F83D30DBB2202B40F04D
:1035140008827B6A0093192301227B49F86800F032
:10352400AFFC0346002B01D00223FBE1FB6893F8B8
:103534003C30012B01D10223F4E1FB68012283F822
:103544003C20FB681B681B6803F00103012B07D0B8
:10355400FB681B681A68FB681B6842F001021A606A
:10356400FB681B681A68FB681B6822F400621A6017
:10357400FB68222283F83D20FB68402283F83E202A
:10358400FB6800221A64FB683A6B5A62FB68BA8EC5
:103594005A85FB685B8D9AB2FB681A85FB685B4AA7
:1035A400DA62F8883A8979897B6A0193BB6B009364
:1035B4000346F86800F07EFB0346002B01D001238C
:1035C400B0E1FB681B8D002B13D100233B62FB6829
:1035D4001B685B693B62FB681B689B693B623B6AD7
:1035E400FB681B681A68FB681B6842F400721A6067
:1035F40084E1FB681B8D012B1BD1FB681B681A68D7
:10360400FB681B6822F480621A600023FB61FB687C
:103614001B685B69FB61FB681B689B69FB61FB6959
:10362400FB681B681A68FB681B6842F400721A6026
:1036340064E1FB681B8D022B1BD1FB681B681A68B5
:10364400FB681B6822F480621A60FB681B681A68B6
:10365400FB681B6842F400621A600023BB61FB68CC
:103664001B685B69BB61FB681B689B69BB61BB69C9
:1036740044E100237B61FB681B685B697B61FB6839
:103684001B689B697B617B6938E1FB681B8D032B9D
:1036940000F2F180FB681B8D012B23D17A6AB96B90
:1036A400F86800F045FD0346002B01D0012339E101
:1036B400FB681B681A69FB685B6AD2B21A70FB6804
:1036C4005B6A5A1CFB685A62FB681B8D013B9AB209
:1036D400FB681A85FB685B8D9BB2013B9AB2FB6861
:1036E4005A850BE1FB681B8D022B4ED17B6A00933C
:1036F400BB6B00220649F86800F0C2FB0346002BAE
:1037040008D001230EE100BF020010000000FFFFFB
:1037140004000100FB681B681A68FB681B6842F41C
:1037240000721A60FB681B681A69FB685B6AD2B294
:103734001A70FB685B6A5A1CFB685A62FB681B8D33
:10374400013B9AB2FB681A85FB685B8D9BB2013B17
:103754009AB2FB685A85FB681B681A69FB685B6A46
:10376400D2B21A70FB685B6A5A1CFB685A62FB6827
:103774001B8D013B9AB2FB681A85FB685B8D9BB27B
:10378400013B9AB2FB685A85B8E07B6A0093BB6B35
:1037940000226649F86800F073FB0346002B01D051
:1037A4000123BFE0FB681B681A68FB681B6822F4EE
:1037B40080621A60FB681B681A69FB685B6AD2B294
:1037C4001A70FB685B6A5A1CFB685A62FB681B8DA3
:1037D400013B9AB2FB681A85FB685B8D9BB2013B87
:1037E4009AB2FB685A857B6A0093BB6B00224F49EF
:1037F400F86800F045FB0346002B01D0012391E05B
:10380400FB681B681A68FB681B6842F400721A6044
:10381400FB681B681A69FB685B6AD2B21A70FB68A2
:103824005B6A5A1CFB685A62FB681B8D013B9AB2A7
:10383400FB681A85FB685B8D9BB2013B9AB2FB68FF
:103844005A85FB681B681A69FB685B6AD2B21A70F6
:10385400FB685B6A5A1CFB685A62FB681B8D013B60
:103864009AB2FB681A85FB685B8D9BB2013B9AB2E6
:10387400FB685A8542E07A6AB96BF86800F058FC34
:103884000346002B01D001234CE0FB681B681A6936
:10389400FB685B6AD2B21A70FB685B6A5A1CFB68ED
:1038A4005A62FB681B8D013B9AB2FB681A85FB6860
:1038B4005B8D9BB2013B9AB2FB685A85FB681B681F
:1038C4005B6903F00403042B18D1FB681B681A69B5
:1038D400FB685B6AD2B21A70FB685B6A5A1CFB68AD
:1038E4005A62FB681B8D013B9AB2FB681A85FB6820
:1038F4005B8D9BB2013B9AB2FB685A85FB681B8DBA
:10390400002B7FF4C2AEFB68202283F83D20FB68C5
:10391400002283F83E20FB68002283F83C20002329
:1039240000E0022318462837BD4680BD040001008C
:1039340080B58AB002AFF8607A603B600B467B8149
:10394400FFF712F8F8610123BB61FB6893F83D307F
:10395400DBB2202B40F01081FB6900931923012274
:103964008849F86800F08CFA0346002B01D0022342
:1039740003E1FB6893F83C30012B01D10223FCE006
:10398400FB68012283F83C20FB681B681B6803F07A
:103994000103012B07D0FB681B681A68FB681B68CE
:1039A40042F001021A60FB681B681A68FB681B6816
:1039B40022F400621A60FB68242283F83D20FB682D
:1039C40000221A64FB68704ADA62FB681B681A6892
:1039D400FB681B6842F480721A60FB6900933B68C1
:1039E40000224FF00111F86800F04AFA0346002B58
:1039F4000CD0FB681B681B6803F48073002B03D096
:103A0400FB684FF400721A640323B6E07B89DBB2CF
:103A14001A46FB681B6802F0FE021A61FEF7A4FF57
:103A2400F861FB681B685B6903F00203022B0CBF9F
:103A340001230023DBB2FB75FB681B685B6903F49D
:103A44008063B3F5806F0CBF01230023DBB2BB7529
:103A540025E0FEF789FF0246FB69D31A3A689A42C9
:103A640002D33B68002B03D1FB68A02283F83D20DE
:103A7400FB681B685B6903F00203022B0CBF012384
:103A84000023DBB2FB75FB681B685B6903F480638E
:103A9400B3F5806F0CBF01230023DBB2BB75FB6859
:103AA40093F83D30DBB2A02B05D0FB7D002B02D177
:103AB400BB7D002BCDD0FB68202283F83D20FB6822
:103AC4001B685B6903F00203022B29D1FB681B68A6
:103AD4001A68FB681B6842F400721A6000233B6199
:103AE400FB681B685B693B61FB681B689B693B6106
:103AF4003B69FB690093192301222249F86800F00D
:103B0400BFF90346002B01D0012336E0FB682022D5
:103B140083F83D20FB68002283F83C2000232CE03E
:103B2400FB681B681A68FB681B6842F400721A6021
:103B3400FB681B686FF480625A61FB690093192368
:103B440001221049F86800F09BF90346002B01D0CC
:103B5400012312E0BB690133BB61BA697B689A42F5
:103B6400FFF433AFFB68202283F83D20FB6800227A
:103B740083F83C20012300E0022318462037BD4689
:103B840080BD00BF020010000000FFFF80B588B0B8
:103B940002AFF860084611461A4603467B810B467D
:103BA4003B811346FB80FB681B681A68FB681B6833
:103BB40042F480721A607B6A00933B6A00224FF0E1
:103BC4000111F86800F05CF90346002B0CD0FB6887
:103BD4001B681B6803F48073002B03D0FB684FF44D
:103BE40000721A6403235FE07B89DBB21A46FB6828
:103BF4001B6802F0FE021A617B6A3A6A2C49F86873
:103C040000F095F90346002B01D001234CE000237A
:103C14007B61FB681B685B697B61FB681B689B6954
:103C24007B617B697A6A396AF86800F0FFF90346B8
:103C3400002B0DD0FB681B6C042B07D1FB681B68A1
:103C44001A68FB681B6842F400721A6001232BE0B7
:103C5400FB88012B05D13B89DAB2FB681B681A612A
:103C640021E03B891B0A9BB2DAB2FB681B681A612C
:103C74007A6A396AF86800F0D9F90346002B0DD046
:103C8400FB681B6C042B07D1FB681B681A68FB6874
:103C94001B6842F400721A60012305E03B89DAB222
:103CA400FB681B681A61002318461837BD4680BD9F
:103CB4000200010080B588B002AFF86008461146E2
:103CC4001A4603467B810B463B811346FB80FB6807
:103CD4001B681A68FB681B6842F480621A60FB6800
:103CE4001B681A68FB681B6842F480721A607B6A5E
:103CF40000933B6A00224FF00111F86800F0C0F80D
:103D04000346002B0CD0FB681B681B6803F480730C
:103D1400002B03D0FB684FF400721A640323A9E05C
:103D24007B89DBB21A46FB681B6802F0FE021A614B
:103D34007B6A3A6A5149F86800F0F9F80346002BA7
:103D440001D0012396E000237B61FB681B685B695B
:103D54007B61FB681B689B697B617B697A6A396A52
:103D6400F86800F063F90346002B0DD0FB681B6C68
:103D7400042B07D1FB681B681A68FB681B6842F4B4
:103D840000721A60012375E0FB88012B05D13B8981
:103D9400DAB2FB681B681A6121E03B891B0A9BB2FB
:103DA400DAB2FB681B681A617A6A396AF86800F04B
:103DB4003DF90346002B0DD0FB681B6C042B07D187
:103DC400FB681B681A68FB681B6842F400721A607F
:103DD40001234FE03B89DAB2FB681B681A617A6AF7
:103DE400396AF86800F022F90346002B0DD0FB680D
:103DF4001B6C042B07D1FB681B681A68FB681B68E3
:103E040042F400721A60012334E0FB681B681A68EC
:103E1400FB681B6842F480721A607B6A00933B6AF9
:103E240000224FF00111F86800F02AF80346002B35
:103E34000CD0FB681B681B6803F48073002B03D051
:103E4400FB684FF400721A64032313E07B89DBB22E
:103E540043F00103DAB2FB681B681A617B6A3A6AB1
:103E64000649F86800F063F80346002B01D00123EB
:103E740000E0002318461837BD4680BD020001004B
:103E840080B584B000AFF860B9603B601346FB7145
:103E940025E03B68B3F1FF3F21D0FEF765FD024604
:103EA400BB69D31A3A689A4202D33B68002B16D1F5
:103EB400FB6800221A63FB68202283F83D20FB681C
:103EC400002283F83E20FB681B6C43F02002FB6851
:103ED4001A64FB68002283F83C20012323E0BB68BA
:103EE4001B0CDBB2012B0DD1FB681B685B69DA4349
:103EF400BB6813409BB2002B0CBF01230023DBB231
:103F04001A460CE0FB681B689B69DA43BB681340E4
:103F14009BB2002B0CBF01230023DBB21A46FB79B2
:103F24009A42B6D0002318461037BD4680BD80B5EE
:103F340084B000AFF860B9607A603B6051E0FB6820
:103F44001B685B6903F48063B3F5806F23D1FB685E
:103F54001B681A68FB681B6842F400721A60FB68ED
:103F64001B686FF480625A61FB6800221A63FB6865
:103F7400202283F83D20FB68002283F83E20FB6862
:103F84001B6C43F00402FB681A64FB68002283F88C
:103F94003C20012346E07B68B3F1FF3F21D0FEF7CC
:103FA400E3FC02463B68D31A7A689A4202D37B68E0
:103FB400002B16D1FB6800221A63FB68202283F8C9
:103FC4003D20FB68002283F83E20FB681B6C43F015
:103FD4002002FB681A64FB68002283F83C2001235A
:103FE40020E0BB681B0CDBB2012B0CD1FB681B6807
:103FF4005B69DA43BB6813409BB2002B14BF0123F7
:104004000023DBB20BE0FB681B689B69DA43BB68E7
:1040140013409BB2002B14BF01230023DBB2002BFF
:104024008DD1002318461037BD4680BD80B584B0BD
:1040340000AFF860B9607A602DE0F86800F0CEF85F
:104044000346002B01D001232DE0BB68B3F1FF3FF1
:1040540021D0FEF789FC02467B68D31ABA689A42DB
:1040640002D3BB68002B16D1FB6800221A63FB68DD
:10407400202283F83D20FB68002283F83E20FB6861
:104084001B6C43F02002FB681A64FB68002283F86F
:104094003C20012307E0FB681B685B6903F0800395
:1040A400802BCAD1002318461037BD4680BD80B589
:1040B40084B000AFF860B9607A602DE0F86800F071
:1040C4008DF80346002B01D001232DE0BB68B3F12A
:1040D400FF3F21D0FEF748FC02467B68D31ABA683A
:1040E4009A4202D3BB68002B16D1FB6800221A63E4
:1040F400FB68202283F83D20FB68002283F83E20E1
:10410400FB681B6C43F02002FB681A64FB68002206
:1041140083F83C20012307E0FB681B685B6903F01C
:104124000403042BCAD1002318461037BD4680BDB2
:1041340080B584B000AFF860B9607A6042E0FB6893
:104144001B685B6903F01003102B19D1FB681B6813
:104154006FF010025A61FB6800221A63FB68202288
:1041640083F83D20FB68002283F83E20FB681A6C2C
:10417400FB681A64FB68002283F83C20012329E0D1
:10418400FEF7F2FB02467B68D31ABA689A4202D35E
:10419400BB68002B16D1FB6800221A63FB6820223F
:1041A40083F83D20FB68002283F83E20FB681B6CEB
:1041B40043F02002FB681A64FB68002283F83C2069
:1041C400012307E0FB681B685B6903F04003402B95
:1041D400B5D1002318461037BD4680BD80B483B0E6
:1041E40000AF78607B681B685B6903F48063B3F598
:1041F400806F1BD17B681B686FF480625A617B6897
:1042040000221A637B68202283F83D207B68002209
:1042140083F83E207B681B6C43F004027B681A64BD
:104224007B68002283F83C20012300E00023184629
:104234000C37BD4680BC7047F0B58FB00AAF7860CC
:104244007B68002B01D101230FE17B681B68BB60F5
:104254007B6893F8BD33DBB2002B06D17B68002268
:1042640083F8BC23786805F01FF97B68032283F880
:10427400BD23BB68DB6B03F48073002B02D17B6826
:1042840000221A617B681B68184602F0C1F97B683A
:104294001B683B607E686D4606F110040FCC0FC5A9
:1042A4000FCC0FC594E8030085E80300331D0ECB43
:1042B400386802F0A3F80346002B05D07B6802227D
:1042C40083F8BD230123D0E07B681B6800211846D6
:1042D40002F0AEF90023FB734AE0FA7B79681346D7
:1042E400DB009B1A9B000B443D3301221A70FA7BBE
:1042F40079681346DB009B1A9B000B443C33FA7B22
:104304001A70FA7BFB7B98B279681346DB009B1A20
:104314009B000B44423302461A80FA7B79681346A9
:10432400DB009B1A9B000B443F3300221A70FA7B7C
:1043340079681346DB009B1A9B000B44443300222C
:104344001A60FA7B79681346DB009B1A9B000B44C6
:10435400483300221A60FA7B79681346DB009B1A03
:104364009B000B44503300221A60FB7B0133FB7328
:10437400FA7B7B685B689A42AFD30023FB7344E00B
:10438400FA7B79681346DB009B1A9B000B4403F20B
:10439400FD1300221A70FA7B79681346DB009B1A1E
:1043A4009B000B4403F5FE73FA7B1A70FA7B796861
:1043B4001346DB009B1A9B000B4403F2FF130022FD
:1043C4001A70FA7B79681346DB009B1A9B000B4436
:1043D40003F5017300221A60FA7B79681346DB0047
:1043E4009B1A9B000B4403F5027300221A60FA7BAC
:1043F40079681346DB009B1A9B000B4403F5047396
:1044040000221A60FB7B0133FB73FA7B7B685B68D9
:104414009A42B5D37B681B683B607E686D4606F1A3
:1044240010040FCC0FC50FCC0FC594E8030085E82A
:104434000300331D0ECB386802F024F90346002B29
:1044440005D07B68022283F8BD2301230DE07B683D
:10445400002283F838207B68012283F8BD237B681F
:104464001B68184603F00BF9002318461437BD46A1
:10447400F0BD80B582B000AF78607B6893F8BC3340
:10448400012B01D1022312E07B68012283F8BC23B3
:104494007B681B68184603F0DAF87B681B681846CB
:1044A40002F0A6F87B68002283F8BC230023184698
:1044B4000837BD4680BD90B58DB000AF78607B688D
:1044C4001B683B623B6AFB617B681B68184603F010
:1044D4007CF90346002B40F080837B681B681846F8
:1044E40003F0E5F80346002B00F076837B681B6835
:1044F400184603F0DCF8034603F00203022B07D14D
:104504007B681B685A697B681B6802F002025A6167
:104514007B681B68184603F0CAF8034603F40023BB
:10452400B3F5002F7BD100237B627B681B681846A0
:1045340003F0CFF8B8626FE0BB6A03F00103002B0D
:1045440064D07B681B687A6AD2B21146184603F0BD
:10455400F2F8B861BB6903F00103002B0CD07B6A4D
:104564005A01FB69134403F530631A46012393602F
:10457400796A786800F0FEFDBB6903F00803002B3C
:104584000CD0796A786800F0FDFE7B6A5A01FB69F9
:10459400134403F530631A4608239360BB6903F0A0
:1045A4001003002B08D07B6A5A01FB69134403F5FE
:1045B40030631A4610239360BB6903F02003002B79
:1045C40015D07B681B69012B08D17B6818687B6850
:1045D40003F571731A46012103F038F97B6A5A0115
:1045E400FB69134403F530631A4620239360BB69C7
:1045F40003F40053002B09D07B6A5A01FB6913446E
:1046040003F530631A464FF4005393607B6A013319
:104614007B62BB6A5B08BB62BB6A002B8CD17B6884
:104624001B68184603F043F8034603F48023B3F5EC
:10463400802F40F0C4807B681B68184603F062F842
:10464400B86200237B62B6E0BB6A03F00103002B6F
:1046540000F0AB807B681B687A6AD2B211461846B8
:1046640003F086F8B861BB6903F00103002B5BD04B
:104674007B6A03F00F03012202FA03F37B61FB69F7
:1046840003F500635A6B7B69DB43F96901F500614B
:1046940013404B637B6A5A01FB69134403F51063AF
:1046A4001A46012393607B681B69012B1BD179682F
:1046B4007A6A1346DB009B1A9B000B444833196843
:1046C40078687A6A1346DB009B1A9B0003444433E0
:1046D4001B68194478687A6A1346DB009B1A9B00AE
:1046E4000344483319607B6ADBB21946786804F0E6
:1046F4005CFF7B681B69012B16D17B6A002B13D1ED
:1047040079687A6A1346DB009B1A9B000B4450338A
:104714001B68002B08D17B6818687B6803F57173EC
:104724001A46012103F092F8BB6903F00803002B39
:1047340008D07B6A5A01FB69134403F510631A46D7
:1047440008239360BB6903F01003002B08D07B6A35
:104754005A01FB69134403F510631A46102393604E
:10476400BB6903F04003002B08D07B6A5A01FB6944
:10477400134403F510631A4640239360BB6903F0A6
:104784000203002B08D07B6A5A01FB69134403F52A
:1047940010631A4602239360BB6903F08003002B65
:1047A40003D0796A786800F058FC7B6A01337B6235
:1047B400BB6A5B08BB62BB6A002B7FF445AF7B68B6
:1047C4001B68184602F073FF034603F00043B3F17D
:1047D400004F14D1FB6903F500635B68FA6902F5C5
:1047E400006223F001035360786804F055FF7B688E
:1047F4001B685A697B681B6802F000425A617B6837
:104804001B68184602F053FF034603F40063B3F534
:10481400006F12D1FB6903F500639B6803F0010389
:10482400012B02D1786804F011FF7B681B685A6978
:104834007B681B6802F400625A617B681B68184637
:1048440002F035FF034603F48053B3F5805F40F074
:10485400A780FB6903F500635B68FA6902F50062EF
:1048640023F0010353607B681B681021184602F093
:104874007BF80023FB6236E0FB6A5A01FB691344B0
:1048840003F510631A464FF67F339360FB6A5A01AF
:10489400FB69134403F510631B68FA6A5101FA6952
:1048A4000A4402F5106223F400131360FB6A5A01F0
:1048B400FB69134403F530631A464FF67F33936064
:1048C400FB6A5A01FB69134403F530631B68FA6AF7
:1048D4005101FA690A4402F5306223F400131360AB
:1048E400FB6A0133FB627B685B68FA6A9A42C3D352
:1048F400FB6903F50063DB69FA6902F5006243F0C2
:104904000113D3617B681B6B002B16D0FB6903F585
:104914000063D3F88430FA6902F5006243F00B03B4
:10492400C2F88430FB6903F500635B6CFA6902F535
:10493400006243F00B03536415E0FB6903F5006365
:104944005B69FA6902F5006243F4005343F02B03F8
:104954005361FB6903F500631B69FA6902F50062A0
:1049640043F00B031361FB6903F500631B68FA69E9
:1049740002F5006223F4FE6313607B6818687B68A9
:104984001B69D9B27B6803F571731A4602F05EFFA6
:104994007B681B685A697B681B6802F480525A6101
:1049A4007B681B68184602F082FE034603F400533A
:1049B400B3F5005F24D17B681B68184602F012FF30
:1049C4007B681B68184602F02BF803461A467B687E
:1049D400DA607B681C6801F093F901467B68DB6848
:1049E400DBB21A46204601F061FD786804F005FE4A
:1049F4007B681B685A697B681B6802F400525A6121
:104A04007B681B68184602F052FE034603F010034D
:104A1400102B61D17B681B689A697B681B6822F044
:104A240010029A613B6A1B6A3B613B6903F00F0207
:104A34001346DB009B1A9B0003F5FC737A6813444E
:104A44000433FB603B695B0C03F00F03022B24D19E
:104A54003A6947F6F0731340002B35D0FB68D968E8
:104A64003B691B099BB2C3F30A039BB21A46386A1B
:104A740002F0CEFCFB68DA683B691B09C3F30A0346
:104A84001A44FB68DA60FB689A693B691B09C3F343
:104A94000A031A44FB689A6116E03B695B0C03F055
:104AA4000F03062B10D17B6803F571730822194696
:104AB400386A02F0ADFCFB689A693B691B09C3F3D1
:104AC4000A031A44FB689A617B681B689A697B68CD
:104AD4001B6842F010029A617B681B68184602F05A
:104AE400E6FD034603F00803082B0AD1786804F0B6
:104AF40076FD7B681B685A697B681B6802F00802B4
:104B04005A617B681B68184602F0D1FD034603F422
:104B14008013B3F5801F0FD100237B627B6ADBB265
:104B24001946786804F0D8FD7B681B685A697B686D
:104B34001B6802F480125A617B681B68184602F0F5
:104B4400B6FD034603F40013B3F5001F0FD1002391
:104B54007B627B6ADBB21946786804F0ABFD7B6844
:104B64001B685A697B681B6802F400125A617B68EF
:104B74001B68184602F09BFD034603F08043B3F123
:104B8400804F0AD1786804F0B9FD7B681B685A69C4
:104B94007B681B6802F080425A617B681B68184678
:104BA40002F085FD034603F00403042B15D17B6852
:104BB4001B685B683B613B6903F00403002B02D074
:104BC400786804F0A9FD7B681B6859687B681B68DA
:104BD4003A690A435A6000E000BF3437BD4690BDCD
:104BE40080B582B000AF78600B46FB707B6893F8A9
:104BF400BC33012B01D1022313E07B68012283F82B
:104C0400BC237B68FA7883F838207B681B68FA78C1
:104C14001146184602F0F6FC7B68002283F8BC2398
:104C2400002318460837BD4680BD80B584B000AF68
:104C34007860084611461A460346FB700B463B80D3
:104C44001346BB700023FB7297F90330002B0FDA75
:104C5400FB7803F00F021346DB009B1A9B003833EA
:104C64007A6813440433FB60FB6801225A700FE036
:104C7400FB7803F00F021346DB009B1A9B0003F53D
:104C8400FC737A6813440433FB60FB6800225A7097
:104C9400FB7803F00F03DAB2FB681A703A88FB68FA
:104CA4009A60FB68BA78DA70FB685B78002B04D0F2
:104CB400FB681B789AB2FB68DA80BB78022B02D1BE
:104CC400FB6800221A717B6893F8BC33012B01D175
:104CD40002230EE07B68012283F8BC237B681B68F7
:104CE400F968184601F0C0FE7B68002283F8BC23F3
:104CF400FB7A18461037BD4680BD80B584B000AF3E
:104D040078600B46FB7097F90330002B0FDAFB78C1
:104D140003F00F021346DB009B1A9B0038337A68BA
:104D240013440433FB60FB6801225A700FE0FB78E4
:104D340003F00F021346DB009B1A9B0003F5FC7380
:104D44007A6813440433FB60FB6800225A70FB78D2
:104D540003F00F03DAB2FB681A707B6893F8BC3374
:104D6400012B01D102230EE07B68012283F8BC23CE
:104D74007B681B68F968184601F0FCFE7B6800221A
:104D840083F8BC23002318461037BD4680BD80B588
:104D940086B000AFF8607A603B600B46FB72FB7A2A
:104DA40003F00F021346DB009B1A9B0003F5FC7310
:104DB400FA68134404337B617B697A68DA607B693F
:104DC4003A685A617B6900229A617B6900225A70B1
:104DD400FB7A03F00F03DAB27B691A70FB681B6974
:104DE400012B02D17A687B691A61FB7A03F00F0305
:104DF400002B09D1FB681868FB681B69DBB21A46F3
:104E0400796902F07FF908E0FB681868FB681B69A0
:104E1400DBB21A46796901F031FF002318461837CE
:104E2400BD4680BD80B483B000AF78600B46FB7094
:104E3400FB7803F00F0279681346DB009B1A9B0092
:104E44000B4403F505731B6818460C37BD4680BC3C
:104E5400704780B586B000AFF8607A603B600B465F
:104E6400FB72FB7A03F00F021346DB009B1A9B00D4
:104E74003833FA68134404337B617B697A68DA60F7
:104E84007B693A685A617B6900229A617B690122D5
:104E94005A70FB7A03F00F03DAB27B691A70FB686D
:104EA4001B69012B02D17A687B691A61FB7A03F0D2
:104EB4000F03002B09D1FB681868FB681B69DBB280
:104EC4001A46796902F01EF908E0FB681868FB6865
:104ED4001B69DBB21A46796901F0D0FE002318463B
:104EE4001837BD4680BD80B584B000AF78600B46EE
:104EF400FB70FB7803F00F027B685B689A4201D970
:104F0400012350E097F90330002B0FDAFB7803F00C
:104F14000F021346DB009B1A9B0038337A68134454
:104F24000433FB60FB6801225A700DE0FA781346E3
:104F3400DB009B1A9B0003F5FC737A68134404336B
:104F4400FB60FB6800225A70FB6801229A70FB78B0
:104F540003F00F03DAB2FB681A707B6893F8BC3372
:104F6400012B01D102231EE07B68012283F8BC23BC
:104F74007B681B68F968184602F072FAFB7803F044
:104F84000F03002B0AD17B6818687B681B69D9B2B0
:104F94007B6803F571731A4602F058FC7B680022A3
:104FA40083F8BC23002318461037BD4680BD80B566
:104FB40084B000AF78600B46FB70FB7803F00F02FF
:104FC4007B685B689A4201D9012342E097F9033078
:104FD400002B0FDAFB7803F00F021346DB009B1A59
:104FE4009B0038337A6813440433FB60FB68012266
:104FF4005A700FE0FB7803F00F021346DB009B1A94
:105004009B0003F5FC737A6813440433FB60FB686C
:1050140000225A70FB6800229A70FB7803F00F0399
:10502400DAB2FB681A707B6893F8BC33012B01D1A8
:1050340002230EE07B68012283F8BC237B681B6893
:10504400F968184602F079FA7B68002283F8BC23D9
:10505400002318461037BD4680BD80B58AB002AF24
:10506400786039607B681B687B617B693B613A6867
:105074001346DB009B1A9B0038337A6813440433CD
:10508400FB60FB689A69FB685B699A4201D901235A
:105094006CE0FB685A69FB689B69D31AFB61FB6887
:1050A4009B68FA699A4202D9FB689B68FB61FB69B9
:1050B40003339B08BB612BE0FB685A69FB689B695F
:1050C400D31AFB61FB689B68FA699A4202D9FB68B0
:1050D4009B68FB61FB6903339B08BB61FB68D96870
:1050E4003B68DAB2FB6998B27B681B69DBB2009358
:1050F4000346786902F058F9FB68DA68FB691A44D8
:10510400FB68DA60FB689A69FB691A44FB689A6178
:105114003B685A013B69134403F510639B699BB2D6
:10512400BA699A4209D8FB689A69FB685B699A4232
:1051340003D2FB685B69002BBED1FB685A69FB682C
:105144009B699A4211D83B6803F00F03012202FACB
:1051540003F3BB603B6903F500635A6BBB68DB4335
:10516400396901F5006113404B6300231846203769
:10517400BD4680BD80B586B000AF786039607B687D
:105184001B687B617B693B617B693C3304331B682F
:10519400FB603B685A013B69134403F530639B6829
:1051A400BB607B681B69012B40F0B380BB6803F0D4
:1051B4000803002B28D0FB68704A93420ED9BB68C1
:1051C40003F40043002B09D03B685A013B691344A4
:1051D40003F530631A464FF400439360786804F093
:1051E400B7F97B6818687B6803F571731A46012167
:1051F40002F02CFB3B685A013B69134403F530630E
:105204001A4608239360B3E0BB6803F02003002B25
:1052140009D03B685A013B69134403F530631A46CD
:1052240020239360A4E0BB6803F02803002B40F024
:105234009F80FB68514A93420FD9BB6803F4004333
:10524400002B0AD03B685A013B69134403F53063D1
:105254001A464FF4004393608AE079683A6813462B
:10526400DB009B1A9B000B4403F501731A683B682F
:1052740059013B690B4403F530631B69C3F3120303
:10528400D11A78683A681346DB009B1A9B000344E2
:1052940003F50573196079683A681346DB009B1AB5
:1052A4009B000B4403F50273196878683A68134647
:1052B400DB009B1A9B00034403F501731B6819442C
:1052C40078683A681346DB009B1A9B00034403F595
:1052D400027319603B68DBB21946786804F04AF936
:1052E4003B68002B44D179683A681346DB009B1A6B
:1052F4009B000B4403F504731B68002B38D17B68B7
:1053040018687B6803F571731A46012102F09EFA4E
:105314002EE0FB681A4A934224D1BB6803F400438D
:10532400002B0AD03B685A013B69134403F53063F0
:105334001A464FF4004393601AE0BB6803F020035D
:10534400002B08D03B685A013B69134403F53063D2
:105354001A46202393603B68DBB21946786804F050
:1053640009F905E03B68DBB21946786804F002F9F4
:10537400002318461837BD4680BD00BF0A30544F7D
:105384000A31544F80B586B000AF786039607B68CD
:105394001B687B617B693B617B693C3304331B681D
:1053A400FB603B685A013B69134403F530639B6817
:1053B400BB607B681B69012B13D1FB681F4A9342B6
:1053C40022D9BB6803F40043002B1DD03B685A016B
:1053D4003B69134403F530631A464FF4004393606A
:1053E40012E0FB68164A93420ED1BB6803F40043F3
:1053F400002B09D03B685A013B69134403F5306321
:105404001A464FF400439360786804F0A1F8FB68EF
:105414000A4A93420CD97B681B69012B08D17B682B
:1054240018687B6803F571731A46012102F00EFABD
:10543400002318461837BD4680BD00BF0A30544FBC
:105444000A31544F80B485B000AF78600B46FB70CE
:1054540013463B807B681B685B6ABB60FB78002B50
:1054640007D13B8819047B681B68BA680A439A62AF
:1054740028E07B681B689B6A1B0CBA681344BB60FA
:105484000023FB730DE07B681A68FB7B40339B00B1
:1054940013445B681B0CBA681344BB60FB7B013389
:1054A400FB73FA7BFB78013B9A42ECD33B881804EC
:1054B4007B681968FB78013BBA68024340339B0060
:1054C4000B445A60002318461437BD4680BC70470D
:1054D40080B483B000AF78600B467B807B681B6828
:1054E4007A885A62002318460C37BD4680BC704740
:1054F40080B590B000AF78607B68002B01D10123A8
:1055040053E27B681B6803F00103002B50D0A34BCC
:105514009B6803F00C03042B0CD0A04B9B6803F096
:105524000C03082B12D19D4B5B6803F48003B3F585
:10553400800F0BD1994B1B6803F40033002B36D03A
:105544007B685B68002B32D101232EE27B685A68AA
:10555400934BD2B21A707B685B68002B13D0FDF7B3
:1055640003FAB86308E0FDF7FFF90246BB6BD31AF0
:10557400642B01D9032318E2884B1B6803F400331E
:10558400002BF0D014E0FDF7EFF9B86308E0FDF765
:10559400EBF90246BB6BD31A642B01D9032304E253
:1055A4007E4B1B6803F40033002BF0D100E000BFF6
:1055B4007B681B6803F00203002B77D0774B9B6852
:1055C40003F00C03002B0BD0744B9B6803F00C030B
:1055D400082B26D1714B5B6803F48003002B20D188
:1055E4006E4B1B6803F00203002B05D07B68DB685D
:1055F400012B01D00123D8E1684B1B6823F0F8028A
:105604007B681B69F8213963396B91FAA1F1F9625E
:10561400F96AB1FA81F1C9B28B40604913430B6056
:1056240044E07B68DB68002B2AD05E4B01221A60C1
:10563400FDF79AF9B86308E0FDF796F90246BB6BEB
:10564400D31A022B01D90323AFE1544B1B6803F097
:105654000203002BF0D0514B1B6823F0F8027B6847
:105664001B69F821B962B96A91FAA1F17962796A80
:10567400B1FA81F1C9B28B40484913430B6015E07C
:10568400484B00221A60FDF76FF9B86308E0FDF794
:105694006BF90246BB6BD31A022B01D9032384E1B5
:1056A4003E4B1B6803F00203002BF0D17B681B68A0
:1056B40003F00803002B30D07B685B69002B16D005
:1056C400394B01221A60FDF74FF9B86308E0FDF782
:1056D4004BF90246BB6BD31A022B01D9032364E1B5
:1056E4002E4B5B6F03F00203002BF0D015E02E4B22
:1056F40000221A60FDF738F9B86308E0FDF734F9C1
:105704000246BB6BD31A022B01D903234DE1234B71
:105714005B6F03F00203002BF0D17B681B6803F07E
:105724000403002B00F08880002387F83F301B4BD4
:105734001B6C03F08053002B10D10023BB60174B6C
:105744001B6C164A43F080531364144B1B6C03F018
:105754008053BB60BB68012387F83F30134B1B6841
:10576400124A43F480731360104B1B6803F4807374
:10577400002B23D10D4B1B680C4A43F48073136038
:10578400FDF7F2F8B86313E0FDF7EEF80246BB6BE1
:10579400D31A022B0CD9032307E100BF00380240BF
:1057A4000238024000004742800E47420070004029
:1057B400804B1B6803F48073002BE5D07B689A68E8
:1057C4007D4BD2B21A707B689B68002B15D0FDF715
:1057D400CBF8B8630AE0FDF7C7F80246BB6BD31AEF
:1057E40041F28832934201D90323DEE0734B1B6FED
:1057F40003F00203002BEED014E0FDF7B5F8B86314
:105804000AE0FDF7B1F80246BB6BD31A41F28832C5
:10581400934201D90323C8E0684B1B6F03F00203D2
:10582400002BEED197F83F30012B05D1634B1B6C55
:10583400624A23F0805313647B689B69002B00F059
:10584400B3805E4B9B6803F00C03082B7DD07B6810
:105854009B69022B62D15A4B00221A60FDF784F82F
:10586400B86308E0FDF780F80246BB6BD31A642BDB
:1058740001D9032399E0514B1B6803F00073002BFB
:10588400F0D17B68DA697B681B6A1A437B685B6AC0
:1058940047F6C0713961396991FAA1F1F960F96883
:1058A400B1FA81F1C9B28B401A437B689B6A5B08E9
:1058B400013B4FF44031B961B96991FAA1F17961C1
:1058C4007969B1FA81F1C9B28B401A437B68DB6A0A
:1058D4004FF070613962396A91FAA1F1F961F9699D
:1058E400B1FA81F1C9B28B40344913434B60344B54
:1058F40001221A60FDF738F8B86308E0FDF734F8C0
:105904000246BB6BD31A642B01D903234DE02B4B06
:105914001B6803F00073002BF0D045E0284B0022F5
:105924001A60FDF721F8B86308E0FDF71DF8024698
:10593400BB6BD31A642B01D9032336E01F4B1B68BE
:1059440003F00073002BF0D12EE07B689B69012BE0
:1059540001D1012329E0194B5B687B637B6B03F462
:1059640080027B68DB699A421CD17B6B03F03F02A7
:105974007B681B6A9A4215D17B6B9B09C3F30802AF
:105984007B685B6A9A420DD17B6B03F440327B687F
:105994009B6A9A4206D17B6B03F070627B68DB6A78
:1059A4009A4201D0012300E0002318464037BD4647
:1059B40080BD00BF007000407038024000380240D3
:1059C4006000474280B586B000AF786039607B687C
:1059D400002B01D10123D2E06B4B1B6803F00F03B2
:1059E4003A689A420CD9684B3A68D2B21A70664B3C
:1059F4001B6803F00F033A689A4201D00123BEE00A
:105A04007B681B6803F00203002B20D07B681B68B3
:105A140003F00403002B05D05C4B9B685B4A43F402
:105A2400E05393607B681B6803F00803002B05D0E8
:105A3400564B9B68554A43F460439360534B9B68B1
:105A440023F0F0027B689B68504913438B607B68AA
:105A54001B6803F00103002B40D07B685B68012BBB
:105A640007D14A4B1B6803F40033002B15D10123E3
:105A740085E07B685B68022B07D1444B1B6803F00D
:105A84000073002B09D1012379E0404B1B6803F01C
:105A94000203002B01D1012371E03C4B9B6823F0EE
:105AA40003027B685B68394913438B60FCF75CFF36
:105AB40078610AE0FCF758FF02467B69D31A41F289
:105AC4008832934201D9032359E0304B9B6803F099
