:020000040800F2
:1000000000000220D10F0008B50E0008C10E000844
:10001000C70E0008CD0E0008D30E00080000000037
:10002000000000000000000000000000D90E0008E1
:10003000E50E000800000000F10E0008FD0E0008AB
:1000400021100008211000082110000821100008CC
:1000500021100008211000082110000821100008BC
:1000600021100008211000082110000821100008AC
:10007000211000082110000821100008211000089C
:10008000211000082110000821100008211000088C
:10009000211000082110000821100008211000087C
:1000A000211000082110000821100008211000086C
:1000B000211000082110000821100008211000085C
:1000C000211000082110000821100008211000084C
:1000D000211000082110000821100008211000083C
:1000E000211000082110000821100008211000082C
:1000F000211000082110000821100008211000081C
:10010000211000082110000821100008211000080B
:1001100021100008211000082110000821100008FB
:1001200021100008211000082110000821100008EB
:10013000211000080000000000000000211000084D
:10014000211000082110000821100008090F0008E4
:1001500021100008211000082110000821100008BB
:1001600021100008211000082110000821100008AB
:1001700021100008211000080000000021100008D4
:040180002110000842
:1001840010B5054C237833B9044B13B10448AFF3CD
:1001940000800123237010BDE8010020000000004E
:1001A400907D000808B5034B1BB103490348AFF326
:1001B400008008BD00000000EC010020907D0008D4
:1001C40053B94AB9002908BF00281CBF4FF0FF31BA
:1001D4004FF0FF3000F074B9ADF1080C6DE904CEB6
:1001E40000F006F8DDF804E0DDE9022304B070470E
:1001F4002DE9F0478C460446089E002B4BD18A42D9
:10020400154667D9B2FA82F24AB1C2F1200701FA5F
:1002140002F320FA07F7954047EA030C94404FEAAB
:10022400154EBCFBFEF71FFA85F80EFB17C307FB40
:1002340008F9210C41EA0343994509D9EB1807F160
:10024400FF3180F01C81994540F21981023F2B4413
:10025400A3EB0903B3FBFEF00EFB103300FB08F124
:10026400A4B244EA0344A14209D92C1900F1FF3392
:1002740080F00781A14240F2048102382C4440EA14
:1002840007400027641A1EB10023D440C6E9004386
:100294003946BDE8F0878B4209D9002E00F0EC8086
:1002A4000027C6E9000138463946BDE8F087B3FAAD
:1002B40083F7002F48D18B4202D3824200F2FB80A5
:1002C400841A61EB030301209C46002EE0D0C6E9AA
:1002D400004CDDE702B9FFDEB2FA82F2002A40F0F8
:1002E4008F800127491B4FEA15481FFA85F9B1FB96
:1002F400F8FE08FB1E1109FB0EF04FEA144C4CEA01
:100304000143984207D9EB180EF1FF3102D298420B
:1003140000F2CD808E461B1AB3FBF8F008FB1033B5
:1003240009FB00F9A4B244EA0344A14507D92C19F6
:1003340000F1FF3302D2A14500F2B6801846A4EBC7
:10034400090440EA0E409EE7C7F12005BB4022FAAB
:1003540005FC4CEA030C21FA05F44FEA1C4EB4FBED
:10036400FEF91FFA8CF80EFB194420FA05F3B94084
:1003740009FB08FA19430B0C43EA0444A24502FAA8
:1003840007F200FA07F30BD91CEB040409F1FF3060
:1003940080F08880A24540F28580A9F10209644476
:1003A400A4EB0A04B4FBFEF00EFB104400FB08FAB5
:1003B40089B241EA0444A24508D91CEB040400F1C3
:1003C400FF316BD2A24569D90238644440EA09403E
:1003D400A0FB0289A4EB0A044C454146CE4654D303
:1003E40051D0002E69D05A1A64EB0E0404FA05F5B4
:1003F40022FA07F3FC401D43C6E90054002747E7EF
:100404009540C2F1200321FA03F04FEA1548B0FBEE
:10041400F8F71FFA85F908FB170024FA03F3914053
:1004240007FB09FC0B43190C41EA00418C4504FA13
:1004340002F407D9691807F1FF3031D28C452FD95E
:10044400023F2944A1EB0C01B1FBF8F008FB101C9E
:1004540000FB09FE99B241EA0C418E4507D969189F
:1004640000F1FF3318D28E4516D902382944A1EB86
:100474000E0140EA07473AE73746304608E70F4699
:10048400E6E61846FBE64345ABD2B8EB020169EB5E
:100494000C0201389646A4E71846E8E7084695E7B3
:1004A4000746CFE781467BE702382C4447E7AEF1A5
:1004B400020E2B442FE7384607E73746E8E600BF2D
:1004C400704700BFB0B598B004AF00F0A9FD00F0CC
:1004D400F7F800F0C9F900F051F900F071F900F0F3
:1004E40081F900F0ADF900F035F906F055FE00F0A1
:1004F4000DFA002000F076FA00F096FA1421142088
:1005040000F0D6FB674A012306CA674800F0AAFB3D
:100514002821282000F0CCFB624A012306CA634844
:1005240000F0A0FB00F080FA1E211E2000F0C0FBAA
:100534004FF47A7000F0E2FD5D4A07F13C0307CA0C
:1005440003C31A8061233B6307F1340300221A605A
:100554009A80A023A7F84C3040F20113A7F84A3040
:10056400B7F84A20B7F84C104FF0FF3302930A2330
:10057400019307F13C03009310234E4801F060FA05
:10058400B7F84C104FF0FF3301224A4801F078FDD0
:10059400034687F8493097F84930002B03D11921D5
:1005A400192000F085FB3F4A07F13C00012306CAED
:1005B40000F058FB00BF4FF47A7000F09FFDB7F8CD
:1005C4004A20B7F84C104FF0FF3302930A230193EB
:1005D40007F1300300931023364801F02BFB07F199
:1005E4003C0107F130030A22184607F0FFFA0346DC
:1005F400002B14D1304B07F118040FCB07C4238010
:1006040002341B0C23700021002000F051FB254A0A
:1006140007F11800012306CA00F024FB10E0274B61
:100624003C1D1D460FCD0FC42B68237000210020F4
:1006340000F03EFB1B4A381D012306CA00F012FBE2
:100644004FF47A7000F05AFD2821282000F030FB86
:10065400144A07F13000012306CA00F003FB00F03E
:10066400E3F9002387F84F300DE097F84F3007F196
:100674005002134497F84F2003F8282C97F84F3072
:10068400013387F84F3097F84F30072BEDD94FF4EB
:100694007A7000F033FD07F128030821184606F0AC
:1006A40039FEF4E700000020A87D0008B07D0008B2
:1006B400B87D00086C060020C47D0008D47D0008C5
:1006C40080B592B000AF07F118033022002118461C
:1006D40007F09BFA3B1D00221A605A609A60DA60A8
:1006E4001A610323BB610123FB6101237B62102395
:1006F400BB6202233B6300237B630823BB63C023E9
:10070400FB6304233B6408237B6407F11803184646
:1007140003F096FA0346002B01D000F0D9F80F231A
:100724007B600123BB600023FB604FF4A0533B615B
:100734004FF480537B613B1D0021184603F0EAFC13
:100744000346002B01D000F0C3F800BF4837BD4674
:1007540080BD000080B500AF064B074A1A6005480B
:1007640000F0FBFD0346002B01D000F0B1F800BF00
:1007740080BD00BFC00600200030024080B500AF3D
:100784000C4B0D4A1A600B4B00225A60094B0B4A62
:10079400DA60084B00225A61064B00229A61054830
:1007A40000F0F7FD0346002B01D000F091F800BFE4
:1007B40080BD00BFD8060020000006509C850008BC
:1007C40080B500AF064B00221A60054800F0B6FF62
:1007D4000346002B01D000F07BF800BF80BD00BFB2
:1007E4002C06002080B500AF124B134A1A60114B3F
:1007F400124A5A600F4B00229A600E4B0022DA60B4
:100804000C4B4FF480421A610A4B00225A61094B87
:1008140000229A61074B0022DA61064B00221A6219
:10082400044800F0D5FF0346002B01D000F050F837
:1008340000BF80BD6C06002000540040A08601006B
:1008440080B500AF064B074A1A60054803F02CFE3A
:100854000346002B01D000F03BF800BF80BD00BF71
:10086400C80600200008065080B485B000AF0023FD
:10087400FB60164B1B6B154A43F080031363134B49
:100884001B6B03F08003FB60FB680023BB600F4B12
:100894001B6B0E4A43F0010313630C4B1B6B03F0F9
:1008A4000103BB60BB6800237B60084B1B6B074ADA
:1008B40043F002031363054B1B6B03F002037B60DD
:1008C4007B6800BF1437BD4680BC704700380240C7
:1008D40080B400AF00BFBD4680BC704780B586B011
:1008E40004AF0346FB710A23029301230193FB1D0A
:1008F4000093012300227821034801F0A1F800BFEE
:100904000837BD4680BD00BF6C06002080B500AF2F
:10091400642000F0F3FBAE20FFF7E0FF2020FFF798
:10092400DDFF1020FFF7DAFFB020FFF7D7FFC82064
:10093400FFF7D4FF0020FFF7D1FF1020FFF7CEFF11
:100944004020FFF7CBFF8120FFF7C8FFFF20FFF710
:10095400C5FFA120FFF7C2FFA620FFF7BFFFA82015
:10096400FFF7BCFF3F20FFF7B9FFA420FFF7B6FF56
:10097400D320FFF7B3FF0020FFF7B0FFD520FFF728
:10098400ADFFF020FFF7AAFFD920FFF7A7FF222031
:10099400FFF7A4FFDA20FFF7A1FF1220FFF79EFF65
:1009A400DB20FFF79BFF2020FFF798FF8D20FFF748
:1009B40095FF1420FFF792FFAF20FFF78FFF002071
:1009C40000F010F800F030F8054B00221A80044BB8
:1009D40000225A80024B01225A710123184680BD1D
:1009E4001406002080B485B000AF0346FB710023D9
:1009F400FB600DE0FB79002B01D1002100E0FF2119
:100A0400084AFB6813440A461A70FB680133FB600A
:100A1400FB68B3F5826FEDD300BF1437BD4680BCCD
:100A2400704700BF0402002080B586B004AF0023E5
:100A3400FB7121E0FB79503BDBB21846FFF74EFF18
:100A44000020FFF74BFF1020FFF748FFFA79134609
:100A54009B0113445B001A460B4B1344642202921D
:100A6400822201920093012340227821074800F05A
:100A7400E7FFFB790133FB71FB79072BDAD900BF60
:100A84000837BD4680BD00BF040200206C0600206C
:100A940090B482B000AF0346FB710B46BB711346A2
:100AA4007B71FB79812B54D8BB793F2B51D82B4BCD
:100AB4001B79002B06D07B79002B0CBF012300236C
:100AC400DBB27B717B79012B20D1FA79BB79DB080E
:100AD400D8B201460B469B010B445B001344204AE9
:100AE400D35C5AB2BB7903F00703012101FA03F383
:100AF4005BB213435CB2FA7901460B469B010B448B
:100B04005B001344E1B2164AD15423E0FA79BB796D
:100B1400DB08D8B201460B469B010B445B0013442F
:100B24000F4AD35C5AB2BB7903F00703012101FADF
:100B340003F35BB2DB435BB213405CB2FA79014668
:100B44000B469B010B445B001344E1B2044AD154AD
:100B540000E000BF0837BD4690BC70471406002073
:100B64000402002090B589B000AF0446381D80E827
:100B740006001A462346FB731346BB73384B1B8887
:100B84001A463B791344812B06DC354B5B881A46A5
:100B94007B7913443F2B01DD00235DE00023FB61DF
:100BA4004CE0BA68FB7B203B797901FB03F31946DF
:100BB400FB690B445B0013441B887B610023BB610E
:100BC40034E07A69BB6902FA03F303F40043002BAF
:100BD40012D0234B1B88DAB2BB69DBB21344D8B200
:100BE4001F4B5B88DAB2FB69DBB21344DBB2BA7B1E
:100BF4001946FFF74DFF16E0194B1B88DAB2BB69A3
:100C0400DBB21344D8B2164B5B88DAB2FB69DBB2B1
:100C14001344D9B2BB7B002B0CBF01230023DBB2EE
:100C24001A46FFF735FFBB690133BB613B791A46AE
:100C3400BB699342C5D3FB690133FB617B791A46D7
:100C4400FB699342ADD3064B1A883B799BB213449C
:100C54009AB2034B1A80FB7B18462437BD4690BDDD
:100C64001406002080B584B000AFF860381D80E819
:100C74000600FB7012E0FB681878FB783A1D06CA80
:100C8400FFF770FF03461A46FB681B789A4202D0AE
:100C9400FB681B7808E0FB680133FB60FB681B788A
:100CA400002BE8D1FB681B7818461037BD4680BD81
:100CB40080B483B000AF03460A46FB711346BB7190
:100CC400FB799AB2054B1A80BB799AB2034B5A80CE
:100CD40000BF0C37BD4680BC704700BF140600201F
:100CE40080B483B000AF00237B600F4B5B6C0E4A73
:100CF40043F4804353640C4B5B6C03F480437B608C
:100D04007B6800233B60084B1B6C074A43F080530D
:100D14001364054B1B6C03F080533B603B6800BFBE
:100D24000C37BD4680BC70470038024080B485B0A3
:100D340000AF78607B681B680A4A93420DD1002398
:100D4400FB60094B1B6B084A43F480531363064B47
:100D54001B6B03F48053FB60FB6800BF1437BD4674
:100D640080BC7047003002400038024080B485B037
:100D740000AF78607B681B680A4A93420DD1002358
:100D8400FB60094B5B6B084A43F010035363064B4B
:100D94005B6B03F01003FB60FB6800BF1437BD46B8
:100DA40080BC7047000006500038024080B485B013
:100DB40000AF78600023FB60084B5B6B074A43F08D
:100DC40020035363054B5B6B03F02003FB60FB685C
:100DD40000BF1437BD4680BC704700BF00380240D6
:100DE40080B58AB000AF786007F1140300221A605E
:100DF4005A609A60DA601A617B681B68194A9342E8
:100E04002BD100233B61184B1B6B174A43F00203A1
:100E14001363154B1B6B03F002033B613B69C02357
:100E24007B611223BB610123FB6103233B62042327
:100E34007B6207F1140319460C4800F0E1FA002321
:100E4400FB60094B1B6C084A43F400131364064B04
:100E54001B6C03F40013FB60FB6800BF2837BD461E
:100E640080BD00BF0054004000380240000402402E
:100E740080B485B000AF78607B681B680A4A9342EF
:100E84000DD10023FB60094B5B6B084A43F0400320
:100E94005363064B5B6B03F04003FB60FB6800BFCE
:100EA4001437BD4680BC7047000806500038024025
:100EB40080B400AF00BFBD4680BC704780B400AFB3
:100EC400FEE780B400AFFEE780B400AFFEE780B475
:100ED40000AFFEE780B400AF00BFBD4680BC7047E2
:100EE40080B400AF00BFBD4680BC704780B400AF83
:100EF40000BFBD4680BC704780B500AF00F0E2F88B
:100F040000BF80BD80B500AF024801F07CFE00BF89
:100F140080BD00BFE01A002080B584B000AF7860C7
:100F2400114B1B68002B02D10F4B104A1A600E4B59
:100F34001B68FB600C4B1A687B6813446A46934237
:100F440007D906F019FE02460C2313604FF0FF3355
:100F540006E0054B1A687B681344034A1360FB6878
:100F640018461037BD4680BD1C060020E81E002030
:100F740080B400AF124B1B68114A43F001031360A5
:100F84000F4B00229A600E4B1B680D4A23F08473AA
:100F940023F4803313600A4B0A4A5A60084B1B68D7
:100FA400074A23F480231360054B0022DA60064BC2
:100FB4004FF000629A6000BFBD4680BC704700BF1E
:100FC400003802401030002400ED00E0DFF834D097
:100FD400002103E00C4B5B58435004310B480C4B8D
:100FE40042189A42F6D30B4A02E0002342F8043B2B
:100FF400094B9A42F9D3FFF7BBFF06F0C3FDFFF795
:1010040061FA704700000220DC850008000000201F
:10101400E8010020E8010020E41E0020FEE70000B3
:1010240080B500AF0E4B1B680D4A43F40073136088
:101034000B4B1B680A4A43F480631360084B1B681C
:10104400074A43F480731360032000F045F900203D
:1010540000F008F8FFF744FE0023184680BD00BFE7
:10106400003C024080B582B000AF7860124B1A6831
:10107400124B1B7819464FF47A73B3FBF1F3B2FBAE
:10108400F3F3184600F05DF90346002B01D0012369
:101094000EE07B680F2B0AD8002279684FF0FF30EE
:1010A40000F025F9064A7B681360002300E0012361
:1010B40018460837BD4680BD0800002010000020F7
:1010C4000C00002080B400AF054B1B781A46054B7A
:1010D4001B681344034A136000BFBD4680BC7047BD
:1010E400100000201807002080B400AF024B1B68DA
:1010F4001846BD4680BC70471807002080B584B0F0
:1011040000AF7860FFF7F0FFB8607B68FB60FB68B6
:10111400B3F1FF3F05D0094B1B781A46FB68134413
:10112400FB6000BFFFF7E0FF0246BB68D31AFA6812
:101134009A42F7D800BF1037BD4680BD100000208A
:1011440080B485B000AF78607B6803F00703FB6070
:101154000C4BDB68BB60BA684FF6FF031340BB60FF
:10116400FB681A02BB68134343F0BF6343F40033C4
:10117400BB60044ABB68D36000BF1437BD4680BC63
:10118400704700BF00ED00E080B400AF044BDB68A3
:101194001B0A03F007031846BD4680BC704700BF16
:1011A40000ED00E080B483B000AF0346FB7197F913
:1011B4000730002B0BDBFB7903F01F02064997F97C
:1011C40007305B09012000FA02F241F8232000BF36
:1011D4000C37BD4680BC704700E100E080B483B0AA
:1011E40000AF03463960FB7197F90730002B0ADB27
:1011F4003B68DAB20C4997F907301201D2B20B44BA
:1012040083F800230AE03B68DAB20849FB7903F06B
:101214000F03043B1201D2B20B441A7600BF0C3701
:10122400BD4680BC704700BF00E100E000ED00E077
:1012340080B489B000AFF860B9607A60FB6803F0ED
:101244000703FB61FB69C3F10703042B28BF0423D5
:10125400BB61FB690433062B02D9FB69033B00E045
:1012640000237B614FF0FF32BB6902FA03F3DA43D8
:10127400BB681A407B699A404FF0FF317B6901FAE1
:1012840003F3D9437B680B40134318462437BD4608
:1012940080BC704780B582B000AF78607B68013B4A
:1012A400B3F1807F01D301230FE00A4A7B68013B3D
:1012B40053600F214FF0FF30FFF790FF054B0022E2
:1012C4009A60044B07221A60002318460837BD466B
:1012D40080BD00BF10E000E080B582B000AF786050
:1012E4007868FFF72DFF00BF0837BD4680BD80B585
:1012F40086B000AF0346B9607A60FB7300237B615C
:10130400FFF742FF78617A68B9687869FFF790FF60
:10131400024697F90F3011461846FFF75FFF00BFEA
:101324001837BD4680BD80B582B000AF0346FB715F
:1013340097F907301846FFF735FF00BF0837BD4659
:1013440080BD80B582B000AF78607868FFF7A2FFF7
:10135400034618460837BD4680BD80B582B000AF4D
:1013640078607B68002B01D101230EE07B685B79F8
:10137400DBB2002B05D17B6800221A717868FFF775
:10138400D5FC7B6801225A71002318460837BD46F4
:1013940080BD80B582B000AF78607B68002B01D13E
:1013A400012328E07B6893F83930DBB2002B06D1A7
:1013B4007B68002283F838207868FFF7D7FC7B68C5
:1013C4001B681B6823F47E717B685A687B689B6882
:1013D4001A437B685B691A437B681B680A431A607B
:1013E4007B680022DA637B68012283F839207B68FA
:1013F4000122DA62002318460837BD4680BD00008A
:1014040080B487B000AF7860396000237B616FE1FE
:101414003B681A6801217B6901FA03F31340FB60FE
:10142400FB68002B00F061813B685B68012B0BD0EB
:101434003B685B68022B07D03B685B68112B03D0C9
:101444003B685B68122B30D17B689B683B617B698E
:101454005B00032202FA03F3DB433A6913403B6166
:101464003B68DA687B695B0002FA03F33A69134369
:101474003B617B683A699A607B685B683B610122E7
:101484007B6902FA03F3DB433A6913403B613B682F
:101494005B681B0903F001027B6902FA03F33A69F2
:1014A40013433B617B683A695A607B68DB683B6144
:1014B4007B695B00032202FA03F3DB433A691340BE
:1014C4003B613B689A687B695B0002FA03F33A6903
:1014D40013433B617B683A69DA603B685B68022BC3
:1014E40003D03B685B68122B23D17B69DA087B68E5
:1014F400083253F822303B617B6903F007039B00F9
:101504000F2202FA03F3DB433A6913403B613B6861
:101514001A697B6903F007039B0002FA03F33A6933
:1015240013433B617B69DA087B680832396943F805
:1015340022107B681B683B617B695B00032202FA13
:1015440003F3DB433A6913403B613B685B6803F098
:1015540003027B695B0002FA03F33A6913433B61BC
:101564007B683A691A603B685B6803F08053002B20
:1015740000F0BB800023BB60644B5B6C634A43F4A4
:1015840080435364614B5B6C03F48043BB60BB6872
:101594005F4A7B699B08023352F823303B617B69C5
:1015A40003F003039B000F2202FA03F3DB433A69BF
:1015B40013403B617B68574A934231D07B68564A5B
:1015C40093422BD07B68554A934225D07B68544A7A
:1015D40093421FD07B68534A934219D07B68524A86
:1015E400934213D07B68514A93420DD07B68504A92
:1015F400934207D07B684F4A934201D1082310E0FD
:1016040009230EE007230CE006230AE0052308E083
:10161400042306E0032304E0022302E0012300E0A4
:1016240000237A6902F00302920093401A463B6950
:1016340013433B6136497B699B0802333A6941F89D
:1016440023203D4B1B683B61FB68DB433A69134035
:101654003B613B685B6803F48033002B03D03A6939
:10166400FB6813433B61344A3B691360324B5B684C
:101674003B61FB68DB433A6913403B613B685B6851
:1016840003F40033002B03D03A69FB6813433B6136
:10169400294A3B695360284B9B683B61FB68DB43E9
:1016A4003A6913403B613B685B6803F48013002B89
:1016B40003D03A69FB6813433B611F4A3B6993605B
:1016C4001D4BDB683B61FB68DB433A6913403B61BC
:1016D4003B685B6803F40013002B03D03A69FB6892
:1016E40013433B61144A3B69D3607B6901337B61DB
:1016F4003B681A687B6922FA03F3002B7FF488AEF7
:1017040000BF1C37BD4680BC704700BF0038024094
:10171400003801400000024000040240000802407A
:10172400000C024000100240001402400018024065
:10173400001C024000200240003C014080B582B001
:1017440000AF78607B68002B01D1012339E07B680E
:1017540093F83530DBB2002B06D17B68002283F886
:1017640034207868FFF722FB7B68022283F8352057
:101774007B6800221A627B680022DA617B6800229F
:101784005A627B6800229A637B68002283F83720C0
:101794007B68012283F82D200C4B1B6823F0300258
:1017A4007B681B68094913430B607B68002283F83C
:1017B4002C207B68012283F835207B680022DA63C1
:1017C400002318460837BD4680BD00BF00040650FC
:1017D40080B584B000AF78607B68002B01D1012311
:1017E4001FE17B6893F83D30DBB2002B06D17B68A8
:1017F400002283F83C207868FFF7F2FA7B68242201
:1018040083F83D207B681B681A687B681B6822F09C
:1018140001021A607B681B681A687B681B6842F4C3
:1018240000421A607B681B681A687B681B6822F494
:1018340000421A6002F016FEF8607B685B687B4A1F
:10184400934207D8FB687A4A934294BF012300234A
:10185400DBB206E0FB68774A934294BF012300237E
:10186400DBB2002B01D00123DBE0FB68724AA2FB50
:1018740003239B0CBB607B681B685B6823F03F0100
:101884007B681B68BA680A435A607B681B681B6ADA
:1018940023F03F017B685B68644A934202D8BB68CB
:1018A400013309E0BB684FF4967202FB03F3634A09
:1018B400A2FB03239B0901337A6812680B4313626A
:1018C4007B681B68DB6923F44F4222F0FF027B68CC
:1018D4005B6856498B420DD8FB68591E7B685B6870
:1018E4005B00B1FBF3F30133C3F30B03042B38BFE9
:1018F40004234FE07B689B68002B11D1FB68581EC2
:101904007B6859680B465B000B44B0FBF3F301336F
:10191400C3F30B03002B0CBF01230023DBB212E043
:10192400FB68581E7B6859680B469B000B44990062
:101934000B44B0FBF3F30133C3F30B03002B0CBFD5
:1019440001230023DBB2002B01D0012322E07B68BA
:101954009B68002B0ED1FB68581E7B6859680B46A8
:101964005B000B44B0FBF3F30133C3F30B0343F409
:1019740000430FE0FB68581E7B6859680B469B00C8
:101984000B4499000B44B0FBF3F30133C3F30B0393
:1019940043F44043796809681343CB617B681B684F
:1019A4001B6823F0C0017B68DA697B681B6A1A43F1
:1019B4007B681B680A431A607B681B689B6823F476
:1019C400034323F0FF037A6811697A68D2681143EC
:1019D4007A6812680B4393607B681B68DB6823F0AA
:1019E400FF017B685A697B689B691A437B681B68A3
:1019F4000A43DA607B681B681A687B681B6842F0DC
:101A040001021A607B6800221A647B68202283F832
:101A14003D207B6800221A637B68002283F83E2005
:101A2400002318461037BD4680BD00BFA0860100C4
:101A34007F841E00FF083D0083DE1B43D34D6210EC
:101A440080B588B002AFF860084611461A460346CE
:101A54007B810B463B811346FB80FFF745FB786196
:101A6400FB6893F83D30DBB2202B40F0D9807B69D2
:101A74000093192301226D49F86800F0A9FD03467B
:101A8400002B01D00223CCE0FB6893F83C30012BFF
:101A940001D10223C5E0FB68012283F83C20FB68E6
:101AA4001B681B6803F00103012B07D0FB681B684C
:101AB4001A68FB681B6842F001021A60FB681B6825
:101AC4001A68FB681B6822F400621A60FB68212212
:101AD40083F83D20FB68402283F83E20FB68002207
:101AE4001A64FB683A6A5A62FB68BA8C5A85FB68C6
:101AF4005B8D9AB2FB681A85FB684D4ADA62F888F6
:101B04003A8979897B690193BB6A00930346F86833
:101B140000F0E4FB0346002B52D0012381E07A69F4
:101B2400B96AF86800F02AFE0346002B0DD0FB6862
:101B34001B6C042B07D1FB681B681A68FB681B68C5
:101B440042F400721A6001236BE0FB685B6A1A7846
:101B5400FB681B681A61FB685B6A5A1CFB685A6263
:101B6400FB681B8D013B9AB2FB681A85FB685B8D91
:101B74009BB2013B9AB2FB685A85FB681B685B69A0
:101B840003F00403042B1BD1FB681B8D002B17D01F
:101B9400FB685B6A1A78FB681B681A61FB685B6AFE
:101BA4005A1CFB685A62FB681B8D013B9AB2FB68A6
:101BB4001A85FB685B8D9BB2013B9AB2FB685A8520
:101BC400FB681B8D002BAAD17A69B96AF86800F00A
:101BD40016FE0346002B0DD0FB681B6C042B07D1AB
:101BE400FB681B681A68FB681B6842F400721A6081
:101BF400012316E0FB681B681A68FB681B6842F443
:101C040000721A60FB68202283F83D20FB680022E2
:101C140083F83E20FB68002283F83C20002300E088
:101C2400022318461837BD4680BD00BF02001000CD
:101C34000000FFFF80B58CB002AFF8600846114683
:101C44001A4603467B810B463B811346FB80FFF714
:101C54004BFA7862FB6893F83D30DBB2202B40F0FE
:101C640008827B6A0093192301227B49F86800F0FB
:101C7400AFFC0346002B01D00223FBE1FB6893F881
:101C84003C30012B01D10223F4E1FB68012283F8EB
:101C94003C20FB681B681B6803F00103012B07D081
:101CA400FB681B681A68FB681B6842F001021A6033
:101CB400FB681B681A68FB681B6822F400621A60E0
:101CC400FB68222283F83D20FB68402283F83E20F3
:101CD400FB6800221A64FB683A6B5A62FB68BA8E8E
:101CE4005A85FB685B8D9AB2FB681A85FB685B4A70
:101CF400DA62F8883A8979897B6A0193BB6B00932D
:101D04000346F86800F07EFB0346002B01D0012354
:101D1400B0E1FB681B8D002B13D100233B62FB68F1
:101D24001B685B693B62FB681B689B693B623B6A9F
:101D3400FB681B681A68FB681B6842F400721A602F
:101D440084E1FB681B8D012B1BD1FB681B681A689F
:101D5400FB681B6822F480621A600023FB61FB6845
:101D64001B685B69FB61FB681B689B69FB61FB6922
:101D7400FB681B681A68FB681B6842F400721A60EF
:101D840064E1FB681B8D022B1BD1FB681B681A687E
:101D9400FB681B6822F480621A60FB681B681A687F
:101DA400FB681B6842F400621A600023BB61FB6895
:101DB4001B685B69BB61FB681B689B69BB61BB6992
:101DC40044E100237B61FB681B685B697B61FB6802
:101DD4001B689B697B617B6938E1FB681B8D032B66
:101DE40000F2F180FB681B8D012B23D17A6AB96B59
:101DF400F86800F045FD0346002B01D0012339E1CA
:101E0400FB681B681A69FB685B6AD2B21A70FB68CC
:101E14005B6A5A1CFB685A62FB681B8D013B9AB2D1
:101E2400FB681A85FB685B8D9BB2013B9AB2FB6829
:101E34005A850BE1FB681B8D022B4ED17B6A009304
:101E4400BB6B00220649F86800F0C2FB0346002B76
:101E540008D001230EE100BF020010000000FFFFC4
:101E640004000100FB681B681A68FB681B6842F4E5
:101E740000721A60FB681B681A69FB685B6AD2B25D
:101E84001A70FB685B6A5A1CFB685A62FB681B8DFC
:101E9400013B9AB2FB681A85FB685B8D9BB2013BE0
:101EA4009AB2FB685A85FB681B681A69FB685B6A0F
:101EB400D2B21A70FB685B6A5A1CFB685A62FB68F0
:101EC4001B8D013B9AB2FB681A85FB685B8D9BB244
:101ED400013B9AB2FB685A85B8E07B6A0093BB6BFE
:101EE40000226649F86800F073FB0346002B01D01A
:101EF4000123BFE0FB681B681A68FB681B6822F4B7
:101F040080621A60FB681B681A69FB685B6AD2B25C
:101F14001A70FB685B6A5A1CFB685A62FB681B8D6B
:101F2400013B9AB2FB681A85FB685B8D9BB2013B4F
:101F34009AB2FB685A857B6A0093BB6B00224F49B7
:101F4400F86800F045FB0346002B01D0012391E023
:101F5400FB681B681A68FB681B6842F400721A600D
:101F6400FB681B681A69FB685B6AD2B21A70FB686B
:101F74005B6A5A1CFB685A62FB681B8D013B9AB270
:101F8400FB681A85FB685B8D9BB2013B9AB2FB68C8
:101F94005A85FB681B681A69FB685B6AD2B21A70BF
:101FA400FB685B6A5A1CFB685A62FB681B8D013B29
:101FB4009AB2FB681A85FB685B8D9BB2013B9AB2AF
:101FC400FB685A8542E07A6AB96BF86800F058FCFD
:101FD4000346002B01D001234CE0FB681B681A69FF
:101FE400FB685B6AD2B21A70FB685B6A5A1CFB68B6
:101FF4005A62FB681B8D013B9AB2FB681A85FB6829
:102004005B8D9BB2013B9AB2FB685A85FB681B68E7
:102014005B6903F00403042B18D1FB681B681A697D
:10202400FB685B6AD2B21A70FB685B6A5A1CFB6875
:102034005A62FB681B8D013B9AB2FB681A85FB68E8
:102044005B8D9BB2013B9AB2FB685A85FB681B8D82
:10205400002B7FF4C2AEFB68202283F83D20FB688E
:10206400002283F83E20FB68002283F83C200023F2
:1020740000E0022318462837BD4680BD0400010055
:1020840080B58AB002AFF8607A603B600B467B8112
:10209400FFF72AF8F8610123BB61FB6893F83D3030
:1020A400DBB2202B40F01081FB690093192301223D
:1020B4008849F86800F08CFA0346002B01D002230B
:1020C40003E1FB6893F83C30012B01D10223FCE0CF
:1020D400FB68012283F83C20FB681B681B6803F043
:1020E4000103012B07D0FB681B681A68FB681B6897
:1020F40042F001021A60FB681B681A68FB681B68DF
:1021040022F400621A60FB68242283F83D20FB68F5
:1021140000221A64FB68704ADA62FB681B681A685A
:10212400FB681B6842F480721A60FB6900933B6889
:1021340000224FF00111F86800F04AFA0346002B20
:102144000CD0FB681B681B6803F48073002B03D05E
:10215400FB684FF400721A640323B6E07B89DBB298
:102164001A46FB681B6802F0FE021A61FEF7BCFF08
:10217400F861FB681B685B6903F00203022B0CBF68
:1021840001230023DBB2FB75FB681B685B6903F466
:102194008063B3F5806F0CBF01230023DBB2BB75F2
:1021A40025E0FEF7A1FF0246FB69D31A3A689A427A
:1021B40002D33B68002B03D1FB68A02283F83D20A7
:1021C400FB681B685B6903F00203022B0CBF01234D
:1021D4000023DBB2FB75FB681B685B6903F4806357
:1021E400B3F5806F0CBF01230023DBB2BB75FB6822
:1021F40093F83D30DBB2A02B05D0FB7D002B02D140
:10220400BB7D002BCDD0FB68202283F83D20FB68EA
:102214001B685B6903F00203022B29D1FB681B686E
:102224001A68FB681B6842F400721A6000233B6161
:10223400FB681B685B693B61FB681B689B693B61CE
:102244003B69FB690093192301222249F86800F0D5
:10225400BFF90346002B01D0012336E0FB6820229E
:1022640083F83D20FB68002283F83C2000232CE007
:10227400FB681B681A68FB681B6842F400721A60EA
:10228400FB681B686FF480625A61FB690093192331
:1022940001221049F86800F09BF90346002B01D095
:1022A400012312E0BB690133BB61BA697B689A42BE
:1022B400FFF433AFFB68202283F83D20FB68002243
:1022C40083F83C20012300E0022318462037BD4652
:1022D40080BD00BF020010000000FFFF80B588B081
:1022E40002AFF860084611461A4603467B810B4646
:1022F4003B811346FB80FB681B681A68FB681B68FC
:1023040042F480721A607B6A00933B6A00224FF0A9
:102314000111F86800F05CF90346002B0CD0FB684F
:102324001B681B6803F48073002B03D0FB684FF415
:1023340000721A6403235FE07B89DBB21A46FB68F0
:102344001B6802F0FE021A617B6A3A6A2C49F8683B
:1023540000F095F90346002B01D001234CE0002343
:102364007B61FB681B685B697B61FB681B689B691D
:102374007B617B697A6A396AF86800F0FFF9034681
:10238400002B0DD0FB681B6C042B07D1FB681B686A
:102394001A68FB681B6842F400721A6001232BE080
:1023A400FB88012B05D13B89DAB2FB681B681A61F3
:1023B40021E03B891B0A9BB2DAB2FB681B681A61F5
:1023C4007A6A396AF86800F0D9F90346002B0DD00F
:1023D400FB681B6C042B07D1FB681B681A68FB683D
:1023E4001B6842F400721A60012305E03B89DAB2EB
:1023F400FB681B681A61002318461837BD4680BD68
:102404000200010080B588B002AFF86008461146AA
:102414001A4603467B810B463B811346FB80FB68CF
:102424001B681A68FB681B6842F480621A60FB68C8
:102434001B681A68FB681B6842F480721A607B6A26
:1024440000933B6A00224FF00111F86800F0C0F8D5
:102454000346002B0CD0FB681B681B6803F48073D5
:10246400002B03D0FB684FF400721A640323A9E025
:102474007B89DBB21A46FB681B6802F0FE021A6114
:102484007B6A3A6A5149F86800F0F9F80346002B70
:1024940001D0012396E000237B61FB681B685B6924
:1024A4007B61FB681B689B697B617B697A6A396A1B
:1024B400F86800F063F90346002B0DD0FB681B6C31
:1024C400042B07D1FB681B681A68FB681B6842F47D
:1024D40000721A60012375E0FB88012B05D13B894A
:1024E400DAB2FB681B681A6121E03B891B0A9BB2C4
:1024F400DAB2FB681B681A617A6A396AF86800F014
:102504003DF90346002B0DD0FB681B6C042B07D14F
:10251400FB681B681A68FB681B6842F400721A6047
:1025240001234FE03B89DAB2FB681B681A617A6ABF
:10253400396AF86800F022F90346002B0DD0FB68D5
:102544001B6C042B07D1FB681B681A68FB681B68AB
:1025540042F400721A60012334E0FB681B681A68B5
:10256400FB681B6842F480721A607B6A00933B6AC2
:1025740000224FF00111F86800F02AF80346002BFE
:102584000CD0FB681B681B6803F48073002B03D01A
:10259400FB684FF400721A64032313E07B89DBB2F7
:1025A40043F00103DAB2FB681B681A617B6A3A6A7A
:1025B4000649F86800F063F80346002B01D00123B4
:1025C40000E0002318461837BD4680BD0200010014
:1025D40080B584B000AFF860B9603B601346FB710E
:1025E40025E03B68B3F1FF3F21D0FEF77DFD0246B5
:1025F400BB69D31A3A689A4202D33B68002B16D1BE
:10260400FB6800221A63FB68202283F83D20FB68E4
:10261400002283F83E20FB681B6C43F02002FB6819
:102624001A64FB68002283F83C20012323E0BB6882
:102634001B0CDBB2012B0DD1FB681B685B69DA4311
:10264400BB6813409BB2002B0CBF01230023DBB2F9
:102654001A460CE0FB681B689B69DA43BB681340AD
:102664009BB2002B0CBF01230023DBB21A46FB797B
:102674009A42B6D0002318461037BD4680BD80B5B7
:1026840084B000AFF860B9607A603B6051E0FB68E9
:102694001B685B6903F48063B3F5806F23D1FB6827
:1026A4001B681A68FB681B6842F400721A60FB68B6
:1026B4001B686FF480625A61FB6800221A63FB682E
:1026C400202283F83D20FB68002283F83E20FB682B
:1026D4001B6C43F00402FB681A64FB68002283F855
:1026E4003C20012346E07B68B3F1FF3F21D0FEF795
:1026F400FBFC02463B68D31A7A689A4202D37B6891
:10270400002B16D1FB6800221A63FB68202283F891
:102714003D20FB68002283F83E20FB681B6C43F0DD
:102724002002FB681A64FB68002283F83C20012322
:1027340020E0BB681B0CDBB2012B0CD1FB681B68CF
:102744005B69DA43BB6813409BB2002B14BF0123BF
:102754000023DBB20BE0FB681B689B69DA43BB68B0
:1027640013409BB2002B14BF01230023DBB2002BC8
:102774008DD1002318461037BD4680BD80B584B086
:1027840000AFF860B9607A602DE0F86800F0CEF828
:102794000346002B01D001232DE0BB68B3F1FF3FBA
:1027A40021D0FEF7A1FC02467B68D31ABA689A428C
:1027B40002D3BB68002B16D1FB6800221A63FB68A6
:1027C400202283F83D20FB68002283F83E20FB682A
:1027D4001B6C43F02002FB681A64FB68002283F838
:1027E4003C20012307E0FB681B685B6903F080035E
:1027F400802BCAD1002318461037BD4680BD80B552
:1028040084B000AFF860B9607A602DE0F86800F039
:102814008DF80346002B01D001232DE0BB68B3F1F2
:10282400FF3F21D0FEF760FC02467B68D31ABA68EA
:102834009A4202D3BB68002B16D1FB6800221A63AC
:10284400FB68202283F83D20FB68002283F83E20A9
:10285400FB681B6C43F02002FB681A64FB680022CF
:1028640083F83C20012307E0FB681B685B6903F0E5
:102874000403042BCAD1002318461037BD4680BD7B
:1028840080B584B000AFF860B9607A6042E0FB685C
:102894001B685B6903F01003102B19D1FB681B68DC
:1028A4006FF010025A61FB6800221A63FB68202251
:1028B40083F83D20FB68002283F83E20FB681A6CF5
:1028C400FB681A64FB68002283F83C20012329E09A
:1028D400FEF70AFC02467B68D31ABA689A4202D30E
:1028E400BB68002B16D1FB6800221A63FB68202208
:1028F40083F83D20FB68002283F83E20FB681B6CB4
:1029040043F02002FB681A64FB68002283F83C2031
:10291400012307E0FB681B685B6903F04003402B5D
:10292400B5D1002318461037BD4680BD80B483B0AE
:1029340000AF78607B681B685B6903F48063B3F560
:10294400806F1BD17B681B686FF480625A617B685F
:1029540000221A637B68202283F83D207B680022D2
:1029640083F83E207B681B6C43F004027B681A6486
:102974007B68002283F83C20012300E000231846F2
:102984000C37BD4680BC7047F0B58FB00AAF786095
:102994007B68002B01D101230FE17B681B68BB60BE
:1029A4007B6893F8BD33DBB2002B06D17B68002231
:1029B40083F8BC23786804F0E1FD7B68032283F884
:1029C400BD23BB68DB6B03F48073002B02D17B68EF
:1029D40000221A617B681B68184601F099FE7B6827
:1029E4001B683B607E686D4606F110040FCC0FC572
:1029F4000FCC0FC594E8030085E80300331D0ECB0C
:102A0400386801F07BFD0346002B05D07B68022269
:102A140083F8BD230123D0E07B681B68002118469E
:102A240001F086FE0023FB734AE0FA7B79681346C3
:102A3400DB009B1A9B000B443D3301221A70FA7B86
:102A440079681346DB009B1A9B000B443C33FA7BEA
:102A54001A70FA7BFB7B98B279681346DB009B1AE9
:102A64009B000B44423302461A80FA7B7968134672
:102A7400DB009B1A9B000B443F3300221A70FA7B45
:102A840079681346DB009B1A9B000B4444330022F5
:102A94001A60FA7B79681346DB009B1A9B000B448F
:102AA400483300221A60FA7B79681346DB009B1ACC
:102AB4009B000B44503300221A60FB7B0133FB73F1
:102AC400FA7B7B685B689A42AFD30023FB7344E0D4
:102AD400FA7B79681346DB009B1A9B000B4403F2D4
:102AE400FD1300221A70FA7B79681346DB009B1AE7
:102AF4009B000B4403F5FE73FA7B1A70FA7B79682A
:102B04001346DB009B1A9B000B4403F2FF130022C5
:102B14001A70FA7B79681346DB009B1A9B000B44FE
:102B240003F5017300221A60FA7B79681346DB000F
:102B34009B1A9B000B4403F5027300221A60FA7B74
:102B440079681346DB009B1A9B000B4403F504735E
:102B540000221A60FB7B0133FB73FA7B7B685B68A2
:102B64009A42B5D37B681B683B607E686D4606F16C
:102B740010040FCC0FC50FCC0FC594E8030085E8F3
:102B84000300331D0ECB386801F0FCFD0346002B17
:102B940005D07B68022283F8BD2301230DE07B6806
:102BA400002283F838207B68012283F8BD237B68E8
:102BB4001B68184602F0E3FD002318461437BD468F
:102BC400F0BD80B582B000AF78607B6893F8BC3309
:102BD400012B01D1022312E07B68012283F8BC237C
:102BE4007B681B68184602F0B2FD7B681B681846B8
:102BF40001F07EFD7B68002283F8BC230023184685
:102C04000837BD4680BD90B58DB000AF78607B6855
:102C14001B683B623B6AFB617B681B68184602F0D9
:102C240054FE0346002B40F080837B681B681846E3
:102C340002F0BDFD0346002B00F076837B681B6821
:102C4400184602F0B4FD034603F00203022B07D139
:102C54007B681B685A697B681B6802F002025A6130
:102C64007B681B68184602F0A2FD034603F40023A8
:102C7400B3F5002F7BD100237B627B681B68184669
:102C840002F0A7FDB8626FE0BB6A03F00103002BFA
:102C940064D07B681B687A6AD2B21146184602F087
:102CA400CAFDB861BB6903F00103002B0CD07B6A39
:102CB4005A01FB69134403F530631A4601239360F8
:102CC400796A786800F0FEFDBB6903F00803002B05
:102CD4000CD0796A786800F0FDFE7B6A5A01FB69C2
:102CE400134403F530631A4608239360BB6903F069
:102CF4001003002B08D07B6A5A01FB69134403F5C7
:102D040030631A4610239360BB6903F02003002B41
:102D140015D07B681B69012B08D17B6818687B6818
:102D240003F571731A46012102F010FE7B6A5A0101
:102D3400FB69134403F530631A4620239360BB698F
:102D440003F40053002B09D07B6A5A01FB69134436
:102D540003F530631A464FF4005393607B6A0133E2
:102D64007B62BB6A5B08BB62BB6A002B8CD17B684D
:102D74001B68184602F01BFD034603F48023B3F5D9
:102D8400802F40F0C4807B681B68184602F03AFD2F
:102D9400B86200237B62B6E0BB6A03F00103002B38
:102DA40000F0AB807B681B687A6AD2B21146184681
:102DB40002F05EFDB861BB6903F00103002B5BD038
:102DC4007B6A03F00F03012202FA03F37B61FB69C0
:102DD40003F500635A6B7B69DB43F96901F5006114
:102DE40013404B637B6A5A01FB69134403F5106378
:102DF4001A46012393607B681B69012B1BD17968F8
:102E04007A6A1346DB009B1A9B000B44483319680B
:102E140078687A6A1346DB009B1A9B0003444433A8
:102E24001B68194478687A6A1346DB009B1A9B0076
:102E34000344483319607B6ADBB21946786804F0AE
:102E44001EFC7B681B69012B16D17B6A002B13D1F6
:102E540079687A6A1346DB009B1A9B000B44503353
:102E64001B68002B08D17B6818687B6803F57173B5
:102E74001A46012102F06AFDBB6903F00803002B26
:102E840008D07B6A5A01FB69134403F510631A46A0
:102E940008239360BB6903F01003002B08D07B6AFE
:102EA4005A01FB69134403F510631A461023936017
:102EB400BB6903F04003002B08D07B6A5A01FB690D
:102EC400134403F510631A4640239360BB6903F06F
:102ED4000203002B08D07B6A5A01FB69134403F5F3
:102EE40010631A4602239360BB6903F08003002B2E
:102EF40003D0796A786800F058FC7B6A01337B62FE
:102F0400BB6A5B08BB62BB6A002B7FF445AF7B687E
:102F14001B68184602F04BFC034603F00043B3F170
:102F2400004F14D1FB6903F500635B68FA6902F58D
:102F3400006223F001035360786804F017FC7B6897
:102F44001B685A697B681B6802F000425A617B68FF
:102F54001B68184602F02BFC034603F40063B3F528
:102F6400006F12D1FB6903F500639B6803F0010352
:102F7400012B02D1786804F0D3FB7B681B685A6983
:102F84007B681B6802F400625A617B681B68184600
:102F940002F00DFC034603F48053B3F5805F40F068
:102FA400A780FB6903F500635B68FA6902F50062B8
:102FB40023F0010353607B681B681021184601F05D
:102FC40053FD0023FB6236E0FB6A5A01FB6913449C
:102FD40003F510631A464FF67F339360FB6A5A0178
:102FE400FB69134403F510631B68FA6A5101FA691B
:102FF4000A4402F5106223F400131360FB6A5A01B9
:10300400FB69134403F530631A464FF67F3393602C
:10301400FB6A5A01FB69134403F530631B68FA6ABF
:103024005101FA690A4402F5306223F40013136073
:10303400FB6A0133FB627B685B68FA6A9A42C3D31A
:10304400FB6903F50063DB69FA6902F5006243F08A
:103054000113D3617B681B6B002B16D0FB6903F54E
:103064000063D3F88430FA6902F5006243F00B037D
:10307400C2F88430FB6903F500635B6CFA6902F5FE
:10308400006243F00B03536415E0FB6903F500632E
:103094005B69FA6902F5006243F4005343F02B03C1
:1030A4005361FB6903F500631B69FA6902F5006269
:1030B40043F00B031361FB6903F500631B68FA69B2
:1030C40002F5006223F4FE6313607B6818687B6872
:1030D4001B69D9B27B6803F571731A4602F036FC9A
:1030E4007B681B685A697B681B6802F480525A61CA
:1030F4007B681B68184602F05AFB034603F400532E
:10310400B3F5005F24D17B681B68184602F0EAFB24
:103114007B681B68184601F003FD03461A467B686A
:10312400DA607B681C6801F093F901467B68DB6810
:10313400DBB21A46204601F039FA786804F0C7FA7F
:103144007B681B685A697B681B6802F400525A61E9
:103154007B681B68184602F02AFB034603F0100341
:10316400102B61D17B681B689A697B681B6822F00D
:1031740010029A613B6A1B6A3B613B6903F00F02D0
:103184001346DB009B1A9B0003F5FC737A68134417
:103194000433FB603B695B0C03F00F03022B24D167
:1031A4003A6947F6F0731340002B35D0FB68D968B1
:1031B4003B691B099BB2C3F30A039BB21A46386AE4
:1031C40002F0A6F9FB68DA683B691B09C3F30A033A
:1031D4001A44FB68DA60FB689A693B691B09C3F30C
:1031E4000A031A44FB689A6116E03B695B0C03F01E
:1031F4000F03062B10D17B6803F57173082219465F
:10320400386A02F085F9FB689A693B691B09C3F3C4
:103214000A031A44FB689A617B681B689A697B6895
:103224001B6842F010029A617B681B68184602F022
:10323400BEFA034603F00803082B0AD1786804F0A9
:1032440038FA7B681B685A697B681B6802F00802BD
:103254005A617B681B68184602F0A9FA034603F416
:103264008013B3F5801F0FD100237B627B6ADBB22E
:103274001946786804F09AFA7B681B685A697B6877
:103284001B6802F480125A617B681B68184602F0BE
:103294008EFA034603F40013B3F5001F0FD1002385
:1032A4007B627B6ADBB21946786804F06DFA7B684E
:1032B4001B685A697B681B6802F400125A617B68B8
:1032C4001B68184602F073FA034603F08043B3F117
:1032D400804F0AD1786804F07BFA7B681B685A69CE
:1032E4007B681B6802F080425A617B681B68184641
:1032F40002F05DFA034603F00403042B15D17B6846
:103304001B685B683B613B6903F00403002B02D03C
:10331400786804F06BFA7B681B6859687B681B68E3
:103324003A690A435A6000E000BF3437BD4690BD95
:1033340080B582B000AF78600B46FB707B6893F871
:10334400BC33012B01D1022313E07B68012283F8F3
:10335400BC237B68FA7883F838207B681B68FA788A
:103364001146184602F0CEF97B68002283F8BC238C
:10337400002318460837BD4680BD80B584B000AF31
:103384007860084611461A460346FB700B463B809C
:103394001346BB700023FB7297F90330002B0FDA3E
:1033A400FB7803F00F021346DB009B1A9B003833B3
:1033B4007A6813440433FB60FB6801225A700FE0FF
:1033C400FB7803F00F021346DB009B1A9B0003F506
:1033D400FC737A6813440433FB60FB6800225A7060
:1033E400FB7803F00F03DAB2FB681A703A88FB68C3
:1033F4009A60FB68BA78DA70FB685B78002B04D0BB
:10340400FB681B789AB2FB68DA80BB78022B02D186
:10341400FB6800221A717B6893F8BC33012B01D13D
:1034240002230EE07B68012283F8BC237B681B68BF
:10343400F968184601F098FB7B68002283F8BC23E6
:10344400FB7A18461037BD4680BD80B584B000AF06
:1034540078600B46FB7097F90330002B0FDAFB788A
:1034640003F00F021346DB009B1A9B0038337A6883
:1034740013440433FB60FB6801225A700FE0FB78AD
:1034840003F00F021346DB009B1A9B0003F5FC7349
:103494007A6813440433FB60FB6800225A70FB789B
:1034A40003F00F03DAB2FB681A707B6893F8BC333D
:1034B400012B01D102230EE07B68012283F8BC2397
:1034C4007B681B68F968184601F0D4FB7B6800220E
:1034D40083F8BC23002318461037BD4680BD80B551
:1034E40086B000AFF8607A603B600B46FB72FB7AF3
:1034F40003F00F021346DB009B1A9B0003F5FC73D9
:10350400FA68134404337B617B697A68DA607B6907
:103514003A685A617B6900229A617B6900225A7079
:10352400FB7A03F00F03DAB27B691A70FB681B693C
:10353400012B02D17A687B691A61FB7A03F00F03CD
:10354400002B09D1FB681868FB681B69DBB21A46BB
:10355400796901F057FE08E0FB681868FB681B698D
:10356400DBB21A46796901F009FC002318461837C2
:10357400BD4680BD80B483B000AF78600B46FB705D
:10358400FB7803F00F0279681346DB009B1A9B005B
:103594000B4403F505731B6818460C37BD4680BC05
:1035A400704780B586B000AFF8607A603B600B4628
:1035B400FB72FB7A03F00F021346DB009B1A9B009D
:1035C4003833FA68134404337B617B697A68DA60C0
:1035D4007B693A685A617B6900229A617B6901229E
:1035E4005A70FB7A03F00F03DAB27B691A70FB6836
:1035F4001B69012B02D17A687B691A61FB7A03F09B
:103604000F03002B09D1FB681868FB681B69DBB248
:103614001A46796901F0F6FD08E0FB681868FB6852
:103624001B69DBB21A46796901F0A8FB002318462E
:103634001837BD4680BD80B584B000AF78600B46B6
:10364400FB70FB7803F00F027B685B689A4201D938
:10365400012350E097F90330002B0FDAFB7803F0D5
:103664000F021346DB009B1A9B0038337A6813441D
:103674000433FB60FB6801225A700DE0FA781346AC
:10368400DB009B1A9B0003F5FC737A681344043334
:10369400FB60FB6800225A70FB6801229A70FB7879
:1036A40003F00F03DAB2FB681A707B6893F8BC333B
:1036B400012B01D102231EE07B68012283F8BC2385
:1036C4007B681B68F968184601F04AFFFB7803F031
:1036D4000F03002B0AD17B6818687B681B69D9B279
:1036E4007B6803F571731A4602F030F97B68002297
:1036F40083F8BC23002318461037BD4680BD80B52F
:1037040084B000AF78600B46FB70FB7803F00F02C7
:103714007B685B689A4201D9012342E097F9033040
:10372400002B0FDAFB7803F00F021346DB009B1A21
:103734009B0038337A6813440433FB60FB6801222E
:103744005A700FE0FB7803F00F021346DB009B1A5C
:103754009B0003F5FC737A6813440433FB60FB6835
:1037640000225A70FB6800229A70FB7803F00F0362
:10377400DAB2FB681A707B6893F8BC33012B01D171
:1037840002230EE07B68012283F8BC237B681B685C
:10379400F968184601F051FF7B68002283F8BC23C6
:1037A400002318461037BD4680BD80B58AB002AFED
:1037B400786039607B681B687B617B693B613A6830
:1037C4001346DB009B1A9B0038337A681344043396
:1037D400FB60FB689A69FB685B699A4201D9012323
:1037E4006CE0FB685A69FB689B69D31AFB61FB6850
:1037F4009B68FA699A4202D9FB689B68FB61FB6982
:1038040003339B08BB612BE0FB685A69FB689B6927
:10381400D31AFB61FB689B68FA699A4202D9FB6878
:103824009B68FB61FB6903339B08BB61FB68D96838
:103834003B68DAB2FB6998B27B681B69DBB2009320
:103844000346786901F030FEFB68DA68FB691A44C4
:10385400FB68DA60FB689A69FB691A44FB689A6141
:103864003B685A013B69134403F510639B699BB29F
:10387400BA699A4209D8FB689A69FB685B699A42FB
:1038840003D2FB685B69002BBED1FB685A69FB68F5
:103894009B699A4211D83B6803F00F03012202FA94
:1038A40003F3BB603B6903F500635A6BBB68DB43FE
:1038B400396901F5006113404B6300231846203732
:1038C400BD4680BD80B586B000AF786039607B6846
:1038D4001B687B617B693B617B693C3304331B68F8
:1038E400FB603B685A013B69134403F530639B68F2
:1038F400BB607B681B69012B40F0B380BB6803F09D
:103904000803002B28D0FB68704A93420ED9BB6889
:1039140003F40043002B09D03B685A013B6913446C
:1039240003F530631A464FF400439360786803F05C
:1039340079FE7B6818687B6803F571731A46012168
:1039440002F004F83B685A013B69134403F5306301
:103954001A4608239360B3E0BB6803F02003002BEE
:1039640009D03B685A013B69134403F530631A4696
:1039740020239360A4E0BB6803F02803002B40F0ED
:103984009F80FB68514A93420FD9BB6803F40043FC
:10399400002B0AD03B685A013B69134403F530639A
:1039A4001A464FF4004393608AE079683A681346F4
:1039B400DB009B1A9B000B4403F501731A683B68F8
:1039C40059013B690B4403F530631B69C3F31203CC
:1039D400D11A78683A681346DB009B1A9B000344AB
:1039E40003F50573196079683A681346DB009B1A7E
:1039F4009B000B4403F50273196878683A68134610
:103A0400DB009B1A9B00034403F501731B681944F4
:103A140078683A681346DB009B1A9B00034403F55D
:103A2400027319603B68DBB21946786803F00CFE38
:103A34003B68002B44D179683A681346DB009B1A33
:103A44009B000B4403F504731B68002B38D17B687F
:103A540018687B6803F571731A46012101F076FF3B
:103A64002EE0FB681A4A934224D1BB6803F4004356
:103A7400002B0AD03B685A013B69134403F53063B9
:103A84001A464FF4004393601AE0BB6803F0200326
:103A9400002B08D03B685A013B69134403F530639B
:103AA4001A46202393603B68DBB21946786803F01A
:103AB400CBFD05E03B68DBB21946786803F0C4FD32
:103AC400002318461837BD4680BD00BF0A30544F46
:103AD4000A31544F80B586B000AF786039607B6896
:103AE4001B687B617B693B617B693C3304331B68E6
:103AF400FB603B685A013B69134403F530639B68E0
:103B0400BB607B681B69012B13D1FB681F4A93427E
:103B140022D9BB6803F40043002B1DD03B685A0133
:103B24003B69134403F530631A464FF40043936032
:103B340012E0FB68164A93420ED1BB6803F40043BB
:103B4400002B09D03B685A013B69134403F53063E9
:103B54001A464FF400439360786803F063FDFB68F2
:103B64000A4A93420CD97B681B69012B08D17B68F4
:103B740018687B6803F571731A46012101F0E6FEAB
:103B8400002318461837BD4680BD00BF0A30544F85
:103B94000A31544F80B485B000AF78600B46FB7097
:103BA40013463B807B681B685B6ABB60FB78002B19
:103BB40007D13B8819047B681B68BA680A439A6278
:103BC40028E07B681B689B6A1B0CBA681344BB60C3
:103BD4000023FB730DE07B681A68FB7B40339B007A
:103BE40013445B681B0CBA681344BB60FB7B013352
:103BF400FB73FA7BFB78013B9A42ECD33B881804B5
:103C04007B681968FB78013BBA68024340339B0028
:103C14000B445A60002318461437BD4680BC7047D5
:103C240080B483B000AF78600B467B807B681B68F0
:103C34007A885A62002318460C37BD4680BC704708
:103C440080B590B000AF78607B68002B01D1012370
:103C540053E27B681B6803F00103002B50D0A34B95
:103C64009B6803F00C03042B0CD0A04B9B6803F05F
:103C74000C03082B12D19D4B5B6803F48003B3F54E
:103C8400800F0BD1994B1B6803F40033002B36D003
:103C94007B685B68002B32D101232EE27B685A6873
:103CA400934BD2B21A707B685B68002B13D0FDF77C
:103CB4001BFAB86308E0FDF717FA0246BB6BD31A88
:103CC400642B01D9032318E2884B1B6803F40033E7
:103CD400002BF0D014E0FDF707FAB86308E0FDF715
:103CE40003FA0246BB6BD31A642B01D9032304E203
:103CF4007E4B1B6803F40033002BF0D100E000BFBF
:103D04007B681B6803F00203002B77D0774B9B681A
:103D140003F00C03002B0BD0744B9B6803F00C03D3
:103D2400082B26D1714B5B6803F48003002B20D150
:103D34006E4B1B6803F00203002B05D07B68DB6825
:103D4400012B01D00123D8E1684B1B6823F0F80252
:103D54007B681B69F8213963396B91FAA1F1F96227
:103D6400F96AB1FA81F1C9B28B40604913430B601F
:103D740044E07B68DB68002B2AD05E4B01221A608A
:103D8400FDF7B2F9B86308E0FDF7AEF90246BB6B84
:103D9400D31A022B01D90323AFE1544B1B6803F060
:103DA4000203002BF0D0514B1B6823F0F8027B6810
:103DB4001B69F821B962B96A91FAA1F17962796A49
:103DC400B1FA81F1C9B28B40484913430B6015E045
:103DD400484B00221A60FDF787F9B86308E0FDF745
:103DE40083F90246BB6BD31A022B01D9032384E166
:103DF4003E4B1B6803F00203002BF0D17B681B6869
:103E040003F00803002B30D07B685B69002B16D0CD
:103E1400394B01221A60FDF767F9B86308E0FDF732
:103E240063F90246BB6BD31A022B01D9032364E165
:103E34002E4B5B6F03F00203002BF0D015E02E4BEA
:103E440000221A60FDF750F9B86308E0FDF74CF959
:103E54000246BB6BD31A022B01D903234DE1234B3A
:103E64005B6F03F00203002BF0D17B681B6803F047
:103E74000403002B00F08880002387F83F301B4B9D
:103E84001B6C03F08053002B10D10023BB60174B35
:103E94001B6C164A43F080531364144B1B6C03F0E1
:103EA4008053BB60BB68012387F83F30134B1B680A
:103EB400124A43F480731360104B1B6803F480733D
:103EC400002B23D10D4B1B680C4A43F48073136001
:103ED400FDF70AF9B86313E0FDF706F90246BB6B78
:103EE400D31A022B0CD9032307E100BF0038024088
:103EF4000238024000004742800E474200700040F2
:103F0400804B1B6803F48073002BE5D07B689A68B0
:103F14007D4BD2B21A707B689B68002B15D0FDF7DD
:103F2400E3F8B8630AE0FDF7DFF80246BB6BD31A87
:103F340041F28832934201D90323DEE0734B1B6FB5
:103F440003F00203002BEED014E0FDF7CDF8B863C4
:103F54000AE0FDF7C9F80246BB6BD31A41F2883276
:103F6400934201D90323C8E0684B1B6F03F002039B
:103F7400002BEED197F83F30012B05D1634B1B6C1E
:103F8400624A23F0805313647B689B69002B00F022
:103F9400B3805E4B9B6803F00C03082B7DD07B68D9
:103FA4009B69022B62D15A4B00221A60FDF79CF8E0
:103FB400B86308E0FDF798F80246BB6BD31A642B8C
:103FC40001D9032399E0514B1B6803F00073002BC4
:103FD400F0D17B68DA697B681B6A1A437B685B6A89
:103FE40047F6C0713961396991FAA1F1F960F9684C
:103FF400B1FA81F1C9B28B401A437B689B6A5B08B2
:10400400013B4FF44031B961B96991FAA1F1796189
:104014007969B1FA81F1C9B28B401A437B68DB6AD2
:104024004FF070613962396A91FAA1F1F961F96965
:10403400B1FA81F1C9B28B40344913434B60344B1C
:1040440001221A60FDF750F8B86308E0FDF74CF858
:104054000246BB6BD31A642B01D903234DE02B4BCF
:104064001B6803F00073002BF0D045E0284B0022BE
:104074001A60FDF739F8B86308E0FDF735F8024631
:10408400BB6BD31A642B01D9032336E01F4B1B6887
:1040940003F00073002BF0D12EE07B689B69012BA9
:1040A40001D1012329E0194B5B687B637B6B03F42B
:1040B40080027B68DB699A421CD17B6B03F03F0270
:1040C4007B681B6A9A4215D17B6B9B09C3F3080278
:1040D4007B685B6A9A420DD17B6B03F440327B6848
:1040E4009B6A9A4206D17B6B03F070627B68DB6A41
:1040F4009A4201D0012300E0002318464037BD4610
:1041040080BD00BF0070004070380240003802409B
:104114006000474280B586B000AF786039607B6844
:10412400002B01D10123D2E06B4B1B6803F00F037A
:104134003A689A420CD9684B3A68D2B21A70664B04
:104144001B6803F00F033A689A4201D00123BEE0D2
:104154007B681B6803F00203002B20D07B681B687C
:1041640003F00403002B05D05C4B9B685B4A43F4CB
:10417400E05393607B681B6803F00803002B05D0B1
:10418400564B9B68554A43F460439360534B9B687A
:1041940023F0F0027B689B68504913438B607B6873
:1041A4001B6803F00103002B40D07B685B68012B84
:1041B40007D14A4B1B6803F40033002B15D10123AC
:1041C40085E07B685B68022B07D1444B1B6803F0D6
:1041D4000073002B09D1012379E0404B1B6803F0E5
:1041E4000203002B01D1012371E03C4B9B6823F0B7
:1041F40003027B685B68394913438B60FCF774FFE7
:1042040078610AE0FCF770FF02467B69D31A41F239
:104214008832934201D9032359E0304B9B6803F061
:104224000C027B685B689B009A42EBD12A4B1B68AB
:1042340003F00F033A689A420CD2274B3A68D2B281
:104244001A70254B1B6803F00F033A689A4201D099
:1042540001233CE07B681B6803F00403002B08D0B7
:104264001E4B9B6823F4E0527B68DB681B491343B5
:104274008B607B681B6803F00803002B09D0174B85
:104284009B6823F460427B681B69DB00134913437A
:104294008B6000F02BF80146104B9B6803F0F00391
:1042A400F0223A613A6992FAA2F2FA60FA68B2FA32
:1042B40082F2D2B2D3400A4AD35C21FA03F3094A08
:1042C4001360094B1B681846FCF7CCFE0023184604
:1042D4001837BD4680BD00BF003C02400038024094
:1042E400B4850008080000200C000020F0B585B05B
:1042F40000AF00237B600023FB6000233B600023AE
:10430400BB60504B9B6803F00C03042B07D0082BB5
:1043140008D0002B40F08D804B4BBB608CE04B4BA6
:10432400BB6089E0474B5B6803F03F037B60454B10
:104334005B6803F48003002B23D0424B5B689B092A
:104344004FF0000440F2FF114FF0000203EA0105B0
:1043540004EA02063D4A02FB06F1002202FB05F2D2
:104364000A443A49A5FB0101531819467B684FF0EA
:1043740000041A462346FBF723FF03460C46FB6062
:1043840049E0304B5B689B094FF0000440F2FF1199
:104394004FF0000203EA010504EA02062946324608
:1043A4004FF000034FF00004540144EAD1644B0180
:1043B40019462246491B62EB06024FF000034FF0F8
:1043C4000004940144EA91648B015B1A64EB0204D7
:1043D4004FF000014FF00002E20042EA5372D900AC
:1043E4000B4614465B1944EB06044FF000014FF0F2
:1043F4000002A20242EA935299020B46144618465E
:1044040021467B684FF000041A462346FBF7D8FE8A
:1044140003460C46FB600B4B5B681B0C03F0030369
:1044240001335B003B60FA683B68B2FBF3F3BB60AB
:1044340002E0054BBB6000BFBB6818461437BD469D
:10444400F0BD00BF003802400024F40000366E01C5
:1044540080B400AF024B1B681846BD4680BC704751
:104464000800002080B582B000AFFFF7F1FF0146DD
:104474000B4B9B6803F4E0534FF4E0527A607A6884
:1044840092FAA2F23A603A68B2FA82F2D2B2D34015
:10449400044AD35C21FA03F318460837BD4680BDAD
:1044A40000380240C485000880B582B000AF78604F
:1044B4007B68002B01D101231CE07B685B79DBB2B4
:1044C400002B05D17B6800221A717868FCF7D0FCB8
:1044D4007B6802225A717B681B681A687B681B68B8
:1044E40042F004021A607B6801225A717B68002240
:1044F4009A60002318460837BD4680BD84B080B555
:1045040084B000AF786007F11C0080E80E003B6BBC
:10451400012B22D17B689B6B23F480327B689A63E6
:104524007B68DB6823F4840323F040037A68D36058
:104534007B68DB6823F440127B68DA60FB6C012B38
:1045440005D17B68DB6843F480127B68DA607868A5
:1045540001F058FA0346FB7310E07B68DB6843F014
:1045640040027B68DA60786801F04CFA0346FB731A
:104574007B689B6B43F480327B689A63BB6A012B34
:104584000BD17B689B6843F006027B689A607B686A
:104594009B6843F020027B689A60FB7B18461037C7
:1045A400BD46BDE8804004B07047000080B487B0C9
:1045B40000AFF860B9601346FB71FB79022B65D13B
:1045C400BB68414A934206D9BB68404A934202D829
:1045D4000F237B6162E0BB683C4A934206D9BB6807
:1045E4003B4A934202D80E237B6157E0BB68384AAA
:1045F400934206D9BB68374A934202D80D237B61A4
:104604004CE0BB68334A934206D9BB68324A9342B2
:1046140002D80C237B6141E0BB682F4A934206D940
:10462400BB682E4A934202D80B237B6136E0BB68F9
:104634002A4A934206D9BB68294A934202D80A23DC
:104644007B612BE0BB68264A934206D9BB68254AA6
:10465400934202D809237B6120E0BB68214A93423C
:1046640006D9BB68204A934202D808237B6115E02F
:10467400BB681D4A934206D9BB681C4A934202D8C0
:1046840007237B610AE006237B6107E0FB79002BAB
:1046940002D109237B6101E009237B61FB68DB68AC
:1046A40023F47052FB68DA60FB68DA687B699B026A
:1046B40003F470531A43FB68DA60002318461C376E
:1046C400BD4680BC704700BFBFACD800BFE1E4006A
:1046D400FF23F4007F7306019F491A01FF2C310167
:1046E4003FA44C01FF356E011FABA601FF47E80153
:1046F40080B483B000AF78607B689B6843F00102AC
:104704007B689A60002318460C37BD4680BC70470E
:1047140080B483B000AF78607B689B6823F00102AB
:104724007B689A60002318460C37BD4680BC7047EE
:1047340080B582B000AF78600B46FB707B68DB68A5
:1047440023F0C0427B68DA60FB78012B06D17B68DA
:10475400DB6843F000527B68DA600BE0FB78002BE7
:1047640006D17B68DB6843F080427B68DA6001E055
:10477400012303E03220FCF7C1FC0023184608376C
:10478400BD4680BD84B080B586B000AF786007F1C7
:10479400240080E80E000023FB757B68FB60002387
:1047A4003B6109E07A683B6940339B001344002273
:1047B4005A603B6901333B613B690E2BF2D9FB6CB8
:1047C400002B12D17B689B6B43F400127B689A63C5
:1047D4007B689B6B23F400227B689A637B689B6BEA
:1047E40023F480227B689A630BE07B689B6B23F441
:1047F40000127B689A637B689B6B43F400227B689E
:104804009A63FB6803F560631A4600231360FB6830
:1048140003F500631946FB6803F500631A460B6849
:104824001360BB6B012B0CD1FB6A002B04D100215C
:10483400786800F05DF908E00121786800F058F923
:1048440003E00321786800F053F91021786800F040
:104854000BF90346002B01D00123FB75786800F0A7
:1048640027F90346002B01D00123FB75FB6803F5F0
:1048740000631A4600231361FB6803F500631A46BC
:1048840000235361FB6803F500631A460023D361D8
:1048940000233B6143E03B695A01FB68134403F581
:1048A40010631B6803F00043B3F1004F18D13B6958
:1048B400002B0AD13B695A01FB68134403F51063CA
:1048C4001A464FF00063136013E03B695A01FB681A
:1048D400134403F510631A464FF09043136008E045
:1048E4003B695A01FB68134403F510631A4600231D
:1048F40013603B695A01FB68134403F510631A46BD
:10490400002313613B695A01FB68134403F51063E8
:104914001A464FF67F3393603B6901333B617B6AF0
:104924003A699A42B7D300233B6143E03B695A0199
:10493400FB68134403F530631B6803F00043B3F1D1
:10494400004F18D13B69002B0AD13B695A01FB681F
:10495400134403F530631A464FF00063136013E009
:104964003B695A01FB68134403F530631A464FF060
:104974009043136008E03B695A01FB68134403F554
:1049840030631A46002313603B695A01FB681344E1
:1049940003F530631A46002313613B695A01FB682F
:1049A400134403F530631A464FF67F3393603B6933
:1049B40001333B617B6A3A699A42B7D3FB6803F5DA
:1049C40000631B69FA6802F5006223F480731361C3
:1049D4003B6B012B11D1FB6803F500631A46204B96
:1049E4001363FB6803F500631B6BFA6802F500624E
:1049F40043F4803343F0030313637B6800229A611A
:104A04007B686FF080425A613B6B002B05D17B6859
:104A14009B6943F010027B689A617B689A69114B29
:104A240013437A689361FB6B002B05D07B689B6909
:104A340043F008027B689A61FB6C012B07D17B6809
:104A44009B6943F0804343F004037A689361FB7DE0
:104A540018461837BD46BDE8804004B0704700BF13
:104A64000001800000383C8080B485B000AF7860DD
:104A740039600023FB603B689B0143F020027B68A4
:104A84001A61FB680133FB60FB68084A934201D951
:104A9400032306E07B681B6903F02003202BF0D07E
:104AA400002318461437BD4680BC7047400D0300F0
:104AB40080B485B000AF78600023FB607B6810226F
:104AC4001A61FB680133FB60FB68084A934201D911
:104AD400032306E07B681B6903F01003102BF0D05E
:104AE400002318461437BD4680BC7047400D0300B0
:104AF40080B485B000AF78600B46FB707B68FB60C8
:104B0400FB6803F500631A68FB78F96801F5006136
:104B140013430B60002318461437BD4680BC70470E
:104B240080B487B000AF78607B683B613B6903F574
:104B340000639B6803F00603FB60FB68002B02D153
:104B44000023FB750AE0FB68022B02D0FB68062BEE
:104B540002D10223FB7501E00F23FB75FB7D184690
:104B64001C37BD4680BC704780B485B000AF786008
:104B740039607B68FB603B681B78BB603B685B7893
:104B8400012B3AD1FB6803F50063DA693B681B78B3
:104B940003F00F03012101FA03F39BB2F96801F555
:104BA40000611343CB61BB685A01FB68134403F5EE
:104BB40010631B6803F40043002B55D1BB685A01F2
:104BC400FB68134403F510631A683B689B68C3F3DE
:104BD4000A013B68DB789B041943BB689B050B43C4
:104BE4001343BA685101FA680A4402F5106243F0AB
:104BF400805343F40043136036E0FB6803F500631D
:104C0400DA693B681B7803F00F03012101FA03F30F
:104C14001B04F96801F500611343CB61BB685A01B9
:104C2400FB68134403F530631B6803F40043002B53
:104C34001AD1BB685A01FB68134403F530631A6840
:104C44003B689B68C3F30A013B68DB789B040B4316
:104C54001343BA685101FA680A4402F5306243F01A
:104C6400805343F400431360002318461437BD46B1
:104C740080BC704780B485B000AF786039607B68D1
:104C8400FB603B681B78BB603B685B78012B35D1CC
:104C9400FB6803F50063DA6B3B681B7803F00F03D2
:104CA400012101FA03F39BB2DB43F96801F50061CA
:104CB4001340CB63FB6803F50063DA693B681B7838
:104CC40003F00F03012101FA03F39BB2DB43F968FC
:104CD40001F500611340CB61BB685A01FB681344C2
:104CE40003F510631A68BB685901FB680B4403F5AC
:104CF400106319461F4B13400B6034E0FB6803F547
:104D04000063DA6B3B681B7803F00F03012101FA9F
:104D140003F31B04DB43F96801F500611340CB6323
:104D2400FB6803F50063DA693B681B7803F00F0343
:104D3400012101FA03F31B04DB43F96801F5006167
:104D44001340CB61BB685A01FB68134403F530631D
:104D54001A68BB685901FB680B4403F530631946B4
:104D6400054B13400B60002318461437BD4680BC26
:104D7400704700BF007833EC0078F3EF80B58AB059
:104D840002AFF860B9601346FB71FB68FB61BB6856
:104D94001B78BB61BB685B78012B40F05C81BB680E
:104DA4005B69002B32D1BB695A01FB69134403F5DB
:104DB40010631B69BA695101FA690A4402F5106269
:104DC40023F0FF5323F4C0131361BB695A01FB6939
:104DD400134403F510631B69BA695101FA690A4463
:104DE40002F5106243F400231361BB695A01FB69A5
:104DF400134403F510631B69BA695101FA690A4443
:104E040002F51062DB0CDB04136174E0BB695A0128
:104E1400FB69134403F510631B69BA695101FA690C
:104E24000A4402F51062DB0CDB041361BB695A010E
:104E3400FB69134403F510631B69BA695101FA69EC
:104E44000A4402F5106223F0FF5323F4C0131361E4
:104E5400BB695A01FB69134403F510631A69BB6803
:104E64005969BB689B680B44591EBB689B68B1FBBE
:104E7400F3F3D9049D4B0B40B9694801F969014426
:104E840001F5106113430B61BB695A01FB691344BB
:104E940003F510631A69BB685B69C3F31203B9694C
:104EA4004801F969014401F5106113430B61BB68C2
:104EB400DB78012B1FD1BB695A01FB69134403F54D
:104EC40010631B69BA695101FA690A4402F5106258
:104ED40023F0C0431361BB695A01FB69134403F512
:104EE40010631B69BA695101FA690A4402F5106238
:104EF40043F000531361FB79012B4BD1BB681B6951
:104F0400002B09D0BB695A01FB69134403F51063F4
:104F14001A46BB681B695361BB68DB78012B28D137
:104F2400FB6903F500639B6803F48073002B10D1C5
:104F3400BB695A01FB69134403F510631B68BA6922
:104F44005101FA690A4402F5106243F000531360F8
:104F54000FE0BB695A01FB69134403F510631B6836
:104F6400BA695101FA690A4402F5106243F08053A8
:104F74001360BB695A01FB69134403F510631B6892
:104F8400BA695101FA690A4402F5106243F0044314
:104F940013602FE1BB695A01FB69134403F51063E5
:104FA4001B68BA695101FA690A4402F5106243F0B8
:104FB40004431360BB68DB78012B15D0BB685B69C5
:104FC400002B00F01781FB6903F500635A6BBB6883
:104FD4001B7803F00F03012101FA03F3F96901F5CA
:104FE400006113434B6305E1FB6903F500639B68B0
:104FF40003F48073002B10D1BB695A01FB6913447D
:1050040003F510631B68BA695101FA690A4402F591
:10501400106243F0005313600FE0BB695A01FB694F
:10502400134403F510631B68BA695101FA690A4411
:1050340002F5106243F080531360BB68D968BB6803
:105044001A78BB685B6998B2FB7900930346F868E9
:1050540000F02AFACEE0BB695A01FB69134403F558
:1050640030631B69BA695101FA690A4402F5306276
:10507400DB0CDB041361BB695A01FB69134403F5C0
:1050840030631B69BA695101FA690A4402F5306256
:1050940023F0FF5323F4C0131361BB685B69002B37
:1050A40026D1BB695A01FB69134403F530631A69BD
:1050B400BB689B68C3F31203B9694801F9690144E9
:1050C40001F5306113430B61BB695A01FB69134459
:1050D40003F530631B69BA695101FA690A4402F5A0
:1050E400306243F40023136136E000BF0000F81F70
:1050F400BB685A69BB689B6813445A1EBB689B68AB
:10510400B2FBF3F3FB82BB695A01FB69134403F559
:1051140030631A69FB8AD904394B0B40B9694801D9
:10512400F969014401F5306113430B61BB695A010C
:10513400FB69134403F530631A69BB689B68F98AF9
:1051440001FB03F3C3F31203B9694801F96901448C
:1051540001F5306113430B61FB79012B0DD1BB6861
:10516400DB68002B09D0BB68D968BB695A01FB69AD
:10517400134403F530630A465A61BB68DB78012B9C
:1051840028D1FB6903F500639B6803F48073002B4B
:1051940010D1BB695A01FB69134403F530631B68E2
:1051A400BA695101FA690A4402F5306243F00053C6
:1051B40013600FE0BB695A01FB69134403F53063C4
:1051C4001B68BA695101FA690A4402F5306243F076
:1051D40080531360BB695A01FB69134403F53063C0
:1051E4001B68BA695101FA690A4402F5306243F056
:1051F40004431360002318462037BD4680BD00BF1A
:105204000000F81F80B487B000AFF860B96013469F
:10521400FB71FB687B61BB681B783B61BB685B7897
:10522400012B40F0CD80BB685B69002B32D13B6918
:105234005A017B69134403F510631B693A695101F0
:105244007A690A4402F5106223F0FF5323F4C01371
:1052540013613B695A017B69134403F510631B69AD
:105264003A6951017A690A4402F5106243F4002351
:1052740013613B695A017B69134403F510631B698D
:105284003A6951017A690A4402F51062DB0CDB04C5
:1052940013614EE03B695A017B69134403F51063C3
:1052A4001B693A6951017A690A4402F51062DB0C00
:1052B400DB0413613B695A017B69134403F51063F2
:1052C4001B693A6951017A690A4402F5106223F0B4
:1052D400FF5323F4C0131361BB685A69BB689B680E
:1052E4009A4203D9BB689A68BB685A613B695A0100
:1052F4007B69134403F510631B693A6951017A69A8
:105304000A4402F5106243F4002313613B695A0115
:105314007B69134403F510631A69BB685B69C3F3C3
:105324001203396948017969014401F51061134395
:105334000B61FB79012B1ED1BB681B69002B09D0C3
:105344003B695A017B69134403F510631A46BB6831
:105354001B6953613B695A017B69134403F510636C
:105364001B683A6951017A690A4402F5106243F0F4
:105374000443136092E03B695A017B69134403F5CB
:1053840010631B683A6951017A690A4402F5106294
:1053940043F004431360BB685B69002B7ED07B69D8
:1053A40003F500635A6BBB681B7803F00F030121FC
:1053B40001FA03F3796901F5006113434B636DE06E
:1053C4003B695A017B69134403F530631B693A69ED
:1053D40051017A690A4402F53062DB0CDB04136183
:1053E4003B695A017B69134403F530631B693A69CD
:1053F40051017A690A4402F5306223F0FF5323F421
:10540400C0131361BB685B69002B03D0BB689A6847
:10541400BB685A613B695A017B69134403F53063E5
:105424001B693A6951017A690A4402F5306243F40E
:10543400002313613B695A017B69134403F530630C
:105444001A69BB689B68C3F3120339694801796917
:10545400014401F5306113430B61FB79012B0DD13C
:10546400BB68DB68002B09D0BB68D9683B695A016B
:105474007B69134403F530630A465A613B695A0158
:105484007B69134403F530631B683A6951017A69F7
:105494000A4402F5306243F00443136000231846C3
:1054A4001C37BD4680BC704780B489B000AFF8603B
:1054B400B96011461A460B46FB711346BB80FB6864
:1054C4007B61BB68FB6197F82830002B1AD1BB883D
:1054D40003339B083B610023BB610FE0FB791A0394
:1054E4007B69134403F580531A46FB691B681360F8
:1054F400FB690433FB61BB690133BB61BA693B6976
:105504009A42EBD3002318462437BD4680BC70472B
:1055140080B489B000AFF860B9601346FB80FB68C3
:105524007B61BB68FB61FB8803339B083B61002301
:10553400BB610BE07B6903F580531A68FB691A6051
:10554400FB690433FB61BB690133BB61BA693B6925
:105554009A42EFD3FB6918462437BD4680BC704796
:1055640080B485B000AF786039607B68FB603B68CD
:105574001B78BB603B685B78012B2CD1BB685A015C
:10558400FB68134403F510631B68002B12DBBB6834
:10559400002B0FD0BB685A01FB68134403F510635A
:1055A4001B68BA685101FA680A4402F5106223F0D4
:1055B40080431360BB685A01FB68134403F510630E
:1055C4001B68BA685101FA680A4402F5106243F490
:1055D400001313602BE0BB685A01FB68134403F506
:1055E40030631B68002B12DBBB68002B0FD0BB6839
:1055F4005A01FB68134403F530631B68BA68510110
:10560400FA680A4402F5306223F080431360BB68F1
:105614005A01FB68134403F530631B68BA685101EF
:10562400FA680A4402F5306243F40013136000235D
:1056340018461437BD4680BC704780B485B000AFAF
:10564400786039607B68FB603B681B78BB603B68B3
:105654005B78012B28D1BB685A01FB68134403F51E
:1056640010631B68BA685101FA680A4402F51062B3
:1056740023F4001313603B68DB78032B03D03B68EF
:10568400DB78022B38D1BB685A01FB68134403F55D
:1056940010631B68BA685101FA680A4402F5106283
:1056A40043F08053136027E0BB685A01FB6813443E
:1056B40003F530631B68BA685101FA680A4402F5BD
:1056C400306223F4001313603B68DB78032B03D0B0
:1056D4003B68DB78022B0FD1BB685A01FB6813448B
:1056E40003F530631B68BA685101FA680A4402F58D
:1056F400306243F080531360002318461437BD46CC
:1057040080BC704780B485B000AF78600B46FB70F6
:105714007B68FB60FB6803F500631B68FA6802F5AD
:10572400006223F4FE631360FB6803F500631A68E8
:10573400FB781B0103F4FE63F96801F50061134370
:105744000B60002318461437BD4680BC704780B5F3
:1057540084B000AF78607B68FB60FB6803F500638E
:105764005B68FA6802F5006223F0020353600320C9
:10577400FBF7C4FC002318461037BD4680BD80B536
:1057840084B000AF78607B68FB60FB6803F500635E
:105794005B68FA6802F5006243F002035360032079
:1057A400FBF7ACFC002318461037BD4680BD80B41F
:1057B40085B000AF78607B685B69FB607B689B6940
:1057C400FA681340FB60FB6818461437BD4680BC7A
:1057D400704780B485B000AF78607B68FB60FB687D
:1057E40003F500639B69BB60FB6803F50063DB6939
:1057F400BA681340BB60BB681B0C18461437BD461F
:1058040080BC704780B485B000AF78607B68FB6073
:10581400FB6803F500639B69BB60FB6803F50063E9
:10582400DB69BA681340BB60BB689BB21846143787
:10583400BD4680BC704780B485B000AF78600B462D
:10584400FB707B68FB60FB785A01FB68134403F52B
:1058540030639B68BB60FB6803F500635B69BA68EF
:105864001340BB60BB6818461437BD4680BC704704
:1058740080B487B000AF78600B46FB707B687B61B7
:105884007B6903F500631B693B617B6903F5006376
:105894005B6BFB60FB7803F00F03FA6822FA03F3F7
:1058A400DB01DBB23A6913433B61FB785A017B6944
:1058B400134403F510639B683A691340BB60BB68EB
:1058C40018461C37BD4680BC704780B483B000AF17
:1058D40078607B685B6903F0010318460C37BD46AA
:1058E40080BC704780B485B000AF78607B68FB6093
:1058F400FB6803F510631B68FA6802F5106223F471
:10590400FF6323F007031360FB6803F500639B68E0
:1059140003F00603042B09D1FB6803F510631B682D
:10592400FA6802F5106243F003031360FB6803F5A1
:1059340000635B68FA6802F5006243F480735360A5
:10594400002318461437BD4680BC704780B487B026
:1059540000AFF8600B467A60FB72FB687B61FB6802
:105964003C3304331B683B613B69254A93420AD9A3
:105974007B6903F530631B6803F00043B3F1004F08
:1059840001D1002337E07B6903F530631A46002315
:1059940013617B6903F530631B697A6902F5306230
:1059A40043F4002313617B6903F530631B697A694F
:1059B40002F5306243F0180313617B6903F5306329
:1059C4001B697A6902F5306243F0C0431361FB7AC4
:1059D400012B0FD17B6903F530631A467B68536151
:1059E4007B6903F530631B687A6902F5306243F022
:1059F40080231360002318461C37BD4680BC7047C3
:105A04000A30544F80B485B000AF78600023FB6047
:105A1400FB680133FB60FB68124A934201D90323FC
:105A24001BE07B681B69002BF2DA0023FB607B68B8
:105A34001B6943F001027B681A61FB680133FB6058
:105A4400FB68084A934201D9032306E07B681B697B
:105A540003F00103012BF0D0002318461437BD4690
:105A640080BC7047400D030080B584B000AF7860FF
:105A74000B46FB700023FB737B681B7C002B15D14A
:105A84004FF4007302228121786801F022FF7B68C1
:105A94000122DA624FF4007302220121786801F0D6
:105AA40018FF7B680122C3F86C2112E04023022214
:105AB4008121786801F00DFF7B680122DA624023BE
:105AC40002220121786801F004FF7B680122C3F8F7
