:020000040800F2
:1000000000000220B53B0008013A00080D3A000844
:10001000133A0008193A00081F3A000800000000CF
:10002000000000000000000000000000253A000869
:10003000313A0008000000003D3A0008493A000843
:10004000053C0008053C0008053C0008053C00088C
:10005000053C0008053C0008053C0008053C00087C
:10006000053C0008053C0008053C0008053C00086C
:10007000053C0008053C0008053C0008053C00085C
:10008000053C0008053C0008053C0008053C00084C
:10009000053C0008053C0008053C0008553A0008EE
:1000A000053C0008053C0008053C0008053C00082C
:1000B000053C0008053C0008053C0008053C00081C
:1000C000053C0008053C0008053C0008053C00080C
:1000D000053C0008053C0008053C0008053C0008FC
:1000E000053C0008053C0008053C0008053C0008EC
:1000F000053C0008053C0008053C0008053C0008DC
:10010000053C0008053C0008053C0008053C0008CB
:10011000053C0008053C00086D3A0008053C000855
:10012000053C0008053C0008053C0008053C0008AB
:10013000053C00080000000000000000053C00082D
:10014000053C0008053C0008053C0008ED3A0008A5
:10015000053C0008053C0008053C0008053C00087B
:10016000053C0008053C0008053C0008053C00086B
:10017000053C0008053C000800000000053C0008A4
:04018000053C000832
:1001840010B5054C237833B9044B13B10448AFF3CD
:1001940000800123237010BD080B00200000000024
:1001A4000CB6000808B5034B1BB103490348AFF371
:1001B400008008BD000000000C0B00200CB60008F5
:1001C40053B94AB9002908BF00281CBF4FF0FF31BA
:1001D4004FF0FF3000F074B9ADF1080C6DE904CEB6
:1001E40000F006F8DDF804E0DDE9022304B070470E
:1001F4002DE9F0478C460446089E002B4BD18A42D9
:10020400154667D9B2FA82F24AB1C2F1200701FA5F
:1002140002F320FA07F7954047EA030C94404FEAAB
:10022400154EBCFBFEF71FFA85F80EFB17C307FB40
:1002340008F9210C41EA0343994509D9EB1807F160
:10024400FF3180F01C81994540F21981023F2B4413
:10025400A3EB0903B3FBFEF00EFB103300FB08F124
:10026400A4B244EA0344A14209D92C1900F1FF3392
:1002740080F00781A14240F2048102382C4440EA14
:1002840007400027641A1EB10023D440C6E9004386
:100294003946BDE8F0878B4209D9002E00F0EC8086
:1002A4000027C6E9000138463946BDE8F087B3FAAD
:1002B40083F7002F48D18B4202D3824200F2FB80A5
:1002C400841A61EB030301209C46002EE0D0C6E9AA
:1002D400004CDDE702B9FFDEB2FA82F2002A40F0F8
:1002E4008F800127491B4FEA15481FFA85F9B1FB96
:1002F400F8FE08FB1E1109FB0EF04FEA144C4CEA01
:100304000143984207D9EB180EF1FF3102D298420B
:1003140000F2CD808E461B1AB3FBF8F008FB1033B5
:1003240009FB00F9A4B244EA0344A14507D92C19F6
:1003340000F1FF3302D2A14500F2B6801846A4EBC7
:10034400090440EA0E409EE7C7F12005BB4022FAAB
:1003540005FC4CEA030C21FA05F44FEA1C4EB4FBED
:10036400FEF91FFA8CF80EFB194420FA05F3B94084
:1003740009FB08FA19430B0C43EA0444A24502FAA8
:1003840007F200FA07F30BD91CEB040409F1FF3060
:1003940080F08880A24540F28580A9F10209644476
:1003A400A4EB0A04B4FBFEF00EFB104400FB08FAB5
:1003B40089B241EA0444A24508D91CEB040400F1C3
:1003C400FF316BD2A24569D90238644440EA09403E
:1003D400A0FB0289A4EB0A044C454146CE4654D303
:1003E40051D0002E69D05A1A64EB0E0404FA05F5B4
:1003F40022FA07F3FC401D43C6E90054002747E7EF
:100404009540C2F1200321FA03F04FEA1548B0FBEE
:10041400F8F71FFA85F908FB170024FA03F3914053
:1004240007FB09FC0B43190C41EA00418C4504FA13
:1004340002F407D9691807F1FF3031D28C452FD95E
:10044400023F2944A1EB0C01B1FBF8F008FB101C9E
:1004540000FB09FE99B241EA0C418E4507D969189F
:1004640000F1FF3318D28E4516D902382944A1EB86
:100474000E0140EA07473AE73746304608E70F4699
:10048400E6E61846FBE64345ABD2B8EB020169EB5E
:100494000C0201389646A4E71846E8E7084695E7B3
:1004A4000746CFE781467BE702382C4447E7AEF1A5
:1004B400020E2B442FE7384607E73746E8E600BF2D
:1004C400704700BF80B500AF002002F0D9FE0221C2
:1004D400022003F03BF80A4A012306CA094803F044
:1004E4000FF80C21022003F031F8054A012306CA53
:1004F400054803F005F802F0E5FE00BF80BD00BF2B
:100504004801002024B6000834B6000880B500AFC6
:1005140001220349002001F0D5FD00BF80BD00BFCA
:10052400740F002080B500AF01220349002001F0C0
:1005340003FE00BF80BD00BF740F002080B500AF74
:1005440001220349012001F0BDFD00BF80BD00BFB1
:100554002411002080B500AF01220349012001F0DD
:10056400EBFD00BF80BD00BF2411002080B500AFAB
:1005740006220349022001F0A5FD00BF80BD00BF93
:100584004C0F002080B500AF06220349022001F081
:10059400D3FD00BF80BD00BF4C0F002080B500AF6D
:1005A40001220349082001F08DFD00BF80BD00BF7A
:1005B400BC0F002080B500AF01220349082001F0E0
:1005C400BBFD00BF80BD00BFBC0F002080B500AFE5
:1005D40001220349092001F075FD00BF80BD00BF61
:1005E400AC10002080B500AF01220349092001F0BE
:1005F400A3FD00BF80BD00BFAC10002080B500AFDC
:10060400012203490A2001F05DFD00BF80BD00BF47
:10061400880F002080B500AF012203490A2001F0B1
:100624008BFD00BF80BD00BF880F002080B500AFE8
:10063400012203490B2001F045FD00BF80BD00BF2E
:10064400B010002080B500AF012203490B2001F057
:1006540073FD00BF80BD00BFB010002080B500AFA7
:10066400324B00221A60324B00221A60314B0022B6
:100674001A60314B00221A60304B00221A70304B42
:1006840000221A602F4B00221A602F4B00221A609E
:100694002E4B00221A602E4B00221A602D4B002292
:1006A4001A602D4B00221A602C4B00221A602C4B2E
:1006B40000221A602B4B00221A602B4B00221A6076
:1006C4002A4B00221A602A4B00221A60294B00226E
:1006D4001A60294B00221A60284B00221A70284BFA
:1006E40000221A70274B00221A70274B00221A602E
:1006F400FFF718FFFFF72EFFFFF744FFFFF75AFF3E
:10070400FFF770FF0D4B1A78204B5A70FFF79AFFD2
:10071400FFF750FF18221E494FF4407001F00CFD02
:10072400FFF778FF02F06EFC00BF80BD740F00205D
:100734002411002018110020C0100020AC1000204B
:10074400FC0F00200410002070110020BC100020B9
:100754000010002068110020A81000202C11002097
:10076400F80F0020700F00206C0F0020C410002030
:10077400D80F0020840F0020B4100020B8100020EF
:10078400D0100020A4100020880F00201C1100208D
:100794000011002080B582B002AF002002F070FD8D
:1007A4000A4B0093102320221821102002F0E6FEA9
:1007B400074B0093102320221821502002F0DEFE64
:1007C40002F080FD00BFBD4680BD00BF4800002090
:1007D4008800002080B500AF204B00221A60204B17
:1007E40001221A601F4BFF221A70002002F048FDFC
:1007F4000521022002F0AAFE1B4A012306CA1B4857
:1008040002F07EFE0F21022002F0A0FE164A012310
:1008140006CA174802F074FE1921022002F096FE5F
:10082400114A012306CA134802F06AFE232102205A
:1008340002F08CFE0C4A012306CA0F4802F060FE47
:100844002D21022002F082FE074A012306CA0B482A
:1008540002F056FE02F036FD00BF80BDFC0F002002
:100864000410002020100020480100203CB600089D
:1008740060B6000874B60008A0B60008B4B6000854
:1008840080B582B000AF224B93F90030DBB2013364
:10089400DBB25AB21E4B1A701D4B93F900300B2B6E
:1008A4002ADC002002F0ECFC0A21282002F04EFE93
:1008B400184B7B60184A012306CA786802F020FEB0
:1008C400134B93F90030581C134A012306CA02F053
:1008D400B9FE1921192002F039FE0D4B93F90030AD
:1008E4001A460E4B53F822000D4A012306CA02F0A1
:1008F40007FE02F0E7FC07E00A4B00221A600A4BED
:1009040001221A6000F012F800BF0837BD4680BD0E
:1009140020100020C4B60008480100208C0F0020DD
:1009240050010020041000207011002080B582B016
:1009340002AF194BFF221A70002002F0A1FC0A2119
:100944000F2002F003FE154A012306CA144802F0E0
:10095400D7FD14212D2002F0F9FD104A012306CA07
:10096400104802F0CDFD104B0093082308223621D5
:10097400022002F003FE0D4B0093082308223621C7
:10098400782002F0FBFD02F09DFC0F210C2002F008
:100994007FFB00BFBD4680BD201000204801002021
:1009A400CCB60008DCB600080800002010000020C7
:1009B40080B584B002AF2D4B93F90030DBB2013324
:1009C400DBB25AB2294B1A70284B93F90030032B2F
:1009D40042DC002002F054FC0A21282002F0B6FD7B
:1009E400234B7B60234A012306CA786802F088FD02
:1009F4001E4B93F900301A461F4B33F81230184639
:100A04001C4A012306CA02F01DFE1921192002F016
:100A14009DFD164B93F900301A46174B33F81230EC
:100A24001A46164B53F82200154A012306CA02F04F
:100A340067FD144B0093082308223621022002F09C
:100A44009DFD114B0093082308223621782002F0E3
:100A540095FD02F037FC04E00C4B00221A6000F014
:100A64000FF900BF0837BD4680BD00BF201000202D
:100A7400C4B6000848010020DC0F00208C0F0020C1
:100A840050010020080000201000002070110020F8
:100A940080B500AF0F4B01221A60FFF737FDFFF757
:100AA4004DFDFFF763FDFFF779FD0B4B00221A7034
:100AB400094B1A78094B5A70FFF788FDFFF732FD8E
:100AC400FFF748FDFFF75EFDFFF774FDFFF78AFDB2
:100AD40000BF80BD740F0020AC1000201C1100204A
:100AE40080B500AF294B00221A60294B00221A60FE
:100AF400284B00221A60284B00221A60274B002240
:100B04001A70274B00221A60264B00221A60264BCB
:100B140000221A60254B00221A60254B00221A601D
:100B2400244B00221A60244B00221A60234B00221B
:100B34001A60234B00221A60224B00221A60224BB7
:100B440000221A60214B00221A60214B00221A60F5
:100B5400204B00221A60204B00221A601F4B0022F7
:100B64001A701F4B00221A701E4B00221A701E4B63
:100B740000221A60FFF7CAFCFFF7E0FCFFF7F6FC5F
:100B8400FFF70CFDFFF722FD00BF80BD740F0020AE
:100B94002411002018110020C0100020AC100020E7
:100BA400FC0F00200410002070110020BC10002055
:100BB4000010002068110020A81000202C11002033
:100BC400F80F0020700F00206C0F0020C4100020CC
:100BD400D80F0020840F0020B4100020B81000208B
:100BE400D0100020A4100020880F002080B500AF92
:100BF4001B4B00221A601B4B01221A601A4BFF2266
:100C04001A70002002F03CFB0A210A2002F09EFC2C
:100C1400164A012306CA164802F072FC14210A205F
:100C240002F094FC114A012306CA124802F068FC3F
:100C34001E210A2002F08AFC0C4A012306CA0E482F
:100C440002F05EFC32210A2002F080FC074A0123F4
:100C540006CA0A4802F054FC02F034FB00BF80BD0F
:100C6400FC0F0020BC1000202010002048010020B0
:100C7400E4B60008F4B6000808B7000818B700087E
:100C840080B582B002AF304B00221A702F4B002285
:100C94001A702F4B01221A60002002F0F1FA0A2187
:100CA400022002F053FC2B4A012306CA2A4802F010
:100CB40027FC2A4B00930823082232211C2002F02F
:100CC4005DFC264B00930823082232212C2002F0DD
:100CD40055FC224B00930823082232213C2002F0C9
:100CE4004DFC1E4B00930823082232214C2002F0B5
:100CF40045FC1A4B00930823082232215C2002F0A1
:100D04003DFC114B93F90030DBB21B01DBB21C3309
:100D1400DBB22821184602F019FC0C4B93F9003081
:100D240018460C4A012306CA02F08CFC0C4B0093B3
:100D34000823082232211C2002F020FC02F0C2FA0F
:100D440000BFBD4680BD00BF20100020EC10002075
:100D54006C0F00204801002028B70008180000206C
:100D64002000002080B582B002AF384B93F9001008
:100D7400374B93F900301A46C9B2364B9954344B69
:100D840093F90030032B55DC334B009308230822DE
:100D940032211C2002F0F2FB2F4B0093082308227F
:100DA40032212C2002F0EAFB2B4B0093082308226B
:100DB40032213C2002F0E2FB274B00930823082257
:100DC40032214C2002F0DAFB234B00930823082243
:100DD40032215C2002F0D2FB1D4B93F90030DBB2D0
:100DE4000133DBB25AB21A4B1A70194B93F9003023
:100DF400DBB21B01DBB21C33DBB22821184602F044
:100E0400A5FB124B93F900301846144A012306CA75
:100E140002F018FC0E4B93F900301B0103F11C0087
:100E24000F4B009308230822322102F0A7FB02F0A3
:100E340049FA07E00B4B01221A600B4B00221A609F
:100E440000F078F800BFBD4680BD00BFEC10002064
:100E5400201000204C0F0020180000204801002022
:100E640020000020C41000206C0F002080B500AFCB
:100E7400144B93F90030DBB20133DBB25AB2114B9D
:100E84001A70104B93F90030092B02DD0D4B002230
:100E94001A700D4B93F90030DBB21B01DBB21C332B
:100EA400DBB22821184602F051FB064B93F90030BF
:100EB4001846064A012306CA02F0C4FB02F002FAED
:100EC40000BF80BDEC10002020100020480100204D
:100ED40080B500AF144B93F90030DBB2013BDBB2B9
:100EE4005AB2114B1A70104B93F90030002B02DAEE
:100EF4000D4B09221A700D4B93F90030DBB21B0124
:100F0400DBB21C33DBB22821184602F01FFB064B70
:100F140093F900301846064A012306CA02F092FBF0
:100F240002F0D0F900BF80BDEC100020201000209A
:100F34004801002080B582B002AF324B00221A7003
:100F4400314B00221A70314B01221A60002002F04A
:100F540097F90A21022002F0F9FA2D4A012306CA60
:100F64002C4802F0CDFA2C4B00930823082232219E
:100F74001C2002F003FB284B009308230822322193
:100F84002C2002F0FBFA244B009308230822322180
:100F94003C2002F0F3FA204B00930823082232216C
:100FA4004C2002F0EBFA1C4B009308230822322158
:100FB4005C2002F0E3FA134B93F90030DBB21B011F
:100FC400DBB21C33DBB22821184602F0BFFA0E4B09
:100FD40093F9003018460E4A012306CA02F032FB88
:100FE400084B93F900301B0103F11C000B4B0093D9
:100FF40008230822322102F0C1FA02F063F900BF8B
:10100400BD4680BD20100020EC100020C41000203C
:101014004801002044B700081800002020000020E8
:1010240080B582B002AF8B4B93F900108A4B93F9D1
:1010340000301A46C9B2894B9954874B93F9003052
:10104400032B55DC864B00930823082232211C20F5
:1010540002F094FA824B00930823082232212C20B8
:1010640002F08CFA7E4B00930823082232213C20A4
:1010740002F084FA7A4B00930823082232214C2090
:1010840002F07CFA764B00930823082232215C207C
:1010940002F074FA704B93F90030DBB20133DBB227
:1010A4005AB26D4B1A706C4B93F90030DBB21B01D2
:1010B400DBB21C33DBB22821184602F047FA654B39
:1010C40093F900301846674A012306CA02F0BAFAB7
:1010D400614B93F900301B0103F11C00624B009338
:1010E40008230822322102F049FA02F0EBF8AEE0BC
:1010F4005E4B1B68002B4AD1584B1A785C4B1B780B
:101104009A421DD1554B5A78594B5B789A4217D164
:10111400524B9A78564B9B789A4211D14F4BDA78BE
:10112400534BDB789A420BD14C4B1A79504B1B79B9
:101134009A4205D14F4B00221A6000F0A5F886E0D0
:101144004D4B01221A604B4B00221A60484B00227F
:101154001A70474B00225A70454B00229A70444B38
:101164000022DA70424B00221A713C4B00221A70A2
:101174003A4B00225A70394B00229A70374B0022A6
:10118400DA70364B00221A71FFF77AFD5FE03B4BB1
:101194001B68012B31D1314B1A78354B1B789A429D
:1011A40025D12E4B5A78324B5B789A421FD12B4B68
:1011B4009A782F4B9B789A4219D1284BDA782C4B8A
:1011C400DB789A4213D1254B1A79294B1B799A4221
:1011D4000DD1FFF7CBF9274B00221A60284B0122CF
:1011E4001A60264B00221A6000F00AFB2FE0214B04
:1011F40000221A60FFF744FD29E0184B1A781C4BB3
:101204001B789A4220D1154B5A78194B5B789A4235
:101214001AD1124B9A78164B9B789A4214D10F4BE1
:10122400DA78134BDB789A420ED10C4B1A79104BB7
:101234001B799A4208D10F4B00221A60114B0122EC
:101244001A6000F0F5F902E0FFF774FEFFE700BF53
:10125400BD4680BDEC10002020100020301100207D
:10126400180000204801002020000020B4100020B5
:101274004C0F0020C41000206C0F00202811002007
:10128400181100206811002080B582B002AF354BE0
:1012940001221A60344B00221A70002001F0F0FF82
:1012A4000A21022002F052F9304A012306CA3048CA
:1012B40002F026F92F4B0093082310221E21382018
:1012C40002F05CF92C4B00930823102232213820C1
:1012D40002F054F9244B93F90030032B3ED801A2B9
:1012E40052F823F0F9120008131300082D13000814
:1012F4004713000827210A2002F028F91B4A01237A
:1013040006CA1E4802F0FCF801F0DCFF26E02721A3
:101314000A2002F01BF9154A012306CA184802F0F4
:10132400EFF801F0CFFF19E027210A2002F00EF9AF
:101334000E4A012306CA134802F0E2F801F0C2FF84
:101344000CE027210A2002F001F9084A012306CA09
:101354000D4802F0D5F801F0B5FF00BF00BFBD464F
:1013640080BD00BFD80F00202010002048010020BD
:1013740054B70008280000203800002068B700088F
:101384007CB7000890B70008A4B7000880B500AF88
:10139400144B1B68012B13D1134B93F900301A46DD
:1013A400124B1A60FFF7CAF8114B00221A60114B56
:1013B40001221A600B4B00221A6000F021FA0FE0A0
:1013C400094B93F900301A46084B1A60FFF760FB8B
:1013D400094B01221A60064B00221A6000F028F91A
:1013E40000BF80BDCC10002020100020241100205C
:1013F400D80F0020181100206811002080B500AF1C
:101404002B4B93F90030DBB20133DBB25AB2284BD9
:101414001A70274B93F90030032B02DD244B002272
:101424001A70234B93F90030032B3FD801A252F8D2
:1014340023F000BF49140008631400087D14000859
:101444009714000827210A2002F080F8194A012382
:1014540006CA194802F054F801F034FF26E02721A7
:101464000A2002F073F8134A012306CA134802F053
:1014740047F801F027FF19E027210A2002F066F857
:101484000C4A012306CA0E4802F03AF801F01AFF8A
:101494000CE027210A2002F059F8064A012306CA63
:1014A400084802F02DF801F00DFF00BF00BF80BD19
:1014B400201000204801002068B700087CB700080D
:1014C40090B70008A4B7000880B500AF2B4B93F980
:1014D4000030DBB2013BDBB25AB2284B1A70274B07
:1014E40093F90030002B02DA244B03221A70234BA9
:1014F40093F90030032B3FD801A252F823F000BF28
:10150400151500082F150008491500086315000873
:1015140027210A2002F01AF8194A012306CA194899
:1015240001F0EEFF01F0CEFE26E027210A2002F0B2
:101534000DF8134A012306CA134801F0E1FF01F034
:10154400C1FE19E027210A2002F000F80C4A012309
:1015540006CA0E4801F0D4FF01F0B4FE0CE02721C6
:101564000A2001F0F3FF064A012306CA084801F0E5
:10157400C7FF01F0A7FE00BF00BF80BD2010002000
:101584004801002068B700087CB7000890B700083D
:10159400A4B7000880B592B000AF05211F4809F038
:1015A400FBFA0023A7F8463026E01D4B7B6007F1C9
:1015B40008033C220021184609F065FFB7F84630BD
:1015C4009B019AB2174B1B689BB213449BB2391D03
:1015D4004022184600F0B0FD0A2002F081FB3B1DBA
:1015E4004021184609F0D8FA0A2002F079FBB7F82E
:1015F40046300133A7F846300B4B5B789BB2B7F803
:1016040046209A42D1D30A2002F06AFB03210748FC
:1016140009F0C2FA00BF4837BD4680BDB8B700081C
:1016240061626300040000201C110020C0B70008A0
:10163400B0B594B000AF6B461D46344B4FF6FF7205
:101644001A80334B5B78581C431EBB64034619460F
:101654004FF000024FF000034FF00004D40244EABC
:101664005154CB02034619464FF000024FF00003D9
:101674004FF00004D40244EA5154CB0203461B0247
:1016840003330733DB08DB00ADEB030D6B46033399
:101694009B089B007B640023A7F84E3025E00023C1
:1016A4007B6007F108033C220021184609F0EBFE99
:1016B400B7F84E309B019AB2164B1B689BB2134489
:1016C4009BB2391D4022184600F036FDB7F84E3063
:1016D4001B027A6C1A443B1D1146184600F096FC16
:1016E400B7F84E300133A7F84E30094B5B789BB204
:1016F400B7F84E209A42D2D3044A7B6C536000F070
:101704000BF8AD4600BF5037BD46B0BD780F002082
:101714001C1100200400002080B582B002AF244BCD
:10172400B3F90030B3F1FF3F09DA214BB3F90030CC
:101734009BB201339BB21AB21D4B1A8034E01C4B8E
:10174400B3F900301A461B4B5B78013B9A4209DD22
:10175400174BB3F900309BB2013B9BB21AB2144B46
:101764001A8021E0124BB3F90030B3F1FF3F0AD0E5
:101774000F4B5A680E4BB3F900301B021344184642
:1017840000F06EFC10E0002001F07AFD1421282006
:1017940001F0DCFE084B0093202320221821302086
:1017A40001F0ECFE01F08EFD00BFBD4680BD00BF20
:1017B400780F00201C110020C800002080B500AF65
:1017C4000D4BB3F90030B3F1FF3F05D10B4B0022B1
:1017D4001A6000F015F80CE0084B00221A60064B62
:1017E4005A68054BB3F900301B021344184600F045
:1017F4005DFA00BF80BD00BF780F00206811002093
:1018040080B582B002AF3C4B01221A603B4B0022F0
:101814001A70002001F034FD0521142001F096FE19
:10182400374A012306CA374801F06AFE364B009353
:10183400082310221E21382001F0A0FE334B009310
:10184400082310223221382001F098FE2B4B93F903
:101854000030042B4DD801A252F823F0751800086B
:101864008F180008A9180008C3180008DD1800081C
:1018740027210A2001F06AFE214A012306CA2448CE
:1018840001F03EFE01F01EFD33E027210A2001F0A5
:101894005DFE1B4A012306CA1E4801F031FE01F019
:1018A40011FD26E027210A2001F050FE144A0123ED
:1018B40006CA194801F024FE01F004FD19E02721AD
:1018C4000A2001F043FE0E4A012306CA134801F020
:1018D40017FE01F0F7FC0CE027210A2001F036FE88
:1018E400074A012306CA0E4801F00AFE01F0EAFC89
:1018F40000BF00BFBD4680BD18110020201000208D
:1019040048010020C4B70008280000203800002047
:10191400D0B70008E4B70008F8B700080CB800080E
:1019240020B8000880B500AF334B93F90030DBB228
:101934000133DBB25AB2304B1A702F4B93F900309B
:10194400042B02DD2C4B00221A702B4B93F9003030
:10195400042B4ED801A252F823F000BF75190008D9
:101964008F190008A9190008C3190008DD19000817
:1019740027210A2001F0EAFD204A012306CA204853
:1019840001F0BEFD01F09EFC33E027210A2001F0A6
:10199400DDFD1A4A012306CA1A4801F0B1FD01F01F
:1019A40091FC26E027210A2001F0D0FD134A0123EF
:1019B40006CA154801F0A4FD01F084FC19E02721B2
:1019C4000A2001F0C3FD0D4A012306CA0F4801F0A5
:1019D40097FD01F077FC0CE027210A2001F0B6FD09
:1019E400064A012306CA0A4801F08AFD01F06AFC8E
:1019F40000BF00BF80BD00BF2010002048010020B0
:101A0400D0B70008E4B70008F8B700080CB800081D
:101A140020B8000880B500AF334B93F90030DBB237
:101A2400013BDBB25AB2304B1A702F4B93F90030A2
:101A3400002B02DA2C4B04221A702B4B93F9003042
:101A4400042B4ED801A252F823F000BF651A0008F7
:101A54007F1A0008991A0008B31A0008CD1A000862
:101A640027210A2001F072FD204A012306CA2048DA
:101A740001F046FD01F026FC33E027210A2001F0A5
:101A840065FD1A4A012306CA1A4801F039FD01F01E
:101A940019FC26E027210A2001F058FD134A0123EE
:101AA40006CA154801F02CFD01F00CFC19E02721B1
:101AB4000A2001F04BFD0D4A012306CA0F4801F02C
:101AC4001FFD01F0FFFB0CE027210A2001F03EFD81
:101AD400064A012306CA0A4801F012FD01F0F2FB8E
:101AE40000BF00BF80BD00BF2010002048010020BF
:101AF400D0B70008E4B70008F8B700080CB800082D
:101B040034B8000880B500AF144B93F90030042BAF
:101B140021D801A252F823F0311B0008371B00081A
:101B24003D1B0008431B0008491B000800F076F821
:101B340011E000F019F80EE000F08AF80BE000F074
:101B440057F808E0064B00221A60064B01221A607F
:101B5400FFF7E2FD00BF00BF80BD00BF20100020E2
:101B6400181100206811002080B582B002AF194B13
:101B740000221A60184B01221A60002001F080FB39
:101B84000021022001F0E2FC144A012306CA144891
:101B940001F0B6FC0A21022001F0D8FC0F4A01230F
:101BA40006CA104801F0ACFC0F4B0093082308222E
:101BB4003621022001F0E2FC0C4B0093082308229A
:101BC4003621782001F0DAFC01F07CFB00BFBD4631
:101BD40080BD00BF181100206C11002048010020B6
:101BE40048B800085CB80008080000201000002075
:101BF40080B500AF074B01221A60074B01221A601F
:101C0400002001F03DFBFFF73FFB01F05BFB00BF51
:101C140080BD00BFD80F0020CC10002080B500AFDD
:101C2400084B00221A60084B01221A60074B01225C
:101C34001A60002001F024FBFFF722F801F042FBB8
:101C440000BF80BD181100206C0F00202811002057
:101C540080B500AF104B00221A60104B01221A60AD
:101C6400002001F00DFB0521022001F06FFC0C4A5D
:101C7400012306CA0B4801F043FC2821022001F08D
:101C840065FC074A012306CA074801F039FC01F044
:101C940019FB00BF80BD00BF18110020800F002079
:101CA400480100206CB8000878B8000880B584B0FA
:101CB40002AF78603F4B00221A603F4B01221A604A
:101CC4003E4B00221A70002001F0DAFA052114209C
:101CD40001F03CFC7B6803F18000394A012306CA09
:101CE40001F00EFC374B0093082310221E213820EC
:101CF40001F044FC344B0093082310223221382095
:101D040001F03CFC2D4B93F90030042B4DD801A27B
:101D140052F823F02D1D0008471D0008611D00081E
:101D24007B1D0008951D000827210A2001F00EFCE8
:101D3400234A012306CA254801F0E2FB01F0C2FA56
:101D440033E027210A2001F001FC1D4A012306CAC1
:101D54001F4801F0D5FB01F0B5FA26E027210A203F
:101D640001F0F4FB164A012306CA1A4801F0C8FB25
:101D740001F0A8FA19E027210A2001F0E7FB104A34
:101D8400012306CA144801F0BBFB01F09BFA0CE0E6
:101D940027210A2001F0DAFB094A012306CA0F4869
:101DA40001F0AEFB01F08EFA00BF00BF0837BD465C
:101DB40080BD00BF68110020C0100020EC1000207E
:101DC40048010020280000203800002090B80008B6
:101DD400A0B80008B4B80008C0B8000820B80008CB
:101DE40080B500AF334B93F90030DBB20133DBB283
:101DF4005AB2304B1A702F4B93F90030042B02DD8A
:101E04002C4B00221A702B4B93F90030042B4ED824
:101E140001A252F823F000BF311E00084B1E000837
:101E2400651E00087F1E0008991E000827210A204D
:101E340001F08CFB204A012306CA204801F060FB14
:101E440001F040FA33E027210A2001F07FFB1A4A0F
:101E5400012306CA1A4801F053FB01F033FA26E0C5
:101E640027210A2001F072FB134A012306CA1548F0
:101E740001F046FB01F026FA19E027210A2001F0BF
:101E840065FB0D4A012306CA0F4801F039FB01F036
:101E940019FA0CE027210A2001F058FB064A012315
:101EA40006CA0A4801F02CFB01F00CFA00BF00BF7F
:101EB40080BD00BFEC1000204801002090B800084D
:101EC400A0B80008B4B80008C0B8000820B80008DA
:101ED40080B500AF334B93F90030DBB2013BDBB28A
:101EE4005AB2304B1A702F4B93F90030002B02DAA0
:101EF4002C4B04221A702B4B93F90030042B4ED830
:101F040001A252F823F000BF211F00083B1F000864
:101F1400551F00086F1F0008891F000827210A2089
:101F240001F014FB204A012306CA204801F0E8FA14
:101F340001F0C8F933E027210A2001F007FB1A4A0F
:101F4400012306CA1A4801F0DBFA01F0BBF926E0C6
:101F540027210A2001F0FAFA134A012306CA154878
:101F640001F0CEFA01F0AEF919E027210A2001F0C0
:101F7400EDFA0D4A012306CA0F4801F0C1FA01F037
:101F8400A1F90CE027210A2001F0E0FA064A012316
:101F940006CA0A4801F0B4FA01F094F900BF00BF80
:101FA40080BD00BFEC1000204801002090B800085C
:101FB400A0B80008B4B80008C0B8000820B80008E9
:101FC40080B500AF0E4B93F90030042B16D801A254
:101FD40052F823F0FF1F0008FF1F0008FF1F00082E
:101FE400FF1F0008ED1F0008064B00221A60064B75
:101FF40001221A60FFF790FB00E000BF00BF80BD24
:10200400EC100020C01000206811002080B582B0C0
:1020140000AF786039603B6840227968184609F05F
:1020240027FA3B6803F140007B68103340221946CD
:1020340009F01EFA3B6803F180007B6820334022DC
:10204400194609F015FA3B6803F1C0007B68303388
:102054004022194609F00CFA00BF0837BD4680BD7E
:1020640080B582B000AF7860002001F009F9142136
:10207400282001F06BFA7B6803F18000104A0123E9
:1020840006CA01F03DFA1E21282001F05FFA7868A3
:102094000B4A012306CA01F033FA2821282001F053
:1020A40055FA7B6803F14000054A012306CA01F092
:1020B40027FA01F007F900BF0837BD4680BD00BF0D
:1020C4004801002080B588B004AF03463960FB8026
:1020D4001346BB80164B1B6899B2FA884FF0FF3346
:1020E4000293BB8801933B6800931023114802F0CC
:1020F400ABFD0F4B1B6899B24FF0FF3301220D4823
:1021040003F0C2F80346FB730AE0094B1B6899B25B
:102114004FF0FF330122074803F0B6F80346FB7380
:10212400FB7B002BF1D100BF1037BD4680BD00BF43
:1021340000000020B411002080B588B004AF03462D
:102144003960FB801346BB80164B1B6899B2FA8832
:102154004FF0FF330293BB8801933B680093102335
:10216400114802F06BFE0F4B1B6899B24FF0FF331E
:1021740001220D4803F088F80346FB730AE0094B7B
:102184001B6899B24FF0FF330122074803F07CF833
:102194000346FB73FB7B002BF1D100BF1037BD4618
:1021A40080BD00BF00000020B4110020B0B5C8B04D
:1021B40002AF01F027FD00F0B7FB00F0BFFC00F018
:1021C4000DFC00F031FC00F041FC00F06DFC00F06F
:1021D400F1FB08F00DFC00F07BFC00F0E5FF0120B2
:1021E40001F04EF801F06EF8002001F049F8FEF716
:1021F40035FA40F6B83001F073FDB44B07F1CC0466
:102204000FCB84E80F0007F1A40207F1CC010023EF
:1022140001934FF0FF33009313461022AC4802F0B1
:1022240043FA07F1CC0100231022A94802F00AFB6B
:1022340007F1A4034FF0FF321946A54802F082FBD0
:102244000023C7F8043120E0D7F80431DBB21A4682
:10225400920013449B00DBB20233DBB20021184628
:1022640001F074F9D7F804315B0007F58C7213445C
:1022740033F8743C1846974A012306CA01F040F922
:10228400D7F804310133C7F80431D7F80431042BEB
:10229400DADD0523C7F8083121E0D7F80831053B1A
:1022A400DBB21A46920013449B00DBB20233DBB26A
:1022B4000A21184601F04AF9D7F808315B0007F5FE
:1022C4008C72134433F8743C1846824A012306CABC
:1022D40001F016F9D7F808310133C7F80831D7F8F7
:1022E4000831092BD9DD0A23C7F80C3121E0D7F8CE
:1022F4000C310A3BDBB21A46920013449B00DBB25A
:102304000233DBB21421184601F020F9D7F80C315E
:102314005B0007F58C72134433F8743C18466D4A1D
:10232400012306CA01F0ECF8D7F80C310133C7F8E1
:102334000C31D7F80C310E2BD9DD0F23C7F810312F
:1023440021E0D7F810310F3BDBB21A469200134458
:102354009B00DBB20233DBB21E21184601F0F6F813
:10236400D7F810315B0007F58C72134433F8743CD2
:102374001846584A012306CA01F0C2F8D7F81031AA
:102384000133C7F81031D7F81031132BD9DD0A20E7
:1023940001F0A6FC07F1A4034021184608F0FCFB59
:1023A4000A2001F09DFC00F08DFF42F2107001F054
:1023B40097FC494B1B68002B02D1FEF783F82CE0F5
:1023C400464B1B68002B05D1454B01221A60FFF7D1
:1023D4002FF922E0414B1B68012B08D1414B01220C
:1023E4001A60414B01221A60FEF7A4FD15E03B4B35
:1023F4001B68022B05D13A4B01221A60FFF718F92A
:102404000BE0364B1B68032B07D1364B01221A60B5
:10241400354B01221A60FEF78DFD00237B6607F120
:1024240068033C220021184609F02DF84FF49670F9
:1024340001F056FC2D4B1B78002BF7D02B4B1B784F
:10244400502B40F00C812A4B1B68002B30D1022307
:10245400C7F814310EE0D7F81431023B2349D7F8FA
:1024640014210A441178234AD154D7F81431013382
:10247400C7F81431D7F814311A2BECD918221D4996
:102484004FF44070FFF71EFE1B4B01221A60FEF74B
:1024940085F8174B01221A60FEF7B0F8174B01229A
:1024A4001A60FEF777F90221154808F075FBD6E0AB
:1024B400144B1B68012B40F094800F4B1B68042BBA
:1024C40000F28A800223C7F800312CE0A4C8000877
:1024D4007411002048010020740F002024110020F2
:1024E40068110020C4100020B41000202410002023
:1024F400880F002000110020BC0F0020FC0F0020DA
:1025040074C80008B0100020D7F80031023BB64967
:10251400D7F800210A441178B44AD154D7F80031CD
:102524000133C7F80031D7F800311A2BECD9AF4A80
:10253400AF4B9A4246D0AD4AAE4B9A4242D0AB4AD8
:10254400AD4B9A423ED0A94AAC4B9A423AD0A74AE4
:10255400AB4B9A4236D0AB4B1B68012B06D11822E9
:10256400A4494FF44670FFF7ADFD1FE0A54B1B686F
:10257400022B06D11822A0494FF44C70FFF7A2FD9C
:1025840014E0A04B1B68032B06D118229B494FF47F
:102594005270FFF797FD09E09A4B1B68042B05D195
:1025A400182297494FF45870FFF78CFD954B1B6820
:1025B4000133944A1360FDF7F1FF0221924808F0B9
:1025C400EBFA03E01021914808F0E6FA904B002260
:1025D4001A60FEF72BF842E01B218E4808F0DCFA63
:1025E4003DE00223C7F8FC300EE0D7F8FC30023B94
:1025F4007D49D7F8FC200A4411787C4AD154D7F895
:10260400FC300133C7F8FC30D7F8FC301A2BECD976
:10261400764A774B9A420FD0744A764B9A420BD043
:10262400724A754B9A4207D0704A744B9A4203D04F
:102634006E4A734B9A4209D10221734808F0ACFAEE
:10264400754B01221A60FEF7A5F808E0724B0122CF
:102654001A60FEF79FF812216B4808F09DFA624B4E
:102664001B784E2B40F012813B1D00221A6004336C
:102674003C220021184608F006FF0023C7F8F83072
:102684000FE0D7F8F8301233574AD15C3A1DD7F827
:10269400F83013440A461A70D7F8F8300133C7F8F3
:1026A400F830D7F8F8300F2BEBD95C4B07F1540412
:1026B4000FCB84E80F001023C7F8F43012E0D7F8EA
:1026C400F430103B07F58C72134413F8C41C3A1D04
:1026D400D7F8F43013440A461A70D7F8F4300133AB
:1026E400C7F8F430D7F8F4301F2BE8D92023C7F803
:1026F400F0300FE0D7F8F0301E3B3B4AD15C3A1D76
:10270400D7F8F03013440A461A70D7F8F030013382
:10271400C7F8F030D7F8F0302F2BEBD9404B07F146
:1027240044040FCB84E80F003023C7F8EC3012E0E8
:10273400D7F8EC30303B07F58C72134413F8D41CF3
:102744003A1DD7F8EC3013440A461A70D7F8EC3027
:102754000133C7F8EC30D7F8EC303F2BE8D9314BD4
:102764001B7840339BB29B019BB2391D4022184613
:10277400FFF7A8FC2B4B1B780133DAB2294B1A70F4
:10278400FDF724FF274B1B78581C6B461D46431E40
:10279400C7F8E030034619464FF000024FF000033B
:1027A4004FF00004D40244EA5154CB0203461946C4
:1027B4004FF000024FF000034FF00004D40244EA4B
:1027C4005154CB0203461B0203330733DB08DB00FF
:1027D400ADEB030D02AB03339B089B00C7F8DC3061
:1027E4000023A7F8EA303CE024100020540F002016
:1027F4000011002050110020D4100020C00F002030
:1028040038110020BC0F002074C8000878C80008E4
:10281400B01000208CC80008FC0F0020B8C80008C5
:10282400CCC80008AC100020B7F8EA3040339BB2A3
:102834009B019BB207F1640140221846FFF77CFC20
:10284400B7F8EA301B02D7F8DC201A4407F1640316
:1028540011461846FFF7DAFBB7F8EA300133A7F858
:10286400EA302A4B1B789BB2B7F8EA209A42DBD3B2
:10287400274AD7F8DC305360244B1A78254B5A701A
:102884003B1D4021184608F087F9AD46224B1B78C2
:10289400492B0DD10221214808F07EF9204B1B68F9
:1028A400012B05D14FF4967001F01AFAFEF772FE6F
:1028B400194B1B78432B07D1FEF712F9FDF702FEE3
:1028C4000221164808F068F9134B1B78412B08D1F4
:1028D400144B01221A60FDF7A9FE02210F4808F0EB
:1028E4005BF90023C7F8E4300AE00B4AD7F8E43078
:1028F400134400221A70D7F8E4300133C7F8E430E7
:10290400D7F8E4307F2BF0D990E500BFAC1000205D
:10291400780F00201C1100202410002074C8000827
:10292400800F0020B010002080B592B000AF07F1F6
:10293400180330220021184608F0A5FD3B1D002293
:102944001A605A609A60DA601A610123BB6101233C
:10295400FB6102233B634FF480037B630C23BB6363
:10296400C023FB6304233B6408237B6407F118033F
:10297400184604F069FA0346002B01D000F0F6FB78
:102984000F237B600123BB600023FB6000233B61BA
:102994004FF480537B613B1D0021184604F0BEFCBC
:1029A4000346002B01D000F0E1FB00BF4837BD46D1
:1029B40080BD000080B500AF064B074A1A60054889
:1029C40001F0BDFA0346002B01D000F0CFFB00BF9D
:1029D40080BD00BF081200200030024080B500AF67
:1029E4000D4B0E4ADA600C4B0D4A1A600A4B00225A
:1029F4005A60094B0B4ADA60074B00225A61064BB6
:102A040000229A61044801F0B6FA0346002B01D073
:102A140000F0ACFB00BF80BD60120020E0C80008DD
:102A24000000065020E4000880B500AF064B1022D9
:102A34001A60054801F08CFC0346002B01D000F01D
:102A440095FB00BF80BD00BF7411002080B500AFAE
:102A5400124B134A1A60114B124A5A600F4B002250
:102A64009A600E4B0022DA600C4B4FF480421A61DC
:102A74000A4B00225A61094B00229A61074B00223B
:102A8400DA61064B00221A62044801F0A5FF0346EE
:102A9400002B01D000F06AFB00BF80BDB411002000
:102AA40000540040A086010080B500AF064B074AE1
:102AB4001A60054804F0FCFD0346002B01D000F029
:102AC40055FB00BF80BD00BF501200200008065017
:102AD40080B582B000AF3B4600221A605A60154BA5
:102AE400154A1A60134B45F6C0525A60114B002226
:102AF4009A60104B0A22DA600E4B00229A610D484C
:102B040004F064FE0346002B01D000F02FFB2023C9
:102B14003B6000237B603B461946064805F0C4F839
:102B24000346002B01D000F021FB00BF0837BD464F
:102B340080BD00BF101200200010004080B58AB094
:102B440000AF07F1140300221A605A609A60DA6039
:102B54001A6100233B61274B1B6B264A43F0800319
:102B64001363244B1B6B03F080033B613B6900231D
:102B7400FB60204B1B6B1F4A43F0040313631D4B84
:102B84001B6B03F00403FB60FB680023BB60194B61
:102B94001B6B184A43F001031363164B1B6B03F0C2
:102BA4000103BB60BB6800237B60124B1B6B114AA3
:102BB40043F0020313630F4B1B6B03F002037B60B0
:102BC4007B684FF440737B610B4BBB610023FB615B
:102BD40007F114031946094801F004FA0022002100
:102BE400172001F076F9172001F08FF900BF28377C
:102BF400BD4680BD003802400000111000080240AC
:102C040080B582B000AF0346FB80FB88B3F5807FBC
:102C140015D11F4B1B7883F00103DBB2002B0ED0C0
:102C24001C4804F021FE1C4B00221A80184B012280
:102C34001A70184804F0F5FD164804F03FFEFB88AE
:102C4400B3F5007F15D1154B1B7883F00103DBB27C
:102C5400002B0ED00F4804F007FE0F4B00221A8001
:102C64000E4B01221A700B4804F0DBFD094804F0F6
:102C740025FE0A4B1B78002B06D0054B1B78002B36
:102C840002D0074B01221A7000BF0837BD4680BD31
:102C9400B810002010120020FC100020D0100020DA
:102CA400A410002080B500AF00210A2000F04EFCE3
:102CB4003A4A012306CA3A4800F022FC00F002FB1B
:102CC400384B1B68012B0AD1374BB3F900309BB248
:102CD400013B9BB21AB2344B1A80FEF71DFD334BF5
:102CE4001B68012B01D1FDF775FD314B1B68012BCE
:102CF40008D12E4B01221A602D4B00221A60FDF7D9
:102D040069FD48E02B4B1B68012B02D1FEF7E0F86C
:102D140041E0294B1B68012B02D1FEF7D9F83AE0B8
:102D2400264B1B68012B08D1204B01221A60234B30
:102D340000221A60FDF72EFD2DE0214B1B68012BAC
:102D440002D1FEF7C1FB26E01E4B1B68012B02D10A
:102D5400FEF760FE1FE01C4B1B68012B02D1FFF73E
:102D64003FF818E0194B1B68012B08D1154B0122C1
:102D74001A60164B00221A60FEF742FD0BE0144B5A
:102D84001B68012B07D1124B00221A600D4B012244
:102D94001A60FEF735FD00BF80BD00BF480100206A
:102DA400E8C8000868110020780F0020FC0F0020FC
:102DB400701100206C0F0020C4100020BC100020F3
:102DC400D80F002018110020C01000206C11002022
:102DD400800F002080B500AF0021182000F0B6FB62
:102DE4003B4A012306CA3B4800F08AFB00F06AFA1A
:102DF400394B1B68012B0BD1384BB3F900309BB214
:102E040001339BB21AB2354B1A80FEF785FC5CE0A5
:102E1400334B1B68012B02D1FDF7E8FE55E0314B23
:102E24001B68012B51D0304B1B68012B02D1FDF7DD
:102E3400BFFD4AE02D4B1B68012B02D1FEF716F8AB
:102E440043E02B4B1B68012B02D1FEF70FF83CE04B
:102E5400284B1B68012B08D1214B01221A60254BFA
:102E640000221A60FDF796FC2FE0234B1B68012B10
:102E740002D1FEF7C3FA28E0204B1B68012B02D1D4
:102E8400FEF750FD21E01E4B1B68012B02D1FFF71A
:102E94001FF81AE01B4B1B68012B0AD1174B0022A9
:102EA4001A60184B00221A60FDF71AFEFDF70AFBA0
:102EB4000BE0154B1B68012B07D1134B00221A6042
:102EC4000E4B01221A60FEF79BFC00BF80BD00BFC1
:102ED40048010020ECC8000868110020780F002089
:102EE400FC0F002004100020701100206C0F002043
:102EF400C4100020BC100020D80F0020181100209E
:102F0400C01000206C110020800F002080B500AF9D
:102F14000021112000F01AFB2D4A012306CA2D4876
:102F240000F0EEFA00F0CEF92B4B1B68012B02D116
:102F3400FEF744FC4AE0294B1B68012B46D0284B82
:102F44001B68012B02D1FDF79BFC3FE0254B1B685E
:102F5400012B02D1FDF706FF38E0234B1B68012B40
:102F640002D1FEF75DF831E0204B1B68012B08D13C
:102F74001A4B01221A601D4B00221A60FDF70AFC4D
:102F840024E01B4B1B68012B02D1FEF7FFF91DE067
:102F9400184B1B68012B02D1FEF7B4FD16E0164B4B
:102FA4001B68012B02D1FFF70BF80FE0134B1B68D2
:102FB400012B0BD0124B1B68012B07D1104B0022A5
:102FC4001A600C4B01221A60FEF71AFC00BF80BD88
:102FD40048010020F0C8000868110020FC0F002000
:102FE400041000206C0F0020C4100020BC1000202E
:102FF400D80F002018110020C01000206C110020F0
:10300400800F002080B582B000AF40F6FF714FF40E
:10301400FA7000F03DF800237B600EE0184A7B68EC
:1030240032F813301A46174B53F8222016497B689E
:1030340041F823207B6801337B607B680B2BEDDD3B
:1030440000233B6014E0104A3B6852F8233005210A
:10305400184607F0A1FD0A2000F042FE02210B48A9
:1030640007F09AFD0A2000F03BFE3B6801333B6009
:103074003B680B2BE7DD00BF0837BD4680BD00BFB2
:10308400DC0F0020580100208C0F0020F4C8000839
:1030940080B584B000AF03460A46FB801346BB806C
:1030A4000023FB810023BB8122E02E4804F079FB3E
:1030B400034699B2BB89BA880A4091B22A4A22F8D7
:1030C40013100BE0274804F06CFB034699B2BB894C
:1030D400BA880A4091B2244A22F81310BB89224AC2
:1030E40032F81330FA889A42ECD9BB890133BB8198
:1030F400BB890B2BD9D900237B812CE00023FB81D6
:1031040022E07B89184A32F81320FB89164931F8EA
:1031140013309A4206D07B89134A32F81330FA8866
:103124009A420ED80F4804F03CFB034699B27B89BF
:10313400BA880A4091B20C4A22F813100023FB818A
:1031440002E0FB890133FB81FA897B899A42D8D357
:103154007B8901337B817B890B2BCFD900BF10374F
:10316400BD4680BD50120020DC0F002080B400AFAB
:1031740000BFBD4680BC704780B586B004AF03462F
:10318400FB710A23029301230193FB1D0093012386
:1031940000227821034801F057FD00BF0837BD46DF
:1031A40080BD00BFB411002080B500AF642000F0E2
:1031B40097FDAE20FFF7E0FF2020FFF7DDFF102092
:1031C400FFF7DAFFB020FFF7D7FFC820FFF7D4FFDF
:1031D4000020FFF7D1FF1020FFF7CEFF4020FFF7BC
:1031E400CBFF8120FFF7C8FFFF20FFF7C5FFA12019
:1031F400FFF7C2FFA620FFF7BFFFA820FFF7BCFF21
:103204003F20FFF7B9FFA420FFF7B6FFD320FFF755
:10321400B3FF0020FFF7B0FFD520FFF7ADFFF0208C
:10322400FFF7AAFFD920FFF7A7FF2220FFF7A4FF8B
:10323400DA20FFF7A1FF1220FFF79EFFDB20FFF744
:103244009BFF2020FFF798FF8D20FFF795FF1420A8
:10325400FFF792FFAF20FFF78FFF002000F010F878
:1032640000F030F8054B00221A80044B00225A80EB
:10327400024B01225A710123184680BD340F0020ED
:1032840080B485B000AF0346FB710023FB600DE002
:10329400FB79002B01D1002100E0FF21084AFB68E3
:1032A40013440A461A70FB680133FB60FB68B3F5EC
:1032B400826FEDD300BF1437BD4680BC704700BF9A
:1032C400240B002080B586B004AF0023FB7121E0FD
:1032D400FB79503BDBB21846FFF74EFF0020FFF7A7
:1032E4004BFF1020FFF748FFFA7913469B01134464
:1032F4005B001A460B4B1344642202928222019211
:103304000093012340227821074801F09DFCFB79BA
:103314000133FB71FB79072BDAD900BF0837BD46AF
:1033240080BD00BF240B0020B411002090B482B0F3
:1033340000AF0346FB710B46BB7113467B71FB79EF
:10334400812B54D8BB793F2B51D82B4B1B79002BA5
:1033540006D07B79002B0CBF01230023DBB27B71E9
:103364007B79012B20D1FA79BB79DB08D8B20146ED
:103374000B469B010B445B001344204AD35C5AB2B6
:10338400BB7903F00703012101FA03F35BB2134392
:103394005CB2FA7901460B469B010B445B00134473
:1033A400E1B2164AD15423E0FA79BB79DB08D8B2EA
:1033B40001460B469B010B445B0013440F4AD35C4C
:1033C4005AB2BB7903F00703012101FA03F35BB29C
:1033D400DB435BB213405CB2FA7901460B469B01B6
:1033E4000B445B001344E1B2044AD15400E000BF33
:1033F4000837BD4690BC7047340F0020240B0020D2
:1034040090B589B000AF0446381D80E806001A461E
:103414002346FB731346BB73384B1B881A463B7910
:103424001344812B06DC354B5B881A467B791344A5
:103434003F2B01DD00235DE00023FB614CE0BA6813
:10344400FB7B203B797901FB03F31946FB690B44B1
:103454005B0013441B887B610023BB6134E07A6901
:10346400BB6902FA03F303F40043002B12D0234B8D
:103474001B88DAB2BB69DBB21344D8B21F4B5B883A
:10348400DAB2FB69DBB21344DBB2BA7B1946FFF74D
:103494004DFF16E0194B1B88DAB2BB69DBB213444B
:1034A400D8B2164B5B88DAB2FB69DBB21344D9B2EB
:1034B400BB7B002B0CBF01230023DBB21A46FFF7B2
:1034C40035FFBB690133BB613B791A46BB69934243
:1034D400C5D3FB690133FB617B791A46FB699342CF
:1034E400ADD3064B1A883B799BB213449AB2034B73
:1034F4001A80FB7B18462437BD4690BD340F00204C
:1035040080B584B000AFF860381D80E80600FB7019
:1035140012E0FB681878FB783A1D06CAFFF770FFC3
:1035240003461A46FB681B789A4202D0FB681B7854
:1035340008E0FB680133FB60FB681B78002BE8D1D3
:10354400FB681B7818461037BD4680BD80B483B035
:1035540000AF03460A46FB711346BB71FB799AB26E
:10356400054B1A80BB799AB2034B5A8000BF0C37C3
:10357400BD4680BC704700BF340F002080B586B0C4
:1035840000AFF860B9607A603B6000237B6151E072
:1035940000233B6147E07B697A6802FB03F3002B5D
:1035A40000DA0733DB101A463B69002B00DA0733D5
:1035B400DB1013441A463B6A13441B7819463B69D3
:1035C4005A4203F0070302F0070258BF5342C3F103
:1035D400070341FA03F303F00103002B10D0FB6847
:1035E400DAB23B69DBB21344D8B2BB68DAB27B69A6
:1035F400DBB21344DBB201221946FFF797FE0FE05A
:10360400FB68DAB23B69DBB21344D8B2BB68DAB206
:103614007B69DBB21344DBB200221946FFF786FE56
:103624003B6901333B613A697B689A42B3DB7B694E
:1036340001337B617A693B689A42A9DB00BF183782
:10364400BD4680BD90B587B000AF0446381D80E804
:1036540006001A462346FB8113467B73FB89002B25
:1036640006D17B7B3A1D06CA5148FFF749FF9AE011
:103674000023FB820123BB8200233B8208E0FB8AF8
:103684000133FB82BB8A1A46920013445B00BB825F
:10369400FA89BB8AB2FBF3F39BB2002BEFD1BB8A4E
:1036A400444AA2FB0323DB08BB8200237B8276E02F
:1036B400FA89BB8AB2FBF3F33B82FB89BA8AB3FB78
:1036C400F2F102FB01F29B1AFB81BB8A394AA2FB8D
:1036D4000323DB08BB823B8A092B5DD801A252F885
:1036E40023F000BF8F370008113700081F37000888
:1036F4002D3700083B3700084937000857370008C2
:103704006537000873370008813700087B7B3A1D52
:1037140006CA2948FFF7F4FE3EE07B7B3A1D06CA41
:103724002648FFF7EDFE37E07B7B3A1D06CA2448A6
:10373400FFF7E6FE30E07B7B3A1D06CA2148FFF71F
:10374400DFFE29E07B7B3A1D06CA1F48FFF7D8FE3F
:1037540022E07B7B3A1D06CA1C48FFF7D1FE1BE022
:103764007B7B3A1D06CA1A48FFF7CAFE14E07B7B2E
:103774003A1D06CA1748FFF7C3FE0DE07B7B3A1DCE
:1037840006CA1548FFF7BCFE06E07B7B3A1D06CA55
:103794000748FFF7B5FE00BF7B8A01337B827A8A34
:1037A400FB8A9A4284D300BF1C37BD4690BD00BF3C
:1037B400F8C80008CDCCCCCCFCC8000800C900086F
:1037C40004C9000808C900080CC9000810C9000889
:1037D40014C9000818C900081CC9000880B483B0C3
:1037E40000AF00237B600F4B5B6C0E4A43F48043B5
:1037F40053640C4B5B6C03F480437B607B68002355
:103804003B60084B1B6C074A43F080531364054B21
:103814001B6C03F080533B603B6800BF0C37BD4614
:1038240080BC70470038024080B485B000AF786037
:103834007B681B680A4A93420DD10023FB60094B45
:103844001B6B084A43F480531363064B1B6B03F44E
:103854008053FB60FB6800BF1437BD4680BC7047D3
:10386400003002400038024080B485B000AF786078
:103874007B681B680A4A93420DD10023FB60094B05
:103884005B6B084A43F010035363064B5B6B03F016
:103894001003FB60FB6800BF1437BD4680BC704753
:1038A400000006500038024080B485B000AF786054
:1038B4000023FB60084B5B6B074A43F02003536310
:1038C400054B5B6B03F02003FB60FB6800BF143700
:1038D400BD4680BC704700BF0038024080B58AB046
:1038E40000AF786007F1140300221A605A609A60EE
:1038F400DA601A617B681B68194A93422BD1002352
:103904003B61184B1B6B174A43F002031363154BBF
:103914001B6B03F002033B613B69C0237B611223F1
:10392400BB610123FB6103233B6204237B6207F138
:10393400140319460C4800F055FB0023FB60094BA7
:103944001B6C084A43F400131364064B1B6C03F40A
:103954000013FB60FB6800BF2837BD4680BD00BF75
:1039640000540040003802400004024080B485B096
:1039740000AF78607B681B680A4A93420DD100232C
:10398400FB60094B5B6B084A43F040035363064BEF
:103994005B6B03F04003FB60FB6800BF1437BD465C
:1039A40080BC7047000806500038024080B584B0DF
:1039B40000AF78607B681B680E4A934215D10023E0
:1039C400FB600D4B1B6C0C4A43F0100313640A4B51
:1039D4001B6C03F01003FB60FB68002200213620FF
:1039E40000F077FA362000F090FA00BF1037BD4699
:1039F40080BD00BF001000400038024080B400AF1A
:103A040000BFBD4680BC704780B400AFFEE780B401
:103A140000AFFEE780B400AFFEE780B400AFFEE77E
:103A240080B400AF00BFBD4680BC704780B400AF17
:103A340000BFBD4680BC704780B400AF00BFBD4628
:103A440080BC704780B500AF00F02EF900BF80BD88
:103A540080B500AF4FF4807000F062FC4FF400704A
:103A640000F05EFC00BF80BD80B500AF194803F0D4
:103A740048FF194B1B88012B06D8174B1B880133B1
:103A84009AB2154B1A8022E0124803F0EDFE124B55
:103A940000221A80114B1B78002B02D0FFF736FA54
:103AA4000CE00F4B1B78002B02D0FFF7FBF805E06E
:103AB4000C4B1B78002B01D0FFF78CF9084B00222C
:103AC4001A70084B00221A70044B00221A7000BFAF
:103AD40080BD00BF10120020FC100020A4100020A4
:103AE400B8100020D010002080B500AF024802F0CA
:103AF4008EF900BF80BD00BFE825002080B584B0EA
:103B040000AF7860114B1B68002B02D10F4B104A99
:103B14001A600E4B1B68FB600C4B1A687B681344DD
:103B24006A46934207D907F069FC02460C231360E6
:103B34004FF0FF3306E0054B1A687B681344034AD1
:103B44001360FB6818461037BD4680BD3C0F00204B
:103B5400F029002080B400AF124B1B68114A43F0D7
:103B6400010313600F4B00229A600E4B1B680D4A31
:103B740023F0847323F4803313600A4B0A4A5A6097
:103B8400084B1B68074A23F480231360054B00226B
:103B9400DA60064B4FF000629A6000BFBD4680BCFD
:103BA400704700BF003802401030002400ED00E0F0
:103BB400DFF834D0002103E00C4B5B584350043150
:103BC4000B480C4B42189A42F6D30B4A02E00023EE
:103BD40042F8043B094B9A42F9D3FFF7BBFF07F0C5
:103BE40013FCFEF7E3FA70470000022060E40008CB
:103BF40000000020080B0020080B0020EC29002006
:103C0400FEE7000080B500AF0E4B1B680D4A43F47D
:103C1400007313600B4B1B680A4A43F48063136000
:103C2400084B1B68074A43F480731360032000F0B9
:103C340045F9002000F008F8FFF7D0FD00231846EE
:103C440080BD00BF003C024080B582B000AF786008
:103C5400124B1A68124B1B7819464FF47A73B3FB54
:103C6400F1F3B2FBF3F3184600F05DF90346002BC1
:103C740001D001230EE07B680F2B0AD8002279685B
:103C84004FF0FF3000F025F9064A7B6813600023EB
:103C940000E0012318460837BD4680BD28090020EE
:103CA400300900202C09002080B400AF054B1B789C
:103CB4001A46054B1B681344034A136000BFBD46F4
:103CC40080BC704730090020A012002080B400AFEF
:103CD400024B1B681846BD4680BC7047A0120020EA
:103CE40080B584B000AF7860FFF7F0FFB8607B6800
:103CF400FB60FB68B3F1FF3F05D0094B1B781A4604
:103D0400FB681344FB6000BFFFF7E0FF0246BB689B
:103D1400D31AFA689A42F7D800BF1037BD4680BD5F
:103D24003009002080B485B000AF78607B6803F070
:103D34000703FB600C4BDB68BB60BA684FF6FF03FC
:103D44001340BB60FB681A02BB68134343F0BF63B4
:103D540043F40033BB60044ABB68D36000BF14372C
:103D6400BD4680BC704700BF00ED00E080B400AFEA
:103D7400044BDB681B0A03F007031846BD4680BCEE
:103D8400704700BF00ED00E080B483B000AF03468D
:103D9400FB7197F90730002B0BDBFB7903F01F0253
:103DA400064997F907305B09012000FA02F241F84D
:103DB400232000BF0C37BD4680BC704700E100E003
:103DC40080B483B000AF03463960FB7197F90730C4
:103DD400002B0ADB3B68DAB20C4997F90730120171
:103DE400D2B20B4483F800230AE03B68DAB20849F4
:103DF400FB7903F00F03043B1201D2B20B441A7691
:103E040000BF0C37BD4680BC704700BF00E100E036
:103E140000ED00E080B489B000AFF860B9607A606A
:103E2400FB6803F00703FB61FB69C3F10703042B81
:103E340028BF0423BB61FB690433062B02D9FB6949
:103E4400033B00E000237B614FF0FF32BB6902FAC1
:103E540003F3DA43BB681A407B699A404FF0FF31A1
:103E64007B6901FA03F3D9437B680B40134318467B
:103E74002437BD4680BC704780B582B000AF7860FF
:103E84007B68013BB3F1807F01D301230FE00A4A31
:103E94007B68013B53600F214FF0FF30FFF790FF29
:103EA400054B00229A60044B07221A60002318462F
:103EB4000837BD4680BD00BF10E000E080B582B089
:103EC40000AF78607868FFF72DFF00BF0837BD4664
:103ED40080BD80B586B000AF0346B9607A60FB73DD
:103EE40000237B61FFF742FF78617A68B9687869DB
:103EF400FFF790FF024697F90F3011461846FFF777
:103F04005FFF00BF1837BD4680BD80B582B000AFEB
:103F14000346FB7197F907301846FFF735FF00BFDA
:103F24000837BD4680BD80B582B000AF7860786840
:103F3400FFF7A2FF034618460837BD4680BD80B58B
:103F440082B000AF78607B68002B01D101230EE0C2
:103F54007B685B79DBB2002B05D17B6800221A7188
:103F64007868FFF761FC7B6801225A7100231846C8
:103F74000837BD4680BD80B582B000AF78607B68ED
:103F8400002B01D1012328E07B6893F83930DBB2A0
:103F9400002B06D17B68002283F838207868FFF76D
:103FA40063FC7B681B681B6823F47E717B685A681A
:103FB4007B689B681A437B685B691A437B681B6850
:103FC4000A431A607B680022DA637B68012283F863
:103FD40039207B680122DA62002318460837BD467F
:103FE40080BD000080B487B000AF786039600023E2
:103FF4007B616FE13B681A6801217B6901FA03F375
:104004001340FB60FB68002B00F061813B685B6838
:10401400012B0BD03B685B68022B07D03B685B68C5
:10402400112B03D03B685B68122B30D17B689B68F3
:104034003B617B695B00032202FA03F3DB433A69C9
:1040440013403B613B68DA687B695B0002FA03F367
:104054003A6913433B617B683A699A607B685B68A1
:104064003B6101227B6902FA03F3DB433A691340A3
:104074003B613B685B681B0903F001027B6902FA40
:1040840003F33A6913433B617B683A695A607B687E
:10409400DB683B617B695B00032202FA03F3DB43C9
:1040A4003A6913403B613B689A687B695B0002FA9A
:1040B40003F33A6913433B617B683A69DA603B680E
:1040C4005B68022B03D03B685B68122B23D17B69AE
:1040D400DA087B68083253F822303B617B6903F0CD
:1040E40007039B000F2202FA03F3DB433A691340F0
:1040F4003B613B681A697B6903F007039B0002FA82
:1041040003F33A6913433B617B69DA087B6808323D
:10411400396943F822107B681B683B617B695B004B
:10412400032202FA03F3DB433A6913403B613B6821
:104134005B6803F003027B695B0002FA03F33A69EC
:1041440013433B617B683A691A603B685B6803F020
:104154008053002B00F0BB800023BB60644B5B6C7E
:10416400634A43F480435364614B5B6C03F48043C0
:10417400BB60BB685F4A7B699B08023352F82330FB
:104184003B617B6903F003039B000F2202FA03F3F4
:10419400DB433A6913403B617B68574A934231D011
:1041A4007B68564A93422BD07B68554A934225D06C
:1041B4007B68544A93421FD07B68534A934219D078
:1041C4007B68524A934213D07B68514A93420DD084
:1041D4007B68504A934207D07B684F4A934201D18F
:1041E400082310E009230EE007230CE006230AE06D
:1041F400052308E0042306E0032304E0022302E08D
:10420400012300E000237A6902F003029200934044
:104214001A463B6913433B6136497B699B08023369
:104224003A6941F823203D4B1B683B61FB68DB4343
:104234003A6913403B613B685B6803F48033002BAD
:1042440003D03A69FB6813433B61344A3B6913600A
:10425400324B5B683B61FB68DB433A6913403B616B
:104264003B685B6803F40033002B03D03A69FB68B6
:1042740013433B61294A3B695360284B9B683B616C
:10428400FB68DB433A6913403B613B685B6803F4BA
:104294008013002B03D03A69FB6813433B611F4A28
:1042A4003B6993601D4BDB683B61FB68DB433A6908
:1042B40013403B613B685B6803F40013002B03D09D
:1042C4003A69FB6813433B61144A3B69D3607B69D9
:1042D40001337B613B681A687B6922FA03F3002B84
:1042E4007FF488AE00BF1C37BD4680BC704700BF5A
:1042F400003802400038014000000240000402403F
:1043040000080240000C0240001002400014024069
:1043140000180240001C024000200240003C014002
:1043240080B582B000AF0346FB80084B5A69FB8816
:104334001340002B06D0054AFB885361FB881846BE
:10434400FEF75EFC00BF0837BD4680BD003C01405F
:1043540080B582B000AF78607B68002B01D1012367
:1043640039E07B6893F83530DBB2002B06D17B68EB
:10437400002283F834207868FFF796FA7B680222DB
:1043840083F835207B6800221A627B680022DA6198
:104394007B6800225A627B6800229A637B68002251
:1043A40083F837207B68012283F82D200C4B1B688F
:1043B40023F030027B681B68094913430B607B6858
:1043C400002283F82C207B68012283F835207B6847
:1043D4000022DA63002318460837BD4680BD00BFBB
:1043E4000004065080B487B000AFF860B9607A600A
:1043F400BB683B6100237B6157E03B69304A1B6823
:1044040053603B6904333B61FB6893F83630012BFE
:1044140048D17B6904337A689A4243D9284B5B6A52
:1044240003F00103012B3DD1FB68002283F8362001
:10443400FB6893F82D30022B04D0FB6893F82D30E1
:10444400042B0AD13B691A46FB68DA607A687B69F7
:10445400D31A1A1FFB681A621EE0FB6893F82D300A
:10446400032B04D0FB6893F82D30052B0AD13B694C
:104474001A46FB685A617A687B69D31A1A1FFB686B
:104484009A6209E0FB68012283F83520FB68002268
:1044940083F8342001230DE0FB68082283F83520DB
:1044A400002307E07B6904337B617A697B689A4265
:1044B400A3D3002318461C37BD4680BC704700BFF9
:1044C4000004065080B48DB000AF78600B46FB70DA
:1044D4007B68FB62FB78102B02D0142B26D055E0AE
:1044E4002D4BDA68FB6AFA61FA6912BA1A60FB6A40
:1044F4000433FB62284B1A69FB6A3A623A6A12BABD
:104504001A60FB6A0433FB62234B5A69FB6A7A62C2
:104514007A6A12BA1A60FB6A0433FB621E4B9A6908
:10452400FB6ABA62BA6A12BA1A602FE01A4BDA68E6
:10453400FB6ABA60BA6812BA1A60FB6A0433FB6297
:10454400154B1A69FB6AFA60FA6812BA1A60FB6AB8
:104554000433FB62104B5A69FB6A3A613A6912BA36
:104564001A60FB6A0433FB620B4B9A69FB6A7A613B
:104574007A6912BA1A60FB6A0433FB62064BDA6981
:10458400FB6ABA61BA6912BA1A6000BF00BF343755
:10459400BD4680BC704700BF0004065080B586B09D
:1045A40000AFF860B9603B601346FB71FFF78EFB08
:1045B4007861FB79002B55D11CE03B68B3F1FF3FD8
:1045C40018D0FFF783FB02467B69D31A3A689A42F4
:1045D40002D33B68002B0DD1FB68012283F8352000
:1045E400FB68032283F82C20FB68002283F8342024
:1045F400032352E0BB68082B0AD92A4B1A68BB680C
:104604001340BA689A4214BF01230023DBB209E0C5
:10461400244B5A6ABB681340BA689A4214BF0123F8
:104624000023DBB2002BC8D136E03B68B3F1FF3F77
:1046340018D0FFF74BFB02467B69D31A3A689A42BB
:1046440002D33B68002B0DD1FB68012283F835208F
:10465400FB68032283F82C20FB68002283F83420B3
:1046640003231AE0BB68082B0AD90E4B1A68BB68EF
:104674001340BA689A420CBF01230023DBB209E05D
:10468400084B5A6ABB681340BA689A420CBF0123AC
:104694000023DBB2002BC8D1002318461837BD46CF
:1046A40080BD00BF0004065080B588B000AFF8603C
:1046B400B9607A603B60FB6893F83530FB75FB7D2D
:1046C400012B03D0FB7D082B40F0B480BB68002B8A
:1046D40005D07B68002B02D03B68002B05D1FB681A
:1046E400012283F835200123A5E0FB6893F83430D8
:1046F400012B01D102239EE0FB68012283F83420C0
:10470400FB6893F82D30012B23D1FB68022283F838
:1047140035204B4B1B6823F4803323F0C403FA6A1F
:104724001343474A43F004031360454B9B6823F04B
:104734001F027B6803F00303DB00414913438B60D2
:10474400BB68FB617B68BB61FB68022283F82D2098
:104754002FE0FB6893F82D30022B20D1FB6893F8EF
:104764003530DBB2082B06D1FB68DB68FB61FB68E4
:104774001B6ABB610EE0BB68FB617B68BB61304BAD
:104784009B6823F01F027B6803F00303DB002C49C2
:1047940013438B60FB68022283F8352009E0FB6831
:1047A400012283F83520FB68002283F8342001239A
:1047B40041E0BA69F969F868FFF714FE03461A463E
:1047C400FB6883F82C20FB6893F82C30002B03D073
:1047D400FB6893F82C302EE0FB6893F83530DBB29D
:1047E400082B21D0164B9B68154A43F480739360C1
:1047F400BB6A00220221F868FFF7D0FE0346002BB3
:1048040001D0032317E00E4B1B6803F08003002B39
:1048140001D1142300E0102319463868FFF752FE33
:10482400FB68012283F83520FB68002283F83420DA
:10483400002300E0022318462037BD4680BD00BF98
:104844000004065080B588B000AFF860B9607A60A3
:104854003B60FB6893F83530FB75FB7D012B02D080
:10486400FB7D082B67D1BB68002B02D07B68002B33
:1048740005D1FB68012283F8352001235CE0FB6845
:1048840093F83430012B01D1022355E0FB68012257
:1048940083F83420FB6893F83530DBB2082B0AD157
:1048A400FB68022283F83520FB68DB68FB61FB6848
:1048B4001B6ABB611CE0FB68022283F83520BB68DD
:1048C400FB617B68BB61FB6893F82D30012B0BD136
:1048D4001B4B1B6823F4803323F0C4033A6813434F
:1048E400174A43F004031360FB68022283F82D2067
:1048F400BA69F969F868FFF775FD03461A46FB685B
:1049040083F82C20FB6893F82C30002B03D0FB6831
:1049140093F82C3010E0FB6893F83530DBB2082BA9
:1049240003D0FB68012283F83520FB68002283F85A
:104934003420002300E0022318462037BD4680BD02
:104944000004065080B584B000AFF860B9607A60A6
:10495400FB6893F83530DBB2012B35D1BB68002BF3
:1049640001D1012331E0FB6893F83430012B01D1EC
:1049740002232AE0FB68012283F83420FB68022228
:1049840083F835207B6800220221F868FFF706FED1
:104994000346002B01D0032317E00E4B1B6803F0E2
:1049A4008003002B01D1142300E010231946B868BA
:1049B400FFF788FDFB68012283F83520FB6800229D
:1049C40083F83420002300E0022318461037BD4644
:1049D40080BD00BF0004065080B584B000AF78608D
:1049E4007B68002B01D101231FE17B6893F83D30E4
:1049F400DBB2002B06D17B68002283F83C20786868
:104A0400FEF76CFF7B68242283F83D207B681B68DB
:104A14001A687B681B6822F001021A607B681B68B5
:104A24001A687B681B6842F400421A607B681B6842
:104A34001A687B681B6822F400421A6002F016FEB2
:104A4400F8607B685B687B4A934207D8FB687A4AC4
:104A5400934294BF01230023DBB206E0FB68774A4C
:104A6400934294BF01230023DBB2002B01D0012326
:104A7400DBE0FB68724AA2FB03239B0CBB607B68F0
:104A84001B685B6823F03F017B681B68BA680A43B4
:104A94005A607B681B681B6A23F03F017B685B6874
:104AA400644A934202D8BB68013309E0BB684FF4FF
:104AB400967202FB03F3634AA2FB03239B090133AF
:104AC4007A6812680B4313627B681B68DB6923F402
:104AD4004F4222F0FF027B685B6856498B420DD837
:104AE400FB68591E7B685B685B00B1FBF3F3013321
:104AF400C3F30B03042B38BF04234FE07B689B688C
:104B0400002B11D1FB68581E7B6859680B465B006B
:104B14000B44B0FBF3F30133C3F30B03002B0CBFC3
:104B240001230023DBB212E0FB68581E7B6859683E
:104B34000B469B000B4499000B44B0FBF3F3013389
:104B4400C3F30B03002B0CBF01230023DBB2002BA8
:104B540001D0012322E07B689B68002B0ED1FB6807
:104B6400581E7B6859680B465B000B44B0FBF3F39B
:104B74000133C3F30B0343F400430FE0FB68581EF7
:104B84007B6859680B469B000B4499000B44B0FBAF
:104B9400F3F30133C3F30B0343F440437968096827
:104BA4001343CB617B681B681B6823F0C0017B68DF
:104BB400DA697B681B6A1A437B681B680A431A60BC
:104BC4007B681B689B6823F4034323F0FF037A6824
:104BD40011697A68D26811437A6812680B4393604A
:104BE4007B681B68DB6823F0FF017B685A697B687C
:104BF4009B691A437B681B680A43DA607B681B68FD
:104C04001A687B681B6842F001021A607B68002204
:104C14001A647B68202283F83D207B6800221A6393
:104C24007B68002283F83E20002318461037BD46D7
:104C340080BD00BFA08601007F841E00FF083D00E8
:104C440083DE1B43D34D621080B588B002AFF86099
:104C5400084611461A4603467B810B463B811346A0
:104C6400FB80FFF733F87861FB6893F83D30DBB2E3
:104C7400202B40F0D9807B690093192301226D49D0
:104C8400F86800F0A9FD0346002B01D00223CCE014
:104C9400FB6893F83C30012B01D10223C5E0FB688B
:104CA400012283F83C20FB681B681B6803F00103A6
:104CB400012B07D0FB681B681A68FB681B6842F06D
:104CC40001021A60FB681B681A68FB681B6822F4FF
:104CD40000621A60FB68212283F83D20FB684022B1
:104CE40083F83E20FB6800221A64FB683A6A5A6221
:104CF400FB68BA8C5A85FB685B8D9AB2FB681A858F
:104D0400FB684D4ADA62F8883A8979897B690193AC
:104D1400BB6A00930346F86800F0E4FB0346002BEB
:104D240052D0012381E07A69B96AF86800F02AFE5A
:104D34000346002B0DD0FB681B6C042B07D1FB68CA
:104D44001B681A68FB681B6842F400721A6001232E
:104D54006BE0FB685B6A1A78FB681B681A61FB6886
:104D64005B6A5A1CFB685A62FB681B8D013B9AB252
:104D7400FB681A85FB685B8D9BB2013B9AB2FB68AA
:104D84005A85FB681B685B6903F00403042B1BD181
:104D9400FB681B8D002B17D0FB685B6A1A78FB68D5
:104DA4001B681A61FB685B6A5A1CFB685A62FB68E1
:104DB4001B8D013B9AB2FB681A85FB685B8D9BB225
:104DC400013B9AB2FB685A85FB681B8D002BAAD164
:104DD4007A69B96AF86800F016FE0346002B0DD014
:104DE400FB681B6C042B07D1FB681B681A68FB6803
:104DF4001B6842F400721A60012316E0FB681B680A
:104E04001A68FB681B6842F400721A60FB6820226F
:104E140083F83D20FB68002283F83E20FB680022D3
:104E240083F83C20002300E0022318461837BD46CF
:104E340080BD00BF020010000000FFFF80B58CB0F1
:104E440002AFF860084611461A4603467B810B46BA
:104E54003B811346FB80FEF739FF7862FB6893F8C9
:104E64003D30DBB2202B40F008827B6A009319238B
:104E740001227B49F86800F0AFFC0346002B01D007
:104E84000223FBE1FB6893F83C30012B01D10223A0
:104E9400F4E1FB68012283F83C20FB681B681B6873
:104EA40003F00103012B07D0FB681B681A68FB6839
:104EB4001B6842F001021A60FB681B681A68FB68F1
:104EC4001B6822F400621A60FB68222283F83D20EA
:104ED400FB68402283F83E20FB6800221A64FB68CA
:104EE4003A6B5A62FB68BA8E5A85FB685B8D9AB23C
:104EF400FB681A85FB685B4ADA62F8883A89798923
:104F04007B6A0193BB6B00930346F86800F07EFB59
:104F14000346002B01D00123B0E1FB681B8D002B5D
:104F240013D100233B62FB681B685B693B62FB682F
:104F34001B689B693B623B6AFB681B681A68FB68D9
:104F44001B6842F400721A6084E1FB681B8D012B1C
:104F54001BD1FB681B681A68FB681B6822F480621B
:104F64001A600023FB61FB681B685B69FB61FB68DB
:104F74001B689B69FB61FB69FB681B681A68FB681B
:104F84001B6842F400721A6064E1FB681B8D022BFB
:104F94001BD1FB681B681A68FB681B6822F48062DB
:104FA4001A60FB681B681A68FB681B6842F400629D
:104FB4001A600023BB61FB681B685B69BB61FB680B
:104FC4001B689B69BB61BB6944E100237B61FB688F
:104FD4001B685B697B61FB681B689B697B617B6900
:104FE40038E1FB681B8D032B00F2F180FB681B8DFD
:104FF400012B23D17A6AB96BF86800F045FD0346AA
:10500400002B01D0012339E1FB681B681A69FB6896
:105014005B6AD2B21A70FB685B6A5A1CFB685A62FC
:10502400FB681B8D013B9AB2FB681A85FB685B8D9C
:105034009BB2013B9AB2FB685A850BE1FB681B8D5E
:10504400022B4ED17B6A0093BB6B00220649F868A1
:1050540000F0C2FB0346002B08D001230EE100BF81
:10506400020010000000FFFF04000100FB681B6841
:105074001A68FB681B6842F400721A60FB681B68BC
:105084001A69FB685B6AD2B21A70FB685B6A5A1CC5
:10509400FB685A62FB681B8D013B9AB2FB681A8558
:1050A400FB685B8D9BB2013B9AB2FB685A85FB6837
:1050B4001B681A69FB685B6AD2B21A70FB685B6A88
:1050C4005A1CFB685A62FB681B8D013B9AB2FB6851
:1050D4001A85FB685B8D9BB2013B9AB2FB685A85CB
:1050E400B8E07B6A0093BB6B00226649F86800F065
:1050F40073FB0346002B01D00123BFE0FB681B6850
:105104001A68FB681B6822F480621A60FB681B68DB
:105114001A69FB685B6AD2B21A70FB685B6A5A1C34
:10512400FB685A62FB681B8D013B9AB2FB681A85C7
:10513400FB685B8D9BB2013B9AB2FB685A857B6A24
:105144000093BB6B00224F49F86800F045FB03460F
:10515400002B01D0012391E0FB681B681A68FB68EF
:105164001B6842F400721A60FB681B681A69FB68CA
:105174005B6AD2B21A70FB685B6A5A1CFB685A629B
:10518400FB681B8D013B9AB2FB681A85FB685B8D3B
:105194009BB2013B9AB2FB685A85FB681B681A698B
:1051A400FB685B6AD2B21A70FB685B6A5A1CFB68C4
:1051B4005A62FB681B8D013B9AB2FB681A85FB6837
:1051C4005B8D9BB2013B9AB2FB685A8542E07A6AD6
:1051D400B96BF86800F058FC0346002B01D001239A
:1051E4004CE0FB681B681A69FB685B6AD2B21A70F0
:1051F400FB685B6A5A1CFB685A62FB681B8D013BA7
:105204009AB2FB681A85FB685B8D9BB2013B9AB22C
:10521400FB685A85FB681B685B6903F00403042B75
:1052240018D1FB681B681A69FB685B6AD2B21A70F2
:10523400FB685B6A5A1CFB685A62FB681B8D013B66
:105244009AB2FB681A85FB685B8D9BB2013B9AB2EC
:10525400FB685A85FB681B8D002B7FF4C2AEFB688C
:10526400202283F83D20FB68002283F83E20FB685F
:10527400002283F83C20002300E00223184628374C
:10528400BD4680BD0400010080B58AB002AFF8605D
:105294007A603B600B467B81FEF718FDF8610123C1
:1052A400BB61FB6893F83D30DBB2202B40F01081EA
:1052B400FB690093192301228849F86800F08CFAED
:1052C4000346002B01D0022303E1FB6893F83C3032
:1052D400012B01D10223FCE0FB68012283F83C206E
:1052E400FB681B681B6803F00103012B07D0FB68F4
:1052F4001B681A68FB681B6842F001021A60FB68AD
:105304001B681A68FB681B6822F400621A60FB6859
:10531400242283F83D20FB6800221A64FB68704A4B
:10532400DA62FB681B681A68FB681B6842F48072C7
:105334001A60FB6900933B6800224FF00111F86882
:1053440000F04AFA0346002B0CD0FB681B681B686C
:1053540003F48073002B03D0FB684FF400721A64CB
:105364000323B6E07B89DBB21A46FB681B6802F0B4
:10537400FE021A61FEF7AAFCF861FB681B685B6910
:1053840003F00203022B0CBF01230023DBB2FB75E5
:10539400FB681B685B6903F48063B3F5806F0CBF23
:1053A40001230023DBB2BB7525E0FEF78FFC024628
:1053B400FB69D31A3A689A4202D33B68002B03D1A3
:1053C400FB68A02283F83D20FB681B685B6903F03F
:1053D4000203022B0CBF01230023DBB2FB75FB6825
:1053E4001B685B6903F48063B3F5806F0CBF012312
:1053F4000023DBB2BB75FB6893F83D30DBB2A02B16
:1054040005D0FB7D002B02D1BB7D002BCDD0FB68EA
:10541400202283F83D20FB681B685B6903F00203CC
:10542400022B29D1FB681B681A68FB681B6842F4CD
:1054340000721A6000233B61FB681B685B693B6177
:10544400FB681B689B693B613B69FB6900931923FB
:1054540001222249F86800F0BFF90346002B01D06D
:10546400012336E0FB68202283F83D20FB680022FC
:1054740083F83C2000232CE0FB681B681A68FB6857
:105484001B6842F400721A60FB681B686FF4806248
:105494005A61FB690093192301221049F86800F04E
:1054A4009BF90346002B01D0012312E0BB690133B1
:1054B400BB61BA697B689A42FFF433AFFB68202270
:1054C40083F83D20FB68002283F83C20012300E0A0
:1054D400022318462037BD4680BD00BF02001000DD
:1054E4000000FFFF80B588B002AFF860084611469F
:1054F4001A4603467B810B463B811346FB80FB68BF
:105504001B681A68FB681B6842F480721A607B6A25
:1055140000933B6A00224FF00111F86800F05CF937
:105524000346002B0CD0FB681B681B6803F48073D4
:10553400002B03D0FB684FF400721A6403235FE06E
:105544007B89DBB21A46FB681B6802F0FE021A6113
:105554007B6A3A6A2C49F86800F095F90346002BF7
:1055640001D001234CE000237B61FB681B685B696D
:105574007B61FB681B689B697B617B697A6A396A1A
:10558400F86800F0FFF90346002B0DD0FB681B6C94
:10559400042B07D1FB681B681A68FB681B6842F47C
:1055A40000721A6001232BE0FB88012B05D13B8993
:1055B400DAB2FB681B681A6121E03B891B0A9BB2C3
:1055C400DAB2FB681B681A617A6A396AF86800F013
:1055D400D9F90346002B0DD0FB681B6C042B07D1B3
:1055E400FB681B681A68FB681B6842F400721A6047
:1055F400012305E03B89DAB2FB681B681A610023CA
:1056040018461837BD4680BD0200010080B588B039
:1056140002AFF860084611461A4603467B810B46E2
:105624003B811346FB80FB681B681A68FB681B6898
:1056340042F480621A60FB681B681A68FB681B6886
:1056440042F480721A607B6A00933B6A00224FF036
:105654000111F86800F0C0F80346002B0CD0FB6879
:105664001B681B6803F48073002B03D0FB684FF4A2
:1056740000721A640323A9E07B89DBB21A46FB6833
:105684001B6802F0FE021A617B6A3A6A5149F868A3
:1056940000F0F9F80346002B01D0012396E0002323
:1056A4007B61FB681B685B697B61FB681B689B69AA
:1056B4007B617B697A6A396AF86800F063F90346AA
:1056C400002B0DD0FB681B6C042B07D1FB681B68F7
:1056D4001A68FB681B6842F400721A60012375E0C3
:1056E400FB88012B05D13B89DAB2FB681B681A6180
:1056F40021E03B891B0A9BB2DAB2FB681B681A6182
:105704007A6A396AF86800F03DF90346002B0DD037
:10571400FB681B6C042B07D1FB681B681A68FB68C9
:105724001B6842F400721A6001234FE03B89DAB22D
:10573400FB681B681A617A6A396AF86800F022F912
:105744000346002B0DD0FB681B6C042B07D1FB68B0
:105754001B681A68FB681B6842F400721A60012314
:1057640034E0FB681B681A68FB681B6842F48072AB
:105774001A607B6A00933B6A00224FF00111F868BB
:1057840000F02AF80346002B0CD0FB681B681B684A
:1057940003F48073002B03D0FB684FF400721A6487
:1057A400032313E07B89DBB243F00103DAB2FB6825
:1057B4001B681A617B6A3A6A0649F86800F063F864
:1057C4000346002B01D0012300E0002318461837BC
:1057D400BD4680BD0200010080B584B000AFF86012
:1057E400B9603B601346FB7125E03B68B3F1FF3FB2
:1057F40021D0FEF76BFA0246BB69D31A3A689A4283
:1058040002D33B68002B16D1FB6800221A63FB68A5
:10581400202283F83D20FB68002283F83E20FB68A9
:105824001B6C43F02002FB681A64FB68002283F8B7
:105834003C20012323E0BB681B0CDBB2012B0DD100
:10584400FB681B685B69DA43BB6813409BB2002B9F
:105854000CBF01230023DBB21A460CE0FB681B6873
:105864009B69DA43BB6813409BB2002B0CBF012336
:105874000023DBB21A46FB799A42B6D000231846BD
:105884001037BD4680BD80B584B000AFF860B96004
:105894007A603B6051E0FB681B685B6903F48063DA
:1058A400B3F5806F23D1FB681B681A68FB681B681B
:1058B40042F400721A60FB681B686FF480625A61DC
:1058C400FB6800221A63FB68202283F83D20FB68F2
:1058D400002283F83E20FB681B6C43F00402FB6843
:1058E4001A64FB68002283F83C20012346E07B68AD
:1058F400B3F1FF3F21D0FEF7E9F902463B68D31A22
:105904007A689A4202D37B68002B16D1FB68002286
:105914001A63FB68202283F83D20FB68002283F889
:105924003E20FB681B6C43F02002FB681A64FB6892
:10593400002283F83C20012320E0BB681B0CDBB26F
:10594400012B0CD1FB681B685B69DA43BB6813400D
:105954009BB2002B14BF01230023DBB20BE0FB68D6
:105964001B689B69DA43BB6813409BB2002B14BFCE
:1059740001230023DBB2002B8DD1002318461037FE
:10598400BD4680BD80B584B000AFF860B9607A6070
:105994002DE0F86800F0CEF80346002B01D0012377
:1059A4002DE0BB68B3F1FF3F21D0FEF78FF902462B
:1059B4007B68D31ABA689A4202D3BB68002B16D10B
:1059C400FB6800221A63FB68202283F83D20FB68F1
:1059D400002283F83E20FB681B6C43F02002FB6826
:1059E4001A64FB68002283F83C20012307E0FB686B
:1059F4001B685B6903F08003802BCAD1002318461F
:105A04001037BD4680BD80B584B000AFF860B96082
:105A14007A602DE0F86800F08DF80346002B01D081
:105A240001232DE0BB68B3F1FF3F21D0FEF74EF90F
:105A340002467B68D31ABA689A4202D3BB68002B29
:105A440016D1FB6800221A63FB68202283F83D20EC
:105A5400FB68002283F83E20FB681B6C43F02002A5
:105A6400FB681A64FB68002283F83C20012307E0EA
:105A7400FB681B685B6903F00403042BCAD1002391
:105A840018461037BD4680BD80B584B000AFF860BD
:105A9400B9607A6042E0FB681B685B6903F010033D
:105AA400102B19D1FB681B686FF010025A61FB6858
:105AB40000221A63FB68202283F83D20FB68002241
:105AC40083F83E20FB681A6CFB681A64FB680022AA
